{
  "address": "0xc2c63eaE915e8F2D87b7f122012C336Dcb160435",
  "abi": [
    {
      "inputs": [],
      "stateMutability": "nonpayable",
      "type": "constructor"
    },
    {
      "anonymous": false,
      "inputs": [
        {
          "indexed": false,
          "internalType": "address",
          "name": "previousAdmin",
          "type": "address"
        },
        {
          "indexed": false,
          "internalType": "address",
          "name": "newAdmin",
          "type": "address"
        }
      ],
      "name": "AdminChanged",
      "type": "event"
    },
    {
      "anonymous": false,
      "inputs": [
        {
          "indexed": true,
          "internalType": "address",
          "name": "beacon",
          "type": "address"
        }
      ],
      "name": "BeaconUpgraded",
      "type": "event"
    },
    {
      "anonymous": false,
      "inputs": [
        {
          "indexed": true,
          "internalType": "address",
          "name": "userTargetAddress",
          "type": "address"
        },
        {
          "indexed": true,
          "internalType": "address",
          "name": "_lockerTargetAddress",
          "type": "address"
        },
        {
          "indexed": false,
          "internalType": "bytes",
          "name": "lockerLockingScript",
          "type": "bytes"
        },
        {
          "indexed": false,
          "internalType": "uint256",
          "name": "requestIdOfLocker",
          "type": "uint256"
        }
      ],
      "name": "BurnDispute",
      "type": "event"
    },
    {
      "anonymous": false,
      "inputs": [
        {
          "indexed": true,
          "internalType": "address",
          "name": "userTargetAddress",
          "type": "address"
        },
        {
          "indexed": false,
          "internalType": "bytes",
          "name": "userScript",
          "type": "bytes"
        },
        {
          "indexed": false,
          "internalType": "enum ScriptTypes",
          "name": "scriptType",
          "type": "uint8"
        },
        {
          "indexed": false,
          "internalType": "uint256",
          "name": "coreBTCAmount",
          "type": "uint256"
        },
        {
          "indexed": false,
          "internalType": "uint256",
          "name": "burntAmount",
          "type": "uint256"
        },
        {
          "indexed": false,
          "internalType": "address",
          "name": "lockerTargetAddress",
          "type": "address"
        },
        {
          "indexed": false,
          "internalType": "uint256",
          "name": "requestIdOfLocker",
          "type": "uint256"
        },
        {
          "indexed": true,
          "internalType": "uint256",
          "name": "deadline",
          "type": "uint256"
        }
      ],
      "name": "CCBurn",
      "type": "event"
    },
    {
      "anonymous": false,
      "inputs": [
        {
          "indexed": false,
          "internalType": "uint8",
          "name": "version",
          "type": "uint8"
        }
      ],
      "name": "Initialized",
      "type": "event"
    },
    {
      "anonymous": false,
      "inputs": [
        {
          "indexed": false,
          "internalType": "address",
          "name": "_lockerTargetAddress",
          "type": "address"
        },
        {
          "indexed": false,
          "internalType": "bytes",
          "name": "lockerLockingScript",
          "type": "bytes"
        },
        {
          "indexed": false,
          "internalType": "uint256",
          "name": "blockHeight",
          "type": "uint256"
        },
        {
          "indexed": false,
          "internalType": "bytes32",
          "name": "txId",
          "type": "bytes32"
        },
        {
          "indexed": false,
          "internalType": "uint256",
          "name": "amount",
          "type": "uint256"
        }
      ],
      "name": "LockerDispute",
      "type": "event"
    },
    {
      "anonymous": false,
      "inputs": [
        {
          "indexed": false,
          "internalType": "uint256",
          "name": "oldBitcoinFee",
          "type": "uint256"
        },
        {
          "indexed": false,
          "internalType": "uint256",
          "name": "newBitcoinFee",
          "type": "uint256"
        }
      ],
      "name": "NewBitcoinFee",
      "type": "event"
    },
    {
      "anonymous": false,
      "inputs": [
        {
          "indexed": false,
          "internalType": "address",
          "name": "oldBitcoinFeeOracle",
          "type": "address"
        },
        {
          "indexed": false,
          "internalType": "address",
          "name": "newBitcoinFeeOracle",
          "type": "address"
        }
      ],
      "name": "NewBitcoinFeeOracle",
      "type": "event"
    },
    {
      "anonymous": false,
      "inputs": [
        {
          "indexed": false,
          "internalType": "address",
          "name": "oldCoreBTC",
          "type": "address"
        },
        {
          "indexed": false,
          "internalType": "address",
          "name": "newCoreBTC",
          "type": "address"
        }
      ],
      "name": "NewCoreBTC",
      "type": "event"
    },
    {
      "anonymous": false,
      "inputs": [
        {
          "indexed": false,
          "internalType": "address",
          "name": "oldLockers",
          "type": "address"
        },
        {
          "indexed": false,
          "internalType": "address",
          "name": "newLockers",
          "type": "address"
        }
      ],
      "name": "NewLockers",
      "type": "event"
    },
    {
      "anonymous": false,
      "inputs": [
        {
          "indexed": false,
          "internalType": "uint256",
          "name": "oldProtocolPercentageFee",
          "type": "uint256"
        },
        {
          "indexed": false,
          "internalType": "uint256",
          "name": "newProtocolPercentageFee",
          "type": "uint256"
        }
      ],
      "name": "NewProtocolPercentageFee",
      "type": "event"
    },
    {
      "anonymous": false,
      "inputs": [
        {
          "indexed": false,
          "internalType": "address",
          "name": "oldRelay",
          "type": "address"
        },
        {
          "indexed": false,
          "internalType": "address",
          "name": "newRelay",
          "type": "address"
        }
      ],
      "name": "NewRelay",
      "type": "event"
    },
    {
      "anonymous": false,
      "inputs": [
        {
          "indexed": false,
          "internalType": "address",
          "name": "oldSlasher",
          "type": "address"
        },
        {
          "indexed": false,
          "internalType": "address",
          "name": "newSlasher",
          "type": "address"
        }
      ],
      "name": "NewSlasher",
      "type": "event"
    },
    {
      "anonymous": false,
      "inputs": [
        {
          "indexed": false,
          "internalType": "uint256",
          "name": "oldSlasherPercentageFee",
          "type": "uint256"
        },
        {
          "indexed": false,
          "internalType": "uint256",
          "name": "newSlasherPercentageFee",
          "type": "uint256"
        }
      ],
      "name": "NewSlasherPercentageFee",
      "type": "event"
    },
    {
      "anonymous": false,
      "inputs": [
        {
          "indexed": false,
          "internalType": "uint256",
          "name": "oldTransferDeadline",
          "type": "uint256"
        },
        {
          "indexed": false,
          "internalType": "uint256",
          "name": "newTransferDeadline",
          "type": "uint256"
        }
      ],
      "name": "NewTransferDeadline",
      "type": "event"
    },
    {
      "anonymous": false,
      "inputs": [
        {
          "indexed": false,
          "internalType": "address",
          "name": "oldTreasury",
          "type": "address"
        },
        {
          "indexed": false,
          "internalType": "address",
          "name": "newTreasury",
          "type": "address"
        }
      ],
      "name": "NewTreasury",
      "type": "event"
    },
    {
      "anonymous": false,
      "inputs": [
        {
          "indexed": true,
          "internalType": "address",
          "name": "previousOwner",
          "type": "address"
        },
        {
          "indexed": true,
          "internalType": "address",
          "name": "newOwner",
          "type": "address"
        }
      ],
      "name": "OwnershipTransferStarted",
      "type": "event"
    },
    {
      "anonymous": false,
      "inputs": [
        {
          "indexed": true,
          "internalType": "address",
          "name": "previousOwner",
          "type": "address"
        },
        {
          "indexed": true,
          "internalType": "address",
          "name": "newOwner",
          "type": "address"
        }
      ],
      "name": "OwnershipTransferred",
      "type": "event"
    },
    {
      "anonymous": false,
      "inputs": [
        {
          "indexed": true,
          "internalType": "address",
          "name": "lockerTargetAddress",
          "type": "address"
        },
        {
          "indexed": false,
          "internalType": "uint256",
          "name": "requestIdOfLocker",
          "type": "uint256"
        },
        {
          "indexed": false,
          "internalType": "bytes32",
          "name": "bitcoinTxId",
          "type": "bytes32"
        },
        {
          "indexed": false,
          "internalType": "uint256",
          "name": "bitcoinTxOutputIndex",
          "type": "uint256"
        }
      ],
      "name": "PaidCCBurn",
      "type": "event"
    },
    {
      "anonymous": false,
      "inputs": [
        {
          "indexed": true,
          "internalType": "address",
          "name": "implementation",
          "type": "address"
        }
      ],
      "name": "Upgraded",
      "type": "event"
    },
    {
      "inputs": [],
      "name": "acceptOwnership",
      "outputs": [],
      "stateMutability": "nonpayable",
      "type": "function"
    },
    {
      "inputs": [],
      "name": "bitcoinFee",
      "outputs": [
        {
          "internalType": "uint256",
          "name": "",
          "type": "uint256"
        }
      ],
      "stateMutability": "view",
      "type": "function"
    },
    {
      "inputs": [],
      "name": "bitcoinFeeOracle",
      "outputs": [
        {
          "internalType": "address",
          "name": "",
          "type": "address"
        }
      ],
      "stateMutability": "view",
      "type": "function"
    },
    {
      "inputs": [
        {
          "internalType": "bytes",
          "name": "_tx",
          "type": "bytes"
        },
        {
          "internalType": "uint256",
          "name": "_blockNumber",
          "type": "uint256"
        },
        {
          "internalType": "bytes",
          "name": "_intermediateNodes",
          "type": "bytes"
        },
        {
          "internalType": "uint256",
          "name": "_index",
          "type": "uint256"
        },
        {
          "internalType": "bytes",
          "name": "_lockerLockingScript",
          "type": "bytes"
        },
        {
          "internalType": "uint256[]",
          "name": "_burnReqIndexes",
          "type": "uint256[]"
        },
        {
          "internalType": "uint256[]",
          "name": "_voutIndexes",
          "type": "uint256[]"
        }
      ],
      "name": "burnProof",
      "outputs": [
        {
          "internalType": "bool",
          "name": "",
          "type": "bool"
        }
      ],
      "stateMutability": "nonpayable",
      "type": "function"
    },
    {
      "inputs": [
        {
          "internalType": "address",
          "name": "",
          "type": "address"
        }
      ],
      "name": "burnRequestCounter",
      "outputs": [
        {
          "internalType": "uint256",
          "name": "",
          "type": "uint256"
        }
      ],
      "stateMutability": "view",
      "type": "function"
    },
    {
      "inputs": [
        {
          "internalType": "address",
          "name": "",
          "type": "address"
        },
        {
          "internalType": "uint256",
          "name": "",
          "type": "uint256"
        }
      ],
      "name": "burnRequests",
      "outputs": [
        {
          "internalType": "uint256",
          "name": "amount",
          "type": "uint256"
        },
        {
          "internalType": "uint256",
          "name": "burntAmount",
          "type": "uint256"
        },
        {
          "internalType": "address",
          "name": "sender",
          "type": "address"
        },
        {
          "internalType": "bytes",
          "name": "userScript",
          "type": "bytes"
        },
        {
          "internalType": "uint256",
          "name": "deadline",
          "type": "uint256"
        },
        {
          "internalType": "bool",
          "name": "isTransferred",
          "type": "bool"
        },
        {
          "internalType": "enum ScriptTypes",
          "name": "scriptType",
          "type": "uint8"
        },
        {
          "internalType": "uint256",
          "name": "requestIdOfLocker",
          "type": "uint256"
        }
      ],
      "stateMutability": "view",
      "type": "function"
    },
    {
      "inputs": [
        {
          "internalType": "uint256",
          "name": "_amount",
          "type": "uint256"
        },
        {
          "internalType": "bytes",
          "name": "_userScript",
          "type": "bytes"
        },
        {
          "internalType": "enum ScriptTypes",
          "name": "_scriptType",
          "type": "uint8"
        },
        {
          "internalType": "bytes",
          "name": "_lockerLockingScript",
          "type": "bytes"
        }
      ],
      "name": "ccBurn",
      "outputs": [
        {
          "internalType": "uint256",
          "name": "",
          "type": "uint256"
        }
      ],
      "stateMutability": "nonpayable",
      "type": "function"
    },
    {
      "inputs": [],
      "name": "coreBTC",
      "outputs": [
        {
          "internalType": "address",
          "name": "",
          "type": "address"
        }
      ],
      "stateMutability": "view",
      "type": "function"
    },
    {
      "inputs": [
        {
          "internalType": "bytes",
          "name": "_lockerLockingScript",
          "type": "bytes"
        },
        {
          "internalType": "uint256[]",
          "name": "_indices",
          "type": "uint256[]"
        }
      ],
      "name": "disputeBurn",
      "outputs": [],
      "stateMutability": "nonpayable",
      "type": "function"
    },
    {
      "inputs": [
        {
          "internalType": "bytes",
          "name": "_lockerLockingScript",
          "type": "bytes"
        },
        {
          "internalType": "bytes",
          "name": "_inputTx",
          "type": "bytes"
        },
        {
          "internalType": "bytes",
          "name": "_outputTx",
          "type": "bytes"
        },
        {
          "internalType": "bytes",
          "name": "_inputIntermediateNodes",
          "type": "bytes"
        },
        {
          "internalType": "uint256[]",
          "name": "_indexesAndBlockNumbers",
          "type": "uint256[]"
        }
      ],
      "name": "disputeLocker",
      "outputs": [],
      "stateMutability": "nonpayable",
      "type": "function"
    },
    {
      "inputs": [
        {
          "internalType": "uint256",
          "name": "_startingBlockNumber",
          "type": "uint256"
        },
        {
          "internalType": "address",
          "name": "_relay",
          "type": "address"
        },
        {
          "internalType": "address",
          "name": "_lockers",
          "type": "address"
        },
        {
          "internalType": "address",
          "name": "_treasury",
          "type": "address"
        },
        {
          "internalType": "address",
          "name": "_coreBTC",
          "type": "address"
        },
        {
          "internalType": "uint256",
          "name": "_transferDeadline",
          "type": "uint256"
        },
        {
          "internalType": "uint256",
          "name": "_protocolPercentageFee",
          "type": "uint256"
        },
        {
          "internalType": "uint256",
          "name": "_slasherPercentageReward",
          "type": "uint256"
        },
        {
          "internalType": "uint256",
          "name": "_bitcoinFee",
          "type": "uint256"
        }
      ],
      "name": "initialize",
      "outputs": [],
      "stateMutability": "nonpayable",
      "type": "function"
    },
    {
      "inputs": [
        {
          "internalType": "address",
          "name": "_lockerTargetAddress",
          "type": "address"
        },
        {
          "internalType": "uint256",
          "name": "_index",
          "type": "uint256"
        }
      ],
      "name": "isTransferred",
      "outputs": [
        {
          "internalType": "bool",
          "name": "",
          "type": "bool"
        }
      ],
      "stateMutability": "view",
      "type": "function"
    },
    {
      "inputs": [
        {
          "internalType": "bytes32",
          "name": "",
          "type": "bytes32"
        }
      ],
      "name": "isUsedAsBurnProof",
      "outputs": [
        {
          "internalType": "bool",
          "name": "",
          "type": "bool"
        }
      ],
      "stateMutability": "view",
      "type": "function"
    },
    {
      "inputs": [],
      "name": "lockers",
      "outputs": [
        {
          "internalType": "address",
          "name": "",
          "type": "address"
        }
      ],
      "stateMutability": "view",
      "type": "function"
    },
    {
      "inputs": [],
      "name": "owner",
      "outputs": [
        {
          "internalType": "address",
          "name": "",
          "type": "address"
        }
      ],
      "stateMutability": "view",
      "type": "function"
    },
    {
      "inputs": [],
      "name": "pendingOwner",
      "outputs": [
        {
          "internalType": "address",
          "name": "",
          "type": "address"
        }
      ],
      "stateMutability": "view",
      "type": "function"
    },
    {
      "inputs": [],
      "name": "protocolPercentageFee",
      "outputs": [
        {
          "internalType": "uint256",
          "name": "",
          "type": "uint256"
        }
      ],
      "stateMutability": "view",
      "type": "function"
    },
    {
      "inputs": [],
      "name": "proxiableUUID",
      "outputs": [
        {
          "internalType": "bytes32",
          "name": "",
          "type": "bytes32"
        }
      ],
      "stateMutability": "view",
      "type": "function"
    },
    {
      "inputs": [],
      "name": "relay",
      "outputs": [
        {
          "internalType": "address",
          "name": "",
          "type": "address"
        }
      ],
      "stateMutability": "view",
      "type": "function"
    },
    {
      "inputs": [],
      "name": "renounceOwnership",
      "outputs": [],
      "stateMutability": "nonpayable",
      "type": "function"
    },
    {
      "inputs": [
        {
          "internalType": "uint256",
          "name": "_bitcoinFee",
          "type": "uint256"
        }
      ],
      "name": "setBitcoinFee",
      "outputs": [],
      "stateMutability": "nonpayable",
      "type": "function"
    },
    {
      "inputs": [
        {
          "internalType": "address",
          "name": "_bitcoinFeeOracle",
          "type": "address"
        }
      ],
      "name": "setBitcoinFeeOracle",
      "outputs": [],
      "stateMutability": "nonpayable",
      "type": "function"
    },
    {
      "inputs": [
        {
          "internalType": "address",
          "name": "_coreBTC",
          "type": "address"
        }
      ],
      "name": "setCoreBTC",
      "outputs": [],
      "stateMutability": "nonpayable",
      "type": "function"
    },
    {
      "inputs": [
        {
          "internalType": "address",
          "name": "_lockers",
          "type": "address"
        }
      ],
      "name": "setLockers",
      "outputs": [],
      "stateMutability": "nonpayable",
      "type": "function"
    },
    {
      "inputs": [
        {
          "internalType": "uint256",
          "name": "_protocolPercentageFee",
          "type": "uint256"
        }
      ],
      "name": "setProtocolPercentageFee",
      "outputs": [],
      "stateMutability": "nonpayable",
      "type": "function"
    },
    {
      "inputs": [
        {
          "internalType": "address",
          "name": "_relay",
          "type": "address"
        }
      ],
      "name": "setRelay",
      "outputs": [],
      "stateMutability": "nonpayable",
      "type": "function"
    },
    {
      "inputs": [
        {
          "internalType": "address",
          "name": "_slasher",
          "type": "address"
        }
      ],
      "name": "setSlasher",
      "outputs": [],
      "stateMutability": "nonpayable",
      "type": "function"
    },
    {
      "inputs": [
        {
          "internalType": "uint256",
          "name": "_slasherPercentageReward",
          "type": "uint256"
        }
      ],
      "name": "setSlasherPercentageReward",
      "outputs": [],
      "stateMutability": "nonpayable",
      "type": "function"
    },
    {
      "inputs": [
        {
          "internalType": "uint256",
          "name": "_startingBlockNumber",
          "type": "uint256"
        }
      ],
      "name": "setStartingBlockNumber",
      "outputs": [],
      "stateMutability": "nonpayable",
      "type": "function"
    },
    {
      "inputs": [
        {
          "internalType": "uint256",
          "name": "_transferDeadline",
          "type": "uint256"
        }
      ],
      "name": "setTransferDeadline",
      "outputs": [],
      "stateMutability": "nonpayable",
      "type": "function"
    },
    {
      "inputs": [
        {
          "internalType": "address",
          "name": "_treasury",
          "type": "address"
        }
      ],
      "name": "setTreasury",
      "outputs": [],
      "stateMutability": "nonpayable",
      "type": "function"
    },
    {
      "inputs": [],
      "name": "slasher",
      "outputs": [
        {
          "internalType": "address",
          "name": "",
          "type": "address"
        }
      ],
      "stateMutability": "view",
      "type": "function"
    },
    {
      "inputs": [],
      "name": "slasherPercentageReward",
      "outputs": [
        {
          "internalType": "uint256",
          "name": "",
          "type": "uint256"
        }
      ],
      "stateMutability": "view",
      "type": "function"
    },
    {
      "inputs": [],
      "name": "startingBlockNumber",
      "outputs": [
        {
          "internalType": "uint256",
          "name": "",
          "type": "uint256"
        }
      ],
      "stateMutability": "view",
      "type": "function"
    },
    {
      "inputs": [],
      "name": "transferDeadline",
      "outputs": [
        {
          "internalType": "uint256",
          "name": "",
          "type": "uint256"
        }
      ],
      "stateMutability": "view",
      "type": "function"
    },
    {
      "inputs": [
        {
          "internalType": "address",
          "name": "newOwner",
          "type": "address"
        }
      ],
      "name": "transferOwnership",
      "outputs": [],
      "stateMutability": "nonpayable",
      "type": "function"
    },
    {
      "inputs": [],
      "name": "treasury",
      "outputs": [
        {
          "internalType": "address",
          "name": "",
          "type": "address"
        }
      ],
      "stateMutability": "view",
      "type": "function"
    },
    {
      "inputs": [
        {
          "internalType": "address",
          "name": "newImplementation",
          "type": "address"
        }
      ],
      "name": "upgradeTo",
      "outputs": [],
      "stateMutability": "nonpayable",
      "type": "function"
    },
    {
      "inputs": [
        {
          "internalType": "address",
          "name": "newImplementation",
          "type": "address"
        },
        {
          "internalType": "bytes",
          "name": "data",
          "type": "bytes"
        }
      ],
      "name": "upgradeToAndCall",
      "outputs": [],
      "stateMutability": "payable",
      "type": "function"
    },
    {
      "stateMutability": "payable",
      "type": "receive"
    }
  ],
  "transactionHash": "0xa573609e9ddb5abcfc5d05b8838b04e6eac819e69b9bf1f5c221880e3ead51a1",
  "args": [],
  "numDeployments": 1,
  "solcInputHash": "ac9518c8ccc368e962d7847f9baaffac",
  "bytecode": "0x60a06040523060601b6080523480156200001857600080fd5b506200002362000029565b620000eb565b600e54610100900460ff1615620000965760405162461bcd60e51b815260206004820152602760248201527f496e697469616c697a61626c653a20636f6e747261637420697320696e697469604482015266616c697a696e6760c81b606482015260840160405180910390fd5b600e5460ff9081161015620000e957600e805460ff191660ff9081179091556040519081527f7f26b83ff96e1f2b6a682f133852f6798a09c465da95921460cefb38474024989060200160405180910390a15b565b60805160601c615f6562000126600039600081816108e30152818161092301528181610bfc01528181610c3c0152610ccf0152615f656000f3fe6080604052600436106102345760003560e01c806373532b2a1161012e578063b59589d1116100ab578063cdbe37411161006f578063cdbe374114610678578063e30c397814610698578063f0f44260146106b6578063f2fde38b146106d6578063f47e2240146106f657600080fd5b8063b59589d1146105ec578063b74d0d351461060c578063bed6a60214610622578063c19e86e714610638578063c805f68b1461065857600080fd5b8063930a60e8116100f2578063930a60e81461053f578063aabc24961461056c578063aea5f1541461058c578063b1344271146105ac578063b14d3532146105cc57600080fd5b806373532b2a146104ac57806379ba5097146104cc5780637ed55748146104e15780637ffe9a92146105015780638da5cb5b1461052157600080fd5b80634782bc36116101bc5780635c4f5f3e116101805780635c4f5f3e1461042157806361d027b3146104415780636b65227e1461046157806370872aa514610481578063715018a61461049757600080fd5b80634782bc36146103995780634be50e57146103b95780634f1ef286146103d957806350a05836146103ec57806352d1902d1461040c57600080fd5b80631e236168116102035780631e236168146102e35780631e7107c7146103235780633659cfe614610343578063419cba7f1461036357806343149dba1461037957600080fd5b80631812adb6146102405780631876dec4146102695780631a2783f2146102a15780631d927898146102c157600080fd5b3661023b57005b600080fd5b34801561024c57600080fd5b5061025660085481565b6040519081526020015b60405180910390f35b34801561027557600080fd5b50600154610289906001600160a01b031681565b6040516001600160a01b039091168152602001610260565b3480156102ad57600080fd5b50600254610289906001600160a01b031681565b3480156102cd57600080fd5b506102e16102dc3660046157a0565b61072a565b005b3480156102ef57600080fd5b506103136102fe366004615552565b600d6020526000908152604090205460ff1681565b6040519015158152602001610260565b34801561032f57600080fd5b506102e161033e366004615552565b6108c4565b34801561034f57600080fd5b506102e161035e366004615482565b6108d8565b34801561036f57600080fd5b5061025660095481565b34801561038557600080fd5b5061025661039436600461582a565b6109b5565b3480156103a557600080fd5b506102e16103b4366004615552565b610bcf565b3480156103c557600080fd5b506102e16103d4366004615482565b610be0565b6102e16103e73660046154ba565b610bf1565b3480156103f857600080fd5b50600454610289906001600160a01b031681565b34801561041857600080fd5b50610256610cc2565b34801561042d57600080fd5b506102e161043c366004615552565b610d75565b34801561044d57600080fd5b50600354610289906001600160a01b031681565b34801561046d57600080fd5b506102e161047c3660046156ca565b610d7e565b34801561048d57600080fd5b5061025660065481565b3480156104a357600080fd5b506102e161111d565b3480156104b857600080fd5b506102e16104c7366004615582565b611127565b3480156104d857600080fd5b506102e161176c565b3480156104ed57600080fd5b506102e16104fc366004615552565b6117e3565b34801561050d57600080fd5b5061031361051c366004615507565b6117f4565b34801561052d57600080fd5b506041546001600160a01b0316610289565b34801561054b57600080fd5b5061025661055a366004615482565b600c6020526000908152604090205481565b34801561057857600080fd5b506102e1610587366004615482565b61184c565b34801561059857600080fd5b506103136105a73660046155e7565b61185d565b3480156105b857600080fd5b50600554610289906001600160a01b031681565b3480156105d857600080fd5b506102e16105e7366004615482565b611c32565b3480156105f857600080fd5b50600054610289906001600160a01b031681565b34801561061857600080fd5b50610256600a5481565b34801561062e57600080fd5b5061025660075481565b34801561064457600080fd5b506102e1610653366004615482565b611c43565b34801561066457600080fd5b506102e1610673366004615482565b611c54565b34801561068457600080fd5b506102e1610693366004615552565b611c65565b3480156106a457600080fd5b506073546001600160a01b0316610289565b3480156106c257600080fd5b506102e16106d1366004615482565b611cc3565b3480156106e257600080fd5b506102e16106f1366004615482565b611cd4565b34801561070257600080fd5b50610716610711366004615507565b611d45565b604051610260989796959493929190615c6c565b600e54610100900460ff161580801561074a5750600e54600160ff909116105b806107645750303b1580156107645750600e5460ff166001145b6107cc5760405162461bcd60e51b815260206004820152602e60248201527f496e697469616c697a61626c653a20636f6e747261637420697320616c72656160448201526d191e481a5b9a5d1a585b1a5e995960921b60648201526084015b60405180910390fd5b600e805460ff1916600117905580156107ef57600e805461ff0019166101001790555b6107f7611e42565b6107ff611e71565b610807611ea0565b6108108a611ec7565b61081989611f29565b61082288611fba565b61082b8761204b565b610834866120dc565b61083d8561216d565b61084684612306565b61084f83612399565b6108588261242c565b61087261086d6041546001600160a01b031690565b61246d565b80156108b857600e805461ff0019169055604051600181527f7f26b83ff96e1f2b6a682f133852f6798a09c465da95921460cefb38474024989060200160405180910390a15b50505050505050505050565b6108cc6124d6565b6108d581611ec7565b50565b306001600160a01b037f00000000000000000000000000000000000000000000000000000000000000001614156109215760405162461bcd60e51b81526004016107c390615b14565b7f00000000000000000000000000000000000000000000000000000000000000006001600160a01b031661096a600080516020615ee9833981519152546001600160a01b031690565b6001600160a01b0316146109905760405162461bcd60e51b81526004016107c390615b60565b61099981612530565b604080516000808252602082019092526108d591839190612538565b60006109bf6126b2565b6002546001600160a01b03166323b872dd336040516001600160e01b031960e084901b1681526001600160a01b03909116600482015230602482015260448101899052606401602060405180830381600087803b158015610a1f57600080fd5b505af1158015610a33573d6000803e3d6000fd5b505050506040513d601f19601f82011682018060405250810190610a579190615532565b610aa35760405162461bcd60e51b815260206004820152601f60248201527f4275726e526f757465723a207472616e7366657246726f6d206661696c65640060448201526064016107c3565b600080610ab3888888888861270c565b6001600160a01b0381166000908152600b60205260409020805492945090925090610ae090600190615df1565b81548110610afe57634e487b7160e01b600052603260045260246000fd5b906000526020600020906007020160040154610b173390565b6001600160a01b038381166000908152600b60205260409020805492909116917fa5604974ff4182d74f6ab1839735f791628aa9385060f8cc07a20d415b540295918b918b918e9189918991610b6f90600190615df1565b81548110610b8d57634e487b7160e01b600052603260045260246000fd5b906000526020600020906007020160060154604051610bb196959493929190615a10565b60405180910390a3509050610bc6600160a555565b95945050505050565b610bd76124d6565b6108d581612399565b610be86124d6565b6108d5816120dc565b306001600160a01b037f0000000000000000000000000000000000000000000000000000000000000000161415610c3a5760405162461bcd60e51b81526004016107c390615b14565b7f00000000000000000000000000000000000000000000000000000000000000006001600160a01b0316610c83600080516020615ee9833981519152546001600160a01b031690565b6001600160a01b031614610ca95760405162461bcd60e51b81526004016107c390615b60565b610cb282612530565b610cbe82826001612538565b5050565b6000306001600160a01b037f00000000000000000000000000000000000000000000000000000000000000001614610d625760405162461bcd60e51b815260206004820152603860248201527f555550535570677261646561626c653a206d757374206e6f742062652063616c60448201527f6c6564207468726f7567682064656c656761746563616c6c000000000000000060648201526084016107c3565b50600080516020615ee983398151915290565b6108d58161216d565b610d866126b2565b6005546001600160a01b03163314610db05760405162461bcd60e51b81526004016107c390615bac565b60015460405163aff2faa360e01b81526001600160a01b039091169063aff2faa390610de0908a906004016159fd565b60206040518083038186803b158015610df857600080fd5b505afa158015610e0c573d6000803e3d6000fd5b505050506040513d601f19601f82011682018060405250810190610e309190615532565b610e4c5760405162461bcd60e51b81526004016107c390615bf1565b6000610e8d87878080601f016020809104026020016040519081016040528093929190818152602001838380828437600092019190915250612a3092505050565b60075460005460065460405163d257a06160e01b8152939450733E4cBFb64D61a945c8a0049Bd8bAEFF239ba15179363d257a06193610ee693600d9391926001600160a01b03909116919088908b908b90600401615a5f565b60006040518083038186803b158015610efe57600080fd5b505af4158015610f12573d6000803e3d6000fd5b50505050600080610f5889898080601f016020809104026020016040519081016040528093929190818152602001838380828437600092019190915250612afe92505050565b509250925050600080610f938487600081518110610f8657634e487b7160e01b600052603260045260246000fd5b6020026020010151612c74565b91509150610fd689898080601f016020809104026020016040519081016040528093929190818152602001838380828437600092019190915250612a3092505050565b82146110245760405162461bcd60e51b815260206004820152601b60248201527f4275726e526f757465723a2077726f6e67206f7574707574207478000000000060448201526064016107c3565b60006110658a8a8080601f016020809104026020016040519081016040528093929190818152602001838380828437600092019190915250612afe92505050565b50925050508c8051906020012061107c8284612ccf565b80519060200120146110d05760405162461bcd60e51b815260206004820152601a60248201527f4275726e526f757465723a206e6f7420666f72206c6f636b657200000000000060448201526064016107c3565b611104848e888a6002815181106110f757634e487b7160e01b600052603260045260246000fd5b6020026020010151612cfb565b505050505050611114600160a555565b50505050505050565b6111256124d6565b565b61112f6126b2565b6005546001600160a01b031633146111595760405162461bcd60e51b81526004016107c390615bac565b60015460405163aff2faa360e01b81526001600160a01b039091169063aff2faa39061118b90869086906004016159c5565b60206040518083038186803b1580156111a357600080fd5b505afa1580156111b7573d6000803e3d6000fd5b505050506040513d601f19601f820116820180604052508101906111db9190615532565b6111f75760405162461bcd60e51b81526004016107c390615bf1565b60015460405163626885b560e11b81526000916001600160a01b03169063c4d10b6a9061122a90879087906004016159c5565b60206040518083038186803b15801561124257600080fd5b505afa158015611256573d6000803e3d6000fd5b505050506040513d601f19601f8201168201806040525081019061127a919061549e565b905060005b825181101561175b57733E4cBFb64D61a945c8a0049Bd8bAEFF239ba15176352335c02600b848685815181106112c557634e487b7160e01b600052603260045260246000fd5b60209081029190910101516007546000546040516310889dc360e01b81526001600160a01b039091166004820152733E4cBFb64D61a945c8a0049Bd8bAEFF239ba1517906310889dc39060240160206040518083038186803b15801561132a57600080fd5b505af415801561133e573d6000803e3d6000fd5b505050506040513d601f19601f82011682018060405250810190611362919061556a565b6006546040516001600160e01b031960e089901b16815260048101969096526001600160a01b03909416602486015260448501929092526064840152608483015260a482015260c40160006040518083038186803b1580156113c357600080fd5b505af41580156113d7573d6000803e3d6000fd5b50506001546009546001600160a01b038681166000908152600b602052604090208851919093169450631697565b93508692612710929189908890811061142e57634e487b7160e01b600052603260045260246000fd5b60200260200101518154811061145457634e487b7160e01b600052603260045260246000fd5b9060005260206000209060070201600001546114709190615da9565b61147a9190615d89565b336001600160a01b0387166000908152600b6020526040902088518990889081106114b557634e487b7160e01b600052603260045260246000fd5b6020026020010151815481106114db57634e487b7160e01b600052603260045260246000fd5b906000526020600020906007020160000154600b6000896001600160a01b03166001600160a01b0316815260200190815260200160002089888151811061153257634e487b7160e01b600052603260045260246000fd5b60200260200101518154811061155857634e487b7160e01b600052603260045260246000fd5b600091825260209091206007909102016002015460405160e087901b6001600160e01b03191681526001600160a01b03958616600482015260248101949094529184166044840152606483015291909116608482015260a401602060405180830381600087803b1580156115cb57600080fd5b505af11580156115df573d6000803e3d6000fd5b505050506040513d601f19601f820116820180604052508101906116039190615532565b506001600160a01b0382166000818152600b60205260409020845185908490811061163e57634e487b7160e01b600052603260045260246000fd5b60200260200101518154811061166457634e487b7160e01b600052603260045260246000fd5b906000526020600020906007020160020160009054906101000a90046001600160a01b03166001600160a01b03167f58c23b4ae0617be275628875bcfd65759a441263099a256eeb27899fb5dd846d8787600b6000886001600160a01b03166001600160a01b031681526020019081526020016000208887815181106116fa57634e487b7160e01b600052603260045260246000fd5b60200260200101518154811061172057634e487b7160e01b600052603260045260246000fd5b906000526020600020906007020160060154604051611741939291906159d9565b60405180910390a38061175381615e8c565b91505061127f565b5050611767600160a555565b505050565b60735433906001600160a01b031681146117da5760405162461bcd60e51b815260206004820152602960248201527f4f776e61626c6532537465703a2063616c6c6572206973206e6f7420746865206044820152683732bb9037bbb732b960b91b60648201526084016107c3565b6108d581612ec7565b6117eb6124d6565b6108d581612306565b6001600160a01b0382166000908152600b6020526040812080548390811061182c57634e487b7160e01b600052603260045260246000fd5b600091825260209091206005600790920201015460ff1690505b92915050565b6118546124d6565b6108d581612ee0565b60006118676126b2565b6006548710156118b95760405162461bcd60e51b815260206004820152601760248201527f4275726e526f757465723a206f6c64207265717565737400000000000000000060448201526064016107c3565b6000806118fb8b8b8080601f016020809104026020016040519081016040528093929190818152602001838380828437600092019190915250612afe92505050565b9350935050508063ffffffff166000146119575760405162461bcd60e51b815260206004820152601e60248201527f4275726e526f757465723a206e6f6e2d7a65726f206c6f636b2074696d65000060448201526064016107c3565b60015460405163aff2faa360e01b81526001600160a01b039091169063aff2faa3906119879089906004016159fd565b60206040518083038186803b15801561199f57600080fd5b505afa1580156119b3573d6000803e3d6000fd5b505050506040513d601f19601f820116820180604052508101906119d79190615532565b6119f35760405162461bcd60e51b81526004016107c390615bf1565b8351855114611a445760405162461bcd60e51b815260206004820152601960248201527f4275726e526f757465723a2077726f6e6720696e64657865730000000000000060448201526064016107c3565b6000611a858c8c8080601f016020809104026020016040519081016040528093929190818152602001838380828437600092019190915250612a3092505050565b600054604051637ebc232760e01b8152919250733E4cBFb64D61a945c8a0049Bd8bAEFF239ba151791637ebc232791611ad4916001600160a01b039091169085908f908f908f90600401615945565b60206040518083038186803b158015611aec57600080fd5b505af4158015611b00573d6000803e3d6000fd5b505050506040513d601f19601f82011682018060405250810190611b249190615532565b611b705760405162461bcd60e51b815260206004820152601960248201527f4275726e526f757465723a206e6f742066696e616c697a65640000000000000060448201526064016107c3565b60015460405163626885b560e11b81526000916001600160a01b03169063c4d10b6a90611ba1908b906004016159fd565b60206040518083038186803b158015611bb957600080fd5b505afa158015611bcd573d6000803e3d6000fd5b505050506040513d601f19601f82011682018060405250810190611bf1919061549e565b90506000611c03838d84888c8c612f49565b9050611c13600d82878c87613431565b600195505050505050611c26600160a555565b98975050505050505050565b611c3a6124d6565b6108d581611fba565b611c4b6124d6565b6108d58161246d565b611c5c6124d6565b6108d581611f29565b60045433906001600160a01b03168114611cba5760405162461bcd60e51b81526020600482015260166024820152754275726e526f757465723a206e6f74206f7261636c6560501b60448201526064016107c3565b610cbe8261242c565b611ccb6124d6565b6108d58161204b565b611cdc6124d6565b607380546001600160a01b0383166001600160a01b03199091168117909155611d0d6041546001600160a01b031690565b6001600160a01b03167f38d16b8cac22d99fc7c124b9cd0de2d3fa1faef420bfe791d8c362d765e2270060405160405180910390a350565b600b6020528160005260406000208181548110611d6157600080fd5b600091825260209091206007909102018054600182015460028301546003840180549396509194506001600160a01b03169291611d9d90615e57565b80601f0160208091040260200160405190810160405280929190818152602001828054611dc990615e57565b8015611e165780601f10611deb57610100808354040283529160200191611e16565b820191906000526020600020905b815481529060010190602001808311611df957829003601f168201915b505050600484015460058501546006909501549394909360ff8083169450610100909204909116915088565b600e54610100900460ff16611e695760405162461bcd60e51b81526004016107c390615c21565b6111256134ba565b600e54610100900460ff16611e985760405162461bcd60e51b81526004016107c390615c21565b6111256134ea565b600e54610100900460ff166111255760405162461bcd60e51b81526004016107c390615c21565b6006548111611f245760405162461bcd60e51b815260206004820152602360248201527f4275726e526f757465723a206c6f77207374617274696e67426c6f636b4e756d6044820152623132b960e91b60648201526084016107c3565b600655565b806001600160a01b038116611f505760405162461bcd60e51b81526004016107c390615add565b600054604080516001600160a01b03928316815291841660208301527f4c28a3f61a715259c4dc930c23e7423b8fa52e13232c061a6e488729c66184f4910160405180910390a150600080546001600160a01b0319166001600160a01b0392909216919091179055565b806001600160a01b038116611fe15760405162461bcd60e51b81526004016107c390615add565b600154604080516001600160a01b03928316815291841660208301527ffa021c2ec0f46429a53e7f88b88065e40001f50c9d38b2e8b713beaf9828d4c3910160405180910390a150600180546001600160a01b0319166001600160a01b0392909216919091179055565b806001600160a01b0381166120725760405162461bcd60e51b81526004016107c390615add565b600354604080516001600160a01b03928316815291841660208301527f567657fa3f286518b318f4a29870674f433f622fdfc819691acb13105b228225910160405180910390a150600380546001600160a01b0319166001600160a01b0392909216919091179055565b806001600160a01b0381166121035760405162461bcd60e51b81526004016107c390615add565b600254604080516001600160a01b03928316815291841660208301527ff1253c5d33616f62c4ae5b08481b0df4900a6eb1391d7d96098bf578bb314c52910160405180910390a150600280546001600160a01b0319166001600160a01b0392909216919091179055565b600080546040516353bcd1c960e11b81526001600160a01b039091166004820152733E4cBFb64D61a945c8a0049Bd8bAEFF239ba15179063a779a3929060240160206040518083038186803b1580156121c557600080fd5b505af41580156121d9573d6000803e3d6000fd5b505050506040513d601f19601f820116820180604052508101906121fd919061556a565b90506122116041546001600160a01b031690565b6001600160a01b0316336001600160a01b03161480612231575080600754105b6122755760405162461bcd60e51b8152602060048201526015602482015274109d5c9b949bdd5d195c8e881b9bc81c195c9b5a5d605a1b60448201526064016107c3565b8082116122c45760405162461bcd60e51b815260206004820152601860248201527f4275726e526f757465723a206c6f7720646561646c696e65000000000000000060448201526064016107c3565b60075460408051918252602082018490527f92c10a242ca42973030420e2ee32b3ba7818cc643f896958f620c606cf300416910160405180910390a150600755565b8061271010156123585760405162461bcd60e51b815260206004820152601760248201527f4275726e526f757465723a20696e76616c69642066656500000000000000000060448201526064016107c3565b60085460408051918252602082018390527f7d205f60891f60851c61cd244ba387d72b6589e7c0ac41b9d909ab0ce2c2a53b910160405180910390a1600855565b8061271010156123eb5760405162461bcd60e51b815260206004820152601a60248201527f4275726e526f757465723a20696e76616c69642072657761726400000000000060448201526064016107c3565b60095460408051918252602082018390527faa50b3683e42a13535a5b9c2c32780cccf956fb546b523a3542ac4ad8b544f67910160405180910390a1600955565b600a5460408051918252602082018390527f47c5f9c13c35ebb166f6a8d8c56af73f8b323ac0fee7aec4a5e0490bbf67a4fe910160405180910390a1600a55565b600454604080516001600160a01b03928316815291831660208301527ff68296962c28bcee9d0e2e78c34b1ed65997ff5ce894f72e9165fbc75b937600910160405180910390a1600480546001600160a01b0319166001600160a01b0392909216919091179055565b6041546001600160a01b031633146111255760405162461bcd60e51b815260206004820181905260248201527f4f776e61626c653a2063616c6c6572206973206e6f7420746865206f776e657260448201526064016107c3565b6108d56124d6565b7f4910fdfa16fed3260ed0e7147f7cc6da11a60208b5b9406d12a635614ffd91435460ff161561256b5761176783613511565b826001600160a01b03166352d1902d6040518163ffffffff1660e01b815260040160206040518083038186803b1580156125a457600080fd5b505afa9250505080156125d4575060408051601f3d908101601f191682019092526125d19181019061556a565b60015b6126375760405162461bcd60e51b815260206004820152602e60248201527f45524331393637557067726164653a206e657720696d706c656d656e7461746960448201526d6f6e206973206e6f74205555505360901b60648201526084016107c3565b600080516020615ee983398151915281146126a65760405162461bcd60e51b815260206004820152602960248201527f45524331393637557067726164653a20756e737570706f727465642070726f786044820152681a58589b195555525160ba1b60648201526084016107c3565b506117678383836135ad565b600260a55414156127055760405162461bcd60e51b815260206004820152601f60248201527f5265656e7472616e637947756172643a207265656e7472616e742063616c6c0060448201526064016107c3565b600260a555565b60008061271986866135d8565b60015460405163aff2faa360e01b81526001600160a01b039091169063aff2faa39061274b90879087906004016159c5565b60206040518083038186803b15801561276357600080fd5b505afa158015612777573d6000803e3d6000fd5b505050506040513d601f19601f8201168201806040525081019061279b9190615532565b6127b75760405162461bcd60e51b81526004016107c390615bf1565b60015460405163626885b560e11b81526001600160a01b039091169063c4d10b6a906127e990879087906004016159c5565b60206040518083038186803b15801561280157600080fd5b505afa158015612815573d6000803e3d6000fd5b505050506040513d601f19601f82011682018060405250810190612839919061549e565b90506000612846886136f6565b60025460015460405163095ea7b360e01b81526001600160a01b03918216600482015260248101849052929350169063095ea7b390604401602060405180830381600087803b15801561289857600080fd5b505af11580156128ac573d6000803e3d6000fd5b505050506040513d601f19601f820116820180604052508101906128d09190615532565b5080600a54826128e09190615df1565b6001546040516338463cff60e01b81526001600160a01b03909116906338463cff90612914908a908a9088906004016159d9565b602060405180830381600087803b15801561292e57600080fd5b505af1158015612942573d6000803e3d6000fd5b505050506040513d601f19601f82011682018060405250810190612966919061556a565b6129709190615da9565b61297a9190615d89565b6000546040516310889dc360e01b81526001600160a01b039091166004820152909350612a1e90899085908a908a90733E4cBFb64D61a945c8a0049Bd8bAEFF239ba1517906310889dc39060240160206040518083038186803b1580156129e057600080fd5b505af41580156129f4573d6000803e3d6000fd5b505050506040513d601f19601f82011682018060405250810190612a18919061556a565b87613865565b509550959350505050565b600160a555565b600080600283604051612a439190615929565b602060405180830381855afa158015612a60573d6000803e3d6000fd5b5050506040513d601f19601f82011682018060405250810190612a83919061556a565b90506000600282604051602001612a9c91815260200190565b60408051601f1981840301815290829052612ab691615929565b602060405180830381855afa158015612ad3573d6000803e3d6000fd5b5050506040513d601f19601f82011682018060405250810190612af6919061556a565b949350505050565b600080808080612b0e8682613a35565b9050612b2b612b2662ffffff19831660006004613a50565b613b9d565b945060046000612b5a612b4b83601886901c6001600160601b0316615df1565b62ffffff198516906000613c06565b90506000612b6782613c3a565b9050612b80838260065b62ffffff198816929190613d16565b9650612b8c8184615cff565b9250612bb7612ba884601887901c6001600160601b0316615df1565b62ffffff198616906000613c06565b91506000612bc483613d90565b9050612bdd8482600f5b62ffffff198916929190613d16565b9650612be98185615cff565b9350612c00612b2662ffffff198716866004613a50565b9550601885901c6001600160601b0316612c1b856004615cff565b14612c685760405162461bcd60e51b815260206004820152601960248201527f426974636f696e48656c7065723a20696e76616c69642074780000000000000060448201526064016107c3565b50505050509193509193565b600080836006612c8c815b62ffffff19841690613e59565b506000612c998787613f33565b90506000612ca682614062565b9050612cb18161407f565b9550612cbc816140a1565b63ffffffff169450505050509250929050565b60606000612cdd84846140c6565b90506000612cea826141c7565b9050610bc662ffffff198216614210565b6000612d0685614260565b60015460405163626885b560e11b81526001600160401b039290921692506000916001600160a01b039091169063c4d10b6a90612d479088906004016159fd565b60206040518083038186803b158015612d5f57600080fd5b505afa158015612d73573d6000803e3d6000fd5b505050506040513d601f19601f82011682018060405250810190612d97919061549e565b6001546009549192506001600160a01b03169063b734de2690839061271090612dc09087615da9565b612dca9190615d89565b3360405160e085901b6001600160e01b03191681526001600160a01b0393841660048201526024810192909252909116604482015260648101859052608401602060405180830381600087803b158015612e2357600080fd5b505af1158015612e37573d6000803e3d6000fd5b505050506040513d601f19601f82011682018060405250810190612e5b9190615532565b507f7ff138134e34ccab071315c38e38eec079f54726b890304ab46e2c5ab6f722bb8186858761271060095488612e929190615da9565b612e9c9190615d89565b612ea69088615cff565b604051612eb7959493929190615984565b60405180910390a1505050505050565b607380546001600160a01b03191690556108d5816142d0565b600554604080516001600160a01b03928316815291831660208301527f70dd87e368b751b1ec25f431d88830b341864d01e2675c90b3f08e1e28dd2486910160405180910390a1600580546001600160a01b0319166001600160a01b0392909216919091179055565b60008080805b85518110156134245780612f8c57848181518110612f7d57634e487b7160e01b600052603260045260246000fd5b60200260200101519150613038565b81858281518110612fad57634e487b7160e01b600052603260045260246000fd5b60200260200101511161300d5760405162461bcd60e51b815260206004820152602260248201527f4275726e526f757465723a20756e2d736f7274656420766f757420696e646578604482015261657360f01b60648201526084016107c3565b84818151811061302d57634e487b7160e01b600052603260045260246000fd5b602002602001015191505b600086828151811061305a57634e487b7160e01b600052603260045260246000fd5b6020026020010151905089600b60008b6001600160a01b03166001600160a01b0316815260200190815260200160002082815481106130a957634e487b7160e01b600052603260045260246000fd5b9060005260206000209060070201600401541061341157613228888784815181106130e457634e487b7160e01b600052603260045260246000fd5b6020026020010151600b60008d6001600160a01b03166001600160a01b03168152602001908152602001600020848154811061313057634e487b7160e01b600052603260045260246000fd5b9060005260206000209060070201600301805461314c90615e57565b80601f016020809104026020016040519081016040528092919081815260200182805461317890615e57565b80156131c55780601f1061319a576101008083540402835291602001916131c5565b820191906000526020600020905b8154815290600101906020018083116131a857829003601f168201915b5050506001600160a01b038f166000908152600b602052604090208054909250879150811061320457634e487b7160e01b600052603260045260246000fd5b906000526020600020906007020160050160019054906101000a900460ff16614322565b6001600160401b0316935083600b60008b6001600160a01b03166001600160a01b03168152602001908152602001600020828154811061327857634e487b7160e01b600052603260045260246000fd5b90600052602060002090600702016001015414156134115761329b856001615cff565b6001600160a01b038a166000908152600b60205260409020805491965090829081106132d757634e487b7160e01b600052603260045260246000fd5b600091825260209091206005600790920201015460ff16613411576001600160a01b0389166000908152600b602052604090208054600191908390811061332e57634e487b7160e01b600052603260045260246000fd5b60009182526020808320600792909202909101600501805460ff1916931515939093179092556001600160a01b038b16808252600b9092526040902080547f1b46655c2f394f2191cb246d5982dbe00ad671f0b590e75e97c90ee97f1f782a9190849081106133ad57634e487b7160e01b600052603260045260246000fd5b9060005260206000209060070201600601548d8986815181106133e057634e487b7160e01b600052603260045260246000fd5b6020026020010151604051613408939291909283526020830191909152604082015260600190565b60405180910390a25b508061341c81615e8c565b915050612f4f565b5050509695505050505050565b600061343d8484614570565b6001600160401b0316905060006134538561463c565b9050811580159061346d57508061346b876001615cff565b145b15613490576000838152602088905260409020805460ff19166001179055611114565b80861415611114576000838152602088905260409020805460ff1916600117905550505050505050565b600e54610100900460ff166134e15760405162461bcd60e51b81526004016107c390615c21565b61112533612ec7565b600e54610100900460ff16612a295760405162461bcd60e51b81526004016107c390615c21565b6001600160a01b0381163b61357e5760405162461bcd60e51b815260206004820152602d60248201527f455243313936373a206e657720696d706c656d656e746174696f6e206973206e60448201526c1bdd08184818dbdb9d1c9858dd609a1b60648201526084016107c3565b600080516020615ee983398151915280546001600160a01b0319166001600160a01b0392909216919091179055565b6135b683614667565b6000825111806135c35750805b15611767576135d283836146a7565b50505050565b60008160058111156135fa57634e487b7160e01b600052602160045260246000fd5b14806136255750600481600581111561362357634e487b7160e01b600052602160045260246000fd5b145b8061364f5750600581600581111561364d57634e487b7160e01b600052602160045260246000fd5b145b156136a5578151602014610cbe5760405162461bcd60e51b815260206004820152601a60248201527f4275726e526f757465723a20696e76616c69642073637269707400000000000060448201526064016107c3565b8151601414610cbe5760405162461bcd60e51b815260206004820152601a60248201527f4275726e526f757465723a20696e76616c69642073637269707400000000000060448201526064016107c3565b6000806127106008548461370a9190615da9565b6137149190615d89565b9050600a5460026137259190615da9565b61372f9082615cff565b83116137765760405162461bcd60e51b8152602060048201526016602482015275109d5c9b949bdd5d195c8e881b1bddc8185b5bdd5b9d60521b60448201526064016107c3565b60006137828285615df1565b9050811561385e5760025460035460405163a9059cbb60e01b81526001600160a01b0391821660048201526024810185905291169063a9059cbb90604401602060405180830381600087803b1580156137da57600080fd5b505af11580156137ee573d6000803e3d6000fd5b505050506040513d601f19601f820116820180604052508101906138129190615532565b61385e5760405162461bcd60e51b815260206004820152601f60248201527f4275726e526f757465723a20666565207472616e73666572206661696c65640060448201526064016107c3565b9392505050565b604080516101008101825260006080820181905260a0820181905260c0820181815260e083019190915288825260208201889052339282019290925260608101869052908460058111156138c957634e487b7160e01b600052602160045260246000fd5b908160058111156138ea57634e487b7160e01b600052602160045260246000fd5b9052506007546138fa9084615cff565b6080820152600060a082018190526001600160a01b038316808252600c6020818152604084205460e086018190529290935290915261393a906001615cff565b6001600160a01b038381166000908152600c6020908152604080832094909455600b81528382208054600180820183559184529282902086516007909402019283558582015190830155928401516002820180546001600160a01b03191691909316179091556060830151805184936139ba9260038501929101906152c0565b506080820151600482015560a08201516005808301805492151560ff1984168117825560c086015193919261ff001990911661ffff199092169190911790610100908490811115613a1b57634e487b7160e01b600052602160045260246000fd5b021790555060e08201518160060155505050505050505050565b815160009060208401610bc664ffffffffff85168284614792565b6000612af6613a608585856147d6565b60008190506008817eff00ff00ff00ff00ff00ff00ff00ff00ff00ff00ff00ff00ff00ff00ff00ff16901b600882901c7eff00ff00ff00ff00ff00ff00ff00ff00ff00ff00ff00ff00ff00ff00ff00ff161790506010817dffff0000ffff0000ffff0000ffff0000ffff0000ffff0000ffff0000ffff16901b601082901c7dffff0000ffff0000ffff0000ffff0000ffff0000ffff0000ffff0000ffff161790506020817bffffffff00000000ffffffff00000000ffffffff00000000ffffffff16901b602082901c7bffffffff00000000ffffffff00000000ffffffff00000000ffffffff1617905060408177ffffffffffffffff0000000000000000ffffffffffffffff16901b604082901c77ffffffffffffffff0000000000000000ffffffffffffffff16179050608081901b608082901c179050919050565b600063ffffffff821115613c025760405162461bcd60e51b815260206004820152602660248201527f53616665436173743a2076616c756520646f65736e27742066697420696e203360448201526532206269747360d01b60648201526084016107c3565b5090565b6000612af68484613c208760181c6001600160601b031690565b6001600160601b0316613c339190615df1565b8585613d16565b6000601882901c6001600160601b0316613c5657506000919050565b6000613c6383600061492f565b9050601883901c6001600160601b03166001600160401b038216613c8b575060009392505050565b6000613c9683614a76565b60ff16905060005b836001600160401b0316811015613d0d57828210613cc25750600095945050505050565b6000613ce2613cd18486615df1565b60055b62ffffff198a169190613c06565b9050613ced81614acf565b613cf79084615cff565b9250508080613d0590615e8c565b915050613c9e565b50949350505050565b600080613d2c8660781c6001600160601b031690565b6001600160601b03169050613d4086614b23565b84613d4b8784615cff565b613d559190615cff565b1115613d685762ffffff19915050612af6565b613d728582615cff565b9050613d868364ffffffffff168286614792565b9695505050505050565b6000601882901c6001600160601b0316613dac57506000919050565b6000613db983600061492f565b9050601883901c6001600160601b03166001600160401b038216613de1575060009392505050565b6000613dec83614a76565b60ff16905060005b836001600160401b0316811015613d0d57828210613e185750600095945050505050565b6000613e2e613e278486615df1565b600e613cd4565b9050613e3981614b64565b613e439084615cff565b9250508080613e5190615e8c565b915050613df4565b6000613e658383614bad565b613f2c576000613e84613e788560d81c90565b64ffffffffff16614bd0565b9150506000613e998464ffffffffff16614bd0565b6040517f5479706520617373657274696f6e206661696c65642e20476f7420307800000060208201526001600160b01b031960b086811b8216603d8401526c05c408af0e0cac6e8cac84060f609b1b604784015283901b16605482015290925060009150605e015b60405160208183030381529060405290508060405162461bcd60e51b81526004016107c391906159fd565b5090919050565b6000826006613f4181612c7f565b506000613f4f86600061492f565b6001600160401b03169050601886901c6001600160601b0316818610613faa5760405162461bcd60e51b815260206004820152601060248201526f2b34b7103932b0b21037bb32b9393ab760811b60448201526064016107c3565b6000613fb583614a76565b60ff1690506000805b8881101561400d57613fe4613fd38486615df1565b60055b62ffffff198d169190613c06565b9150613fef82614acf565b613ff99084615cff565b9250614006600182615cff565b9050613fbe565b5061402c61401b8385615df1565b60055b62ffffff198c169190613c06565b9050600061403982614acf565b9050614052838260045b62ffffff198e16929190613d16565b975050505050505b505092915050565b600081600461407081612c7f565b50612af6600060246003612b71565b600081600361408d81612c7f565b50612af662ffffff198516600060206147d6565b60008160036140af81612c7f565b50612af6612b2662ffffff19861660206004613a50565b600082600f6140d481612c7f565b5060006140e286600061492f565b6001600160401b03169050601886901c6001600160601b031681861061413e5760405162461bcd60e51b81526020600482015260116024820152702b37baba103932b0b21037bb32b9393ab760791b60448201526064016107c3565b600061414983614a76565b60ff1690506000805b888110156141975761416e6141678486615df1565b600e613fd6565b915061417982614b64565b6141839084615cff565b9250614190600182615cff565b9050614152565b506141ac6141a58385615df1565b600e61401e565b905060006141b982614b64565b90506140528382600d614043565b600081600d6141d581612c7f565b5060006141e385600861492f565b9050610bc66141f182614a76565b6141fc906008615d42565b60ff166001600160401b0383166007612bce565b60606000806142288460181c6001600160601b031690565b60405193508392506001600160601b0316905061424f8461424a846020615cff565b614c7c565b508181016020016040529052919050565b600081600f61426e81612c7f565b5060008061427d86600061492f565b6001600160401b0316905060005b818110156142c65761429d87826140c6565b92506142a883614dd4565b6142b29087615d17565b9550806142be81615e8c565b91505061428b565b5050505050919050565b604180546001600160a01b038381166001600160a01b0319831681179093556040519116919082907f8be0079c531659141344cd1fd0a4f28419497f9722a3daafe3b4186f6b6457e090600090a35050565b600084600f61433081612c7f565b50600061433d88886140c6565b9050600061434a826141c7565b9050600586600581111561436e57634e487b7160e01b600052602160045260246000fd5b14156143d35761438762ffffff198216600260206147d6565b60405160200161439991815260200190565b604051602081830303815290604052805190602001208780519060200120146143c35760006143cc565b6143cc82614dd4565b9450614564565b60008660058111156143f557634e487b7160e01b600052602160045260246000fd5b141561440e5761438762ffffff198216600160206147d6565b600186600581111561443057634e487b7160e01b600052602160045260246000fd5b141561446f5761444762ffffff1982166003614df9565b604051602001614399919060609190911b6bffffffffffffffffffffffff1916815260140190565b600286600581111561449157634e487b7160e01b600052602160045260246000fd5b14156144a85761444762ffffff1982166002614df9565b60038660058111156144ca57634e487b7160e01b600052602160045260246000fd5b14156144e15761444762ffffff1982166002614df9565b600486600581111561450357634e487b7160e01b600052602160045260246000fd5b14156145645761451c62ffffff198216600260206147d6565b60405160200161452e91815260200190565b60405160208183030381529060405280519060200120878051906020012014614558576000614561565b61456182614dd4565b94505b50505050949350505050565b60008060008061458186600061492f565b6001600160401b0316905060005b81811015614632576145a187826140c6565b93506145ac846141c7565b9250856040516020016145bf9190615929565b604051602081830303815290604052805190602001206145e48462ffffff1916614210565b6040516020016145f49190615929565b6040516020818303038152906040528051906020012014156146205761461984614dd4565b9450614632565b8061462a81615e8c565b91505061458f565b5050505092915050565b600081600f61464a81612c7f565b5061465684600061492f565b6001600160401b0316949350505050565b61467081613511565b6040516001600160a01b038216907fbc7cd75a20ee27fd9adebab32041f755214dbc6bffa90cc0225b39da2e5c2d3b90600090a250565b60606001600160a01b0383163b61470f5760405162461bcd60e51b815260206004820152602660248201527f416464726573733a2064656c65676174652063616c6c20746f206e6f6e2d636f6044820152651b9d1c9858dd60d21b60648201526084016107c3565b600080846001600160a01b03168460405161472a9190615929565b600060405180830381855af49150503d8060008114614765576040519150601f19603f3d011682016040523d82523d6000602084013e61476a565b606091505b5091509150610bc68282604051806060016040528060278152602001615f0960279139614e07565b60008061479f8385615cff565b90506040518111156147af575060005b806147c15762ffffff1991505061385e565b5050606092831b9190911790911b1760181b90565b600060ff82166147e85750600061385e565b6147fb8460181c6001600160601b031690565b6001600160601b031661481160ff841685615cff565b11156148755761485c61482d8560781c6001600160601b031690565b6001600160601b03166148498660181c6001600160601b031690565b6001600160601b0316858560ff16614e20565b60405162461bcd60e51b81526004016107c391906159fd565b60208260ff1611156148ef5760405162461bcd60e51b815260206004820152603a60248201527f54797065644d656d566965772f696e646578202d20417474656d70746564207460448201527f6f20696e646578206d6f7265207468616e20333220627974657300000000000060648201526084016107c3565b6008820260006149088660781c6001600160601b031690565b6001600160601b031690506000600160ff1b60001984011d91909501511695945050505050565b60008061494462ffffff198516846001614f4a565b905060fc811161495f5761495781614f7a565b915050611846565b8060fd14156149c55761498d614988614979856001615cff565b62ffffff198716906002613a50565b614f7a565b915061499882614a76565b60ff166003146149c0576149be6149b962ffffff1986168560036000613d16565b614fe2565b505b614a6f565b8060fe1415614a1a576149ee6149886149df856001615cff565b62ffffff198716906004613a50565b91506149f982614a76565b60ff166005146149c0576149be6149b962ffffff1986168560056000613d16565b8060ff1415614a6f57614a43614988614a34856001615cff565b62ffffff198716906008613a50565b9150614a4e82614a76565b60ff16600914614a6f5761405a6149b962ffffff1986168560096000613d16565b5092915050565b600060fc826001600160401b031611614a9157506001919050565b61ffff826001600160401b031611614aab57506003919050565b63ffffffff826001600160401b031611614ac757506005919050565b506009919050565b6000816005614add81612c7f565b506000614aeb85602461492f565b9050806001600160401b0316614b0082614a76565b60ff16614b0d9190615cff565b614b18906024615cff565b610bc6906004615cff565b6000614b388260181c6001600160601b031690565b614b4b8360781c6001600160601b031690565b614b559190615d67565b6001600160601b031692915050565b600081600e614b7281612c7f565b506000614b8085600861492f565b9050806001600160401b0316614b9582614a76565b60ff16614ba29190615cff565b610bc6906008615cff565b60008164ffffffffff16614bc18460d81c90565b64ffffffffff16149392505050565b600080601f5b600f8160ff161115614c2e576000614bef826008615dc8565b60ff1685901c9050614c0081615069565b61ffff16841793508160ff16601014614c1b57601084901b93505b50614c27600182615e08565b9050614bd6565b50600f5b60ff8160ff161015614c765760ff600882021684901c614c5181615069565b61ffff16831792508160ff16600014614c6c57601083901b92505b5060001901614c32565b50915091565b600062ffffff198084161415614ce55760405162461bcd60e51b815260206004820152602860248201527f54797065644d656d566965772f636f7079546f202d204e756c6c20706f696e7460448201526732b9103232b932b360c11b60648201526084016107c3565b614cee8361509b565b614d4e5760405162461bcd60e51b815260206004820152602b60248201527f54797065644d656d566965772f636f7079546f202d20496e76616c696420706f60448201526a34b73a32b9103232b932b360a91b60648201526084016107c3565b6000614d638460181c6001600160601b031690565b6001600160601b031690506000614d838560781c6001600160601b031690565b6001600160601b031690506000604051905084811115614da35760206060fd5b8285848460045afa50613d86614db98760d81c90565b64ffffffffff60601b606091821b168717901b841760181b90565b600081600d614de281612c7f565b50612af661498862ffffff19861660006008613a50565b600061385e83836014614f4a565b60608315614e1657508161385e565b61385e83836150d9565b60606000614e2d86614bd0565b9150506000614e3b86614bd0565b9150506000614e4986614bd0565b9150506000614e5786614bd0565b604080517f54797065644d656d566965772f696e646578202d204f76657272616e20746865602082015274040ecd2caee5c40a6d8d2c6ca40d2e640c2e84060f605b1b818301526001600160d01b031960d098891b811660558301526e040eed2e8d040d8cadccee8d04060f608b1b605b830181905297891b8116606a8301527f2e20417474656d7074656420746f20696e646578206174206f666673657420306070830152600f60fb1b609083015295881b861660918201526097810196909652951b90921660a68401525050601760f91b60ac8201528151808203608d01815260ad90910190915295945050505050565b6000614f57826020615e08565b614f62906008615dc8565b60ff16614f708585856147d6565b901c949350505050565b60006001600160401b03821115613c025760405162461bcd60e51b815260206004820152602660248201527f53616665436173743a2076616c756520646f65736e27742066697420696e203660448201526534206269747360d01b60648201526084016107c3565b6060600061501661501182615003601887901c6001600160601b0316615103565b62ffffff1987169190614f4a565b614bd0565b6040517f4e6f6e2d6d696e696d616c2076617220696e742e20476f74203078000000000060208201526dffffffffffffffffffffffffffff19607083901b16603b82015290925060009150604d01613f01565b600061507b60048360ff16901c615164565b60ff1661ffff919091161760081b61509282615164565b60ff1617919050565b60006150a78260d81c90565b64ffffffffff1664ffffffffff14156150c257506000919050565b60006150cd83614b23565b60405110199392505050565b8151156150e95781518083602001fd5b8060405162461bcd60e51b81526004016107c391906159fd565b600060ff821115613c025760405162461bcd60e51b815260206004820152602560248201527f53616665436173743a2076616c756520646f65736e27742066697420696e2038604482015264206269747360d81b60648201526084016107c3565b600060f08083179060ff8216141561517f5750603092915050565b8060ff1660f114156151945750603192915050565b8060ff1660f214156151a95750603292915050565b8060ff1660f314156151be5750603392915050565b8060ff1660f414156151d35750603492915050565b8060ff1660f514156151e85750603592915050565b8060ff1660f614156151fd5750603692915050565b8060ff1660f714156152125750603792915050565b8060ff1660f814156152275750603892915050565b8060ff1660f9141561523c5750603992915050565b8060ff1660fa14156152515750606192915050565b8060ff1660fb14156152665750606292915050565b8060ff1660fc141561527b5750606392915050565b8060ff1660fd14156152905750606492915050565b8060ff1660fe14156152a55750606592915050565b8060ff1660ff14156152ba5750606692915050565b50919050565b8280546152cc90615e57565b90600052602060002090601f0160209004810192826152ee5760008555615334565b82601f1061530757805160ff1916838001178555615334565b82800160010185558215615334579182015b82811115615334578251825591602001919060010190615319565b50613c029291505b80821115613c02576000815560010161533c565b600082601f830112615360578081fd5b813560206001600160401b0382111561537b5761537b615ebd565b8160051b61538a828201615ccf565b8381528281019086840183880185018910156153a4578687fd5b8693505b858410156153c65780358352600193909301929184019184016153a8565b50979650505050505050565b60008083601f8401126153e3578182fd5b5081356001600160401b038111156153f9578182fd5b60208301915083602082850101111561541157600080fd5b9250929050565b600082601f830112615428578081fd5b81356001600160401b0381111561544157615441615ebd565b615454601f8201601f1916602001615ccf565b818152846020838601011115615468578283fd5b816020850160208301379081016020019190915292915050565b600060208284031215615493578081fd5b813561385e81615ed3565b6000602082840312156154af578081fd5b815161385e81615ed3565b600080604083850312156154cc578081fd5b82356154d781615ed3565b915060208301356001600160401b038111156154f1578182fd5b6154fd85828601615418565b9150509250929050565b60008060408385031215615519578182fd5b823561552481615ed3565b946020939093013593505050565b600060208284031215615543578081fd5b8151801515811461385e578182fd5b600060208284031215615563578081fd5b5035919050565b60006020828403121561557b578081fd5b5051919050565b600080600060408486031215615596578081fd5b83356001600160401b03808211156155ac578283fd5b6155b8878388016153d2565b909550935060208601359150808211156155d0578283fd5b506155dd86828701615350565b9150509250925092565b60008060008060008060008060e0898b031215615602578384fd5b88356001600160401b0380821115615618578586fd5b6156248c838d016153d2565b909a50985060208b0135975060408b0135915080821115615643578586fd5b61564f8c838d01615418565b965060608b0135955060808b013591508082111561566b578485fd5b6156778c838d01615418565b945060a08b013591508082111561568c578384fd5b6156988c838d01615350565b935060c08b01359150808211156156ad578283fd5b506156ba8b828c01615350565b9150509295985092959890939650565b600080600080600080600060a0888a0312156156e4578283fd5b87356001600160401b03808211156156fa578485fd5b6157068b838c01615418565b985060208a013591508082111561571b578485fd5b6157278b838c016153d2565b909850965060408a013591508082111561573f578485fd5b61574b8b838c016153d2565b909650945060608a0135915080821115615763578384fd5b61576f8b838c01615418565b935060808a0135915080821115615784578283fd5b506157918a828b01615350565b91505092959891949750929550565b60008060008060008060008060006101208a8c0312156157be578283fd5b8935985060208a01356157d081615ed3565b975060408a01356157e081615ed3565b965060608a01356157f081615ed3565b955060808a013561580081615ed3565b989b979a50959894979660a0860135965060c08601359560e0810135955061010001359350915050565b600080600080600060808688031215615841578283fd5b8535945060208601356001600160401b038082111561585e578485fd5b61586a89838a01615418565b9550604088013591506006821061587f578485fd5b90935060608701359080821115615894578283fd5b506158a1888289016153d2565b969995985093965092949392505050565b81835281816020850137506000828201602090810191909152601f909101601f19169091010190565b600081518084526158f3816020860160208601615e2b565b601f01601f19169290920160200192915050565b6006811061592557634e487b7160e01b600052602160045260246000fd5b9052565b6000825161593b818460208701615e2b565b9190910192915050565b60018060a01b038616815284602082015283604082015260a06060820152600061597260a08301856158db565b90508260808301529695505050505050565b6001600160a01b038616815260a0602082018190526000906159a8908301876158db565b604083019590955250606081019290925260809091015292915050565b602081526000612af66020830184866158b2565b6040815260006159ed6040830185876158b2565b9050826020830152949350505050565b60208152600061385e60208301846158db565b60c081526000615a2360c08301896158db565b9050615a326020830188615907565b604082019590955260608101939093526001600160a01b0391909116608083015260a09091015292915050565b87815260006020888184015260018060a01b038816604084015286606084015285608084015260e060a0840152615a9960e08401866158db565b83810360c0850152845180825282860191830190845b81811015615acb57835183529284019291840191600101615aaf565b50909c9b505050505050505050505050565b60208082526018908201527f4275726e526f757465723a207a65726f20616464726573730000000000000000604082015260600190565b6020808252602c908201527f46756e6374696f6e206d7573742062652063616c6c6564207468726f7567682060408201526b19195b1959d85d1958d85b1b60a21b606082015260800190565b6020808252602c908201527f46756e6374696f6e206d7573742062652063616c6c6564207468726f7567682060408201526b6163746976652070726f787960a01b606082015260800190565b60208082526025908201527f4275726e526f757465723a2063616c6c6572206973206e6f742074686520736c60408201526430b9b432b960d91b606082015260800190565b602080825260169082015275213ab9372937baba32b91d103737ba103637b1b5b2b960511b604082015260600190565b6020808252602b908201527f496e697469616c697a61626c653a20636f6e7472616374206973206e6f74206960408201526a6e697469616c697a696e6760a81b606082015260800190565b888152602081018890526001600160a01b038716604082015261010060608201819052600090615c9e838201896158db565b91505085608083015284151560a0830152615cbc60c0830185615907565b8260e08301529998505050505050505050565b604051601f8201601f191681016001600160401b0381118282101715615cf757615cf7615ebd565b604052919050565b60008219821115615d1257615d12615ea7565b500190565b60006001600160401b03808316818516808303821115615d3957615d39615ea7565b01949350505050565b600060ff821660ff84168060ff03821115615d5f57615d5f615ea7565b019392505050565b60006001600160601b03808316818516808303821115615d3957615d39615ea7565b600082615da457634e487b7160e01b81526012600452602481fd5b500490565b6000816000190483118215151615615dc357615dc3615ea7565b500290565b600060ff821660ff84168160ff0481118215151615615de957615de9615ea7565b029392505050565b600082821015615e0357615e03615ea7565b500390565b600060ff821660ff841680821015615e2257615e22615ea7565b90039392505050565b60005b83811015615e46578181015183820152602001615e2e565b838111156135d25750506000910152565b600181811c90821680615e6b57607f821691505b602082108114156152ba57634e487b7160e01b600052602260045260246000fd5b6000600019821415615ea057615ea0615ea7565b5060010190565b634e487b7160e01b600052601160045260246000fd5b634e487b7160e01b600052604160045260246000fd5b6001600160a01b03811681146108d557600080fdfe360894a13ba1a3210667c828492db98dca3e2076cc3735a920a3ca505d382bbc416464726573733a206c6f772d6c6576656c2064656c65676174652063616c6c206661696c6564a26469706673582212204bc850ee7f92d41761d3363bf7bede83aa60d8ec589031d666888af21daf9ad364736f6c63430008040033",
  "deployedBytecode": "0x6080604052600436106102345760003560e01c806373532b2a1161012e578063b59589d1116100ab578063cdbe37411161006f578063cdbe374114610678578063e30c397814610698578063f0f44260146106b6578063f2fde38b146106d6578063f47e2240146106f657600080fd5b8063b59589d1146105ec578063b74d0d351461060c578063bed6a60214610622578063c19e86e714610638578063c805f68b1461065857600080fd5b8063930a60e8116100f2578063930a60e81461053f578063aabc24961461056c578063aea5f1541461058c578063b1344271146105ac578063b14d3532146105cc57600080fd5b806373532b2a146104ac57806379ba5097146104cc5780637ed55748146104e15780637ffe9a92146105015780638da5cb5b1461052157600080fd5b80634782bc36116101bc5780635c4f5f3e116101805780635c4f5f3e1461042157806361d027b3146104415780636b65227e1461046157806370872aa514610481578063715018a61461049757600080fd5b80634782bc36146103995780634be50e57146103b95780634f1ef286146103d957806350a05836146103ec57806352d1902d1461040c57600080fd5b80631e236168116102035780631e236168146102e35780631e7107c7146103235780633659cfe614610343578063419cba7f1461036357806343149dba1461037957600080fd5b80631812adb6146102405780631876dec4146102695780631a2783f2146102a15780631d927898146102c157600080fd5b3661023b57005b600080fd5b34801561024c57600080fd5b5061025660085481565b6040519081526020015b60405180910390f35b34801561027557600080fd5b50600154610289906001600160a01b031681565b6040516001600160a01b039091168152602001610260565b3480156102ad57600080fd5b50600254610289906001600160a01b031681565b3480156102cd57600080fd5b506102e16102dc3660046157a0565b61072a565b005b3480156102ef57600080fd5b506103136102fe366004615552565b600d6020526000908152604090205460ff1681565b6040519015158152602001610260565b34801561032f57600080fd5b506102e161033e366004615552565b6108c4565b34801561034f57600080fd5b506102e161035e366004615482565b6108d8565b34801561036f57600080fd5b5061025660095481565b34801561038557600080fd5b5061025661039436600461582a565b6109b5565b3480156103a557600080fd5b506102e16103b4366004615552565b610bcf565b3480156103c557600080fd5b506102e16103d4366004615482565b610be0565b6102e16103e73660046154ba565b610bf1565b3480156103f857600080fd5b50600454610289906001600160a01b031681565b34801561041857600080fd5b50610256610cc2565b34801561042d57600080fd5b506102e161043c366004615552565b610d75565b34801561044d57600080fd5b50600354610289906001600160a01b031681565b34801561046d57600080fd5b506102e161047c3660046156ca565b610d7e565b34801561048d57600080fd5b5061025660065481565b3480156104a357600080fd5b506102e161111d565b3480156104b857600080fd5b506102e16104c7366004615582565b611127565b3480156104d857600080fd5b506102e161176c565b3480156104ed57600080fd5b506102e16104fc366004615552565b6117e3565b34801561050d57600080fd5b5061031361051c366004615507565b6117f4565b34801561052d57600080fd5b506041546001600160a01b0316610289565b34801561054b57600080fd5b5061025661055a366004615482565b600c6020526000908152604090205481565b34801561057857600080fd5b506102e1610587366004615482565b61184c565b34801561059857600080fd5b506103136105a73660046155e7565b61185d565b3480156105b857600080fd5b50600554610289906001600160a01b031681565b3480156105d857600080fd5b506102e16105e7366004615482565b611c32565b3480156105f857600080fd5b50600054610289906001600160a01b031681565b34801561061857600080fd5b50610256600a5481565b34801561062e57600080fd5b5061025660075481565b34801561064457600080fd5b506102e1610653366004615482565b611c43565b34801561066457600080fd5b506102e1610673366004615482565b611c54565b34801561068457600080fd5b506102e1610693366004615552565b611c65565b3480156106a457600080fd5b506073546001600160a01b0316610289565b3480156106c257600080fd5b506102e16106d1366004615482565b611cc3565b3480156106e257600080fd5b506102e16106f1366004615482565b611cd4565b34801561070257600080fd5b50610716610711366004615507565b611d45565b604051610260989796959493929190615c6c565b600e54610100900460ff161580801561074a5750600e54600160ff909116105b806107645750303b1580156107645750600e5460ff166001145b6107cc5760405162461bcd60e51b815260206004820152602e60248201527f496e697469616c697a61626c653a20636f6e747261637420697320616c72656160448201526d191e481a5b9a5d1a585b1a5e995960921b60648201526084015b60405180910390fd5b600e805460ff1916600117905580156107ef57600e805461ff0019166101001790555b6107f7611e42565b6107ff611e71565b610807611ea0565b6108108a611ec7565b61081989611f29565b61082288611fba565b61082b8761204b565b610834866120dc565b61083d8561216d565b61084684612306565b61084f83612399565b6108588261242c565b61087261086d6041546001600160a01b031690565b61246d565b80156108b857600e805461ff0019169055604051600181527f7f26b83ff96e1f2b6a682f133852f6798a09c465da95921460cefb38474024989060200160405180910390a15b50505050505050505050565b6108cc6124d6565b6108d581611ec7565b50565b306001600160a01b037f00000000000000000000000000000000000000000000000000000000000000001614156109215760405162461bcd60e51b81526004016107c390615b14565b7f00000000000000000000000000000000000000000000000000000000000000006001600160a01b031661096a600080516020615ee9833981519152546001600160a01b031690565b6001600160a01b0316146109905760405162461bcd60e51b81526004016107c390615b60565b61099981612530565b604080516000808252602082019092526108d591839190612538565b60006109bf6126b2565b6002546001600160a01b03166323b872dd336040516001600160e01b031960e084901b1681526001600160a01b03909116600482015230602482015260448101899052606401602060405180830381600087803b158015610a1f57600080fd5b505af1158015610a33573d6000803e3d6000fd5b505050506040513d601f19601f82011682018060405250810190610a579190615532565b610aa35760405162461bcd60e51b815260206004820152601f60248201527f4275726e526f757465723a207472616e7366657246726f6d206661696c65640060448201526064016107c3565b600080610ab3888888888861270c565b6001600160a01b0381166000908152600b60205260409020805492945090925090610ae090600190615df1565b81548110610afe57634e487b7160e01b600052603260045260246000fd5b906000526020600020906007020160040154610b173390565b6001600160a01b038381166000908152600b60205260409020805492909116917fa5604974ff4182d74f6ab1839735f791628aa9385060f8cc07a20d415b540295918b918b918e9189918991610b6f90600190615df1565b81548110610b8d57634e487b7160e01b600052603260045260246000fd5b906000526020600020906007020160060154604051610bb196959493929190615a10565b60405180910390a3509050610bc6600160a555565b95945050505050565b610bd76124d6565b6108d581612399565b610be86124d6565b6108d5816120dc565b306001600160a01b037f0000000000000000000000000000000000000000000000000000000000000000161415610c3a5760405162461bcd60e51b81526004016107c390615b14565b7f00000000000000000000000000000000000000000000000000000000000000006001600160a01b0316610c83600080516020615ee9833981519152546001600160a01b031690565b6001600160a01b031614610ca95760405162461bcd60e51b81526004016107c390615b60565b610cb282612530565b610cbe82826001612538565b5050565b6000306001600160a01b037f00000000000000000000000000000000000000000000000000000000000000001614610d625760405162461bcd60e51b815260206004820152603860248201527f555550535570677261646561626c653a206d757374206e6f742062652063616c60448201527f6c6564207468726f7567682064656c656761746563616c6c000000000000000060648201526084016107c3565b50600080516020615ee983398151915290565b6108d58161216d565b610d866126b2565b6005546001600160a01b03163314610db05760405162461bcd60e51b81526004016107c390615bac565b60015460405163aff2faa360e01b81526001600160a01b039091169063aff2faa390610de0908a906004016159fd565b60206040518083038186803b158015610df857600080fd5b505afa158015610e0c573d6000803e3d6000fd5b505050506040513d601f19601f82011682018060405250810190610e309190615532565b610e4c5760405162461bcd60e51b81526004016107c390615bf1565b6000610e8d87878080601f016020809104026020016040519081016040528093929190818152602001838380828437600092019190915250612a3092505050565b60075460005460065460405163d257a06160e01b815293945073__$b2d4c044db363f4bd023a450a1a4a26d98$__9363d257a06193610ee693600d9391926001600160a01b03909116919088908b908b90600401615a5f565b60006040518083038186803b158015610efe57600080fd5b505af4158015610f12573d6000803e3d6000fd5b50505050600080610f5889898080601f016020809104026020016040519081016040528093929190818152602001838380828437600092019190915250612afe92505050565b509250925050600080610f938487600081518110610f8657634e487b7160e01b600052603260045260246000fd5b6020026020010151612c74565b91509150610fd689898080601f016020809104026020016040519081016040528093929190818152602001838380828437600092019190915250612a3092505050565b82146110245760405162461bcd60e51b815260206004820152601b60248201527f4275726e526f757465723a2077726f6e67206f7574707574207478000000000060448201526064016107c3565b60006110658a8a8080601f016020809104026020016040519081016040528093929190818152602001838380828437600092019190915250612afe92505050565b50925050508c8051906020012061107c8284612ccf565b80519060200120146110d05760405162461bcd60e51b815260206004820152601a60248201527f4275726e526f757465723a206e6f7420666f72206c6f636b657200000000000060448201526064016107c3565b611104848e888a6002815181106110f757634e487b7160e01b600052603260045260246000fd5b6020026020010151612cfb565b505050505050611114600160a555565b50505050505050565b6111256124d6565b565b61112f6126b2565b6005546001600160a01b031633146111595760405162461bcd60e51b81526004016107c390615bac565b60015460405163aff2faa360e01b81526001600160a01b039091169063aff2faa39061118b90869086906004016159c5565b60206040518083038186803b1580156111a357600080fd5b505afa1580156111b7573d6000803e3d6000fd5b505050506040513d601f19601f820116820180604052508101906111db9190615532565b6111f75760405162461bcd60e51b81526004016107c390615bf1565b60015460405163626885b560e11b81526000916001600160a01b03169063c4d10b6a9061122a90879087906004016159c5565b60206040518083038186803b15801561124257600080fd5b505afa158015611256573d6000803e3d6000fd5b505050506040513d601f19601f8201168201806040525081019061127a919061549e565b905060005b825181101561175b5773__$b2d4c044db363f4bd023a450a1a4a26d98$__6352335c02600b848685815181106112c557634e487b7160e01b600052603260045260246000fd5b60209081029190910101516007546000546040516310889dc360e01b81526001600160a01b03909116600482015273__$b2d4c044db363f4bd023a450a1a4a26d98$__906310889dc39060240160206040518083038186803b15801561132a57600080fd5b505af415801561133e573d6000803e3d6000fd5b505050506040513d601f19601f82011682018060405250810190611362919061556a565b6006546040516001600160e01b031960e089901b16815260048101969096526001600160a01b03909416602486015260448501929092526064840152608483015260a482015260c40160006040518083038186803b1580156113c357600080fd5b505af41580156113d7573d6000803e3d6000fd5b50506001546009546001600160a01b038681166000908152600b602052604090208851919093169450631697565b93508692612710929189908890811061142e57634e487b7160e01b600052603260045260246000fd5b60200260200101518154811061145457634e487b7160e01b600052603260045260246000fd5b9060005260206000209060070201600001546114709190615da9565b61147a9190615d89565b336001600160a01b0387166000908152600b6020526040902088518990889081106114b557634e487b7160e01b600052603260045260246000fd5b6020026020010151815481106114db57634e487b7160e01b600052603260045260246000fd5b906000526020600020906007020160000154600b6000896001600160a01b03166001600160a01b0316815260200190815260200160002089888151811061153257634e487b7160e01b600052603260045260246000fd5b60200260200101518154811061155857634e487b7160e01b600052603260045260246000fd5b600091825260209091206007909102016002015460405160e087901b6001600160e01b03191681526001600160a01b03958616600482015260248101949094529184166044840152606483015291909116608482015260a401602060405180830381600087803b1580156115cb57600080fd5b505af11580156115df573d6000803e3d6000fd5b505050506040513d601f19601f820116820180604052508101906116039190615532565b506001600160a01b0382166000818152600b60205260409020845185908490811061163e57634e487b7160e01b600052603260045260246000fd5b60200260200101518154811061166457634e487b7160e01b600052603260045260246000fd5b906000526020600020906007020160020160009054906101000a90046001600160a01b03166001600160a01b03167f58c23b4ae0617be275628875bcfd65759a441263099a256eeb27899fb5dd846d8787600b6000886001600160a01b03166001600160a01b031681526020019081526020016000208887815181106116fa57634e487b7160e01b600052603260045260246000fd5b60200260200101518154811061172057634e487b7160e01b600052603260045260246000fd5b906000526020600020906007020160060154604051611741939291906159d9565b60405180910390a38061175381615e8c565b91505061127f565b5050611767600160a555565b505050565b60735433906001600160a01b031681146117da5760405162461bcd60e51b815260206004820152602960248201527f4f776e61626c6532537465703a2063616c6c6572206973206e6f7420746865206044820152683732bb9037bbb732b960b91b60648201526084016107c3565b6108d581612ec7565b6117eb6124d6565b6108d581612306565b6001600160a01b0382166000908152600b6020526040812080548390811061182c57634e487b7160e01b600052603260045260246000fd5b600091825260209091206005600790920201015460ff1690505b92915050565b6118546124d6565b6108d581612ee0565b60006118676126b2565b6006548710156118b95760405162461bcd60e51b815260206004820152601760248201527f4275726e526f757465723a206f6c64207265717565737400000000000000000060448201526064016107c3565b6000806118fb8b8b8080601f016020809104026020016040519081016040528093929190818152602001838380828437600092019190915250612afe92505050565b9350935050508063ffffffff166000146119575760405162461bcd60e51b815260206004820152601e60248201527f4275726e526f757465723a206e6f6e2d7a65726f206c6f636b2074696d65000060448201526064016107c3565b60015460405163aff2faa360e01b81526001600160a01b039091169063aff2faa3906119879089906004016159fd565b60206040518083038186803b15801561199f57600080fd5b505afa1580156119b3573d6000803e3d6000fd5b505050506040513d601f19601f820116820180604052508101906119d79190615532565b6119f35760405162461bcd60e51b81526004016107c390615bf1565b8351855114611a445760405162461bcd60e51b815260206004820152601960248201527f4275726e526f757465723a2077726f6e6720696e64657865730000000000000060448201526064016107c3565b6000611a858c8c8080601f016020809104026020016040519081016040528093929190818152602001838380828437600092019190915250612a3092505050565b600054604051637ebc232760e01b815291925073__$b2d4c044db363f4bd023a450a1a4a26d98$__91637ebc232791611ad4916001600160a01b039091169085908f908f908f90600401615945565b60206040518083038186803b158015611aec57600080fd5b505af4158015611b00573d6000803e3d6000fd5b505050506040513d601f19601f82011682018060405250810190611b249190615532565b611b705760405162461bcd60e51b815260206004820152601960248201527f4275726e526f757465723a206e6f742066696e616c697a65640000000000000060448201526064016107c3565b60015460405163626885b560e11b81526000916001600160a01b03169063c4d10b6a90611ba1908b906004016159fd565b60206040518083038186803b158015611bb957600080fd5b505afa158015611bcd573d6000803e3d6000fd5b505050506040513d601f19601f82011682018060405250810190611bf1919061549e565b90506000611c03838d84888c8c612f49565b9050611c13600d82878c87613431565b600195505050505050611c26600160a555565b98975050505050505050565b611c3a6124d6565b6108d581611fba565b611c4b6124d6565b6108d58161246d565b611c5c6124d6565b6108d581611f29565b60045433906001600160a01b03168114611cba5760405162461bcd60e51b81526020600482015260166024820152754275726e526f757465723a206e6f74206f7261636c6560501b60448201526064016107c3565b610cbe8261242c565b611ccb6124d6565b6108d58161204b565b611cdc6124d6565b607380546001600160a01b0383166001600160a01b03199091168117909155611d0d6041546001600160a01b031690565b6001600160a01b03167f38d16b8cac22d99fc7c124b9cd0de2d3fa1faef420bfe791d8c362d765e2270060405160405180910390a350565b600b6020528160005260406000208181548110611d6157600080fd5b600091825260209091206007909102018054600182015460028301546003840180549396509194506001600160a01b03169291611d9d90615e57565b80601f0160208091040260200160405190810160405280929190818152602001828054611dc990615e57565b8015611e165780601f10611deb57610100808354040283529160200191611e16565b820191906000526020600020905b815481529060010190602001808311611df957829003601f168201915b505050600484015460058501546006909501549394909360ff8083169450610100909204909116915088565b600e54610100900460ff16611e695760405162461bcd60e51b81526004016107c390615c21565b6111256134ba565b600e54610100900460ff16611e985760405162461bcd60e51b81526004016107c390615c21565b6111256134ea565b600e54610100900460ff166111255760405162461bcd60e51b81526004016107c390615c21565b6006548111611f245760405162461bcd60e51b815260206004820152602360248201527f4275726e526f757465723a206c6f77207374617274696e67426c6f636b4e756d6044820152623132b960e91b60648201526084016107c3565b600655565b806001600160a01b038116611f505760405162461bcd60e51b81526004016107c390615add565b600054604080516001600160a01b03928316815291841660208301527f4c28a3f61a715259c4dc930c23e7423b8fa52e13232c061a6e488729c66184f4910160405180910390a150600080546001600160a01b0319166001600160a01b0392909216919091179055565b806001600160a01b038116611fe15760405162461bcd60e51b81526004016107c390615add565b600154604080516001600160a01b03928316815291841660208301527ffa021c2ec0f46429a53e7f88b88065e40001f50c9d38b2e8b713beaf9828d4c3910160405180910390a150600180546001600160a01b0319166001600160a01b0392909216919091179055565b806001600160a01b0381166120725760405162461bcd60e51b81526004016107c390615add565b600354604080516001600160a01b03928316815291841660208301527f567657fa3f286518b318f4a29870674f433f622fdfc819691acb13105b228225910160405180910390a150600380546001600160a01b0319166001600160a01b0392909216919091179055565b806001600160a01b0381166121035760405162461bcd60e51b81526004016107c390615add565b600254604080516001600160a01b03928316815291841660208301527ff1253c5d33616f62c4ae5b08481b0df4900a6eb1391d7d96098bf578bb314c52910160405180910390a150600280546001600160a01b0319166001600160a01b0392909216919091179055565b600080546040516353bcd1c960e11b81526001600160a01b03909116600482015273__$b2d4c044db363f4bd023a450a1a4a26d98$__9063a779a3929060240160206040518083038186803b1580156121c557600080fd5b505af41580156121d9573d6000803e3d6000fd5b505050506040513d601f19601f820116820180604052508101906121fd919061556a565b90506122116041546001600160a01b031690565b6001600160a01b0316336001600160a01b03161480612231575080600754105b6122755760405162461bcd60e51b8152602060048201526015602482015274109d5c9b949bdd5d195c8e881b9bc81c195c9b5a5d605a1b60448201526064016107c3565b8082116122c45760405162461bcd60e51b815260206004820152601860248201527f4275726e526f757465723a206c6f7720646561646c696e65000000000000000060448201526064016107c3565b60075460408051918252602082018490527f92c10a242ca42973030420e2ee32b3ba7818cc643f896958f620c606cf300416910160405180910390a150600755565b8061271010156123585760405162461bcd60e51b815260206004820152601760248201527f4275726e526f757465723a20696e76616c69642066656500000000000000000060448201526064016107c3565b60085460408051918252602082018390527f7d205f60891f60851c61cd244ba387d72b6589e7c0ac41b9d909ab0ce2c2a53b910160405180910390a1600855565b8061271010156123eb5760405162461bcd60e51b815260206004820152601a60248201527f4275726e526f757465723a20696e76616c69642072657761726400000000000060448201526064016107c3565b60095460408051918252602082018390527faa50b3683e42a13535a5b9c2c32780cccf956fb546b523a3542ac4ad8b544f67910160405180910390a1600955565b600a5460408051918252602082018390527f47c5f9c13c35ebb166f6a8d8c56af73f8b323ac0fee7aec4a5e0490bbf67a4fe910160405180910390a1600a55565b600454604080516001600160a01b03928316815291831660208301527ff68296962c28bcee9d0e2e78c34b1ed65997ff5ce894f72e9165fbc75b937600910160405180910390a1600480546001600160a01b0319166001600160a01b0392909216919091179055565b6041546001600160a01b031633146111255760405162461bcd60e51b815260206004820181905260248201527f4f776e61626c653a2063616c6c6572206973206e6f7420746865206f776e657260448201526064016107c3565b6108d56124d6565b7f4910fdfa16fed3260ed0e7147f7cc6da11a60208b5b9406d12a635614ffd91435460ff161561256b5761176783613511565b826001600160a01b03166352d1902d6040518163ffffffff1660e01b815260040160206040518083038186803b1580156125a457600080fd5b505afa9250505080156125d4575060408051601f3d908101601f191682019092526125d19181019061556a565b60015b6126375760405162461bcd60e51b815260206004820152602e60248201527f45524331393637557067726164653a206e657720696d706c656d656e7461746960448201526d6f6e206973206e6f74205555505360901b60648201526084016107c3565b600080516020615ee983398151915281146126a65760405162461bcd60e51b815260206004820152602960248201527f45524331393637557067726164653a20756e737570706f727465642070726f786044820152681a58589b195555525160ba1b60648201526084016107c3565b506117678383836135ad565b600260a55414156127055760405162461bcd60e51b815260206004820152601f60248201527f5265656e7472616e637947756172643a207265656e7472616e742063616c6c0060448201526064016107c3565b600260a555565b60008061271986866135d8565b60015460405163aff2faa360e01b81526001600160a01b039091169063aff2faa39061274b90879087906004016159c5565b60206040518083038186803b15801561276357600080fd5b505afa158015612777573d6000803e3d6000fd5b505050506040513d601f19601f8201168201806040525081019061279b9190615532565b6127b75760405162461bcd60e51b81526004016107c390615bf1565b60015460405163626885b560e11b81526001600160a01b039091169063c4d10b6a906127e990879087906004016159c5565b60206040518083038186803b15801561280157600080fd5b505afa158015612815573d6000803e3d6000fd5b505050506040513d601f19601f82011682018060405250810190612839919061549e565b90506000612846886136f6565b60025460015460405163095ea7b360e01b81526001600160a01b03918216600482015260248101849052929350169063095ea7b390604401602060405180830381600087803b15801561289857600080fd5b505af11580156128ac573d6000803e3d6000fd5b505050506040513d601f19601f820116820180604052508101906128d09190615532565b5080600a54826128e09190615df1565b6001546040516338463cff60e01b81526001600160a01b03909116906338463cff90612914908a908a9088906004016159d9565b602060405180830381600087803b15801561292e57600080fd5b505af1158015612942573d6000803e3d6000fd5b505050506040513d601f19601f82011682018060405250810190612966919061556a565b6129709190615da9565b61297a9190615d89565b6000546040516310889dc360e01b81526001600160a01b039091166004820152909350612a1e90899085908a908a9073__$b2d4c044db363f4bd023a450a1a4a26d98$__906310889dc39060240160206040518083038186803b1580156129e057600080fd5b505af41580156129f4573d6000803e3d6000fd5b505050506040513d601f19601f82011682018060405250810190612a18919061556a565b87613865565b509550959350505050565b600160a555565b600080600283604051612a439190615929565b602060405180830381855afa158015612a60573d6000803e3d6000fd5b5050506040513d601f19601f82011682018060405250810190612a83919061556a565b90506000600282604051602001612a9c91815260200190565b60408051601f1981840301815290829052612ab691615929565b602060405180830381855afa158015612ad3573d6000803e3d6000fd5b5050506040513d601f19601f82011682018060405250810190612af6919061556a565b949350505050565b600080808080612b0e8682613a35565b9050612b2b612b2662ffffff19831660006004613a50565b613b9d565b945060046000612b5a612b4b83601886901c6001600160601b0316615df1565b62ffffff198516906000613c06565b90506000612b6782613c3a565b9050612b80838260065b62ffffff198816929190613d16565b9650612b8c8184615cff565b9250612bb7612ba884601887901c6001600160601b0316615df1565b62ffffff198616906000613c06565b91506000612bc483613d90565b9050612bdd8482600f5b62ffffff198916929190613d16565b9650612be98185615cff565b9350612c00612b2662ffffff198716866004613a50565b9550601885901c6001600160601b0316612c1b856004615cff565b14612c685760405162461bcd60e51b815260206004820152601960248201527f426974636f696e48656c7065723a20696e76616c69642074780000000000000060448201526064016107c3565b50505050509193509193565b600080836006612c8c815b62ffffff19841690613e59565b506000612c998787613f33565b90506000612ca682614062565b9050612cb18161407f565b9550612cbc816140a1565b63ffffffff169450505050509250929050565b60606000612cdd84846140c6565b90506000612cea826141c7565b9050610bc662ffffff198216614210565b6000612d0685614260565b60015460405163626885b560e11b81526001600160401b039290921692506000916001600160a01b039091169063c4d10b6a90612d479088906004016159fd565b60206040518083038186803b158015612d5f57600080fd5b505afa158015612d73573d6000803e3d6000fd5b505050506040513d601f19601f82011682018060405250810190612d97919061549e565b6001546009549192506001600160a01b03169063b734de2690839061271090612dc09087615da9565b612dca9190615d89565b3360405160e085901b6001600160e01b03191681526001600160a01b0393841660048201526024810192909252909116604482015260648101859052608401602060405180830381600087803b158015612e2357600080fd5b505af1158015612e37573d6000803e3d6000fd5b505050506040513d601f19601f82011682018060405250810190612e5b9190615532565b507f7ff138134e34ccab071315c38e38eec079f54726b890304ab46e2c5ab6f722bb8186858761271060095488612e929190615da9565b612e9c9190615d89565b612ea69088615cff565b604051612eb7959493929190615984565b60405180910390a1505050505050565b607380546001600160a01b03191690556108d5816142d0565b600554604080516001600160a01b03928316815291831660208301527f70dd87e368b751b1ec25f431d88830b341864d01e2675c90b3f08e1e28dd2486910160405180910390a1600580546001600160a01b0319166001600160a01b0392909216919091179055565b60008080805b85518110156134245780612f8c57848181518110612f7d57634e487b7160e01b600052603260045260246000fd5b60200260200101519150613038565b81858281518110612fad57634e487b7160e01b600052603260045260246000fd5b60200260200101511161300d5760405162461bcd60e51b815260206004820152602260248201527f4275726e526f757465723a20756e2d736f7274656420766f757420696e646578604482015261657360f01b60648201526084016107c3565b84818151811061302d57634e487b7160e01b600052603260045260246000fd5b602002602001015191505b600086828151811061305a57634e487b7160e01b600052603260045260246000fd5b6020026020010151905089600b60008b6001600160a01b03166001600160a01b0316815260200190815260200160002082815481106130a957634e487b7160e01b600052603260045260246000fd5b9060005260206000209060070201600401541061341157613228888784815181106130e457634e487b7160e01b600052603260045260246000fd5b6020026020010151600b60008d6001600160a01b03166001600160a01b03168152602001908152602001600020848154811061313057634e487b7160e01b600052603260045260246000fd5b9060005260206000209060070201600301805461314c90615e57565b80601f016020809104026020016040519081016040528092919081815260200182805461317890615e57565b80156131c55780601f1061319a576101008083540402835291602001916131c5565b820191906000526020600020905b8154815290600101906020018083116131a857829003601f168201915b5050506001600160a01b038f166000908152600b602052604090208054909250879150811061320457634e487b7160e01b600052603260045260246000fd5b906000526020600020906007020160050160019054906101000a900460ff16614322565b6001600160401b0316935083600b60008b6001600160a01b03166001600160a01b03168152602001908152602001600020828154811061327857634e487b7160e01b600052603260045260246000fd5b90600052602060002090600702016001015414156134115761329b856001615cff565b6001600160a01b038a166000908152600b60205260409020805491965090829081106132d757634e487b7160e01b600052603260045260246000fd5b600091825260209091206005600790920201015460ff16613411576001600160a01b0389166000908152600b602052604090208054600191908390811061332e57634e487b7160e01b600052603260045260246000fd5b60009182526020808320600792909202909101600501805460ff1916931515939093179092556001600160a01b038b16808252600b9092526040902080547f1b46655c2f394f2191cb246d5982dbe00ad671f0b590e75e97c90ee97f1f782a9190849081106133ad57634e487b7160e01b600052603260045260246000fd5b9060005260206000209060070201600601548d8986815181106133e057634e487b7160e01b600052603260045260246000fd5b6020026020010151604051613408939291909283526020830191909152604082015260600190565b60405180910390a25b508061341c81615e8c565b915050612f4f565b5050509695505050505050565b600061343d8484614570565b6001600160401b0316905060006134538561463c565b9050811580159061346d57508061346b876001615cff565b145b15613490576000838152602088905260409020805460ff19166001179055611114565b80861415611114576000838152602088905260409020805460ff1916600117905550505050505050565b600e54610100900460ff166134e15760405162461bcd60e51b81526004016107c390615c21565b61112533612ec7565b600e54610100900460ff16612a295760405162461bcd60e51b81526004016107c390615c21565b6001600160a01b0381163b61357e5760405162461bcd60e51b815260206004820152602d60248201527f455243313936373a206e657720696d706c656d656e746174696f6e206973206e60448201526c1bdd08184818dbdb9d1c9858dd609a1b60648201526084016107c3565b600080516020615ee983398151915280546001600160a01b0319166001600160a01b0392909216919091179055565b6135b683614667565b6000825111806135c35750805b15611767576135d283836146a7565b50505050565b60008160058111156135fa57634e487b7160e01b600052602160045260246000fd5b14806136255750600481600581111561362357634e487b7160e01b600052602160045260246000fd5b145b8061364f5750600581600581111561364d57634e487b7160e01b600052602160045260246000fd5b145b156136a5578151602014610cbe5760405162461bcd60e51b815260206004820152601a60248201527f4275726e526f757465723a20696e76616c69642073637269707400000000000060448201526064016107c3565b8151601414610cbe5760405162461bcd60e51b815260206004820152601a60248201527f4275726e526f757465723a20696e76616c69642073637269707400000000000060448201526064016107c3565b6000806127106008548461370a9190615da9565b6137149190615d89565b9050600a5460026137259190615da9565b61372f9082615cff565b83116137765760405162461bcd60e51b8152602060048201526016602482015275109d5c9b949bdd5d195c8e881b1bddc8185b5bdd5b9d60521b60448201526064016107c3565b60006137828285615df1565b9050811561385e5760025460035460405163a9059cbb60e01b81526001600160a01b0391821660048201526024810185905291169063a9059cbb90604401602060405180830381600087803b1580156137da57600080fd5b505af11580156137ee573d6000803e3d6000fd5b505050506040513d601f19601f820116820180604052508101906138129190615532565b61385e5760405162461bcd60e51b815260206004820152601f60248201527f4275726e526f757465723a20666565207472616e73666572206661696c65640060448201526064016107c3565b9392505050565b604080516101008101825260006080820181905260a0820181905260c0820181815260e083019190915288825260208201889052339282019290925260608101869052908460058111156138c957634e487b7160e01b600052602160045260246000fd5b908160058111156138ea57634e487b7160e01b600052602160045260246000fd5b9052506007546138fa9084615cff565b6080820152600060a082018190526001600160a01b038316808252600c6020818152604084205460e086018190529290935290915261393a906001615cff565b6001600160a01b038381166000908152600c6020908152604080832094909455600b81528382208054600180820183559184529282902086516007909402019283558582015190830155928401516002820180546001600160a01b03191691909316179091556060830151805184936139ba9260038501929101906152c0565b506080820151600482015560a08201516005808301805492151560ff1984168117825560c086015193919261ff001990911661ffff199092169190911790610100908490811115613a1b57634e487b7160e01b600052602160045260246000fd5b021790555060e08201518160060155505050505050505050565b815160009060208401610bc664ffffffffff85168284614792565b6000612af6613a608585856147d6565b60008190506008817eff00ff00ff00ff00ff00ff00ff00ff00ff00ff00ff00ff00ff00ff00ff00ff16901b600882901c7eff00ff00ff00ff00ff00ff00ff00ff00ff00ff00ff00ff00ff00ff00ff00ff161790506010817dffff0000ffff0000ffff0000ffff0000ffff0000ffff0000ffff0000ffff16901b601082901c7dffff0000ffff0000ffff0000ffff0000ffff0000ffff0000ffff0000ffff161790506020817bffffffff00000000ffffffff00000000ffffffff00000000ffffffff16901b602082901c7bffffffff00000000ffffffff00000000ffffffff00000000ffffffff1617905060408177ffffffffffffffff0000000000000000ffffffffffffffff16901b604082901c77ffffffffffffffff0000000000000000ffffffffffffffff16179050608081901b608082901c179050919050565b600063ffffffff821115613c025760405162461bcd60e51b815260206004820152602660248201527f53616665436173743a2076616c756520646f65736e27742066697420696e203360448201526532206269747360d01b60648201526084016107c3565b5090565b6000612af68484613c208760181c6001600160601b031690565b6001600160601b0316613c339190615df1565b8585613d16565b6000601882901c6001600160601b0316613c5657506000919050565b6000613c6383600061492f565b9050601883901c6001600160601b03166001600160401b038216613c8b575060009392505050565b6000613c9683614a76565b60ff16905060005b836001600160401b0316811015613d0d57828210613cc25750600095945050505050565b6000613ce2613cd18486615df1565b60055b62ffffff198a169190613c06565b9050613ced81614acf565b613cf79084615cff565b9250508080613d0590615e8c565b915050613c9e565b50949350505050565b600080613d2c8660781c6001600160601b031690565b6001600160601b03169050613d4086614b23565b84613d4b8784615cff565b613d559190615cff565b1115613d685762ffffff19915050612af6565b613d728582615cff565b9050613d868364ffffffffff168286614792565b9695505050505050565b6000601882901c6001600160601b0316613dac57506000919050565b6000613db983600061492f565b9050601883901c6001600160601b03166001600160401b038216613de1575060009392505050565b6000613dec83614a76565b60ff16905060005b836001600160401b0316811015613d0d57828210613e185750600095945050505050565b6000613e2e613e278486615df1565b600e613cd4565b9050613e3981614b64565b613e439084615cff565b9250508080613e5190615e8c565b915050613df4565b6000613e658383614bad565b613f2c576000613e84613e788560d81c90565b64ffffffffff16614bd0565b9150506000613e998464ffffffffff16614bd0565b6040517f5479706520617373657274696f6e206661696c65642e20476f7420307800000060208201526001600160b01b031960b086811b8216603d8401526c05c408af0e0cac6e8cac84060f609b1b604784015283901b16605482015290925060009150605e015b60405160208183030381529060405290508060405162461bcd60e51b81526004016107c391906159fd565b5090919050565b6000826006613f4181612c7f565b506000613f4f86600061492f565b6001600160401b03169050601886901c6001600160601b0316818610613faa5760405162461bcd60e51b815260206004820152601060248201526f2b34b7103932b0b21037bb32b9393ab760811b60448201526064016107c3565b6000613fb583614a76565b60ff1690506000805b8881101561400d57613fe4613fd38486615df1565b60055b62ffffff198d169190613c06565b9150613fef82614acf565b613ff99084615cff565b9250614006600182615cff565b9050613fbe565b5061402c61401b8385615df1565b60055b62ffffff198c169190613c06565b9050600061403982614acf565b9050614052838260045b62ffffff198e16929190613d16565b975050505050505b505092915050565b600081600461407081612c7f565b50612af6600060246003612b71565b600081600361408d81612c7f565b50612af662ffffff198516600060206147d6565b60008160036140af81612c7f565b50612af6612b2662ffffff19861660206004613a50565b600082600f6140d481612c7f565b5060006140e286600061492f565b6001600160401b03169050601886901c6001600160601b031681861061413e5760405162461bcd60e51b81526020600482015260116024820152702b37baba103932b0b21037bb32b9393ab760791b60448201526064016107c3565b600061414983614a76565b60ff1690506000805b888110156141975761416e6141678486615df1565b600e613fd6565b915061417982614b64565b6141839084615cff565b9250614190600182615cff565b9050614152565b506141ac6141a58385615df1565b600e61401e565b905060006141b982614b64565b90506140528382600d614043565b600081600d6141d581612c7f565b5060006141e385600861492f565b9050610bc66141f182614a76565b6141fc906008615d42565b60ff166001600160401b0383166007612bce565b60606000806142288460181c6001600160601b031690565b60405193508392506001600160601b0316905061424f8461424a846020615cff565b614c7c565b508181016020016040529052919050565b600081600f61426e81612c7f565b5060008061427d86600061492f565b6001600160401b0316905060005b818110156142c65761429d87826140c6565b92506142a883614dd4565b6142b29087615d17565b9550806142be81615e8c565b91505061428b565b5050505050919050565b604180546001600160a01b038381166001600160a01b0319831681179093556040519116919082907f8be0079c531659141344cd1fd0a4f28419497f9722a3daafe3b4186f6b6457e090600090a35050565b600084600f61433081612c7f565b50600061433d88886140c6565b9050600061434a826141c7565b9050600586600581111561436e57634e487b7160e01b600052602160045260246000fd5b14156143d35761438762ffffff198216600260206147d6565b60405160200161439991815260200190565b604051602081830303815290604052805190602001208780519060200120146143c35760006143cc565b6143cc82614dd4565b9450614564565b60008660058111156143f557634e487b7160e01b600052602160045260246000fd5b141561440e5761438762ffffff198216600160206147d6565b600186600581111561443057634e487b7160e01b600052602160045260246000fd5b141561446f5761444762ffffff1982166003614df9565b604051602001614399919060609190911b6bffffffffffffffffffffffff1916815260140190565b600286600581111561449157634e487b7160e01b600052602160045260246000fd5b14156144a85761444762ffffff1982166002614df9565b60038660058111156144ca57634e487b7160e01b600052602160045260246000fd5b14156144e15761444762ffffff1982166002614df9565b600486600581111561450357634e487b7160e01b600052602160045260246000fd5b14156145645761451c62ffffff198216600260206147d6565b60405160200161452e91815260200190565b60405160208183030381529060405280519060200120878051906020012014614558576000614561565b61456182614dd4565b94505b50505050949350505050565b60008060008061458186600061492f565b6001600160401b0316905060005b81811015614632576145a187826140c6565b93506145ac846141c7565b9250856040516020016145bf9190615929565b604051602081830303815290604052805190602001206145e48462ffffff1916614210565b6040516020016145f49190615929565b6040516020818303038152906040528051906020012014156146205761461984614dd4565b9450614632565b8061462a81615e8c565b91505061458f565b5050505092915050565b600081600f61464a81612c7f565b5061465684600061492f565b6001600160401b0316949350505050565b61467081613511565b6040516001600160a01b038216907fbc7cd75a20ee27fd9adebab32041f755214dbc6bffa90cc0225b39da2e5c2d3b90600090a250565b60606001600160a01b0383163b61470f5760405162461bcd60e51b815260206004820152602660248201527f416464726573733a2064656c65676174652063616c6c20746f206e6f6e2d636f6044820152651b9d1c9858dd60d21b60648201526084016107c3565b600080846001600160a01b03168460405161472a9190615929565b600060405180830381855af49150503d8060008114614765576040519150601f19603f3d011682016040523d82523d6000602084013e61476a565b606091505b5091509150610bc68282604051806060016040528060278152602001615f0960279139614e07565b60008061479f8385615cff565b90506040518111156147af575060005b806147c15762ffffff1991505061385e565b5050606092831b9190911790911b1760181b90565b600060ff82166147e85750600061385e565b6147fb8460181c6001600160601b031690565b6001600160601b031661481160ff841685615cff565b11156148755761485c61482d8560781c6001600160601b031690565b6001600160601b03166148498660181c6001600160601b031690565b6001600160601b0316858560ff16614e20565b60405162461bcd60e51b81526004016107c391906159fd565b60208260ff1611156148ef5760405162461bcd60e51b815260206004820152603a60248201527f54797065644d656d566965772f696e646578202d20417474656d70746564207460448201527f6f20696e646578206d6f7265207468616e20333220627974657300000000000060648201526084016107c3565b6008820260006149088660781c6001600160601b031690565b6001600160601b031690506000600160ff1b60001984011d91909501511695945050505050565b60008061494462ffffff198516846001614f4a565b905060fc811161495f5761495781614f7a565b915050611846565b8060fd14156149c55761498d614988614979856001615cff565b62ffffff198716906002613a50565b614f7a565b915061499882614a76565b60ff166003146149c0576149be6149b962ffffff1986168560036000613d16565b614fe2565b505b614a6f565b8060fe1415614a1a576149ee6149886149df856001615cff565b62ffffff198716906004613a50565b91506149f982614a76565b60ff166005146149c0576149be6149b962ffffff1986168560056000613d16565b8060ff1415614a6f57614a43614988614a34856001615cff565b62ffffff198716906008613a50565b9150614a4e82614a76565b60ff16600914614a6f5761405a6149b962ffffff1986168560096000613d16565b5092915050565b600060fc826001600160401b031611614a9157506001919050565b61ffff826001600160401b031611614aab57506003919050565b63ffffffff826001600160401b031611614ac757506005919050565b506009919050565b6000816005614add81612c7f565b506000614aeb85602461492f565b9050806001600160401b0316614b0082614a76565b60ff16614b0d9190615cff565b614b18906024615cff565b610bc6906004615cff565b6000614b388260181c6001600160601b031690565b614b4b8360781c6001600160601b031690565b614b559190615d67565b6001600160601b031692915050565b600081600e614b7281612c7f565b506000614b8085600861492f565b9050806001600160401b0316614b9582614a76565b60ff16614ba29190615cff565b610bc6906008615cff565b60008164ffffffffff16614bc18460d81c90565b64ffffffffff16149392505050565b600080601f5b600f8160ff161115614c2e576000614bef826008615dc8565b60ff1685901c9050614c0081615069565b61ffff16841793508160ff16601014614c1b57601084901b93505b50614c27600182615e08565b9050614bd6565b50600f5b60ff8160ff161015614c765760ff600882021684901c614c5181615069565b61ffff16831792508160ff16600014614c6c57601083901b92505b5060001901614c32565b50915091565b600062ffffff198084161415614ce55760405162461bcd60e51b815260206004820152602860248201527f54797065644d656d566965772f636f7079546f202d204e756c6c20706f696e7460448201526732b9103232b932b360c11b60648201526084016107c3565b614cee8361509b565b614d4e5760405162461bcd60e51b815260206004820152602b60248201527f54797065644d656d566965772f636f7079546f202d20496e76616c696420706f60448201526a34b73a32b9103232b932b360a91b60648201526084016107c3565b6000614d638460181c6001600160601b031690565b6001600160601b031690506000614d838560781c6001600160601b031690565b6001600160601b031690506000604051905084811115614da35760206060fd5b8285848460045afa50613d86614db98760d81c90565b64ffffffffff60601b606091821b168717901b841760181b90565b600081600d614de281612c7f565b50612af661498862ffffff19861660006008613a50565b600061385e83836014614f4a565b60608315614e1657508161385e565b61385e83836150d9565b60606000614e2d86614bd0565b9150506000614e3b86614bd0565b9150506000614e4986614bd0565b9150506000614e5786614bd0565b604080517f54797065644d656d566965772f696e646578202d204f76657272616e20746865602082015274040ecd2caee5c40a6d8d2c6ca40d2e640c2e84060f605b1b818301526001600160d01b031960d098891b811660558301526e040eed2e8d040d8cadccee8d04060f608b1b605b830181905297891b8116606a8301527f2e20417474656d7074656420746f20696e646578206174206f666673657420306070830152600f60fb1b609083015295881b861660918201526097810196909652951b90921660a68401525050601760f91b60ac8201528151808203608d01815260ad90910190915295945050505050565b6000614f57826020615e08565b614f62906008615dc8565b60ff16614f708585856147d6565b901c949350505050565b60006001600160401b03821115613c025760405162461bcd60e51b815260206004820152602660248201527f53616665436173743a2076616c756520646f65736e27742066697420696e203660448201526534206269747360d01b60648201526084016107c3565b6060600061501661501182615003601887901c6001600160601b0316615103565b62ffffff1987169190614f4a565b614bd0565b6040517f4e6f6e2d6d696e696d616c2076617220696e742e20476f74203078000000000060208201526dffffffffffffffffffffffffffff19607083901b16603b82015290925060009150604d01613f01565b600061507b60048360ff16901c615164565b60ff1661ffff919091161760081b61509282615164565b60ff1617919050565b60006150a78260d81c90565b64ffffffffff1664ffffffffff14156150c257506000919050565b60006150cd83614b23565b60405110199392505050565b8151156150e95781518083602001fd5b8060405162461bcd60e51b81526004016107c391906159fd565b600060ff821115613c025760405162461bcd60e51b815260206004820152602560248201527f53616665436173743a2076616c756520646f65736e27742066697420696e2038604482015264206269747360d81b60648201526084016107c3565b600060f08083179060ff8216141561517f5750603092915050565b8060ff1660f114156151945750603192915050565b8060ff1660f214156151a95750603292915050565b8060ff1660f314156151be5750603392915050565b8060ff1660f414156151d35750603492915050565b8060ff1660f514156151e85750603592915050565b8060ff1660f614156151fd5750603692915050565b8060ff1660f714156152125750603792915050565b8060ff1660f814156152275750603892915050565b8060ff1660f9141561523c5750603992915050565b8060ff1660fa14156152515750606192915050565b8060ff1660fb14156152665750606292915050565b8060ff1660fc141561527b5750606392915050565b8060ff1660fd14156152905750606492915050565b8060ff1660fe14156152a55750606592915050565b8060ff1660ff14156152ba5750606692915050565b50919050565b8280546152cc90615e57565b90600052602060002090601f0160209004810192826152ee5760008555615334565b82601f1061530757805160ff1916838001178555615334565b82800160010185558215615334579182015b82811115615334578251825591602001919060010190615319565b50613c029291505b80821115613c02576000815560010161533c565b600082601f830112615360578081fd5b813560206001600160401b0382111561537b5761537b615ebd565b8160051b61538a828201615ccf565b8381528281019086840183880185018910156153a4578687fd5b8693505b858410156153c65780358352600193909301929184019184016153a8565b50979650505050505050565b60008083601f8401126153e3578182fd5b5081356001600160401b038111156153f9578182fd5b60208301915083602082850101111561541157600080fd5b9250929050565b600082601f830112615428578081fd5b81356001600160401b0381111561544157615441615ebd565b615454601f8201601f1916602001615ccf565b818152846020838601011115615468578283fd5b816020850160208301379081016020019190915292915050565b600060208284031215615493578081fd5b813561385e81615ed3565b6000602082840312156154af578081fd5b815161385e81615ed3565b600080604083850312156154cc578081fd5b82356154d781615ed3565b915060208301356001600160401b038111156154f1578182fd5b6154fd85828601615418565b9150509250929050565b60008060408385031215615519578182fd5b823561552481615ed3565b946020939093013593505050565b600060208284031215615543578081fd5b8151801515811461385e578182fd5b600060208284031215615563578081fd5b5035919050565b60006020828403121561557b578081fd5b5051919050565b600080600060408486031215615596578081fd5b83356001600160401b03808211156155ac578283fd5b6155b8878388016153d2565b909550935060208601359150808211156155d0578283fd5b506155dd86828701615350565b9150509250925092565b60008060008060008060008060e0898b031215615602578384fd5b88356001600160401b0380821115615618578586fd5b6156248c838d016153d2565b909a50985060208b0135975060408b0135915080821115615643578586fd5b61564f8c838d01615418565b965060608b0135955060808b013591508082111561566b578485fd5b6156778c838d01615418565b945060a08b013591508082111561568c578384fd5b6156988c838d01615350565b935060c08b01359150808211156156ad578283fd5b506156ba8b828c01615350565b9150509295985092959890939650565b600080600080600080600060a0888a0312156156e4578283fd5b87356001600160401b03808211156156fa578485fd5b6157068b838c01615418565b985060208a013591508082111561571b578485fd5b6157278b838c016153d2565b909850965060408a013591508082111561573f578485fd5b61574b8b838c016153d2565b909650945060608a0135915080821115615763578384fd5b61576f8b838c01615418565b935060808a0135915080821115615784578283fd5b506157918a828b01615350565b91505092959891949750929550565b60008060008060008060008060006101208a8c0312156157be578283fd5b8935985060208a01356157d081615ed3565b975060408a01356157e081615ed3565b965060608a01356157f081615ed3565b955060808a013561580081615ed3565b989b979a50959894979660a0860135965060c08601359560e0810135955061010001359350915050565b600080600080600060808688031215615841578283fd5b8535945060208601356001600160401b038082111561585e578485fd5b61586a89838a01615418565b9550604088013591506006821061587f578485fd5b90935060608701359080821115615894578283fd5b506158a1888289016153d2565b969995985093965092949392505050565b81835281816020850137506000828201602090810191909152601f909101601f19169091010190565b600081518084526158f3816020860160208601615e2b565b601f01601f19169290920160200192915050565b6006811061592557634e487b7160e01b600052602160045260246000fd5b9052565b6000825161593b818460208701615e2b565b9190910192915050565b60018060a01b038616815284602082015283604082015260a06060820152600061597260a08301856158db565b90508260808301529695505050505050565b6001600160a01b038616815260a0602082018190526000906159a8908301876158db565b604083019590955250606081019290925260809091015292915050565b602081526000612af66020830184866158b2565b6040815260006159ed6040830185876158b2565b9050826020830152949350505050565b60208152600061385e60208301846158db565b60c081526000615a2360c08301896158db565b9050615a326020830188615907565b604082019590955260608101939093526001600160a01b0391909116608083015260a09091015292915050565b87815260006020888184015260018060a01b038816604084015286606084015285608084015260e060a0840152615a9960e08401866158db565b83810360c0850152845180825282860191830190845b81811015615acb57835183529284019291840191600101615aaf565b50909c9b505050505050505050505050565b60208082526018908201527f4275726e526f757465723a207a65726f20616464726573730000000000000000604082015260600190565b6020808252602c908201527f46756e6374696f6e206d7573742062652063616c6c6564207468726f7567682060408201526b19195b1959d85d1958d85b1b60a21b606082015260800190565b6020808252602c908201527f46756e6374696f6e206d7573742062652063616c6c6564207468726f7567682060408201526b6163746976652070726f787960a01b606082015260800190565b60208082526025908201527f4275726e526f757465723a2063616c6c6572206973206e6f742074686520736c60408201526430b9b432b960d91b606082015260800190565b602080825260169082015275213ab9372937baba32b91d103737ba103637b1b5b2b960511b604082015260600190565b6020808252602b908201527f496e697469616c697a61626c653a20636f6e7472616374206973206e6f74206960408201526a6e697469616c697a696e6760a81b606082015260800190565b888152602081018890526001600160a01b038716604082015261010060608201819052600090615c9e838201896158db565b91505085608083015284151560a0830152615cbc60c0830185615907565b8260e08301529998505050505050505050565b604051601f8201601f191681016001600160401b0381118282101715615cf757615cf7615ebd565b604052919050565b60008219821115615d1257615d12615ea7565b500190565b60006001600160401b03808316818516808303821115615d3957615d39615ea7565b01949350505050565b600060ff821660ff84168060ff03821115615d5f57615d5f615ea7565b019392505050565b60006001600160601b03808316818516808303821115615d3957615d39615ea7565b600082615da457634e487b7160e01b81526012600452602481fd5b500490565b6000816000190483118215151615615dc357615dc3615ea7565b500290565b600060ff821660ff84168160ff0481118215151615615de957615de9615ea7565b029392505050565b600082821015615e0357615e03615ea7565b500390565b600060ff821660ff841680821015615e2257615e22615ea7565b90039392505050565b60005b83811015615e46578181015183820152602001615e2e565b838111156135d25750506000910152565b600181811c90821680615e6b57607f821691505b602082108114156152ba57634e487b7160e01b600052602260045260246000fd5b6000600019821415615ea057615ea0615ea7565b5060010190565b634e487b7160e01b600052601160045260246000fd5b634e487b7160e01b600052604160045260246000fd5b6001600160a01b03811681146108d557600080fdfe360894a13ba1a3210667c828492db98dca3e2076cc3735a920a3ca505d382bbc416464726573733a206c6f772d6c6576656c2064656c65676174652063616c6c206661696c6564a26469706673582212204bc850ee7f92d41761d3363bf7bede83aa60d8ec589031d666888af21daf9ad364736f6c63430008040033",
  "libraries": {
    "BurnRouterLib": "0x3E4cBFb64D61a945c8a0049Bd8bAEFF239ba1517"
  },
  "devdoc": {
    "kind": "dev",
    "methods": {
      "acceptOwnership()": {
        "details": "The new owner accepts the ownership transfer."
      },
      "burnProof(bytes,uint256,bytes,uint256,bytes,uint256[],uint256[])": {
        "details": "Makes isTransferred flag true for the paid requests",
        "params": {
          "_blockNumber": "Height of the block containing the Bitcoin tx",
          "_burnReqIndexes": "Indexes of requests that locker wants to provide proof for them",
          "_index": "Index of the Bitcoin tx the block",
          "_intermediateNodes": "Merkle inclusion proof for the Bitcoin tx",
          "_lockerLockingScript": "Locker's locking script that this burn request belongs to",
          "_tx": "Bitcoin tx data",
          "_voutIndexes": "Indexes of outputs that were used to pay burn requests.                     _voutIndexes[i] belongs to _burnReqIndexes[i]"
        }
      },
      "ccBurn(uint256,bytes,uint8,bytes)": {
        "details": "After submitting the burn request, Locker has a limited time      to send BTC and provide burn proof",
        "params": {
          "_amount": "of coreBTC that user wants to burn",
          "_lockerLockingScript": "of locker that should execute the burn request",
          "_scriptType": "User script type",
          "_userScript": "User script hash"
        },
        "returns": {
          "_0": "Amount of BTC that user receives"
        }
      },
      "disputeBurn(bytes,uint256[])": {
        "params": {
          "_indices": "Indices of requests that their deadline has passed",
          "_lockerLockingScript": "Locker's locking script that the unpaid request belongs to"
        }
      },
      "disputeLocker(bytes,bytes,bytes,bytes,uint256[])": {
        "details": "Input tx is a malicious tx which shows that locker spent BTC      Output tx is the tx that was spent by locker in input tx      Output tx shows money goes to locker      Input tx shows locker steals the funds",
        "params": {
          "_indexesAndBlockNumbers": "Indices of malicious input in input tx,                                input tx in block and block number of input tx",
          "_inputIntermediateNodes": "Merkle inclusion proof for the malicious transaction",
          "_inputTx": "Malicious transaction",
          "_lockerLockingScript": "Suspicious locker's locking script",
          "_outputTx": "Spent transaction"
        }
      },
      "initialize(uint256,address,address,address,address,uint256,uint256,uint256,uint256)": {
        "params": {
          "_bitcoinFee": "Fee of submitting a transaction on Bitcoin",
          "_coreBTC": "Address of coreBTC contract",
          "_lockers": "Address of lockers contract",
          "_protocolPercentageFee": "Percentage of tokens that user pays to protocol for burning",
          "_relay": "Address of relay contract",
          "_slasherPercentageReward": "Percentage of tokens that slasher receives after slashing a locker",
          "_startingBlockNumber": "Requests that are included in a block older                             than _startingBlockNumber cannot be executed",
          "_transferDeadline": "of sending BTC to user (aster submitting a burn request)",
          "_treasury": "Address of the treasury of the protocol"
        }
      },
      "isTransferred(address,uint256)": {
        "params": {
          "_index": "the request for the locker",
          "_lockerTargetAddress": "Locker address on the target chain"
        }
      },
      "owner()": {
        "details": "Returns the address of the current owner."
      },
      "pendingOwner()": {
        "details": "Returns the address of the pending owner."
      },
      "proxiableUUID()": {
        "details": "Implementation of the ERC1822 {proxiableUUID} function. This returns the storage slot used by the implementation. It is used to validate the implementation's compatibility when performing an upgrade. IMPORTANT: A proxy pointing at a proxiable contract should not be considered proxiable itself, because this risks bricking a proxy that upgrades to it, by delegating to itself until out of gas. Thus it is critical that this function revert if invoked through a proxy. This is guaranteed by the `notDelegated` modifier."
      },
      "renounceOwnership()": {
        "details": "Leaves the contract without owner. It will not be possible to call `onlyOwner` functions anymore. Can only be called by the current owner. NOTE: Renouncing ownership will leave the contract without an owner, thereby removing any functionality that is only available to the owner."
      },
      "setBitcoinFee(uint256)": {
        "details": "Only owner can call this",
        "params": {
          "_bitcoinFee": "The new Bitcoin transaction fee"
        }
      },
      "setBitcoinFeeOracle(address)": {
        "details": "Only owner can call this",
        "params": {
          "_bitcoinFeeOracle": "Address of oracle who can update burn fee"
        }
      },
      "setCoreBTC(address)": {
        "details": "Only owner can call this",
        "params": {
          "_coreBTC": "The new coreBTC contract address"
        }
      },
      "setLockers(address)": {
        "details": "Only owner can call this",
        "params": {
          "_lockers": "The new lockers contract address"
        }
      },
      "setProtocolPercentageFee(uint256)": {
        "details": "Only owner can call this",
        "params": {
          "_protocolPercentageFee": "The new protocol percentage fee"
        }
      },
      "setRelay(address)": {
        "details": "Only owner can call this",
        "params": {
          "_relay": "The new relay contract address"
        }
      },
      "setSlasher(address)": {
        "details": "Only owner can call this",
        "params": {
          "_slasher": "The new slasher address"
        }
      },
      "setSlasherPercentageReward(uint256)": {
        "details": "Only owner can call this",
        "params": {
          "_slasherPercentageReward": "The new slasher percentage reward"
        }
      },
      "setTransferDeadline(uint256)": {
        "details": "Only owner can call this      Deadline should be greater than relay finalization parameter",
        "params": {
          "_transferDeadline": "The new transfer deadline"
        }
      },
      "setTreasury(address)": {
        "details": "Only owner can call this",
        "params": {
          "_treasury": "The new treasury address"
        }
      },
      "transferOwnership(address)": {
        "details": "Starts the ownership transfer of the contract to a new account. Replaces the pending transfer if there is one. Can only be called by the current owner."
      },
      "upgradeTo(address)": {
        "details": "Upgrade the implementation of the proxy to `newImplementation`. Calls {_authorizeUpgrade}. Emits an {Upgraded} event."
      },
      "upgradeToAndCall(address,bytes)": {
        "details": "Upgrade the implementation of the proxy to `newImplementation`, and subsequently execute the function call encoded in `data`. Calls {_authorizeUpgrade}. Emits an {Upgraded} event."
      }
    },
    "version": 1
  },
  "userdoc": {
    "events": {
      "CCBurn(address,bytes,uint8,uint256,uint256,address,uint256,uint256)": {
        "notice": "Emits when a burn request gets submitted"
      },
      "LockerDispute(address,bytes,uint256,bytes32,uint256)": {
        "notice": "Emits when a locker gets slashed for withdrawing BTC without proper reason"
      },
      "NewBitcoinFee(uint256,uint256)": {
        "notice": "Emits when bitcoin fee is updated"
      },
      "NewBitcoinFeeOracle(address,address)": {
        "notice": "Emits when bitcoin fee oracle is updated"
      },
      "NewCoreBTC(address,address)": {
        "notice": "Emits when CoreBTC address is updated"
      },
      "NewLockers(address,address)": {
        "notice": "Emits when lockers address is updated"
      },
      "NewProtocolPercentageFee(uint256,uint256)": {
        "notice": "Emits when percentage fee is updated"
      },
      "NewRelay(address,address)": {
        "notice": "Emits when relay address is updated"
      },
      "NewSlasher(address,address)": {
        "notice": "Emits when slasher address is updated"
      },
      "NewSlasherPercentageFee(uint256,uint256)": {
        "notice": "Emits when slasher percentage fee is updated"
      },
      "NewTransferDeadline(uint256,uint256)": {
        "notice": "Emits when transfer deadline is updated"
      },
      "NewTreasury(address,address)": {
        "notice": "Emits when treasury address is updated"
      },
      "PaidCCBurn(address,uint256,bytes32,uint256)": {
        "notice": "Emits when a burn proof is provided"
      }
    },
    "kind": "user",
    "methods": {
      "burnProof(bytes,uint256,bytes,uint256,bytes,uint256[],uint256[])": {
        "notice": "Checks the correctness of burn proof (which is a Bitcoin tx)"
      },
      "ccBurn(uint256,bytes,uint8,bytes)": {
        "notice": "Records users burn request"
      },
      "disputeBurn(bytes,uint256[])": {
        "notice": "Slashes a locker if did not pay a cc burn request before its deadline"
      },
      "disputeLocker(bytes,bytes,bytes,bytes,uint256[])": {
        "notice": "Slashes a locker if they issue a tx that doesn't match any burn request"
      },
      "initialize(uint256,address,address,address,address,uint256,uint256,uint256,uint256)": {
        "notice": "Handles cross-chain burn requests"
      },
      "isTransferred(address,uint256)": {
        "notice": "Returns true is request has been processed"
      },
      "setBitcoinFee(uint256)": {
        "notice": "Updates Bitcoin transaction fee"
      },
      "setBitcoinFeeOracle(address)": {
        "notice": "Updates Bitcoin oracle"
      },
      "setCoreBTC(address)": {
        "notice": "Updates coreBTC contract address"
      },
      "setLockers(address)": {
        "notice": "Updates lockers contract address"
      },
      "setProtocolPercentageFee(uint256)": {
        "notice": "Updates protocol percentage fee for burning tokens"
      },
      "setRelay(address)": {
        "notice": "Updates relay contract address"
      },
      "setSlasher(address)": {
        "notice": "Updates slasher address"
      },
      "setSlasherPercentageReward(uint256)": {
        "notice": "Updates slasher percentage reward for disputing lockers"
      },
      "setStartingBlockNumber(uint256)": {
        "notice": "Setter for starting block number"
      },
      "setTransferDeadline(uint256)": {
        "notice": "Updates deadline of executing burn requests"
      },
      "setTreasury(address)": {
        "notice": "Updates protocol treasury address"
      }
    },
    "version": 1
  },
  "storageLayout": {
    "storage": [
      {
        "astId": 20638,
        "contract": "contracts/routers/BurnRouterLogic.sol:BurnRouterLogic",
        "label": "relay",
        "offset": 0,
        "slot": "0",
        "type": "t_address"
      },
      {
        "astId": 20641,
        "contract": "contracts/routers/BurnRouterLogic.sol:BurnRouterLogic",
        "label": "lockers",
        "offset": 0,
        "slot": "1",
        "type": "t_address"
      },
      {
        "astId": 20644,
        "contract": "contracts/routers/BurnRouterLogic.sol:BurnRouterLogic",
        "label": "coreBTC",
        "offset": 0,
        "slot": "2",
        "type": "t_address"
      },
      {
        "astId": 20647,
        "contract": "contracts/routers/BurnRouterLogic.sol:BurnRouterLogic",
        "label": "treasury",
        "offset": 0,
        "slot": "3",
        "type": "t_address"
      },
      {
        "astId": 20650,
        "contract": "contracts/routers/BurnRouterLogic.sol:BurnRouterLogic",
        "label": "bitcoinFeeOracle",
        "offset": 0,
        "slot": "4",
        "type": "t_address"
      },
      {
        "astId": 20653,
        "contract": "contracts/routers/BurnRouterLogic.sol:BurnRouterLogic",
        "label": "slasher",
        "offset": 0,
        "slot": "5",
        "type": "t_address"
      },
      {
        "astId": 20656,
        "contract": "contracts/routers/BurnRouterLogic.sol:BurnRouterLogic",
        "label": "startingBlockNumber",
        "offset": 0,
        "slot": "6",
        "type": "t_uint256"
      },
      {
        "astId": 20659,
        "contract": "contracts/routers/BurnRouterLogic.sol:BurnRouterLogic",
        "label": "transferDeadline",
        "offset": 0,
        "slot": "7",
        "type": "t_uint256"
      },
      {
        "astId": 20662,
        "contract": "contracts/routers/BurnRouterLogic.sol:BurnRouterLogic",
        "label": "protocolPercentageFee",
        "offset": 0,
        "slot": "8",
        "type": "t_uint256"
      },
      {
        "astId": 20665,
        "contract": "contracts/routers/BurnRouterLogic.sol:BurnRouterLogic",
        "label": "slasherPercentageReward",
        "offset": 0,
        "slot": "9",
        "type": "t_uint256"
      },
      {
        "astId": 20668,
        "contract": "contracts/routers/BurnRouterLogic.sol:BurnRouterLogic",
        "label": "bitcoinFee",
        "offset": 0,
        "slot": "10",
        "type": "t_uint256"
      },
      {
        "astId": 20674,
        "contract": "contracts/routers/BurnRouterLogic.sol:BurnRouterLogic",
        "label": "burnRequests",
        "offset": 0,
        "slot": "11",
        "type": "t_mapping(t_address,t_array(t_struct(burnRequest)20629_storage)dyn_storage)"
      },
      {
        "astId": 20678,
        "contract": "contracts/routers/BurnRouterLogic.sol:BurnRouterLogic",
        "label": "burnRequestCounter",
        "offset": 0,
        "slot": "12",
        "type": "t_mapping(t_address,t_uint256)"
      },
      {
        "astId": 20683,
        "contract": "contracts/routers/BurnRouterLogic.sol:BurnRouterLogic",
        "label": "isUsedAsBurnProof",
        "offset": 0,
        "slot": "13",
        "type": "t_mapping(t_bytes32,t_bool)"
      },
      {
        "astId": 633,
        "contract": "contracts/routers/BurnRouterLogic.sol:BurnRouterLogic",
        "label": "_initialized",
        "offset": 0,
        "slot": "14",
        "type": "t_uint8"
      },
      {
        "astId": 636,
        "contract": "contracts/routers/BurnRouterLogic.sol:BurnRouterLogic",
        "label": "_initializing",
        "offset": 1,
        "slot": "14",
        "type": "t_bool"
      },
      {
        "astId": 2171,
        "contract": "contracts/routers/BurnRouterLogic.sol:BurnRouterLogic",
        "label": "__gap",
        "offset": 0,
        "slot": "15",
        "type": "t_array(t_uint256)50_storage"
      },
      {
        "astId": 116,
        "contract": "contracts/routers/BurnRouterLogic.sol:BurnRouterLogic",
        "label": "_owner",
        "offset": 0,
        "slot": "65",
        "type": "t_address"
      },
      {
        "astId": 236,
        "contract": "contracts/routers/BurnRouterLogic.sol:BurnRouterLogic",
        "label": "__gap",
        "offset": 0,
        "slot": "66",
        "type": "t_array(t_uint256)49_storage"
      },
      {
        "astId": 25,
        "contract": "contracts/routers/BurnRouterLogic.sol:BurnRouterLogic",
        "label": "_pendingOwner",
        "offset": 0,
        "slot": "115",
        "type": "t_address"
      },
      {
        "astId": 104,
        "contract": "contracts/routers/BurnRouterLogic.sol:BurnRouterLogic",
        "label": "__gap",
        "offset": 0,
        "slot": "116",
        "type": "t_array(t_uint256)49_storage"
      },
      {
        "astId": 1072,
        "contract": "contracts/routers/BurnRouterLogic.sol:BurnRouterLogic",
        "label": "_status",
        "offset": 0,
        "slot": "165",
        "type": "t_uint256"
      },
      {
        "astId": 1130,
        "contract": "contracts/routers/BurnRouterLogic.sol:BurnRouterLogic",
        "label": "__gap",
        "offset": 0,
        "slot": "166",
        "type": "t_array(t_uint256)49_storage"
      },
      {
        "astId": 615,
        "contract": "contracts/routers/BurnRouterLogic.sol:BurnRouterLogic",
        "label": "__gap",
        "offset": 0,
        "slot": "215",
        "type": "t_array(t_uint256)50_storage"
      },
      {
        "astId": 930,
        "contract": "contracts/routers/BurnRouterLogic.sol:BurnRouterLogic",
        "label": "__gap",
        "offset": 0,
        "slot": "265",
        "type": "t_array(t_uint256)50_storage"
      }
    ],
    "types": {
      "t_address": {
        "encoding": "inplace",
        "label": "address",
        "numberOfBytes": "20"
      },
      "t_array(t_struct(burnRequest)20629_storage)dyn_storage": {
        "base": "t_struct(burnRequest)20629_storage",
        "encoding": "dynamic_array",
        "label": "struct BurnRouterStorage.burnRequest[]",
        "numberOfBytes": "32"
      },
      "t_array(t_uint256)49_storage": {
        "base": "t_uint256",
        "encoding": "inplace",
        "label": "uint256[49]",
        "numberOfBytes": "1568"
      },
      "t_array(t_uint256)50_storage": {
        "base": "t_uint256",
        "encoding": "inplace",
        "label": "uint256[50]",
        "numberOfBytes": "1600"
      },
      "t_bool": {
        "encoding": "inplace",
        "label": "bool",
        "numberOfBytes": "1"
      },
      "t_bytes32": {
        "encoding": "inplace",
        "label": "bytes32",
        "numberOfBytes": "32"
      },
      "t_bytes_storage": {
        "encoding": "bytes",
        "label": "bytes",
        "numberOfBytes": "32"
      },
      "t_enum(ScriptTypes)12047": {
        "encoding": "inplace",
        "label": "enum ScriptTypes",
        "numberOfBytes": "1"
      },
      "t_mapping(t_address,t_array(t_struct(burnRequest)20629_storage)dyn_storage)": {
        "encoding": "mapping",
        "key": "t_address",
        "label": "mapping(address => struct BurnRouterStorage.burnRequest[])",
        "numberOfBytes": "32",
        "value": "t_array(t_struct(burnRequest)20629_storage)dyn_storage"
      },
      "t_mapping(t_address,t_uint256)": {
        "encoding": "mapping",
        "key": "t_address",
        "label": "mapping(address => uint256)",
        "numberOfBytes": "32",
        "value": "t_uint256"
      },
      "t_mapping(t_bytes32,t_bool)": {
        "encoding": "mapping",
        "key": "t_bytes32",
        "label": "mapping(bytes32 => bool)",
        "numberOfBytes": "32",
        "value": "t_bool"
      },
      "t_struct(burnRequest)20629_storage": {
        "encoding": "inplace",
        "label": "struct BurnRouterStorage.burnRequest",
        "members": [
          {
            "astId": 20613,
            "contract": "contracts/routers/BurnRouterLogic.sol:BurnRouterLogic",
            "label": "amount",
            "offset": 0,
            "slot": "0",
            "type": "t_uint256"
          },
          {
            "astId": 20615,
            "contract": "contracts/routers/BurnRouterLogic.sol:BurnRouterLogic",
            "label": "burntAmount",
            "offset": 0,
            "slot": "1",
            "type": "t_uint256"
          },
          {
            "astId": 20617,
            "contract": "contracts/routers/BurnRouterLogic.sol:BurnRouterLogic",
            "label": "sender",
            "offset": 0,
            "slot": "2",
            "type": "t_address"
          },
          {
            "astId": 20619,
            "contract": "contracts/routers/BurnRouterLogic.sol:BurnRouterLogic",
            "label": "userScript",
            "offset": 0,
            "slot": "3",
            "type": "t_bytes_storage"
          },
          {
            "astId": 20621,
            "contract": "contracts/routers/BurnRouterLogic.sol:BurnRouterLogic",
            "label": "deadline",
            "offset": 0,
            "slot": "4",
            "type": "t_uint256"
          },
          {
            "astId": 20623,
            "contract": "contracts/routers/BurnRouterLogic.sol:BurnRouterLogic",
            "label": "isTransferred",
            "offset": 0,
            "slot": "5",
            "type": "t_bool"
          },
          {
            "astId": 20626,
            "contract": "contracts/routers/BurnRouterLogic.sol:BurnRouterLogic",
            "label": "scriptType",
            "offset": 1,
            "slot": "5",
            "type": "t_enum(ScriptTypes)12047"
          },
          {
            "astId": 20628,
            "contract": "contracts/routers/BurnRouterLogic.sol:BurnRouterLogic",
            "label": "requestIdOfLocker",
            "offset": 0,
            "slot": "6",
            "type": "t_uint256"
          }
        ],
        "numberOfBytes": "224"
      },
      "t_uint256": {
        "encoding": "inplace",
        "label": "uint256",
        "numberOfBytes": "32"
      },
      "t_uint8": {
        "encoding": "inplace",
        "label": "uint8",
        "numberOfBytes": "1"
      }
    }
  }
}