{
  "address": "0xDB30308EcE5b8D145B92330932CA69386a8074e4",
  "abi": [
    {
      "inputs": [],
      "stateMutability": "nonpayable",
      "type": "constructor"
    },
    {
      "anonymous": false,
      "inputs": [
        {
          "indexed": false,
          "internalType": "address",
          "name": "previousAdmin",
          "type": "address"
        },
        {
          "indexed": false,
          "internalType": "address",
          "name": "newAdmin",
          "type": "address"
        }
      ],
      "name": "AdminChanged",
      "type": "event"
    },
    {
      "anonymous": false,
      "inputs": [
        {
          "indexed": true,
          "internalType": "address",
          "name": "owner",
          "type": "address"
        },
        {
          "indexed": true,
          "internalType": "address",
          "name": "spender",
          "type": "address"
        },
        {
          "indexed": false,
          "internalType": "uint256",
          "name": "value",
          "type": "uint256"
        }
      ],
      "name": "Approval",
      "type": "event"
    },
    {
      "anonymous": false,
      "inputs": [
        {
          "indexed": true,
          "internalType": "address",
          "name": "beacon",
          "type": "address"
        }
      ],
      "name": "BeaconUpgraded",
      "type": "event"
    },
    {
      "anonymous": false,
      "inputs": [
        {
          "indexed": true,
          "internalType": "address",
          "name": "newBlackLister",
          "type": "address"
        }
      ],
      "name": "BlackListerAdded",
      "type": "event"
    },
    {
      "anonymous": false,
      "inputs": [
        {
          "indexed": true,
          "internalType": "address",
          "name": "blackLister",
          "type": "address"
        }
      ],
      "name": "BlackListerRemoved",
      "type": "event"
    },
    {
      "anonymous": false,
      "inputs": [
        {
          "indexed": true,
          "internalType": "address",
          "name": "account",
          "type": "address"
        }
      ],
      "name": "Blacklisted",
      "type": "event"
    },
    {
      "anonymous": false,
      "inputs": [
        {
          "indexed": true,
          "internalType": "address",
          "name": "doer",
          "type": "address"
        },
        {
          "indexed": true,
          "internalType": "address",
          "name": "burner",
          "type": "address"
        },
        {
          "indexed": false,
          "internalType": "uint256",
          "name": "value",
          "type": "uint256"
        }
      ],
      "name": "Burn",
      "type": "event"
    },
    {
      "anonymous": false,
      "inputs": [
        {
          "indexed": true,
          "internalType": "address",
          "name": "newBurner",
          "type": "address"
        }
      ],
      "name": "BurnerAdded",
      "type": "event"
    },
    {
      "anonymous": false,
      "inputs": [
        {
          "indexed": true,
          "internalType": "address",
          "name": "burner",
          "type": "address"
        }
      ],
      "name": "BurnerRemoved",
      "type": "event"
    },
    {
      "anonymous": false,
      "inputs": [
        {
          "indexed": false,
          "internalType": "uint8",
          "name": "version",
          "type": "uint8"
        }
      ],
      "name": "Initialized",
      "type": "event"
    },
    {
      "anonymous": false,
      "inputs": [
        {
          "indexed": true,
          "internalType": "address",
          "name": "doer",
          "type": "address"
        },
        {
          "indexed": true,
          "internalType": "address",
          "name": "receiver",
          "type": "address"
        },
        {
          "indexed": false,
          "internalType": "uint256",
          "name": "value",
          "type": "uint256"
        }
      ],
      "name": "Mint",
      "type": "event"
    },
    {
      "anonymous": false,
      "inputs": [
        {
          "indexed": true,
          "internalType": "address",
          "name": "newMinter",
          "type": "address"
        }
      ],
      "name": "MinterAdded",
      "type": "event"
    },
    {
      "anonymous": false,
      "inputs": [
        {
          "indexed": true,
          "internalType": "address",
          "name": "minter",
          "type": "address"
        }
      ],
      "name": "MinterRemoved",
      "type": "event"
    },
    {
      "anonymous": false,
      "inputs": [
        {
          "indexed": false,
          "internalType": "uint256",
          "name": "oldEpochLength",
          "type": "uint256"
        },
        {
          "indexed": false,
          "internalType": "uint256",
          "name": "newEpochLength",
          "type": "uint256"
        }
      ],
      "name": "NewEpochLength",
      "type": "event"
    },
    {
      "anonymous": false,
      "inputs": [
        {
          "indexed": false,
          "internalType": "uint256",
          "name": "oldMintLimit",
          "type": "uint256"
        },
        {
          "indexed": false,
          "internalType": "uint256",
          "name": "newMintLimit",
          "type": "uint256"
        }
      ],
      "name": "NewMintLimit",
      "type": "event"
    },
    {
      "anonymous": false,
      "inputs": [
        {
          "indexed": true,
          "internalType": "address",
          "name": "previousOwner",
          "type": "address"
        },
        {
          "indexed": true,
          "internalType": "address",
          "name": "newOwner",
          "type": "address"
        }
      ],
      "name": "OwnershipTransferStarted",
      "type": "event"
    },
    {
      "anonymous": false,
      "inputs": [
        {
          "indexed": true,
          "internalType": "address",
          "name": "previousOwner",
          "type": "address"
        },
        {
          "indexed": true,
          "internalType": "address",
          "name": "newOwner",
          "type": "address"
        }
      ],
      "name": "OwnershipTransferred",
      "type": "event"
    },
    {
      "anonymous": false,
      "inputs": [
        {
          "indexed": true,
          "internalType": "address",
          "name": "from",
          "type": "address"
        },
        {
          "indexed": true,
          "internalType": "address",
          "name": "to",
          "type": "address"
        },
        {
          "indexed": false,
          "internalType": "uint256",
          "name": "value",
          "type": "uint256"
        }
      ],
      "name": "Transfer",
      "type": "event"
    },
    {
      "anonymous": false,
      "inputs": [
        {
          "indexed": true,
          "internalType": "address",
          "name": "account",
          "type": "address"
        }
      ],
      "name": "UnBlacklisted",
      "type": "event"
    },
    {
      "anonymous": false,
      "inputs": [
        {
          "indexed": true,
          "internalType": "address",
          "name": "implementation",
          "type": "address"
        }
      ],
      "name": "Upgraded",
      "type": "event"
    },
    {
      "inputs": [],
      "name": "acceptOwnership",
      "outputs": [],
      "stateMutability": "nonpayable",
      "type": "function"
    },
    {
      "inputs": [
        {
          "internalType": "address",
          "name": "account",
          "type": "address"
        }
      ],
      "name": "addBlackLister",
      "outputs": [],
      "stateMutability": "nonpayable",
      "type": "function"
    },
    {
      "inputs": [
        {
          "internalType": "address",
          "name": "account",
          "type": "address"
        }
      ],
      "name": "addBurner",
      "outputs": [],
      "stateMutability": "nonpayable",
      "type": "function"
    },
    {
      "inputs": [
        {
          "internalType": "address",
          "name": "account",
          "type": "address"
        }
      ],
      "name": "addMinter",
      "outputs": [],
      "stateMutability": "nonpayable",
      "type": "function"
    },
    {
      "inputs": [
        {
          "internalType": "address",
          "name": "owner",
          "type": "address"
        },
        {
          "internalType": "address",
          "name": "spender",
          "type": "address"
        }
      ],
      "name": "allowance",
      "outputs": [
        {
          "internalType": "uint256",
          "name": "",
          "type": "uint256"
        }
      ],
      "stateMutability": "view",
      "type": "function"
    },
    {
      "inputs": [
        {
          "internalType": "address",
          "name": "spender",
          "type": "address"
        },
        {
          "internalType": "uint256",
          "name": "amount",
          "type": "uint256"
        }
      ],
      "name": "approve",
      "outputs": [
        {
          "internalType": "bool",
          "name": "",
          "type": "bool"
        }
      ],
      "stateMutability": "nonpayable",
      "type": "function"
    },
    {
      "inputs": [
        {
          "internalType": "address",
          "name": "account",
          "type": "address"
        }
      ],
      "name": "balanceOf",
      "outputs": [
        {
          "internalType": "uint256",
          "name": "",
          "type": "uint256"
        }
      ],
      "stateMutability": "view",
      "type": "function"
    },
    {
      "inputs": [
        {
          "internalType": "address",
          "name": "_account",
          "type": "address"
        }
      ],
      "name": "blacklist",
      "outputs": [],
      "stateMutability": "nonpayable",
      "type": "function"
    },
    {
      "inputs": [
        {
          "internalType": "address",
          "name": "",
          "type": "address"
        }
      ],
      "name": "blacklisters",
      "outputs": [
        {
          "internalType": "bool",
          "name": "",
          "type": "bool"
        }
      ],
      "stateMutability": "view",
      "type": "function"
    },
    {
      "inputs": [
        {
          "internalType": "uint256",
          "name": "_amount",
          "type": "uint256"
        }
      ],
      "name": "burn",
      "outputs": [
        {
          "internalType": "bool",
          "name": "",
          "type": "bool"
        }
      ],
      "stateMutability": "nonpayable",
      "type": "function"
    },
    {
      "inputs": [
        {
          "internalType": "address",
          "name": "",
          "type": "address"
        }
      ],
      "name": "burners",
      "outputs": [
        {
          "internalType": "bool",
          "name": "",
          "type": "bool"
        }
      ],
      "stateMutability": "view",
      "type": "function"
    },
    {
      "inputs": [],
      "name": "decimals",
      "outputs": [
        {
          "internalType": "uint8",
          "name": "",
          "type": "uint8"
        }
      ],
      "stateMutability": "view",
      "type": "function"
    },
    {
      "inputs": [
        {
          "internalType": "address",
          "name": "spender",
          "type": "address"
        },
        {
          "internalType": "uint256",
          "name": "subtractedValue",
          "type": "uint256"
        }
      ],
      "name": "decreaseAllowance",
      "outputs": [
        {
          "internalType": "bool",
          "name": "",
          "type": "bool"
        }
      ],
      "stateMutability": "nonpayable",
      "type": "function"
    },
    {
      "inputs": [],
      "name": "epochLength",
      "outputs": [
        {
          "internalType": "uint256",
          "name": "",
          "type": "uint256"
        }
      ],
      "stateMutability": "view",
      "type": "function"
    },
    {
      "inputs": [
        {
          "internalType": "address",
          "name": "spender",
          "type": "address"
        },
        {
          "internalType": "uint256",
          "name": "addedValue",
          "type": "uint256"
        }
      ],
      "name": "increaseAllowance",
      "outputs": [
        {
          "internalType": "bool",
          "name": "",
          "type": "bool"
        }
      ],
      "stateMutability": "nonpayable",
      "type": "function"
    },
    {
      "inputs": [
        {
          "internalType": "string",
          "name": "_name",
          "type": "string"
        },
        {
          "internalType": "string",
          "name": "_symbol",
          "type": "string"
        }
      ],
      "name": "initialize",
      "outputs": [],
      "stateMutability": "nonpayable",
      "type": "function"
    },
    {
      "inputs": [
        {
          "internalType": "address",
          "name": "account",
          "type": "address"
        }
      ],
      "name": "isBlackListed",
      "outputs": [
        {
          "internalType": "bool",
          "name": "",
          "type": "bool"
        }
      ],
      "stateMutability": "view",
      "type": "function"
    },
    {
      "inputs": [],
      "name": "lastEpoch",
      "outputs": [
        {
          "internalType": "uint256",
          "name": "",
          "type": "uint256"
        }
      ],
      "stateMutability": "view",
      "type": "function"
    },
    {
      "inputs": [],
      "name": "lastMintLimit",
      "outputs": [
        {
          "internalType": "uint256",
          "name": "",
          "type": "uint256"
        }
      ],
      "stateMutability": "view",
      "type": "function"
    },
    {
      "inputs": [],
      "name": "maxMintLimit",
      "outputs": [
        {
          "internalType": "uint256",
          "name": "",
          "type": "uint256"
        }
      ],
      "stateMutability": "view",
      "type": "function"
    },
    {
      "inputs": [
        {
          "internalType": "address",
          "name": "_receiver",
          "type": "address"
        },
        {
          "internalType": "uint256",
          "name": "_amount",
          "type": "uint256"
        }
      ],
      "name": "mint",
      "outputs": [
        {
          "internalType": "bool",
          "name": "",
          "type": "bool"
        }
      ],
      "stateMutability": "nonpayable",
      "type": "function"
    },
    {
      "inputs": [
        {
          "internalType": "address",
          "name": "",
          "type": "address"
        }
      ],
      "name": "minters",
      "outputs": [
        {
          "internalType": "bool",
          "name": "",
          "type": "bool"
        }
      ],
      "stateMutability": "view",
      "type": "function"
    },
    {
      "inputs": [],
      "name": "name",
      "outputs": [
        {
          "internalType": "string",
          "name": "",
          "type": "string"
        }
      ],
      "stateMutability": "view",
      "type": "function"
    },
    {
      "inputs": [],
      "name": "owner",
      "outputs": [
        {
          "internalType": "address",
          "name": "",
          "type": "address"
        }
      ],
      "stateMutability": "view",
      "type": "function"
    },
    {
      "inputs": [
        {
          "internalType": "address",
          "name": "_user",
          "type": "address"
        },
        {
          "internalType": "uint256",
          "name": "_amount",
          "type": "uint256"
        }
      ],
      "name": "ownerBurn",
      "outputs": [
        {
          "internalType": "bool",
          "name": "",
          "type": "bool"
        }
      ],
      "stateMutability": "nonpayable",
      "type": "function"
    },
    {
      "inputs": [],
      "name": "pendingOwner",
      "outputs": [
        {
          "internalType": "address",
          "name": "",
          "type": "address"
        }
      ],
      "stateMutability": "view",
      "type": "function"
    },
    {
      "inputs": [],
      "name": "proxiableUUID",
      "outputs": [
        {
          "internalType": "bytes32",
          "name": "",
          "type": "bytes32"
        }
      ],
      "stateMutability": "view",
      "type": "function"
    },
    {
      "inputs": [
        {
          "internalType": "address",
          "name": "account",
          "type": "address"
        }
      ],
      "name": "removeBlackLister",
      "outputs": [],
      "stateMutability": "nonpayable",
      "type": "function"
    },
    {
      "inputs": [
        {
          "internalType": "address",
          "name": "account",
          "type": "address"
        }
      ],
      "name": "removeBurner",
      "outputs": [],
      "stateMutability": "nonpayable",
      "type": "function"
    },
    {
      "inputs": [
        {
          "internalType": "address",
          "name": "account",
          "type": "address"
        }
      ],
      "name": "removeMinter",
      "outputs": [],
      "stateMutability": "nonpayable",
      "type": "function"
    },
    {
      "inputs": [],
      "name": "renounceOwnership",
      "outputs": [],
      "stateMutability": "nonpayable",
      "type": "function"
    },
    {
      "inputs": [
        {
          "internalType": "uint256",
          "name": "_length",
          "type": "uint256"
        }
      ],
      "name": "setEpochLength",
      "outputs": [],
      "stateMutability": "nonpayable",
      "type": "function"
    },
    {
      "inputs": [
        {
          "internalType": "uint256",
          "name": "_mintLimit",
          "type": "uint256"
        }
      ],
      "name": "setMaxMintLimit",
      "outputs": [],
      "stateMutability": "nonpayable",
      "type": "function"
    },
    {
      "inputs": [],
      "name": "symbol",
      "outputs": [
        {
          "internalType": "string",
          "name": "",
          "type": "string"
        }
      ],
      "stateMutability": "view",
      "type": "function"
    },
    {
      "inputs": [],
      "name": "totalSupply",
      "outputs": [
        {
          "internalType": "uint256",
          "name": "",
          "type": "uint256"
        }
      ],
      "stateMutability": "view",
      "type": "function"
    },
    {
      "inputs": [
        {
          "internalType": "address",
          "name": "to",
          "type": "address"
        },
        {
          "internalType": "uint256",
          "name": "amount",
          "type": "uint256"
        }
      ],
      "name": "transfer",
      "outputs": [
        {
          "internalType": "bool",
          "name": "",
          "type": "bool"
        }
      ],
      "stateMutability": "nonpayable",
      "type": "function"
    },
    {
      "inputs": [
        {
          "internalType": "address",
          "name": "from",
          "type": "address"
        },
        {
          "internalType": "address",
          "name": "to",
          "type": "address"
        },
        {
          "internalType": "uint256",
          "name": "amount",
          "type": "uint256"
        }
      ],
      "name": "transferFrom",
      "outputs": [
        {
          "internalType": "bool",
          "name": "",
          "type": "bool"
        }
      ],
      "stateMutability": "nonpayable",
      "type": "function"
    },
    {
      "inputs": [
        {
          "internalType": "address",
          "name": "newOwner",
          "type": "address"
        }
      ],
      "name": "transferOwnership",
      "outputs": [],
      "stateMutability": "nonpayable",
      "type": "function"
    },
    {
      "inputs": [
        {
          "internalType": "address",
          "name": "_account",
          "type": "address"
        }
      ],
      "name": "unBlacklist",
      "outputs": [],
      "stateMutability": "nonpayable",
      "type": "function"
    },
    {
      "inputs": [
        {
          "internalType": "address",
          "name": "newImplementation",
          "type": "address"
        }
      ],
      "name": "upgradeTo",
      "outputs": [],
      "stateMutability": "nonpayable",
      "type": "function"
    },
    {
      "inputs": [
        {
          "internalType": "address",
          "name": "newImplementation",
          "type": "address"
        },
        {
          "internalType": "bytes",
          "name": "data",
          "type": "bytes"
        }
      ],
      "name": "upgradeToAndCall",
      "outputs": [],
      "stateMutability": "payable",
      "type": "function"
    }
  ],
  "transactionHash": "0x2d3eba193df96c44fb6821becd433c6cb9cb693e6d3ca9dae4e66fdd8a0797c7",
  "args": [],
  "numDeployments": 1,
  "solcInputHash": "ac9518c8ccc368e962d7847f9baaffac",
  "bytecode": "0x60a06040523060601b6080523480156200001857600080fd5b506200002362000029565b620000eb565b600054610100900460ff1615620000965760405162461bcd60e51b815260206004820152602760248201527f496e697469616c697a61626c653a20636f6e747261637420697320696e697469604482015266616c697a696e6760c81b606482015260840160405180910390fd5b60005460ff9081161015620000e9576000805460ff191660ff9081179091556040519081527f7f26b83ff96e1f2b6a682f133852f6798a09c465da95921460cefb38474024989060200160405180910390a15b565b60805160601c6129f56200012660003960008181610a1e01528181610a5e01528181610e9a01528181610eda0152610f6d01526129f56000f3fe6080604052600436106102465760003560e01c806357d775f811610139578063a9059cbb116100b6578063e47d60601161007a578063e47d6060146106ae578063f2fde38b146106e8578063f44637ba14610708578063f46eccc414610728578063f926b50c14610759578063f9f92be41461077957600080fd5b8063a9059cbb14610610578063a9a99c0d14610630578063c000178614610650578063dd62ed3e14610670578063e30c39781461069057600080fd5b806379de8d35116100fd57806379de8d35146105695780638da5cb5b1461058957806395d89b41146105bb578063983b2d56146105d0578063a457c2d7146105f057600080fd5b806357d775f8146104db57806370a08231146104f257806370e2f82714610528578063715018a61461053f57806379ba50971461055457600080fd5b80633092afd5116101c757806342966c681161018b57806342966c68146104535780634cd88b76146104735780634f1ef2861461049357806352d1902d146104a657806354eea796146104bb57600080fd5b80633092afd5146103b7578063313ce567146103d75780633659cfe6146103f3578063395093511461041357806340c10f191461043357600080fd5b80630cb13b2e1161020e5780630cb13b2e1461031a57806318160ddd1461034b5780631a8952661461036057806323b872dd146103805780632f99582a146103a057600080fd5b8063028468581461024b57806303d41e0e1461026d57806306a4c983146102b357806306fdde03146102d8578063095ea7b3146102fa575b600080fd5b34801561025757600080fd5b5061026b610266366004612531565b610799565b005b34801561027957600080fd5b5061029e610288366004612531565b6101606020526000908152604090205460ff1681565b60405190151581526020015b60405180910390f35b3480156102bf57600080fd5b506102ca6101665481565b6040519081526020016102aa565b3480156102e457600080fd5b506102ed610819565b6040516102aa91906126e3565b34801561030657600080fd5b5061029e610315366004612617565b6108ab565b34801561032657600080fd5b5061029e610335366004612531565b6101616020526000908152604090205460ff1681565b34801561035757600080fd5b506035546102ca565b34801561036c57600080fd5b5061026b61037b366004612531565b6108c5565b34801561038c57600080fd5b5061029e61039b36600461257d565b610976565b3480156103ac57600080fd5b506102ca6101645481565b3480156103c357600080fd5b5061026b6103d2366004612531565b61099c565b3480156103e357600080fd5b50604051600881526020016102aa565b3480156103ff57600080fd5b5061026b61040e366004612531565b610a13565b34801561041f57600080fd5b5061029e61042e366004612617565b610af0565b34801561043f57600080fd5b5061029e61044e366004612617565b610b12565b34801561045f57600080fd5b5061029e61046e3660046126af565b610c9a565b34801561047f57600080fd5b5061026b61048e366004612658565b610d4c565b61026b6104a13660046125b8565b610e8f565b3480156104b257600080fd5b506102ca610f60565b3480156104c757600080fd5b5061026b6104d63660046126af565b611013565b3480156104e757600080fd5b506102ca6101655481565b3480156104fe57600080fd5b506102ca61050d366004612531565b6001600160a01b031660009081526033602052604090205490565b34801561053457600080fd5b506102ca6101635481565b34801561054b57600080fd5b5061026b6110a9565b34801561056057600080fd5b5061026b6110b3565b34801561057557600080fd5b5061026b610584366004612531565b61112a565b34801561059557600080fd5b506065546001600160a01b03165b6040516001600160a01b0390911681526020016102aa565b3480156105c757600080fd5b506102ed6111a1565b3480156105dc57600080fd5b5061026b6105eb366004612531565b6111b0565b3480156105fc57600080fd5b5061029e61060b366004612617565b61122b565b34801561061c57600080fd5b5061029e61062b366004612617565b6112b1565b34801561063c57600080fd5b5061026b61064b366004612531565b6112bf565b34801561065c57600080fd5b5061029e61066b366004612617565b61133a565b34801561067c57600080fd5b506102ca61068b36600461254b565b611422565b34801561069c57600080fd5b506097546001600160a01b03166105a3565b3480156106ba57600080fd5b5061029e6106c9366004612531565b6001600160a01b03166000908152610162602052604090205460ff1690565b3480156106f457600080fd5b5061026b610703366004612531565b61144d565b34801561071457600080fd5b5061026b610723366004612531565b6114be565b34801561073457600080fd5b5061029e610743366004612531565b61015f6020526000908152604090205460ff1681565b34801561076557600080fd5b5061026b6107743660046126af565b611539565b34801561078557600080fd5b5061026b610794366004612531565b611584565b6107a1611635565b6107aa8161168f565b6107cf5760405162461bcd60e51b81526004016107c69061285f565b60405180910390fd5b6001600160a01b03811660008181526101606020526040808220805460ff19169055517f90eabbc0c667db2a5029ed6bc0f5fe9f356d11684a4ca9fcfaec0e53f12b9c8e9190a250565b60606036805461082890612911565b80601f016020809104026020016040519081016040528092919081815260200182805461085490612911565b80156108a15780601f10610876576101008083540402835291602001916108a1565b820191906000526020600020905b81548152906001019060200180831161088457829003601f168201915b5050505050905090565b6000336108b98185856116d7565b60019150505b92915050565b6108cd6117fb565b6108d633611855565b6109225760405162461bcd60e51b815260206004820152601a60248201527f436f72654254433a206f6e6c7920626c61636b6c69737465727300000000000060448201526064016107c6565b6001600160a01b03811660008181526101626020526040808220805460ff19169055517f117e3210bb9aa7d9baff172026820255c6f6c30ba8999d1c2fd88e2848137c4e9190a2610973600160c955565b50565b6000336109848582856118a4565b61098f85858561191e565b60019150505b9392505050565b6109a4611635565b6109ad81611ad4565b6109c95760405162461bcd60e51b81526004016107c69061285f565b6001600160a01b038116600081815261015f6020526040808220805460ff19169055517fe94479a9f7e1952cc78f2d6baab678adc1b772d936c6583def489e524cb666929190a250565b306001600160a01b037f0000000000000000000000000000000000000000000000000000000000000000161415610a5c5760405162461bcd60e51b81526004016107c690612745565b7f00000000000000000000000000000000000000000000000000000000000000006001600160a01b0316610aa5600080516020612979833981519152546001600160a01b031690565b6001600160a01b031614610acb5760405162461bcd60e51b81526004016107c690612791565b610ad481611b1c565b6040805160008082526020820190925261097391839190611b24565b6000336108b9818585610b038383611422565b610b0d9190612896565b6116d7565b6000610b1c6117fb565b610b2533611ad4565b610b715760405162461bcd60e51b815260206004820152601e60248201527f436f72654254433a206f6e6c79206d696e746572732063616e206d696e74000060448201526064016107c6565b61016354821115610be15760405162461bcd60e51b815260206004820152603460248201527f436f72654254433a206d696e7420616d6f756e74206973206d6f7265207468616044820152731b881b585e1a5b5d5b481b5a5b9d081b1a5b5a5d60621b60648201526084016107c6565b610bea82611c9e565b610c425760405162461bcd60e51b815260206004820152602360248201527f436f72654254433a2072656163686564206d6178696d756d206d696e74206c696044820152621b5a5d60ea1b60648201526084016107c6565b610c4c8383611d12565b6040518281526001600160a01b0384169033907fab8530f87dc9b59234c4623bf917212bb2536d647574c8e7e5da92c2ede0c9f8906020015b60405180910390a35060016108bf600160c955565b6000610ca46117fb565b610cad3361168f565b610cf95760405162461bcd60e51b815260206004820152601e60248201527f436f72654254433a206f6e6c79206275726e6572732063616e206275726e000060448201526064016107c6565b610d033383611ddf565b604051828152339081907fbac40739b0d4ca32fa2d82fc91630465ba3eddd1598da6fca393b26fb63b94539060200160405180910390a3506001610d47600160c955565b919050565b600054610100900460ff1615808015610d6c5750600054600160ff909116105b80610d865750303b158015610d86575060005460ff166001145b610de95760405162461bcd60e51b815260206004820152602e60248201527f496e697469616c697a61626c653a20636f6e747261637420697320616c72656160448201526d191e481a5b9a5d1a585b1a5e995960921b60648201526084016107c6565b6000805460ff191660011790558015610e0c576000805461ff0019166101001790555b610e168383611f1f565b610e1e611f50565b610e26611f7f565b610e2e611fae565b6305f5e100610163819055610164556107d0610165558015610e8a576000805461ff0019169055604051600181527f7f26b83ff96e1f2b6a682f133852f6798a09c465da95921460cefb38474024989060200160405180910390a15b505050565b306001600160a01b037f0000000000000000000000000000000000000000000000000000000000000000161415610ed85760405162461bcd60e51b81526004016107c690612745565b7f00000000000000000000000000000000000000000000000000000000000000006001600160a01b0316610f21600080516020612979833981519152546001600160a01b031690565b6001600160a01b031614610f475760405162461bcd60e51b81526004016107c690612791565b610f5082611b1c565b610f5c82826001611b24565b5050565b6000306001600160a01b037f000000000000000000000000000000000000000000000000000000000000000016146110005760405162461bcd60e51b815260206004820152603860248201527f555550535570677261646561626c653a206d757374206e6f742062652063616c60448201527f6c6564207468726f7567682064656c656761746563616c6c000000000000000060648201526084016107c6565b5060008051602061297983398151915290565b61101b611635565b80600081116110655760405162461bcd60e51b8152602060048201526016602482015275436f72654254433a2076616c7565206973207a65726f60501b60448201526064016107c6565b6101655460408051918252602082018490527fd077b1717c042dc03e7eb68030220b62f703db305be2ffb5b9e1d91b639a63f9910160405180910390a15061016555565b6110b1611635565b565b60975433906001600160a01b031681146111215760405162461bcd60e51b815260206004820152602960248201527f4f776e61626c6532537465703a2063616c6c6572206973206e6f7420746865206044820152683732bb9037bbb732b960b91b60648201526084016107c6565b61097381611fd5565b611132611635565b61113b81611855565b6111575760405162461bcd60e51b81526004016107c69061285f565b6001600160a01b03811660008181526101616020526040808220805460ff19169055517f607ec77f7f06689ae7a01995caa85bbfcf586a9139e10f97347c90aa8cadd5099190a250565b60606037805461082890612911565b6111b8611635565b6111c181611ad4565b156111de5760405162461bcd60e51b81526004016107c6906127dd565b6001600160a01b038116600081815261015f6020526040808220805460ff19166001179055517f6ae172837ea30b801fbfcdd4108aa1d5bf8ff775444fd70256b44e6bf3dfc3f69190a250565b600033816112398286611422565b9050838110156112995760405162461bcd60e51b815260206004820152602560248201527f45524332303a2064656372656173656420616c6c6f77616e63652062656c6f77604482015264207a65726f60d81b60648201526084016107c6565b6112a682868684036116d7565b506001949350505050565b6000336108b981858561191e565b6112c7611635565b6112d081611855565b156112ed5760405162461bcd60e51b81526004016107c6906127dd565b6001600160a01b03811660008181526101616020526040808220805460ff19166001179055517fb41bc3cdd4276b81dcdeb2f03c2457457661be122c22ade780eacc9398e975829190a250565b60006113446117fb565b61134c611635565b6001600160a01b0383166000908152610162602052604090205460ff16156113c2576001600160a01b038316600090815261016260205260409020805460ff191690556113998383611ddf565b6001600160a01b038316600090815261016260205260409020805460ff191660011790556113cc565b6113cc8383611ddf565b826001600160a01b03166113e86065546001600160a01b031690565b6001600160a01b03167fbac40739b0d4ca32fa2d82fc91630465ba3eddd1598da6fca393b26fb63b945384604051610c8591815260200190565b6001600160a01b03918216600090815260346020908152604080832093909416825291909152205490565b611455611635565b609780546001600160a01b0383166001600160a01b031990911681179091556114866065546001600160a01b031690565b6001600160a01b03167f38d16b8cac22d99fc7c124b9cd0de2d3fa1faef420bfe791d8c362d765e2270060405160405180910390a350565b6114c6611635565b6114cf8161168f565b156114ec5760405162461bcd60e51b81526004016107c6906127dd565b6001600160a01b03811660008181526101606020526040808220805460ff19166001179055517f86e57fd2b90329052917118de7c3f521f400d439b9650deaa906a25b08b945609190a250565b611541611635565b6101635460408051918252602082018390527f36ab29917278ebced3c63670f7872f78555ed7cdb4aa5184a159eb978be79508910160405180910390a161016355565b61158c6117fb565b61159533611855565b6115e15760405162461bcd60e51b815260206004820152601a60248201527f436f72654254433a206f6e6c7920626c61636b6c69737465727300000000000060448201526064016107c6565b6001600160a01b03811660008181526101626020526040808220805460ff19166001179055517fffa4e6181777692565cf28528fc88fd1516ea86b56da075235fa575af6a4b8559190a2610973600160c955565b6065546001600160a01b031633146110b15760405162461bcd60e51b815260206004820181905260248201527f4f776e61626c653a2063616c6c6572206973206e6f7420746865206f776e657260448201526064016107c6565b60006001600160a01b0382166116b75760405162461bcd60e51b81526004016107c690612716565b506001600160a01b03166000908152610160602052604090205460ff1690565b6001600160a01b0383166117395760405162461bcd60e51b8152602060048201526024808201527f45524332303a20617070726f76652066726f6d20746865207a65726f206164646044820152637265737360e01b60648201526084016107c6565b6001600160a01b03821661179a5760405162461bcd60e51b815260206004820152602260248201527f45524332303a20617070726f766520746f20746865207a65726f206164647265604482015261737360f01b60648201526084016107c6565b6001600160a01b0383811660008181526034602090815260408083209487168084529482529182902085905590518481527f8c5be1e5ebec7d5bd14f71427d1e84f3dd0314c0f7b2291e5b200ac8c7c3b925910160405180910390a3505050565b600260c954141561184e5760405162461bcd60e51b815260206004820152601f60248201527f5265656e7472616e637947756172643a207265656e7472616e742063616c6c0060448201526064016107c6565b600260c955565b60006001600160a01b03821661187d5760405162461bcd60e51b81526004016107c690612716565b506001600160a01b03166000908152610161602052604090205460ff1690565b600160c955565b60006118b08484611422565b90506000198114611918578181101561190b5760405162461bcd60e51b815260206004820152601d60248201527f45524332303a20696e73756666696369656e7420616c6c6f77616e636500000060448201526064016107c6565b61191884848484036116d7565b50505050565b6001600160a01b0383166119825760405162461bcd60e51b815260206004820152602560248201527f45524332303a207472616e736665722066726f6d20746865207a65726f206164604482015264647265737360d81b60648201526084016107c6565b6001600160a01b0382166119e45760405162461bcd60e51b815260206004820152602360248201527f45524332303a207472616e7366657220746f20746865207a65726f206164647260448201526265737360e81b60648201526084016107c6565b6119ef838383611fee565b6001600160a01b03831660009081526033602052604090205481811015611a675760405162461bcd60e51b815260206004820152602660248201527f45524332303a207472616e7366657220616d6f756e7420657863656564732062604482015265616c616e636560d01b60648201526084016107c6565b6001600160a01b0380851660008181526033602052604080822086860390559286168082529083902080548601905591517fddf252ad1be2c89b69c2b068fc378daa952ba7f163c4a11628f55a4df523b3ef90611ac79086815260200190565b60405180910390a3611918565b60006001600160a01b038216611afc5760405162461bcd60e51b81526004016107c690612716565b506001600160a01b0316600090815261015f602052604090205460ff1690565b610973611635565b7f4910fdfa16fed3260ed0e7147f7cc6da11a60208b5b9406d12a635614ffd91435460ff1615611b5757610e8a836120c2565b826001600160a01b03166352d1902d6040518163ffffffff1660e01b815260040160206040518083038186803b158015611b9057600080fd5b505afa925050508015611bc0575060408051601f3d908101601f19168201909252611bbd91810190612640565b60015b611c235760405162461bcd60e51b815260206004820152602e60248201527f45524331393637557067726164653a206e657720696d706c656d656e7461746960448201526d6f6e206973206e6f74205555505360901b60648201526084016107c6565b6000805160206129798339815191528114611c925760405162461bcd60e51b815260206004820152602960248201527f45524331393637557067726164653a20756e737570706f727465642070726f786044820152681a58589b195555525160ba1b60648201526084016107c6565b50610e8a83838361215e565b6000806101655443611cb091906128ae565b905061016654811415611cef5761016454831115611cd15750600092915050565b826101646000828254611ce491906128ce565b90915550611d099050565b61016681905561016354611d049084906128ce565b610164555b50600192915050565b6001600160a01b038216611d685760405162461bcd60e51b815260206004820152601f60248201527f45524332303a206d696e7420746f20746865207a65726f20616464726573730060448201526064016107c6565b611d7460008383611fee565b8060356000828254611d869190612896565b90915550506001600160a01b0382166000818152603360209081526040808320805486019055518481527fddf252ad1be2c89b69c2b068fc378daa952ba7f163c4a11628f55a4df523b3ef910160405180910390a35050565b6001600160a01b038216611e3f5760405162461bcd60e51b815260206004820152602160248201527f45524332303a206275726e2066726f6d20746865207a65726f206164647265736044820152607360f81b60648201526084016107c6565b611e4b82600083611fee565b6001600160a01b03821660009081526033602052604090205481811015611ebf5760405162461bcd60e51b815260206004820152602260248201527f45524332303a206275726e20616d6f756e7420657863656564732062616c616e604482015261636560f01b60648201526084016107c6565b6001600160a01b03831660008181526033602090815260408083208686039055603580548790039055518581529192917fddf252ad1be2c89b69c2b068fc378daa952ba7f163c4a11628f55a4df523b3ef910160405180910390a3505050565b600054610100900460ff16611f465760405162461bcd60e51b81526004016107c690612814565b610f5c8282612183565b600054610100900460ff16611f775760405162461bcd60e51b81526004016107c690612814565b6110b16121d1565b600054610100900460ff16611fa65760405162461bcd60e51b81526004016107c690612814565b6110b1612201565b600054610100900460ff166110b15760405162461bcd60e51b81526004016107c690612814565b609780546001600160a01b031916905561097381612228565b6001600160a01b0383166000908152610162602052604090205460ff16156120585760405162461bcd60e51b815260206004820152601c60248201527f436f72654254433a2066726f6d20697320626c61636b6c69737465640000000060448201526064016107c6565b6001600160a01b0382166000908152610162602052604090205460ff1615610e8a5760405162461bcd60e51b815260206004820152601a60248201527f436f72654254433a20746f20697320626c61636b6c697374656400000000000060448201526064016107c6565b6001600160a01b0381163b61212f5760405162461bcd60e51b815260206004820152602d60248201527f455243313936373a206e657720696d706c656d656e746174696f6e206973206e60448201526c1bdd08184818dbdb9d1c9858dd609a1b60648201526084016107c6565b60008051602061297983398151915280546001600160a01b0319166001600160a01b0392909216919091179055565b6121678361227a565b6000825111806121745750805b15610e8a5761191883836122ba565b600054610100900460ff166121aa5760405162461bcd60e51b81526004016107c690612814565b81516121bd9060369060208501906123ec565b508051610e8a9060379060208401906123ec565b600054610100900460ff166121f85760405162461bcd60e51b81526004016107c690612814565b6110b133611fd5565b600054610100900460ff1661189d5760405162461bcd60e51b81526004016107c690612814565b606580546001600160a01b038381166001600160a01b0319831681179093556040519116919082907f8be0079c531659141344cd1fd0a4f28419497f9722a3daafe3b4186f6b6457e090600090a35050565b612283816120c2565b6040516001600160a01b038216907fbc7cd75a20ee27fd9adebab32041f755214dbc6bffa90cc0225b39da2e5c2d3b90600090a250565b60606001600160a01b0383163b6123225760405162461bcd60e51b815260206004820152602660248201527f416464726573733a2064656c65676174652063616c6c20746f206e6f6e2d636f6044820152651b9d1c9858dd60d21b60648201526084016107c6565b600080846001600160a01b03168460405161233d91906126c7565b600060405180830381855af49150503d8060008114612378576040519150601f19603f3d011682016040523d82523d6000602084013e61237d565b606091505b50915091506123a58282604051806060016040528060278152602001612999602791396123ae565b95945050505050565b606083156123bd575081610995565b61099583838151156123d25781518083602001fd5b8060405162461bcd60e51b81526004016107c691906126e3565b8280546123f890612911565b90600052602060002090601f01602090048101928261241a5760008555612460565b82601f1061243357805160ff1916838001178555612460565b82800160010185558215612460579182015b82811115612460578251825591602001919060010190612445565b5061246c929150612470565b5090565b5b8082111561246c5760008155600101612471565b600067ffffffffffffffff808411156124a0576124a0612962565b604051601f8501601f19908116603f011681019082821181831017156124c8576124c8612962565b816040528093508581528686860111156124e157600080fd5b858560208301376000602087830101525050509392505050565b80356001600160a01b0381168114610d4757600080fd5b600082601f830112612522578081fd5b61099583833560208501612485565b600060208284031215612542578081fd5b610995826124fb565b6000806040838503121561255d578081fd5b612566836124fb565b9150612574602084016124fb565b90509250929050565b600080600060608486031215612591578081fd5b61259a846124fb565b92506125a8602085016124fb565b9150604084013590509250925092565b600080604083850312156125ca578182fd5b6125d3836124fb565b9150602083013567ffffffffffffffff8111156125ee578182fd5b8301601f810185136125fe578182fd5b61260d85823560208401612485565b9150509250929050565b60008060408385031215612629578182fd5b612632836124fb565b946020939093013593505050565b600060208284031215612651578081fd5b5051919050565b6000806040838503121561266a578182fd5b823567ffffffffffffffff80821115612681578384fd5b61268d86838701612512565b935060208501359150808211156126a2578283fd5b5061260d85828601612512565b6000602082840312156126c0578081fd5b5035919050565b600082516126d98184602087016128e5565b9190910192915050565b60208152600082518060208401526127028160408501602087016128e5565b601f01601f19169190910160400192915050565b602080825260159082015274436f72654254433a207a65726f206164647265737360581b604082015260600190565b6020808252602c908201527f46756e6374696f6e206d7573742062652063616c6c6564207468726f7567682060408201526b19195b1959d85d1958d85b1b60a21b606082015260800190565b6020808252602c908201527f46756e6374696f6e206d7573742062652063616c6c6564207468726f7567682060408201526b6163746976652070726f787960a01b606082015260800190565b60208082526019908201527f436f72654254433a20616c72656164792068617320726f6c6500000000000000604082015260600190565b6020808252602b908201527f496e697469616c697a61626c653a20636f6e7472616374206973206e6f74206960408201526a6e697469616c697a696e6760a81b606082015260800190565b6020808252601b908201527f436f72654254433a20646f6573206e6f74206861766520726f6c650000000000604082015260600190565b600082198211156128a9576128a961294c565b500190565b6000826128c957634e487b7160e01b81526012600452602481fd5b500490565b6000828210156128e0576128e061294c565b500390565b60005b838110156129005781810151838201526020016128e8565b838111156119185750506000910152565b600181811c9082168061292557607f821691505b6020821081141561294657634e487b7160e01b600052602260045260246000fd5b50919050565b634e487b7160e01b600052601160045260246000fd5b634e487b7160e01b600052604160045260246000fdfe360894a13ba1a3210667c828492db98dca3e2076cc3735a920a3ca505d382bbc416464726573733a206c6f772d6c6576656c2064656c65676174652063616c6c206661696c6564a26469706673582212205847840bf99a3c6dcc08525977da361de44262103da5dab01e0729589efd6eed64736f6c63430008040033",
  "devdoc": {
    "kind": "dev",
    "methods": {
      "acceptOwnership()": {
        "details": "The new owner accepts the ownership transfer."
      },
      "addBlackLister(address)": {
        "details": "Only owner can call this function",
        "params": {
          "account": "The account which intended to be added to blacklisters"
        }
      },
      "addBurner(address)": {
        "details": "Only owner can call this function",
        "params": {
          "account": "The account which intended to be added to burners"
        }
      },
      "addMinter(address)": {
        "details": "Only owner can call this function",
        "params": {
          "account": "The account which intended to be added to minters"
        }
      },
      "allowance(address,address)": {
        "details": "See {IERC20-allowance}."
      },
      "approve(address,uint256)": {
        "details": "See {IERC20-approve}. NOTE: If `amount` is the maximum `uint256`, the allowance is not updated on `transferFrom`. This is semantically equivalent to an infinite approval. Requirements: - `spender` cannot be the zero address."
      },
      "balanceOf(address)": {
        "details": "See {IERC20-balanceOf}."
      },
      "blacklist(address)": {
        "details": "Only Blacklisters can call this",
        "params": {
          "_account": "Account blacklisted"
        }
      },
      "burn(uint256)": {
        "details": "Only burners can call this",
        "params": {
          "_amount": "Amount of burnt tokens"
        }
      },
      "decreaseAllowance(address,uint256)": {
        "details": "Atomically decreases the allowance granted to `spender` by the caller. This is an alternative to {approve} that can be used as a mitigation for problems described in {IERC20-approve}. Emits an {Approval} event indicating the updated allowance. Requirements: - `spender` cannot be the zero address. - `spender` must have allowance for the caller of at least `subtractedValue`."
      },
      "increaseAllowance(address,uint256)": {
        "details": "Atomically increases the allowance granted to `spender` by the caller. This is an alternative to {approve} that can be used as a mitigation for problems described in {IERC20-approve}. Emits an {Approval} event indicating the updated allowance. Requirements: - `spender` cannot be the zero address."
      },
      "isBlackListed(address)": {
        "details": "Check if an account is blacklisted.",
        "returns": {
          "_0": "bool"
        }
      },
      "mint(address,uint256)": {
        "details": "Only minters can call this",
        "params": {
          "_amount": "Amount of minted tokens",
          "_receiver": "Address of token's receiver"
        }
      },
      "name()": {
        "details": "Returns the name of the token."
      },
      "owner()": {
        "details": "Returns the address of the current owner."
      },
      "ownerBurn(address,uint256)": {
        "details": "Only owner can call this",
        "params": {
          "_amount": "Amount of burnt tokens",
          "_user": "Address of user whose coreBTC is burnt"
        }
      },
      "pendingOwner()": {
        "details": "Returns the address of the pending owner."
      },
      "proxiableUUID()": {
        "details": "Implementation of the ERC1822 {proxiableUUID} function. This returns the storage slot used by the implementation. It is used to validate the implementation's compatibility when performing an upgrade. IMPORTANT: A proxy pointing at a proxiable contract should not be considered proxiable itself, because this risks bricking a proxy that upgrades to it, by delegating to itself until out of gas. Thus it is critical that this function revert if invoked through a proxy. This is guaranteed by the `notDelegated` modifier."
      },
      "removeBlackLister(address)": {
        "details": "Only owner can call this function",
        "params": {
          "account": "The account which intended to be removed from blacklisters"
        }
      },
      "removeBurner(address)": {
        "details": "Only owner can call this function",
        "params": {
          "account": "The account which intended to be removed from burners"
        }
      },
      "removeMinter(address)": {
        "details": "Only owner can call this function",
        "params": {
          "account": "The account which intended to be removed from minters"
        }
      },
      "renounceOwnership()": {
        "details": "Leaves the contract without owner. It will not be possible to call `onlyOwner` functions anymore. Can only be called by the current owner. NOTE: Renouncing ownership will leave the contract without an owner, thereby removing any functionality that is only available to the owner."
      },
      "setEpochLength(uint256)": {
        "details": "change blocks number per epoch."
      },
      "setMaxMintLimit(uint256)": {
        "details": "change maximum mint limit per epoch."
      },
      "symbol()": {
        "details": "Returns the symbol of the token, usually a shorter version of the name."
      },
      "totalSupply()": {
        "details": "See {IERC20-totalSupply}."
      },
      "transfer(address,uint256)": {
        "details": "See {IERC20-transfer}. Requirements: - `to` cannot be the zero address. - the caller must have a balance of at least `amount`."
      },
      "transferFrom(address,address,uint256)": {
        "details": "See {IERC20-transferFrom}. Emits an {Approval} event indicating the updated allowance. This is not required by the EIP. See the note at the beginning of {ERC20}. NOTE: Does not update the allowance if the current allowance is the maximum `uint256`. Requirements: - `from` and `to` cannot be the zero address. - `from` must have a balance of at least `amount`. - the caller must have allowance for ``from``'s tokens of at least `amount`."
      },
      "transferOwnership(address)": {
        "details": "Starts the ownership transfer of the contract to a new account. Replaces the pending transfer if there is one. Can only be called by the current owner."
      },
      "unBlacklist(address)": {
        "details": "Only Blacklisters can call this",
        "params": {
          "_account": "Account unblacklisted"
        }
      },
      "upgradeTo(address)": {
        "details": "Upgrade the implementation of the proxy to `newImplementation`. Calls {_authorizeUpgrade}. Emits an {Upgraded} event."
      },
      "upgradeToAndCall(address,bytes)": {
        "details": "Upgrade the implementation of the proxy to `newImplementation`, and subsequently execute the function call encoded in `data`. Calls {_authorizeUpgrade}. Emits an {Upgraded} event."
      }
    },
    "version": 1
  },
  "userdoc": {
    "kind": "user",
    "methods": {
      "addBlackLister(address)": {
        "notice": "Adds a blacklister"
      },
      "addBurner(address)": {
        "notice": "Adds a burner"
      },
      "addMinter(address)": {
        "notice": "Adds a minter"
      },
      "blacklist(address)": {
        "notice": "Blacklist an account"
      },
      "burn(uint256)": {
        "notice": "Burns CoreBTC tokens of msg.sender"
      },
      "mint(address,uint256)": {
        "notice": "Mints CoreBTC tokens for _receiver"
      },
      "ownerBurn(address,uint256)": {
        "notice": "Burns CoreBTC tokens of user"
      },
      "removeBlackLister(address)": {
        "notice": "Removes a blacklister"
      },
      "removeBurner(address)": {
        "notice": "Removes a burner"
      },
      "removeMinter(address)": {
        "notice": "Removes a minter"
      },
      "unBlacklist(address)": {
        "notice": "UnBlacklist an account"
      }
    },
    "version": 1
  },
  "storageLayout": {
    "storage": [
      {
        "astId": 633,
        "contract": "contracts/erc20/CoreBTCLogic.sol:CoreBTCLogic",
        "label": "_initialized",
        "offset": 0,
        "slot": "0",
        "type": "t_uint8"
      },
      {
        "astId": 636,
        "contract": "contracts/erc20/CoreBTCLogic.sol:CoreBTCLogic",
        "label": "_initializing",
        "offset": 1,
        "slot": "0",
        "type": "t_bool"
      },
      {
        "astId": 2171,
        "contract": "contracts/erc20/CoreBTCLogic.sol:CoreBTCLogic",
        "label": "__gap",
        "offset": 0,
        "slot": "1",
        "type": "t_array(t_uint256)50_storage"
      },
      {
        "astId": 1150,
        "contract": "contracts/erc20/CoreBTCLogic.sol:CoreBTCLogic",
        "label": "_balances",
        "offset": 0,
        "slot": "51",
        "type": "t_mapping(t_address,t_uint256)"
      },
      {
        "astId": 1156,
        "contract": "contracts/erc20/CoreBTCLogic.sol:CoreBTCLogic",
        "label": "_allowances",
        "offset": 0,
        "slot": "52",
        "type": "t_mapping(t_address,t_mapping(t_address,t_uint256))"
      },
      {
        "astId": 1158,
        "contract": "contracts/erc20/CoreBTCLogic.sol:CoreBTCLogic",
        "label": "_totalSupply",
        "offset": 0,
        "slot": "53",
        "type": "t_uint256"
      },
      {
        "astId": 1160,
        "contract": "contracts/erc20/CoreBTCLogic.sol:CoreBTCLogic",
        "label": "_name",
        "offset": 0,
        "slot": "54",
        "type": "t_string_storage"
      },
      {
        "astId": 1162,
        "contract": "contracts/erc20/CoreBTCLogic.sol:CoreBTCLogic",
        "label": "_symbol",
        "offset": 0,
        "slot": "55",
        "type": "t_string_storage"
      },
      {
        "astId": 1742,
        "contract": "contracts/erc20/CoreBTCLogic.sol:CoreBTCLogic",
        "label": "__gap",
        "offset": 0,
        "slot": "56",
        "type": "t_array(t_uint256)45_storage"
      },
      {
        "astId": 116,
        "contract": "contracts/erc20/CoreBTCLogic.sol:CoreBTCLogic",
        "label": "_owner",
        "offset": 0,
        "slot": "101",
        "type": "t_address"
      },
      {
        "astId": 236,
        "contract": "contracts/erc20/CoreBTCLogic.sol:CoreBTCLogic",
        "label": "__gap",
        "offset": 0,
        "slot": "102",
        "type": "t_array(t_uint256)49_storage"
      },
      {
        "astId": 25,
        "contract": "contracts/erc20/CoreBTCLogic.sol:CoreBTCLogic",
        "label": "_pendingOwner",
        "offset": 0,
        "slot": "151",
        "type": "t_address"
      },
      {
        "astId": 104,
        "contract": "contracts/erc20/CoreBTCLogic.sol:CoreBTCLogic",
        "label": "__gap",
        "offset": 0,
        "slot": "152",
        "type": "t_array(t_uint256)49_storage"
      },
      {
        "astId": 1072,
        "contract": "contracts/erc20/CoreBTCLogic.sol:CoreBTCLogic",
        "label": "_status",
        "offset": 0,
        "slot": "201",
        "type": "t_uint256"
      },
      {
        "astId": 1130,
        "contract": "contracts/erc20/CoreBTCLogic.sol:CoreBTCLogic",
        "label": "__gap",
        "offset": 0,
        "slot": "202",
        "type": "t_array(t_uint256)49_storage"
      },
      {
        "astId": 615,
        "contract": "contracts/erc20/CoreBTCLogic.sol:CoreBTCLogic",
        "label": "__gap",
        "offset": 0,
        "slot": "251",
        "type": "t_array(t_uint256)50_storage"
      },
      {
        "astId": 930,
        "contract": "contracts/erc20/CoreBTCLogic.sol:CoreBTCLogic",
        "label": "__gap",
        "offset": 0,
        "slot": "301",
        "type": "t_array(t_uint256)50_storage"
      },
      {
        "astId": 12131,
        "contract": "contracts/erc20/CoreBTCLogic.sol:CoreBTCLogic",
        "label": "minters",
        "offset": 0,
        "slot": "351",
        "type": "t_mapping(t_address,t_bool)"
      },
      {
        "astId": 12135,
        "contract": "contracts/erc20/CoreBTCLogic.sol:CoreBTCLogic",
        "label": "burners",
        "offset": 0,
        "slot": "352",
        "type": "t_mapping(t_address,t_bool)"
      },
      {
        "astId": 12139,
        "contract": "contracts/erc20/CoreBTCLogic.sol:CoreBTCLogic",
        "label": "blacklisters",
        "offset": 0,
        "slot": "353",
        "type": "t_mapping(t_address,t_bool)"
      },
      {
        "astId": 12143,
        "contract": "contracts/erc20/CoreBTCLogic.sol:CoreBTCLogic",
        "label": "blacklisted",
        "offset": 0,
        "slot": "354",
        "type": "t_mapping(t_address,t_bool)"
      },
      {
        "astId": 12145,
        "contract": "contracts/erc20/CoreBTCLogic.sol:CoreBTCLogic",
        "label": "maxMintLimit",
        "offset": 0,
        "slot": "355",
        "type": "t_uint256"
      },
      {
        "astId": 12147,
        "contract": "contracts/erc20/CoreBTCLogic.sol:CoreBTCLogic",
        "label": "lastMintLimit",
        "offset": 0,
        "slot": "356",
        "type": "t_uint256"
      },
      {
        "astId": 12149,
        "contract": "contracts/erc20/CoreBTCLogic.sol:CoreBTCLogic",
        "label": "epochLength",
        "offset": 0,
        "slot": "357",
        "type": "t_uint256"
      },
      {
        "astId": 12151,
        "contract": "contracts/erc20/CoreBTCLogic.sol:CoreBTCLogic",
        "label": "lastEpoch",
        "offset": 0,
        "slot": "358",
        "type": "t_uint256"
      }
    ],
    "types": {
      "t_address": {
        "encoding": "inplace",
        "label": "address",
        "numberOfBytes": "20"
      },
      "t_array(t_uint256)45_storage": {
        "base": "t_uint256",
        "encoding": "inplace",
        "label": "uint256[45]",
        "numberOfBytes": "1440"
      },
      "t_array(t_uint256)49_storage": {
        "base": "t_uint256",
        "encoding": "inplace",
        "label": "uint256[49]",
        "numberOfBytes": "1568"
      },
      "t_array(t_uint256)50_storage": {
        "base": "t_uint256",
        "encoding": "inplace",
        "label": "uint256[50]",
        "numberOfBytes": "1600"
      },
      "t_bool": {
        "encoding": "inplace",
        "label": "bool",
        "numberOfBytes": "1"
      },
      "t_mapping(t_address,t_bool)": {
        "encoding": "mapping",
        "key": "t_address",
        "label": "mapping(address => bool)",
        "numberOfBytes": "32",
        "value": "t_bool"
      },
      "t_mapping(t_address,t_mapping(t_address,t_uint256))": {
        "encoding": "mapping",
        "key": "t_address",
        "label": "mapping(address => mapping(address => uint256))",
        "numberOfBytes": "32",
        "value": "t_mapping(t_address,t_uint256)"
      },
      "t_mapping(t_address,t_uint256)": {
        "encoding": "mapping",
        "key": "t_address",
        "label": "mapping(address => uint256)",
        "numberOfBytes": "32",
        "value": "t_uint256"
      },
      "t_string_storage": {
        "encoding": "bytes",
        "label": "string",
        "numberOfBytes": "32"
      },
      "t_uint256": {
        "encoding": "inplace",
        "label": "uint256",
        "numberOfBytes": "32"
      },
      "t_uint8": {
        "encoding": "inplace",
        "label": "uint8",
        "numberOfBytes": "1"
      }
    }
  }
}