{
  "address": "0x563FC6861eC02B3422968fd0eDA9e48010E2a0dF",
  "abi": [
    {
      "inputs": [
        {
          "internalType": "address",
          "name": "_oracle",
          "type": "address"
        }
      ],
      "stateMutability": "nonpayable",
      "type": "constructor"
    },
    {
      "anonymous": false,
      "inputs": [
        {
          "indexed": true,
          "internalType": "string",
          "name": "token",
          "type": "string"
        },
        {
          "indexed": false,
          "internalType": "bytes32",
          "name": "oldFeedId",
          "type": "bytes32"
        },
        {
          "indexed": false,
          "internalType": "bytes32",
          "name": "newFeedId",
          "type": "bytes32"
        }
      ],
      "name": "AddFeedId",
      "type": "event"
    },
    {
      "anonymous": false,
      "inputs": [
        {
          "indexed": false,
          "internalType": "address",
          "name": "oldOracle",
          "type": "address"
        },
        {
          "indexed": false,
          "internalType": "address",
          "name": "newOracle",
          "type": "address"
        }
      ],
      "name": "NewOracle",
      "type": "event"
    },
    {
      "anonymous": false,
      "inputs": [
        {
          "indexed": true,
          "internalType": "address",
          "name": "previousOwner",
          "type": "address"
        },
        {
          "indexed": true,
          "internalType": "address",
          "name": "newOwner",
          "type": "address"
        }
      ],
      "name": "OwnershipTransferStarted",
      "type": "event"
    },
    {
      "anonymous": false,
      "inputs": [
        {
          "indexed": true,
          "internalType": "address",
          "name": "previousOwner",
          "type": "address"
        },
        {
          "indexed": true,
          "internalType": "address",
          "name": "newOwner",
          "type": "address"
        }
      ],
      "name": "OwnershipTransferred",
      "type": "event"
    },
    {
      "inputs": [],
      "name": "SWITCHBOARD_VALUE_DECIMALS",
      "outputs": [
        {
          "internalType": "uint32",
          "name": "",
          "type": "uint32"
        }
      ],
      "stateMutability": "view",
      "type": "function"
    },
    {
      "inputs": [],
      "name": "USDT_PRICE_PAIR_NAME",
      "outputs": [
        {
          "internalType": "string",
          "name": "",
          "type": "string"
        }
      ],
      "stateMutability": "view",
      "type": "function"
    },
    {
      "inputs": [],
      "name": "acceptOwnership",
      "outputs": [],
      "stateMutability": "nonpayable",
      "type": "function"
    },
    {
      "inputs": [
        {
          "internalType": "string",
          "name": "_pairName",
          "type": "string"
        }
      ],
      "name": "getEmaPriceByPairName",
      "outputs": [
        {
          "components": [
            {
              "internalType": "uint256",
              "name": "price",
              "type": "uint256"
            },
            {
              "internalType": "uint32",
              "name": "decimals",
              "type": "uint32"
            },
            {
              "internalType": "uint256",
              "name": "publishTime",
              "type": "uint256"
            }
          ],
          "internalType": "struct IPriceProxy.Price",
          "name": "price",
          "type": "tuple"
        },
        {
          "internalType": "string",
          "name": "err",
          "type": "string"
        }
      ],
      "stateMutability": "view",
      "type": "function"
    },
    {
      "inputs": [
        {
          "internalType": "string",
          "name": "_pairName0",
          "type": "string"
        },
        {
          "internalType": "string",
          "name": "_pairName1",
          "type": "string"
        }
      ],
      "name": "getEmaPricesByPairNames",
      "outputs": [
        {
          "components": [
            {
              "internalType": "uint256",
              "name": "price",
              "type": "uint256"
            },
            {
              "internalType": "uint32",
              "name": "decimals",
              "type": "uint32"
            },
            {
              "internalType": "uint256",
              "name": "publishTime",
              "type": "uint256"
            }
          ],
          "internalType": "struct IPriceProxy.Price",
          "name": "price0",
          "type": "tuple"
        },
        {
          "components": [
            {
              "internalType": "uint256",
              "name": "price",
              "type": "uint256"
            },
            {
              "internalType": "uint32",
              "name": "decimals",
              "type": "uint32"
            },
            {
              "internalType": "uint256",
              "name": "publishTime",
              "type": "uint256"
            }
          ],
          "internalType": "struct IPriceProxy.Price",
          "name": "price1",
          "type": "tuple"
        },
        {
          "internalType": "string",
          "name": "err",
          "type": "string"
        }
      ],
      "stateMutability": "view",
      "type": "function"
    },
    {
      "inputs": [
        {
          "internalType": "string",
          "name": "_pairName",
          "type": "string"
        }
      ],
      "name": "getFeedId",
      "outputs": [
        {
          "internalType": "bytes32",
          "name": "feedId",
          "type": "bytes32"
        }
      ],
      "stateMutability": "pure",
      "type": "function"
    },
    {
      "inputs": [],
      "name": "oracle",
      "outputs": [
        {
          "internalType": "address",
          "name": "",
          "type": "address"
        }
      ],
      "stateMutability": "view",
      "type": "function"
    },
    {
      "inputs": [],
      "name": "owner",
      "outputs": [
        {
          "internalType": "address",
          "name": "",
          "type": "address"
        }
      ],
      "stateMutability": "view",
      "type": "function"
    },
    {
      "inputs": [],
      "name": "pendingOwner",
      "outputs": [
        {
          "internalType": "address",
          "name": "",
          "type": "address"
        }
      ],
      "stateMutability": "view",
      "type": "function"
    },
    {
      "inputs": [],
      "name": "renounceOwnership",
      "outputs": [],
      "stateMutability": "nonpayable",
      "type": "function"
    },
    {
      "inputs": [
        {
          "internalType": "address",
          "name": "_oracle",
          "type": "address"
        }
      ],
      "name": "setOracle",
      "outputs": [],
      "stateMutability": "nonpayable",
      "type": "function"
    },
    {
      "inputs": [
        {
          "internalType": "address",
          "name": "newOwner",
          "type": "address"
        }
      ],
      "name": "transferOwnership",
      "outputs": [],
      "stateMutability": "nonpayable",
      "type": "function"
    }
  ],
  "transactionHash": "0x95d3ceff2c856bda105d8600dd7a9b07c7e7951cfbbfcd5c7283724703cbc655",
  "args": [
    "0xC29aAabf235c1E71633fb7365E95772B97F425d7"
  ],
  "numDeployments": 1,
  "solcInputHash": "1d9a47e7a6821d0a11d4bb02c7d9f756",
  "bytecode": "0x60806040523480156200001157600080fd5b506040516200130a3803806200130a83398101604081905262000034916200025f565b80620000403362000053565b6200004b816200007d565b50506200028f565b600180546001600160a01b03191690556200007a816200020f602090811b620003d817901c565b50565b806001600160a01b038116620000da5760405162461bcd60e51b815260206004820152601860248201527f507269636550726f78793a207a65726f2061646472657373000000000000000060448201526064015b60405180910390fd5b6002546001600160a01b0383811691161415620001445760405162461bcd60e51b815260206004820152602160248201527f507269636550726f78793a206f7261636c6520616c72656164792065786973746044820152607360f81b6064820152608401620000d1565b813b620001a55760405162461bcd60e51b815260206004820152602860248201527f507269636550726f78793a206f7261636c6520636f6e7472616374206e6f742060448201526719195c1b1bde595960c21b6064820152608401620000d1565b600254604080516001600160a01b03928316815291841660208301527f08763b8c90c5db415d7b7f0e18ec87eda82e24e52e2ea8135d44e17db46d85bb910160405180910390a150600280546001600160a01b0319166001600160a01b0392909216919091179055565b600080546001600160a01b038381166001600160a01b0319831681178455604051919092169283917f8be0079c531659141344cd1fd0a4f28419497f9722a3daafe3b4186f6b6457e09190a35050565b60006020828403121562000271578081fd5b81516001600160a01b038116811462000288578182fd5b9392505050565b61106b806200029f6000396000f3fe608060405234801561001057600080fd5b50600436106100b45760003560e01c80637dc0d1d0116100715780637dc0d1d01461015e5780638da5cb5b14610189578063b1fcb9b31461019a578063cbc0df7b146101bc578063e30c3978146101d9578063f2fde38b146101ea57600080fd5b806340dca571146100b957806346ae8460146100e35780636512bf1d14610118578063715018a61461013957806379ba5097146101435780637adbf9731461014b575b600080fd5b6100cc6100c7366004610c9c565b6101fd565b6040516100da929190610e41565b60405180910390f35b61010b604051806040016040528060098152602001681554d1150bd554d11560ba1b81525081565b6040516100da9190610e2e565b61012b610126366004610c9c565b61023b565b6040519081526020016100da565b61014161024c565b005b610141610256565b610141610159366004610c79565b6102d5565b600254610171906001600160a01b031681565b6040516001600160a01b0390911681526020016100da565b6000546001600160a01b0316610171565b6101ad6101a8366004610cd7565b6102e6565b6040516100da93929190610e75565b6101c4601281565b60405163ffffffff90911681526020016100da565b6001546001600160a01b0316610171565b6101416101f8366004610c79565b610367565b610227604051806060016040528060008152602001600063ffffffff168152602001600081525090565b606061023283610428565b91509150915091565b6000610246826104c5565b92915050565b610254610522565b565b60015433906001600160a01b031681146102c95760405162461bcd60e51b815260206004820152602960248201527f4f776e61626c6532537465703a2063616c6c6572206973206e6f7420746865206044820152683732bb9037bbb732b960b91b60648201526084015b60405180910390fd5b6102d28161057c565b50565b6102dd610522565b6102d281610595565b610310604051806060016040528060008152602001600063ffffffff168152602001600081525090565b61033a604051806060016040528060008152602001600063ffffffff168152602001600081525090565b606061034585610428565b81519194509150156103605761035a84610428565b90925090505b9250925092565b61036f610522565b600180546001600160a01b0383166001600160a01b031990911681179091556103a06000546001600160a01b031690565b6001600160a01b03167f38d16b8cac22d99fc7c124b9cd0de2d3fa1faef420bfe791d8c362d765e2270060405160405180910390a350565b600080546001600160a01b038381166001600160a01b0319831681178455604051919092169283917f8be0079c531659141344cd1fd0a4f28419497f9722a3daafe3b4186f6b6457e09190a35050565b610452604051806060016040528060008152602001600063ffffffff168152602001600081525090565b6040805180820190915260098152681554d1150bd554d11560ba1b6020918201528251908301206060907fcd8a07c250abc7d9095f85b8cc53523a71f43aa07950c79c8dcbbbf7ae907d6114156104b457600182524260408301529092909150565b6102326104c0846104c5565b61071d565b60008160008151116105195760405162461bcd60e51b815260206004820152601b60248201527f507269636550726f78793a20656d7074792070616972206e616d65000000000060448201526064016102c0565b50506020015190565b6000546001600160a01b031633146102545760405162461bcd60e51b815260206004820181905260248201527f4f776e61626c653a2063616c6c6572206973206e6f7420746865206f776e657260448201526064016102c0565b600180546001600160a01b03191690556102d2816103d8565b806001600160a01b0381166105ec5760405162461bcd60e51b815260206004820152601860248201527f507269636550726f78793a207a65726f2061646472657373000000000000000060448201526064016102c0565b6002546001600160a01b03838116911614156106545760405162461bcd60e51b815260206004820152602160248201527f507269636550726f78793a206f7261636c6520616c72656164792065786973746044820152607360f81b60648201526084016102c0565b813b6106b35760405162461bcd60e51b815260206004820152602860248201527f507269636550726f78793a206f7261636c6520636f6e7472616374206e6f742060448201526719195c1b1bde595960c21b60648201526084016102c0565b600254604080516001600160a01b03928316815291841660208301527f08763b8c90c5db415d7b7f0e18ec87eda82e24e52e2ea8135d44e17db46d85bb910160405180910390a150600280546001600160a01b0319166001600160a01b0392909216919091179055565b610747604051806060016040528060008152602001600063ffffffff168152602001600081525090565b606082806107975760405162461bcd60e51b815260206004820152601760248201527f507269636550726f78793a207a65726f2066656564496400000000000000000060448201526064016102c0565b60025460405163e90f1a4360e01b8152600481018690526001600160a01b039091169063e90f1a43906024016101006040518083038186803b1580156107dc57600080fd5b505afa92505050801561080c575060408051601f3d908101601f1916820190925261080991810190610d38565b60015b61088257610818610f7e565b806308c379a0141561083f575061082d610f96565b806108385750610841565b91506108a7565b505b3d80801561086b576040519150601f19603f3d011682016040523d82523d6000602084013e610870565b606091505b5061087a816108ad565b9250506108a7565b6060810151805161089290610b44565b85526012602086015260409081015190850152505b50915091565b60408051808201909152601081526f181899199a1a9b1b9c1cb0b131b232b360811b60208201528151606091906000906108e8906002610eeb565b6108f3906002610ed3565b67ffffffffffffffff81111561091957634e487b7160e01b600052604160045260246000fd5b6040519080825280601f01601f191660200182016040528015610943576020820181803683370190505b509050600360fc1b8160008151811061096c57634e487b7160e01b600052603260045260246000fd5b60200101906001600160f81b031916908160001a905350600f60fb1b816001815181106109a957634e487b7160e01b600052603260045260246000fd5b60200101906001600160f81b031916908160001a90535060005b8451811015610b3c578260048683815181106109ef57634e487b7160e01b600052603260045260246000fd5b016020015182516001600160f81b031990911690911c60f81c908110610a2557634e487b7160e01b600052603260045260246000fd5b01602001516001600160f81b03191682610a40836002610eeb565b610a4b906002610ed3565b81518110610a6957634e487b7160e01b600052603260045260246000fd5b60200101906001600160f81b031916908160001a90535082858281518110610aa157634e487b7160e01b600052603260045260246000fd5b602091010151815160f89190911c600f16908110610acf57634e487b7160e01b600052603260045260246000fd5b01602001516001600160f81b03191682610aea836002610eeb565b610af5906003610ed3565b81518110610b1357634e487b7160e01b600052603260045260246000fd5b60200101906001600160f81b031916908160001a90535080610b3481610f37565b9150506109c3565b509392505050565b600080821215610b965760405162461bcd60e51b815260206004820181905260248201527f53616665436173743a2076616c7565206d75737420626520706f73697469766560448201526064016102c0565b5090565b80518015158114610baa57600080fd5b919050565b600082601f830112610bbf578081fd5b813567ffffffffffffffff811115610bd957610bd9610f68565b604051610bf0601f8301601f191660200182610f0a565b818152846020838601011115610c04578283fd5b816020850160208301379081016020019190915292915050565b600060608284031215610c2f578081fd5b6040516060810181811067ffffffffffffffff82111715610c5257610c52610f68565b80604052508091508251815260208301516020820152604083015160408201525092915050565b600060208284031215610c8a578081fd5b8135610c9581611020565b9392505050565b600060208284031215610cad578081fd5b813567ffffffffffffffff811115610cc3578182fd5b610ccf84828501610baf565b949350505050565b60008060408385031215610ce9578081fd5b823567ffffffffffffffff80821115610d00578283fd5b610d0c86838701610baf565b93506020850135915080821115610d21578283fd5b50610d2e85828601610baf565b9150509250929050565b60006101008284031215610d4a578081fd5b60405160c0810181811067ffffffffffffffff82111715610d6d57610d6d610f68565b6040528251610d7b81611020565b815260208381015190820152604083015169ffffffffffffffffffff81168114610da3578283fd5b6040820152610db58460608501610c1e565b6060820152610dc660c08401610b9a565b6080820152610dd760e08401610b9a565b60a08201529392505050565b60008151808452815b81811015610e0857602081850181015186830182015201610dec565b81811115610e195782602083870101525b50601f01601f19169290920160200192915050565b602081526000610c956020830184610de3565b8251815260208084015163ffffffff169082015260408084015190820152608060608201526000610ccf6080830184610de3565b8351815260208085015163ffffffff16908201526040808501519082015282516060820152602083015163ffffffff166080820152604083015160a082015260e060c08201526000610eca60e0830184610de3565b95945050505050565b60008219821115610ee657610ee6610f52565b500190565b6000816000190483118215151615610f0557610f05610f52565b500290565b601f8201601f1916810167ffffffffffffffff81118282101715610f3057610f30610f68565b6040525050565b6000600019821415610f4b57610f4b610f52565b5060010190565b634e487b7160e01b600052601160045260246000fd5b634e487b7160e01b600052604160045260246000fd5b600060033d1115610f9357600481823e5160e01c5b90565b600060443d1015610fa45790565b6040516003193d81016004833e81513d67ffffffffffffffff8160248401118184111715610fd457505050505090565b8285019150815181811115610fec5750505050505090565b843d87010160208285010111156110065750505050505090565b61101560208286010187610f0a565b509095945050505050565b6001600160a01b03811681146102d257600080fdfea2646970667358221220abdac79bef56c3333dcd5c425b07b4cdb6a5b9094660464fc42b4490f18d37d764736f6c63430008040033",
  "devdoc": {
    "kind": "dev",
    "methods": {
      "acceptOwnership()": {
        "details": "The new owner accepts the ownership transfer."
      },
      "getEmaPriceByPairName(string)": {
        "params": {
          "_pairName": "The price pair name (e.g. CORE/USDT  BTC/USDT)"
        },
        "returns": {
          "err": "                Error message",
          "price": "              The EMA price of the price pair"
        }
      },
      "getEmaPricesByPairNames(string,string)": {
        "params": {
          "_pairName0": "The first price pair name (e.g. CORE/USDT  BTC/USDT)",
          "_pairName1": "The second price pair name (e.g. CORE/USDT  BTC/USDT)"
        },
        "returns": {
          "err": "                Error message",
          "price0": "             The EMA price of the first price pair",
          "price1": "             The EMA price of the second price pair"
        }
      },
      "getFeedId(string)": {
        "details": "The feed id is defined by the third-party oracle",
        "params": {
          "_pairName": "The price pair name (e.g. CORE/USDT  BTC/USDT)"
        },
        "returns": {
          "feedId": "             The feed id of the token price"
        }
      },
      "owner()": {
        "details": "Returns the address of the current owner."
      },
      "pendingOwner()": {
        "details": "Returns the address of the pending owner."
      },
      "renounceOwnership()": {
        "details": "Leaves the contract without owner. It will not be possible to call `onlyOwner` functions. Can only be called by the current owner. NOTE: Renouncing ownership will leave the contract without an owner, thereby disabling any functionality that is only available to the owner."
      },
      "setOracle(address)": {
        "details": "Only owner can call this",
        "params": {
          "_oracle": "The address of the third-party oracle contract (e.g. Pyth or Switchboard)"
        }
      },
      "transferOwnership(address)": {
        "details": "Starts the ownership transfer of the contract to a new account. Replaces the pending transfer if there is one. Can only be called by the current owner."
      }
    },
    "version": 1
  },
  "userdoc": {
    "kind": "user",
    "methods": {
      "getEmaPriceByPairName(string)": {
        "notice": "Get the EMA price of the tokens by pair name"
      },
      "getEmaPricesByPairNames(string,string)": {
        "notice": "Get the EMA prices of two tokens by their pair names"
      },
      "getFeedId(string)": {
        "notice": "Gets the feed id of the token price by price pair name"
      },
      "setOracle(address)": {
        "notice": "Sets oracle address"
      }
    },
    "version": 1
  },
  "storageLayout": {
    "storage": [
      {
        "astId": 2240,
        "contract": "contracts/oracle/price-proxy-impl/SwitchboardPriceProxy.sol:SwitchboardPriceProxy",
        "label": "_owner",
        "offset": 0,
        "slot": "0",
        "type": "t_address"
      },
      {
        "astId": 2353,
        "contract": "contracts/oracle/price-proxy-impl/SwitchboardPriceProxy.sol:SwitchboardPriceProxy",
        "label": "_pendingOwner",
        "offset": 0,
        "slot": "1",
        "type": "t_address"
      },
      {
        "astId": 19923,
        "contract": "contracts/oracle/price-proxy-impl/SwitchboardPriceProxy.sol:SwitchboardPriceProxy",
        "label": "oracle",
        "offset": 0,
        "slot": "2",
        "type": "t_address"
      }
    ],
    "types": {
      "t_address": {
        "encoding": "inplace",
        "label": "address",
        "numberOfBytes": "20"
      }
    }
  }
}