{
  "address": "0x81694a0462F203b564177463CD846f6b59307C43",
  "abi": [
    {
      "inputs": [],
      "stateMutability": "nonpayable",
      "type": "constructor"
    },
    {
      "anonymous": false,
      "inputs": [
        {
          "indexed": false,
          "internalType": "address",
          "name": "previousAdmin",
          "type": "address"
        },
        {
          "indexed": false,
          "internalType": "address",
          "name": "newAdmin",
          "type": "address"
        }
      ],
      "name": "AdminChanged",
      "type": "event"
    },
    {
      "anonymous": false,
      "inputs": [
        {
          "indexed": true,
          "internalType": "address",
          "name": "beacon",
          "type": "address"
        }
      ],
      "name": "BeaconUpgraded",
      "type": "event"
    },
    {
      "anonymous": false,
      "inputs": [
        {
          "indexed": false,
          "internalType": "uint8",
          "name": "version",
          "type": "uint8"
        }
      ],
      "name": "Initialized",
      "type": "event"
    },
    {
      "anonymous": false,
      "inputs": [
        {
          "indexed": false,
          "internalType": "uint256",
          "name": "oldFinalizationParameter",
          "type": "uint256"
        },
        {
          "indexed": false,
          "internalType": "uint256",
          "name": "newFinalizationParameter",
          "type": "uint256"
        }
      ],
      "name": "NewFinalizationParameter",
      "type": "event"
    },
    {
      "anonymous": false,
      "inputs": [
        {
          "indexed": true,
          "internalType": "address",
          "name": "previousOwner",
          "type": "address"
        },
        {
          "indexed": true,
          "internalType": "address",
          "name": "newOwner",
          "type": "address"
        }
      ],
      "name": "OwnershipTransferStarted",
      "type": "event"
    },
    {
      "anonymous": false,
      "inputs": [
        {
          "indexed": true,
          "internalType": "address",
          "name": "previousOwner",
          "type": "address"
        },
        {
          "indexed": true,
          "internalType": "address",
          "name": "newOwner",
          "type": "address"
        }
      ],
      "name": "OwnershipTransferred",
      "type": "event"
    },
    {
      "anonymous": false,
      "inputs": [
        {
          "indexed": false,
          "internalType": "address",
          "name": "account",
          "type": "address"
        }
      ],
      "name": "Paused",
      "type": "event"
    },
    {
      "anonymous": false,
      "inputs": [
        {
          "indexed": false,
          "internalType": "address",
          "name": "account",
          "type": "address"
        }
      ],
      "name": "Unpaused",
      "type": "event"
    },
    {
      "anonymous": false,
      "inputs": [
        {
          "indexed": true,
          "internalType": "address",
          "name": "implementation",
          "type": "address"
        }
      ],
      "name": "Upgraded",
      "type": "event"
    },
    {
      "inputs": [],
      "name": "acceptOwnership",
      "outputs": [],
      "stateMutability": "nonpayable",
      "type": "function"
    },
    {
      "inputs": [],
      "name": "btcLightClient",
      "outputs": [
        {
          "internalType": "address",
          "name": "",
          "type": "address"
        }
      ],
      "stateMutability": "view",
      "type": "function"
    },
    {
      "inputs": [
        {
          "internalType": "bytes32",
          "name": "_txid",
          "type": "bytes32"
        },
        {
          "internalType": "uint256",
          "name": "_blockHeight",
          "type": "uint256"
        },
        {
          "internalType": "bytes",
          "name": "_intermediateNodes",
          "type": "bytes"
        },
        {
          "internalType": "uint256",
          "name": "_index",
          "type": "uint256"
        }
      ],
      "name": "checkTxProof",
      "outputs": [
        {
          "internalType": "bool",
          "name": "",
          "type": "bool"
        }
      ],
      "stateMutability": "view",
      "type": "function"
    },
    {
      "inputs": [],
      "name": "finalizationParameter",
      "outputs": [
        {
          "internalType": "uint256",
          "name": "",
          "type": "uint256"
        }
      ],
      "stateMutability": "view",
      "type": "function"
    },
    {
      "inputs": [],
      "name": "initialHeight",
      "outputs": [
        {
          "internalType": "uint256",
          "name": "",
          "type": "uint256"
        }
      ],
      "stateMutability": "view",
      "type": "function"
    },
    {
      "inputs": [
        {
          "internalType": "uint256",
          "name": "_height",
          "type": "uint256"
        },
        {
          "internalType": "address",
          "name": "_btcLightClient",
          "type": "address"
        },
        {
          "internalType": "uint256",
          "name": "_finalizationParameter",
          "type": "uint256"
        }
      ],
      "name": "initialize",
      "outputs": [],
      "stateMutability": "nonpayable",
      "type": "function"
    },
    {
      "inputs": [],
      "name": "lastSubmittedHeight",
      "outputs": [
        {
          "internalType": "uint256",
          "name": "",
          "type": "uint256"
        }
      ],
      "stateMutability": "view",
      "type": "function"
    },
    {
      "inputs": [],
      "name": "owner",
      "outputs": [
        {
          "internalType": "address",
          "name": "",
          "type": "address"
        }
      ],
      "stateMutability": "view",
      "type": "function"
    },
    {
      "inputs": [],
      "name": "pauseRelay",
      "outputs": [],
      "stateMutability": "nonpayable",
      "type": "function"
    },
    {
      "inputs": [],
      "name": "paused",
      "outputs": [
        {
          "internalType": "bool",
          "name": "",
          "type": "bool"
        }
      ],
      "stateMutability": "view",
      "type": "function"
    },
    {
      "inputs": [],
      "name": "pendingOwner",
      "outputs": [
        {
          "internalType": "address",
          "name": "",
          "type": "address"
        }
      ],
      "stateMutability": "view",
      "type": "function"
    },
    {
      "inputs": [],
      "name": "proxiableUUID",
      "outputs": [
        {
          "internalType": "bytes32",
          "name": "",
          "type": "bytes32"
        }
      ],
      "stateMutability": "view",
      "type": "function"
    },
    {
      "inputs": [],
      "name": "renounceOwnership",
      "outputs": [],
      "stateMutability": "nonpayable",
      "type": "function"
    },
    {
      "inputs": [
        {
          "internalType": "uint256",
          "name": "_finalizationParameter",
          "type": "uint256"
        }
      ],
      "name": "setFinalizationParameter",
      "outputs": [],
      "stateMutability": "nonpayable",
      "type": "function"
    },
    {
      "inputs": [
        {
          "internalType": "address",
          "name": "newOwner",
          "type": "address"
        }
      ],
      "name": "transferOwnership",
      "outputs": [],
      "stateMutability": "nonpayable",
      "type": "function"
    },
    {
      "inputs": [],
      "name": "unpauseRelay",
      "outputs": [],
      "stateMutability": "nonpayable",
      "type": "function"
    },
    {
      "inputs": [
        {
          "internalType": "address",
          "name": "newImplementation",
          "type": "address"
        }
      ],
      "name": "upgradeTo",
      "outputs": [],
      "stateMutability": "nonpayable",
      "type": "function"
    },
    {
      "inputs": [
        {
          "internalType": "address",
          "name": "newImplementation",
          "type": "address"
        },
        {
          "internalType": "bytes",
          "name": "data",
          "type": "bytes"
        }
      ],
      "name": "upgradeToAndCall",
      "outputs": [],
      "stateMutability": "payable",
      "type": "function"
    }
  ],
  "transactionHash": "0xf9ce18eef52c1d8978234bf115e52d3052133f84e3291e2729cb68fa1e4e3ed8",
  "args": [],
  "numDeployments": 1,
  "solcInputHash": "ac9518c8ccc368e962d7847f9baaffac",
  "bytecode": "0x60a06040523060601b60805234801561001757600080fd5b50610020610025565b6100e5565b600054610100900460ff16156100915760405162461bcd60e51b815260206004820152602760248201527f496e697469616c697a61626c653a20636f6e747261637420697320696e697469604482015266616c697a696e6760c81b606482015260840160405180910390fd5b60005460ff90811610156100e3576000805460ff191660ff9081179091556040519081527f7f26b83ff96e1f2b6a682f133852f6798a09c465da95921460cefb38474024989060200160405180910390a15b565b60805160601c611a3c61011f6000396000818161033901528181610382015281816106d30152818161071301526107a60152611a3c6000f3fe6080604052600436106101095760003560e01c80637bb7e5c611610095578063b36161bd11610064578063b36161bd1461028a578063e2761af0146102aa578063e30c3978146102c1578063f2fde38b146102df578063fffb5183146102ff57600080fd5b80637bb7e5c6146102075780638da5cb5b14610240578063a072bc501461025e578063ae96c2ae1461027557600080fd5b80634f1ef286116100dc5780634f1ef2861461019d57806352d1902d146101b05780635c975abb146101c5578063715018a6146101dd57806379ba5097146101f257600080fd5b80632f796d901461010e5780633659cfe6146101365780634354da2514610158578063465e755914610188575b600080fd5b34801561011a57600080fd5b5061012361031f565b6040519081526020015b60405180910390f35b34801561014257600080fd5b50610156610151366004611539565b61032e565b005b34801561016457600080fd5b50610178610173366004611648565b610417565b604051901515815260200161012d565b34801561019457600080fd5b506101566106b6565b6101566101ab366004611553565b6106c8565b3480156101bc57600080fd5b50610123610799565b3480156101d157600080fd5b5060c95460ff16610178565b3480156101e957600080fd5b5061015661084c565b3480156101fe57600080fd5b50610156610854565b34801561021357600080fd5b5061016154610228906001600160a01b031681565b6040516001600160a01b03909116815260200161012d565b34801561024c57600080fd5b506033546001600160a01b0316610228565b34801561026a57600080fd5b506101236101605481565b34801561028157600080fd5b506101566108cb565b34801561029657600080fd5b506101566102a53660046116cb565b6108db565b3480156102b657600080fd5b5061012361015f5481565b3480156102cd57600080fd5b506065546001600160a01b0316610228565b3480156102eb57600080fd5b506101566102fa366004611539565b6108ec565b34801561030b57600080fd5b5061015661031a3660046116e3565b61095d565b6000610329610ab4565b905090565b306001600160a01b037f00000000000000000000000000000000000000000000000000000000000000001614156103805760405162461bcd60e51b8152600401610377906117ee565b60405180910390fd5b7f00000000000000000000000000000000000000000000000000000000000000006001600160a01b03166103c960008051602061199b833981519152546001600160a01b031690565b6001600160a01b0316146103ef5760405162461bcd60e51b81526004016103779061183a565b6103f881610b1b565b6040805160008082526020820190925261041491839190610b23565b50565b6000610421610ca2565b8561047c5760405162461bcd60e51b815260206004820152602560248201527f426974636f696e52656c61793a20747869642073686f756c64206265206e6f6e6044820152642d7a65726f60d81b6064820152608401610377565b610484610ab4565b61048f9060016118d1565b6101605461049d90876118d1565b106105045760405162461bcd60e51b815260206004820152603160248201527f426974636f696e52656c61793a20626c6f636b206973206e6f742066696e616c604482015270697a6564206f6e207468652072656c617960781b6064820152608401610377565b61015f548510156105905760405162461bcd60e51b815260206004820152604a60248201527f426974636f696e52656c61793a2074686520726571756573746564206865696760448201527f6874206973206e6f74207375626d6974746564206f6e207468652072656c61796064820152692028746f6f206f6c642960b01b608482015260a401610377565b60006105d185858080601f016020809104026020016040519081016040528093929190818152602001838380828437600092019190915250610ce892505050565b905060008151116106325760405162461bcd60e51b815260206004820152602560248201527f426974636f696e52656c61793a20696e7465726d6564696174654e6f64657320604482015264656d70747960d81b6064820152608401610377565b6101615461016054604051600092610694926001600160a01b0390911691610665918c918c919088908b90602401611757565b60408051601f198184030181529190526020810180516001600160e01b031663edade18960e01b179052610e2f565b9050808060200190518101906106aa9190611610565b98975050505050505050565b6106be610e5b565b6106c6610eb5565b565b306001600160a01b037f00000000000000000000000000000000000000000000000000000000000000001614156107115760405162461bcd60e51b8152600401610377906117ee565b7f00000000000000000000000000000000000000000000000000000000000000006001600160a01b031661075a60008051602061199b833981519152546001600160a01b031690565b6001600160a01b0316146107805760405162461bcd60e51b81526004016103779061183a565b61078982610b1b565b61079582826001610b23565b5050565b6000306001600160a01b037f000000000000000000000000000000000000000000000000000000000000000016146108395760405162461bcd60e51b815260206004820152603860248201527f555550535570677261646561626c653a206d757374206e6f742062652063616c60448201527f6c6564207468726f7567682064656c656761746563616c6c00000000000000006064820152608401610377565b5060008051602061199b83398151915290565b6106c6610e5b565b60655433906001600160a01b031681146108c25760405162461bcd60e51b815260206004820152602960248201527f4f776e61626c6532537465703a2063616c6c6572206973206e6f7420746865206044820152683732bb9037bbb732b960b91b6064820152608401610377565b61041481610f0f565b6108d3610e5b565b6106c6610f28565b6108e3610e5b565b61041481610f61565b6108f4610e5b565b606580546001600160a01b0383166001600160a01b031990911681179091556109256033546001600160a01b031690565b6001600160a01b03167f38d16b8cac22d99fc7c124b9cd0de2d3fa1faef420bfe791d8c362d765e2270060405160405180910390a350565b600054610100900460ff161580801561097d5750600054600160ff909116105b806109975750303b158015610997575060005460ff166001145b6109fa5760405162461bcd60e51b815260206004820152602e60248201527f496e697469616c697a61626c653a20636f6e747261637420697320616c72656160448201526d191e481a5b9a5d1a585b1a5e995960921b6064820152608401610377565b6000805460ff191660011790558015610a1d576000805461ff0019166101001790555b610a25611013565b610a2d611042565b610a35611071565b610a3d6110a0565b61016180546001600160a01b0319166001600160a01b038516179055610a6282610f61565b61015f8490558015610aae576000805461ff0019169055604051600181527f7f26b83ff96e1f2b6a682f133852f6798a09c465da95921460cefb38474024989060200160405180910390a15b50505050565b610161546040805160048152602481019091526020810180516001600160e01b031663cab8966b60e01b1790526000918291610af9916001600160a01b031690610e2f565b905080806020019051810190610b0f9190611717565b63ffffffff1691505090565b610414610e5b565b7f4910fdfa16fed3260ed0e7147f7cc6da11a60208b5b9406d12a635614ffd91435460ff1615610b5b57610b56836110c7565b505050565b826001600160a01b03166352d1902d6040518163ffffffff1660e01b815260040160206040518083038186803b158015610b9457600080fd5b505afa925050508015610bc4575060408051601f3d908101601f19168201909252610bc191810190611630565b60015b610c275760405162461bcd60e51b815260206004820152602e60248201527f45524331393637557067726164653a206e657720696d706c656d656e7461746960448201526d6f6e206973206e6f74205555505360901b6064820152608401610377565b60008051602061199b8339815191528114610c965760405162461bcd60e51b815260206004820152602960248201527f45524331393637557067726164653a20756e737570706f727465642070726f786044820152681a58589b195555525160ba1b6064820152608401610377565b50610b56838383611163565b60c95460ff16156106c65760405162461bcd60e51b815260206004820152601060248201526f14185d5cd8589b194e881c185d5cd95960821b6044820152606401610377565b606060008251118015610d06575060208251610d049190611944565b155b610d685760405162461bcd60e51b815260206004820152602d60248201527f426974636f696e52656c61793a20696e7465726d6564696174654e6f6465206960448201526c0dcecc2d8d2c840d8cadccee8d609b1b6064820152608401610377565b600060208351610d7891906118e9565b905060008167ffffffffffffffff811115610da357634e487b7160e01b600052604160045260246000fd5b604051908082528060200260200182016040528015610dcc578160200160208202803683370190505b50905060005b82811015610e2757600060208202602001860151905080838381518110610e0957634e487b7160e01b600052603260045260246000fd5b60209081029190910101525080610e1f81611929565b915050610dd2565b509392505050565b6060610e5483836040518060600160405280602581526020016119bb60259139611188565b9392505050565b6033546001600160a01b031633146106c65760405162461bcd60e51b815260206004820181905260248201527f4f776e61626c653a2063616c6c6572206973206e6f7420746865206f776e65726044820152606401610377565b610ebd610ca2565b60c9805460ff191660011790557f62e78cea01bee320cd4e420270b5ea74000d11b0c9f74754ebdbfc544b05a258610ef23390565b6040516001600160a01b03909116815260200160405180910390a1565b606580546001600160a01b031916905561041481611200565b610f30611252565b60c9805460ff191690557f5db9ee0a495bf2e6ff9c91a7834c1ba4fdd244a5e8aa4e537bd38aeae4b073aa33610ef2565b6101605460408051918252602082018390527fe7ff4c9746f87ab86154b3cb3bb52e1647f016783ae4e195496258eaa884c296910160405180910390a1600081118015610fb057506101b08111155b61100d5760405162461bcd60e51b815260206004820152602860248201527f426974636f696e52656c61793a20696e76616c69642066696e616c697a6174696044820152676f6e20706172616d60c01b6064820152608401610377565b61016055565b600054610100900460ff1661103a5760405162461bcd60e51b815260040161037790611886565b6106c661129b565b600054610100900460ff166110695760405162461bcd60e51b815260040161037790611886565b6106c66112cb565b600054610100900460ff166110985760405162461bcd60e51b815260040161037790611886565b6106c66112f9565b600054610100900460ff166106c65760405162461bcd60e51b815260040161037790611886565b6001600160a01b0381163b6111345760405162461bcd60e51b815260206004820152602d60248201527f455243313936373a206e657720696d706c656d656e746174696f6e206973206e60448201526c1bdd08184818dbdb9d1c9858dd609a1b6064820152608401610377565b60008051602061199b83398151915280546001600160a01b0319166001600160a01b0392909216919091179055565b61116c8361132c565b6000825111806111795750805b15610b5657610aae838361136c565b6060600080856001600160a01b0316856040516111a5919061173b565b600060405180830381855afa9150503d80600081146111e0576040519150601f19603f3d011682016040523d82523d6000602084013e6111e5565b606091505b50915091506111f686838387611460565b9695505050505050565b603380546001600160a01b038381166001600160a01b0319831681179093556040519116919082907f8be0079c531659141344cd1fd0a4f28419497f9722a3daafe3b4186f6b6457e090600090a35050565b60c95460ff166106c65760405162461bcd60e51b815260206004820152601460248201527314185d5cd8589b194e881b9bdd081c185d5cd95960621b6044820152606401610377565b600054610100900460ff166112c25760405162461bcd60e51b815260040161037790611886565b6106c633610f0f565b600054610100900460ff166112f25760405162461bcd60e51b815260040161037790611886565b6001609755565b600054610100900460ff166113205760405162461bcd60e51b815260040161037790611886565b60c9805460ff19169055565b611335816110c7565b6040516001600160a01b038216907fbc7cd75a20ee27fd9adebab32041f755214dbc6bffa90cc0225b39da2e5c2d3b90600090a250565b60606001600160a01b0383163b6113d45760405162461bcd60e51b815260206004820152602660248201527f416464726573733a2064656c65676174652063616c6c20746f206e6f6e2d636f6044820152651b9d1c9858dd60d21b6064820152608401610377565b600080846001600160a01b0316846040516113ef919061173b565b600060405180830381855af49150503d806000811461142a576040519150601f19603f3d011682016040523d82523d6000602084013e61142f565b606091505b509150915061145782826040518060600160405280602781526020016119e0602791396114de565b95945050505050565b606083156114cc5782516114c5576001600160a01b0385163b6114c55760405162461bcd60e51b815260206004820152601d60248201527f416464726573733a2063616c6c20746f206e6f6e2d636f6e74726163740000006044820152606401610377565b50816114d6565b6114d683836114f3565b949350505050565b606083156114ed575081610e54565b610e5483835b8151156115035781518083602001fd5b8060405162461bcd60e51b815260040161037791906117bb565b80356001600160a01b038116811461153457600080fd5b919050565b60006020828403121561154a578081fd5b610e548261151d565b60008060408385031215611565578081fd5b61156e8361151d565b9150602083013567ffffffffffffffff8082111561158a578283fd5b818501915085601f83011261159d578283fd5b8135818111156115af576115af611984565b604051601f8201601f19908116603f011681019083821181831017156115d7576115d7611984565b816040528281528860208487010111156115ef578586fd5b82602086016020830137856020848301015280955050505050509250929050565b600060208284031215611621578081fd5b81518015158114610e54578182fd5b600060208284031215611641578081fd5b5051919050565b60008060008060006080868803121561165f578081fd5b8535945060208601359350604086013567ffffffffffffffff80821115611684578283fd5b818801915088601f830112611697578283fd5b8135818111156116a5578384fd5b8960208285010111156116b6578384fd5b96999598505060200195606001359392505050565b6000602082840312156116dc578081fd5b5035919050565b6000806000606084860312156116f7578283fd5b833592506117076020850161151d565b9150604084013590509250925092565b600060208284031215611728578081fd5b815163ffffffff81168114610e54578182fd5b6000825161174d8184602087016118fd565b9190910192915050565b600060a082018783526020878185015286604085015260a0606085015281865180845260c0860191508288019350845b818110156117a357845183529383019391830191600101611787565b50508093505050508260808301529695505050505050565b60208152600082518060208401526117da8160408501602087016118fd565b601f01601f19169190910160400192915050565b6020808252602c908201527f46756e6374696f6e206d7573742062652063616c6c6564207468726f7567682060408201526b19195b1959d85d1958d85b1b60a21b606082015260800190565b6020808252602c908201527f46756e6374696f6e206d7573742062652063616c6c6564207468726f7567682060408201526b6163746976652070726f787960a01b606082015260800190565b6020808252602b908201527f496e697469616c697a61626c653a20636f6e7472616374206973206e6f74206960408201526a6e697469616c697a696e6760a81b606082015260800190565b600082198211156118e4576118e4611958565b500190565b6000826118f8576118f861196e565b500490565b60005b83811015611918578181015183820152602001611900565b83811115610aae5750506000910152565b600060001982141561193d5761193d611958565b5060010190565b6000826119535761195361196e565b500690565b634e487b7160e01b600052601160045260246000fd5b634e487b7160e01b600052601260045260246000fd5b634e487b7160e01b600052604160045260246000fdfe360894a13ba1a3210667c828492db98dca3e2076cc3735a920a3ca505d382bbc416464726573733a206c6f772d6c6576656c207374617469632063616c6c206661696c6564416464726573733a206c6f772d6c6576656c2064656c65676174652063616c6c206661696c6564a2646970667358221220b20cb42b1bcbf4b58bc51103187a0bba61a745df38a4c7e7dcb27d35cb69942464736f6c63430008040033",
  "devdoc": {
    "kind": "dev",
    "methods": {
      "acceptOwnership()": {
        "details": "The new owner accepts the ownership transfer."
      },
      "checkTxProof(bytes32,uint256,bytes,uint256)": {
        "details": "Checks if the block is finalized, and Merkle proof is valid",
        "params": {
          "_blockHeight": "of the desired tx",
          "_index": "of the tx in Merkle tree",
          "_intermediateNodes": "Part of the Merkle tree from the tx to the root in LE form (called Merkle proof)",
          "_txid": "Desired tx Id in LE form"
        },
        "returns": {
          "_0": "True if the provided tx is confirmed on Bitcoin"
        }
      },
      "initialize(uint256,address,uint256)": {
        "params": {
          "_btcLightClient": "BTC light cient address",
          "_finalizationParameter": "The finalization parameter of Bitcoin",
          "_height": "The starting height"
        }
      },
      "owner()": {
        "details": "Returns the address of the current owner."
      },
      "pauseRelay()": {
        "details": "Only functions with whenPaused modifier can be called"
      },
      "paused()": {
        "details": "Returns true if the contract is paused, and false otherwise."
      },
      "pendingOwner()": {
        "details": "Returns the address of the pending owner."
      },
      "proxiableUUID()": {
        "details": "Implementation of the ERC1822 {proxiableUUID} function. This returns the storage slot used by the implementation. It is used to validate the implementation's compatibility when performing an upgrade. IMPORTANT: A proxy pointing at a proxiable contract should not be considered proxiable itself, because this risks bricking a proxy that upgrades to it, by delegating to itself until out of gas. Thus it is critical that this function revert if invoked through a proxy. This is guaranteed by the `notDelegated` modifier."
      },
      "renounceOwnership()": {
        "details": "Leaves the contract without owner. It will not be possible to call `onlyOwner` functions anymore. Can only be called by the current owner. NOTE: Renouncing ownership will leave the contract without an owner, thereby removing any functionality that is only available to the owner."
      },
      "setFinalizationParameter(uint256)": {
        "details": "Bigger finalization parameter increases security but also increases the delay",
        "params": {
          "_finalizationParameter": "The finalization parameter of Bitcoin"
        }
      },
      "transferOwnership(address)": {
        "details": "Starts the ownership transfer of the contract to a new account. Replaces the pending transfer if there is one. Can only be called by the current owner."
      },
      "unpauseRelay()": {
        "details": "Only functions with whenNotPaused modifier can be called"
      },
      "upgradeTo(address)": {
        "details": "Upgrade the implementation of the proxy to `newImplementation`. Calls {_authorizeUpgrade}. Emits an {Upgraded} event."
      },
      "upgradeToAndCall(address,bytes)": {
        "details": "Upgrade the implementation of the proxy to `newImplementation`, and subsequently execute the function call encoded in `data`. Calls {_authorizeUpgrade}. Emits an {Upgraded} event."
      }
    },
    "version": 1
  },
  "userdoc": {
    "kind": "user",
    "methods": {
      "checkTxProof(bytes32,uint256,bytes,uint256)": {
        "notice": "Checks if a tx is included and finalized on Bitcoin"
      },
      "initialize(uint256,address,uint256)": {
        "notice": "Gives a starting point for the relay"
      },
      "pauseRelay()": {
        "notice": "Pauses the Relay"
      },
      "setFinalizationParameter(uint256)": {
        "notice": "External setter for finalizationParameter"
      },
      "unpauseRelay()": {
        "notice": "Unpauses the relay"
      }
    },
    "version": 1
  },
  "storageLayout": {
    "storage": [
      {
        "astId": 633,
        "contract": "contracts/common/relay/BitcoinRelayLogic.sol:BitcoinRelayLogic",
        "label": "_initialized",
        "offset": 0,
        "slot": "0",
        "type": "t_uint8"
      },
      {
        "astId": 636,
        "contract": "contracts/common/relay/BitcoinRelayLogic.sol:BitcoinRelayLogic",
        "label": "_initializing",
        "offset": 1,
        "slot": "0",
        "type": "t_bool"
      },
      {
        "astId": 2171,
        "contract": "contracts/common/relay/BitcoinRelayLogic.sol:BitcoinRelayLogic",
        "label": "__gap",
        "offset": 0,
        "slot": "1",
        "type": "t_array(t_uint256)50_storage"
      },
      {
        "astId": 116,
        "contract": "contracts/common/relay/BitcoinRelayLogic.sol:BitcoinRelayLogic",
        "label": "_owner",
        "offset": 0,
        "slot": "51",
        "type": "t_address"
      },
      {
        "astId": 236,
        "contract": "contracts/common/relay/BitcoinRelayLogic.sol:BitcoinRelayLogic",
        "label": "__gap",
        "offset": 0,
        "slot": "52",
        "type": "t_array(t_uint256)49_storage"
      },
      {
        "astId": 25,
        "contract": "contracts/common/relay/BitcoinRelayLogic.sol:BitcoinRelayLogic",
        "label": "_pendingOwner",
        "offset": 0,
        "slot": "101",
        "type": "t_address"
      },
      {
        "astId": 104,
        "contract": "contracts/common/relay/BitcoinRelayLogic.sol:BitcoinRelayLogic",
        "label": "__gap",
        "offset": 0,
        "slot": "102",
        "type": "t_array(t_uint256)49_storage"
      },
      {
        "astId": 1072,
        "contract": "contracts/common/relay/BitcoinRelayLogic.sol:BitcoinRelayLogic",
        "label": "_status",
        "offset": 0,
        "slot": "151",
        "type": "t_uint256"
      },
      {
        "astId": 1130,
        "contract": "contracts/common/relay/BitcoinRelayLogic.sol:BitcoinRelayLogic",
        "label": "__gap",
        "offset": 0,
        "slot": "152",
        "type": "t_array(t_uint256)49_storage"
      },
      {
        "astId": 952,
        "contract": "contracts/common/relay/BitcoinRelayLogic.sol:BitcoinRelayLogic",
        "label": "_paused",
        "offset": 0,
        "slot": "201",
        "type": "t_bool"
      },
      {
        "astId": 1057,
        "contract": "contracts/common/relay/BitcoinRelayLogic.sol:BitcoinRelayLogic",
        "label": "__gap",
        "offset": 0,
        "slot": "202",
        "type": "t_array(t_uint256)49_storage"
      },
      {
        "astId": 615,
        "contract": "contracts/common/relay/BitcoinRelayLogic.sol:BitcoinRelayLogic",
        "label": "__gap",
        "offset": 0,
        "slot": "251",
        "type": "t_array(t_uint256)50_storage"
      },
      {
        "astId": 930,
        "contract": "contracts/common/relay/BitcoinRelayLogic.sol:BitcoinRelayLogic",
        "label": "__gap",
        "offset": 0,
        "slot": "301",
        "type": "t_array(t_uint256)50_storage"
      },
      {
        "astId": 11637,
        "contract": "contracts/common/relay/BitcoinRelayLogic.sol:BitcoinRelayLogic",
        "label": "initialHeight",
        "offset": 0,
        "slot": "351",
        "type": "t_uint256"
      },
      {
        "astId": 11640,
        "contract": "contracts/common/relay/BitcoinRelayLogic.sol:BitcoinRelayLogic",
        "label": "finalizationParameter",
        "offset": 0,
        "slot": "352",
        "type": "t_uint256"
      },
      {
        "astId": 11643,
        "contract": "contracts/common/relay/BitcoinRelayLogic.sol:BitcoinRelayLogic",
        "label": "btcLightClient",
        "offset": 0,
        "slot": "353",
        "type": "t_address"
      }
    ],
    "types": {
      "t_address": {
        "encoding": "inplace",
        "label": "address",
        "numberOfBytes": "20"
      },
      "t_array(t_uint256)49_storage": {
        "base": "t_uint256",
        "encoding": "inplace",
        "label": "uint256[49]",
        "numberOfBytes": "1568"
      },
      "t_array(t_uint256)50_storage": {
        "base": "t_uint256",
        "encoding": "inplace",
        "label": "uint256[50]",
        "numberOfBytes": "1600"
      },
      "t_bool": {
        "encoding": "inplace",
        "label": "bool",
        "numberOfBytes": "1"
      },
      "t_uint256": {
        "encoding": "inplace",
        "label": "uint256",
        "numberOfBytes": "32"
      },
      "t_uint8": {
        "encoding": "inplace",
        "label": "uint8",
        "numberOfBytes": "1"
      }
    }
  }
}