{
  "address": "0xd13D0E1b4c0aB3c65b6c1dB125a799F7e433c3CE",
  "abi": [
    {
      "inputs": [
        {
          "internalType": "address",
          "name": "_relay",
          "type": "address"
        }
      ],
      "name": "finalizationParameter",
      "outputs": [
        {
          "internalType": "uint256",
          "name": "",
          "type": "uint256"
        }
      ],
      "stateMutability": "view",
      "type": "function"
    },
    {
      "inputs": [
        {
          "internalType": "address",
          "name": "_relay",
          "type": "address"
        },
        {
          "internalType": "bytes32",
          "name": "_txId",
          "type": "bytes32"
        },
        {
          "internalType": "uint256",
          "name": "_blockNumber",
          "type": "uint256"
        },
        {
          "internalType": "bytes",
          "name": "_intermediateNodes",
          "type": "bytes"
        },
        {
          "internalType": "uint256",
          "name": "_index",
          "type": "uint256"
        }
      ],
      "name": "isConfirmed",
      "outputs": [
        {
          "internalType": "bool",
          "name": "",
          "type": "bool"
        }
      ],
      "stateMutability": "view",
      "type": "function"
    },
    {
      "inputs": [
        {
          "internalType": "address",
          "name": "_relay",
          "type": "address"
        }
      ],
      "name": "lastSubmittedHeight",
      "outputs": [
        {
          "internalType": "uint256",
          "name": "",
          "type": "uint256"
        }
      ],
      "stateMutability": "view",
      "type": "function"
    }
  ],
  "transactionHash": "0xc601601bf523abb346724e80c29ad1d3e23d247566c2a277052e57c2f6ec7cde",
  "args": [],
  "numDeployments": 1,
  "solcInputHash": "ac9518c8ccc368e962d7847f9baaffac",
  "bytecode": "0x610c2c61003a600b82828239805160001a60731461002d57634e487b7160e01b600052600060045260246000fd5b30600052607381538281f3fe73000000000000000000000000000000000000000030146080604052600436106100615760003560e01c806310889dc31461006657806352335c021461008c5780637ebc2327146100ae578063a779a392146100d1578063d257a061146100e4575b600080fd5b61007961007436600461085a565b610104565b6040519081526020015b60405180910390f35b81801561009857600080fd5b506100ac6100a73660046108fb565b61017d565b005b6100c16100bc366004610874565b61038f565b6040519015158152602001610083565b6100796100df36600461085a565b6103fd565b8180156100f057600080fd5b506100ac6100ff366004610948565b610438565b6000816001600160a01b0316632f796d906040518163ffffffff1660e01b815260040160206040518083038186803b15801561013f57600080fd5b505afa158015610153573d6000803e3d6000fd5b505050506040513d601f19601f820116820180604052508101906101779190610a4f565b92915050565b6001600160a01b03851660009081526020879052604090208054859081106101b557634e487b7160e01b600052603260045260246000fd5b600091825260209091206005600790920201015460ff161561021e5760405162461bcd60e51b815260206004820152601d60248201527f4275726e526f757465724c6f6769633a20616c7265616479207061696400000060448201526064015b60405180910390fd5b6001600160a01b038516600090815260208790526040902080548391908690811061025957634e487b7160e01b600052603260045260246000fd5b906000526020600020906007020160040154106102885760405162461bcd60e51b815260040161021590610af2565b6102928382610b67565b6001600160a01b03861660009081526020889052604090208054869081106102ca57634e487b7160e01b600052603260045260246000fd5b906000526020600020906007020160040154116103295760405162461bcd60e51b815260206004820152601c60248201527f4275726e526f757465724c6f6769633a206f6c642072657175657374000000006044820152606401610215565b6001600160a01b03851660009081526020879052604090208054600191908690811061036557634e487b7160e01b600052603260045260246000fd5b60009182526020909120600790910201600501805460ff1916911515919091179055505050505050565b6000806103dc87878787876040516024016103ad9493929190610aaf565b60408051601f198184030181529190526020810180516001600160e01b0316634354da2560e01b179052610687565b9050808060200190518101906103f291906108db565b979650505050505050565b6000816001600160a01b031663a072bc506040518163ffffffff1660e01b815260040160206040518083038186803b15801561013f57600080fd5b80516003146104895760405162461bcd60e51b815260206004820152601d60248201527f4275726e526f757465724c6f6769633a2077726f6e6720696e707574730000006044820152606401610215565b83816002815181106104ab57634e487b7160e01b600052603260045260246000fd5b602002602001015110156105015760405162461bcd60e51b815260206004820152601c60248201527f4275726e526f757465724c6f6769633a206f6c642072657175657374000000006044820152606401610215565b61055e85848360028151811061052757634e487b7160e01b600052603260045260246000fd5b6020026020010151858560018151811061055157634e487b7160e01b600052603260045260246000fd5b602002602001015161038f565b6105aa5760405162461bcd60e51b815260206004820152601e60248201527f4275726e526f757465724c6f6769633a206e6f742066696e616c697a656400006044820152606401610215565b60008381526020889052604090205460ff16156106095760405162461bcd60e51b815260206004820152601d60248201527f4275726e526f757465724c6f6769633a20616c726561647920757365640000006044820152606401610215565b6000838152602088905260409020805460ff1916600117905580518190600290811061064557634e487b7160e01b600052603260045260246000fd5b6020026020010151866106589190610b67565b61066186610104565b1161067e5760405162461bcd60e51b815260040161021590610af2565b50505050505050565b60606106ac8383604051806060016040528060258152602001610bd2602591396106b3565b9392505050565b6060600080856001600160a01b0316856040516106d09190610a93565b600060405180830381855afa9150503d806000811461070b576040519150601f19603f3d011682016040523d82523d6000602084013e610710565b606091505b50915091506107218683838761072b565b9695505050505050565b60608315610797578251610790576001600160a01b0385163b6107905760405162461bcd60e51b815260206004820152601d60248201527f416464726573733a2063616c6c20746f206e6f6e2d636f6e74726163740000006044820152606401610215565b50816107a1565b6107a183836107a9565b949350505050565b8151156107b95781518083602001fd5b8060405162461bcd60e51b81526004016102159190610adf565b80356001600160a01b03811681146107ea57600080fd5b919050565b600082601f8301126107ff578081fd5b813567ffffffffffffffff81111561081957610819610bbb565b61082c601f8201601f1916602001610b36565b818152846020838601011115610840578283fd5b816020850160208301379081016020019190915292915050565b60006020828403121561086b578081fd5b6106ac826107d3565b600080600080600060a0868803121561088b578081fd5b610894866107d3565b94506020860135935060408601359250606086013567ffffffffffffffff8111156108bd578182fd5b6108c9888289016107ef565b95989497509295608001359392505050565b6000602082840312156108ec578081fd5b815180151581146106ac578182fd5b60008060008060008060c08789031215610913578081fd5b86359550610923602088016107d3565b95989597505050506040840135936060810135936080820135935060a0909101359150565b600080600080600080600060e0888a031215610962578081fd5b87359650602080890135965061097a60408a016107d3565b9550606089013594506080890135935060a089013567ffffffffffffffff808211156109a4578384fd5b6109b08c838d016107ef565b945060c08b01359150808211156109c5578384fd5b818b0191508b601f8301126109d8578384fd5b8135818111156109ea576109ea610bbb565b8060051b91506109fb848301610b36565b8082825285820191508585018f87868801011115610a17578788fd5b8795505b83861015610a39578035835260019590950194918601918601610a1b565b5080965050505050505092959891949750929550565b600060208284031215610a60578081fd5b5051919050565b60008151808452610a7f816020860160208601610b8b565b601f01601f19169290920160200192915050565b60008251610aa5818460208701610b8b565b9190910192915050565b848152836020820152608060408201526000610ace6080830185610a67565b905082606083015295945050505050565b6020815260006106ac6020830184610a67565b60208082526024908201527f4275726e526f757465724c6f6769633a20646561646c696e65206e6f742070616040820152631cdcd95960e21b606082015260800190565b604051601f8201601f1916810167ffffffffffffffff81118282101715610b5f57610b5f610bbb565b604052919050565b60008219821115610b8657634e487b7160e01b81526011600452602481fd5b500190565b60005b83811015610ba6578181015183820152602001610b8e565b83811115610bb5576000848401525b50505050565b634e487b7160e01b600052604160045260246000fdfe416464726573733a206c6f772d6c6576656c207374617469632063616c6c206661696c6564a2646970667358221220d546548c609d9921d79d0a6e7052c359338ed9780c914d2cd717773c9eb5977364736f6c63430008040033",
  "devdoc": {
    "kind": "dev",
    "methods": {
      "isConfirmed(address,bytes32,uint256,bytes,uint256)": {
        "details": "Calls the relay contract to check Merkle inclusion proof",
        "params": {
          "_blockNumber": "Height of the block containing the transaction",
          "_index": "Index of transaction in the block",
          "_intermediateNodes": "Merkle inclusion proof for the transaction",
          "_relay": "Address of Relay contract",
          "_txId": "of the transaction"
        },
        "returns": {
          "_0": "True if the transaction was included in the block"
        }
      }
    },
    "version": 1
  },
  "userdoc": {
    "kind": "user",
    "methods": {
      "isConfirmed(address,bytes32,uint256,bytes,uint256)": {
        "notice": "Checks inclusion of the transaction in the specified block"
      }
    },
    "version": 1
  },
  "storageLayout": {
    "storage": [],
    "types": null
  }
}