{
  "address": "0x5CfB8c61c57686AF71018A1035f6f6d06cD7fa17",
  "abi": [
    {
      "inputs": [],
      "stateMutability": "nonpayable",
      "type": "constructor"
    },
    {
      "anonymous": false,
      "inputs": [
        {
          "indexed": false,
          "internalType": "address",
          "name": "previousAdmin",
          "type": "address"
        },
        {
          "indexed": false,
          "internalType": "address",
          "name": "newAdmin",
          "type": "address"
        }
      ],
      "name": "AdminChanged",
      "type": "event"
    },
    {
      "anonymous": false,
      "inputs": [
        {
          "indexed": true,
          "internalType": "address",
          "name": "beacon",
          "type": "address"
        }
      ],
      "name": "BeaconUpgraded",
      "type": "event"
    },
    {
      "anonymous": false,
      "inputs": [
        {
          "indexed": true,
          "internalType": "bytes",
          "name": "lockerLockingScript",
          "type": "bytes"
        },
        {
          "indexed": false,
          "internalType": "uint256",
          "name": "lockerScriptType",
          "type": "uint256"
        },
        {
          "indexed": false,
          "internalType": "address",
          "name": "lockerTargetAddress",
          "type": "address"
        },
        {
          "indexed": true,
          "internalType": "address",
          "name": "user",
          "type": "address"
        },
        {
          "indexed": false,
          "internalType": "uint256",
          "name": "inputAmount",
          "type": "uint256"
        },
        {
          "indexed": false,
          "internalType": "uint256",
          "name": "receivedAmount",
          "type": "uint256"
        },
        {
          "indexed": false,
          "internalType": "address",
          "name": "porter",
          "type": "address"
        },
        {
          "indexed": false,
          "internalType": "uint256",
          "name": "porterFee",
          "type": "uint256"
        },
        {
          "indexed": false,
          "internalType": "uint256",
          "name": "protocolFee",
          "type": "uint256"
        },
        {
          "indexed": false,
          "internalType": "bytes32",
          "name": "bitcoinTxId",
          "type": "bytes32"
        }
      ],
      "name": "CCTransfer",
      "type": "event"
    },
    {
      "anonymous": false,
      "inputs": [
        {
          "indexed": false,
          "internalType": "uint8",
          "name": "version",
          "type": "uint8"
        }
      ],
      "name": "Initialized",
      "type": "event"
    },
    {
      "anonymous": false,
      "inputs": [
        {
          "indexed": false,
          "internalType": "address",
          "name": "oldCoreBTC",
          "type": "address"
        },
        {
          "indexed": false,
          "internalType": "address",
          "name": "newCoreBTC",
          "type": "address"
        }
      ],
      "name": "NewCoreBTC",
      "type": "event"
    },
    {
      "anonymous": false,
      "inputs": [
        {
          "indexed": false,
          "internalType": "address",
          "name": "oldLockers",
          "type": "address"
        },
        {
          "indexed": false,
          "internalType": "address",
          "name": "newLockers",
          "type": "address"
        }
      ],
      "name": "NewLockers",
      "type": "event"
    },
    {
      "anonymous": false,
      "inputs": [
        {
          "indexed": false,
          "internalType": "uint256",
          "name": "oldProtocolPercentageFee",
          "type": "uint256"
        },
        {
          "indexed": false,
          "internalType": "uint256",
          "name": "newProtocolPercentageFee",
          "type": "uint256"
        }
      ],
      "name": "NewProtocolPercentageFee",
      "type": "event"
    },
    {
      "anonymous": false,
      "inputs": [
        {
          "indexed": false,
          "internalType": "address",
          "name": "oldRelay",
          "type": "address"
        },
        {
          "indexed": false,
          "internalType": "address",
          "name": "newRelay",
          "type": "address"
        }
      ],
      "name": "NewRelay",
      "type": "event"
    },
    {
      "anonymous": false,
      "inputs": [
        {
          "indexed": false,
          "internalType": "address",
          "name": "oldTreasury",
          "type": "address"
        },
        {
          "indexed": false,
          "internalType": "address",
          "name": "newTreasury",
          "type": "address"
        }
      ],
      "name": "NewTreasury",
      "type": "event"
    },
    {
      "anonymous": false,
      "inputs": [
        {
          "indexed": true,
          "internalType": "address",
          "name": "previousOwner",
          "type": "address"
        },
        {
          "indexed": true,
          "internalType": "address",
          "name": "newOwner",
          "type": "address"
        }
      ],
      "name": "OwnershipTransferStarted",
      "type": "event"
    },
    {
      "anonymous": false,
      "inputs": [
        {
          "indexed": true,
          "internalType": "address",
          "name": "previousOwner",
          "type": "address"
        },
        {
          "indexed": true,
          "internalType": "address",
          "name": "newOwner",
          "type": "address"
        }
      ],
      "name": "OwnershipTransferred",
      "type": "event"
    },
    {
      "anonymous": false,
      "inputs": [
        {
          "indexed": true,
          "internalType": "address",
          "name": "implementation",
          "type": "address"
        }
      ],
      "name": "Upgraded",
      "type": "event"
    },
    {
      "inputs": [],
      "name": "acceptOwnership",
      "outputs": [],
      "stateMutability": "nonpayable",
      "type": "function"
    },
    {
      "inputs": [],
      "name": "appId",
      "outputs": [
        {
          "internalType": "uint256",
          "name": "",
          "type": "uint256"
        }
      ],
      "stateMutability": "view",
      "type": "function"
    },
    {
      "inputs": [
        {
          "internalType": "bytes32",
          "name": "",
          "type": "bytes32"
        }
      ],
      "name": "ccTransferRequests",
      "outputs": [
        {
          "internalType": "uint256",
          "name": "inputAmount",
          "type": "uint256"
        },
        {
          "internalType": "address",
          "name": "recipientAddress",
          "type": "address"
        },
        {
          "internalType": "uint256",
          "name": "fee",
          "type": "uint256"
        },
        {
          "internalType": "bool",
          "name": "isUsed",
          "type": "bool"
        }
      ],
      "stateMutability": "view",
      "type": "function"
    },
    {
      "inputs": [],
      "name": "chainId",
      "outputs": [
        {
          "internalType": "uint256",
          "name": "",
          "type": "uint256"
        }
      ],
      "stateMutability": "view",
      "type": "function"
    },
    {
      "inputs": [],
      "name": "coreBTC",
      "outputs": [
        {
          "internalType": "address",
          "name": "",
          "type": "address"
        }
      ],
      "stateMutability": "view",
      "type": "function"
    },
    {
      "inputs": [
        {
          "internalType": "uint256",
          "name": "_startingBlockNumber",
          "type": "uint256"
        },
        {
          "internalType": "uint256",
          "name": "_protocolPercentageFee",
          "type": "uint256"
        },
        {
          "internalType": "uint256",
          "name": "_version",
          "type": "uint256"
        },
        {
          "internalType": "uint256",
          "name": "_chainId",
          "type": "uint256"
        },
        {
          "internalType": "uint256",
          "name": "_appId",
          "type": "uint256"
        },
        {
          "internalType": "address",
          "name": "_relay",
          "type": "address"
        },
        {
          "internalType": "address",
          "name": "_lockers",
          "type": "address"
        },
        {
          "internalType": "address",
          "name": "_coreBTC",
          "type": "address"
        },
        {
          "internalType": "address",
          "name": "_treasury",
          "type": "address"
        }
      ],
      "name": "initialize",
      "outputs": [],
      "stateMutability": "nonpayable",
      "type": "function"
    },
    {
      "inputs": [
        {
          "internalType": "bytes32",
          "name": "_txId",
          "type": "bytes32"
        }
      ],
      "name": "isRequestUsed",
      "outputs": [
        {
          "internalType": "bool",
          "name": "",
          "type": "bool"
        }
      ],
      "stateMutability": "view",
      "type": "function"
    },
    {
      "inputs": [
        {
          "internalType": "bytes",
          "name": "_tx",
          "type": "bytes"
        },
        {
          "internalType": "uint256",
          "name": "_blockNumber",
          "type": "uint256"
        },
        {
          "internalType": "bytes",
          "name": "_intermediateNodes",
          "type": "bytes"
        },
        {
          "internalType": "uint256",
          "name": "_index",
          "type": "uint256"
        },
        {
          "internalType": "bytes",
          "name": "_lockerLockingScript",
          "type": "bytes"
        }
      ],
      "name": "lockProof",
      "outputs": [
        {
          "internalType": "bool",
          "name": "",
          "type": "bool"
        }
      ],
      "stateMutability": "nonpayable",
      "type": "function"
    },
    {
      "inputs": [],
      "name": "lockers",
      "outputs": [
        {
          "internalType": "address",
          "name": "",
          "type": "address"
        }
      ],
      "stateMutability": "view",
      "type": "function"
    },
    {
      "inputs": [],
      "name": "owner",
      "outputs": [
        {
          "internalType": "address",
          "name": "",
          "type": "address"
        }
      ],
      "stateMutability": "view",
      "type": "function"
    },
    {
      "inputs": [],
      "name": "pendingOwner",
      "outputs": [
        {
          "internalType": "address",
          "name": "",
          "type": "address"
        }
      ],
      "stateMutability": "view",
      "type": "function"
    },
    {
      "inputs": [],
      "name": "protocolPercentageFee",
      "outputs": [
        {
          "internalType": "uint256",
          "name": "",
          "type": "uint256"
        }
      ],
      "stateMutability": "view",
      "type": "function"
    },
    {
      "inputs": [],
      "name": "proxiableUUID",
      "outputs": [
        {
          "internalType": "bytes32",
          "name": "",
          "type": "bytes32"
        }
      ],
      "stateMutability": "view",
      "type": "function"
    },
    {
      "inputs": [],
      "name": "relay",
      "outputs": [
        {
          "internalType": "address",
          "name": "",
          "type": "address"
        }
      ],
      "stateMutability": "view",
      "type": "function"
    },
    {
      "inputs": [],
      "name": "renounceOwnership",
      "outputs": [],
      "stateMutability": "nonpayable",
      "type": "function"
    },
    {
      "inputs": [
        {
          "internalType": "address",
          "name": "_coreBTC",
          "type": "address"
        }
      ],
      "name": "setCoreBTC",
      "outputs": [],
      "stateMutability": "nonpayable",
      "type": "function"
    },
    {
      "inputs": [
        {
          "internalType": "address",
          "name": "_lockers",
          "type": "address"
        }
      ],
      "name": "setLockers",
      "outputs": [],
      "stateMutability": "nonpayable",
      "type": "function"
    },
    {
      "inputs": [
        {
          "internalType": "uint256",
          "name": "_protocolPercentageFee",
          "type": "uint256"
        }
      ],
      "name": "setProtocolPercentageFee",
      "outputs": [],
      "stateMutability": "nonpayable",
      "type": "function"
    },
    {
      "inputs": [
        {
          "internalType": "address",
          "name": "_relay",
          "type": "address"
        }
      ],
      "name": "setRelay",
      "outputs": [],
      "stateMutability": "nonpayable",
      "type": "function"
    },
    {
      "inputs": [
        {
          "internalType": "uint256",
          "name": "_startingBlockNumber",
          "type": "uint256"
        }
      ],
      "name": "setStartingBlockNumber",
      "outputs": [],
      "stateMutability": "nonpayable",
      "type": "function"
    },
    {
      "inputs": [
        {
          "internalType": "address",
          "name": "_treasury",
          "type": "address"
        }
      ],
      "name": "setTreasury",
      "outputs": [],
      "stateMutability": "nonpayable",
      "type": "function"
    },
    {
      "inputs": [],
      "name": "startingBlockNumber",
      "outputs": [
        {
          "internalType": "uint256",
          "name": "",
          "type": "uint256"
        }
      ],
      "stateMutability": "view",
      "type": "function"
    },
    {
      "inputs": [
        {
          "internalType": "address",
          "name": "newOwner",
          "type": "address"
        }
      ],
      "name": "transferOwnership",
      "outputs": [],
      "stateMutability": "nonpayable",
      "type": "function"
    },
    {
      "inputs": [],
      "name": "treasury",
      "outputs": [
        {
          "internalType": "address",
          "name": "",
          "type": "address"
        }
      ],
      "stateMutability": "view",
      "type": "function"
    },
    {
      "inputs": [
        {
          "internalType": "address",
          "name": "newImplementation",
          "type": "address"
        }
      ],
      "name": "upgradeTo",
      "outputs": [],
      "stateMutability": "nonpayable",
      "type": "function"
    },
    {
      "inputs": [
        {
          "internalType": "address",
          "name": "newImplementation",
          "type": "address"
        },
        {
          "internalType": "bytes",
          "name": "data",
          "type": "bytes"
        }
      ],
      "name": "upgradeToAndCall",
      "outputs": [],
      "stateMutability": "payable",
      "type": "function"
    },
    {
      "inputs": [],
      "name": "version",
      "outputs": [
        {
          "internalType": "uint256",
          "name": "",
          "type": "uint256"
        }
      ],
      "stateMutability": "view",
      "type": "function"
    },
    {
      "stateMutability": "payable",
      "type": "receive"
    }
  ],
  "transactionHash": "0x9b270b8d12af7fb865d1071a2988cc43fb69c872a29ddc2ec4e6621ed4b96c6f",
  "args": [],
  "numDeployments": 1,
  "solcInputHash": "ac9518c8ccc368e962d7847f9baaffac",
  "bytecode": "0x60a06040523060601b6080523480156200001857600080fd5b506200002362000029565b620000eb565b600a54610100900460ff1615620000965760405162461bcd60e51b815260206004820152602760248201527f496e697469616c697a61626c653a20636f6e747261637420697320696e697469604482015266616c697a696e6760c81b606482015260840160405180910390fd5b600a5460ff9081161015620000e957600a805460ff191660ff9081179091556040519081527f7f26b83ff96e1f2b6a682f133852f6798a09c465da95921460cefb38474024989060200160405180910390a15b565b60805160601c61406e6200012660003960008181610b5001528181610b9001528181610c6901528181610ca90152610d38015261406e6000f3fe6080604052600436106101a05760003560e01c8063715018a6116100ec5780639a8a05921161008a578063c805f68b11610064578063c805f68b146104c0578063e30c3978146104e0578063f0f44260146104fe578063f2fde38b1461051e57600080fd5b80639a8a05921461046a578063b14d353214610480578063b59589d1146104a057600080fd5b80637ed55748116100c65780637ed55748146103f657806380afdea81461041657806380bc47261461042c5780638da5cb5b1461044c57600080fd5b8063715018a614610353578063765f02331461036857806379ba5097146103e157600080fd5b80633659cfe61161015957806352d1902d1161013357806352d1902d146102f257806354fd4d501461030757806361d027b31461031d57806370872aa51461033d57600080fd5b80633659cfe61461029f5780634be50e57146102bf5780634f1ef286146102df57600080fd5b806309fd0473146101ac578063136dfb63146101e15780631812adb6146102035780631876dec4146102275780631a2783f21461025f5780631e7107c71461027f57600080fd5b366101a757005b600080fd5b3480156101b857600080fd5b506101cc6101c7366004613a65565b61053e565b60405190151581526020015b60405180910390f35b3480156101ed57600080fd5b506102016101fc366004613b0d565b6109c2565b005b34801561020f57600080fd5b5061021960045481565b6040519081526020016101d8565b34801561023357600080fd5b50600654610247906001600160a01b031681565b6040516001600160a01b0390911681526020016101d8565b34801561026b57600080fd5b50600754610247906001600160a01b031681565b34801561028b57600080fd5b5061020161029a366004613a35565b610b31565b3480156102ab57600080fd5b506102016102ba36600461391f565b610b45565b3480156102cb57600080fd5b506102016102da36600461391f565b610c22565b6102016102ed366004613957565b610c5e565b3480156102fe57600080fd5b50610219610d2b565b34801561031357600080fd5b5061021960015481565b34801561032957600080fd5b50600854610247906001600160a01b031681565b34801561034957600080fd5b5061021960005481565b34801561035f57600080fd5b50610201610dde565b34801561037457600080fd5b506103b7610383366004613a35565b600960205260009081526040902080546001820154600283015460039093015491926001600160a01b039091169160ff1684565b604080519485526001600160a01b03909316602085015291830152151560608201526080016101d8565b3480156103ed57600080fd5b50610201610de8565b34801561040257600080fd5b50610201610411366004613a35565b610e5f565b34801561042257600080fd5b5061021960035481565b34801561043857600080fd5b506101cc610447366004613a35565b610e70565b34801561045857600080fd5b50603d546001600160a01b0316610247565b34801561047657600080fd5b5061021960025481565b34801561048c57600080fd5b5061020161049b36600461391f565b610e99565b3480156104ac57600080fd5b50600554610247906001600160a01b031681565b3480156104cc57600080fd5b506102016104db36600461391f565b610ed1565b3480156104ec57600080fd5b50606f546001600160a01b0316610247565b34801561050a57600080fd5b5061020161051936600461391f565b610f09565b34801561052a57600080fd5b5061020161053936600461391f565b610f41565b6000610548610fb2565b6000548710156105ab5760405162461bcd60e51b8152602060048201526024808201527f43435472616e73666572526f757465723a207265717565737420697320746f6f604482015263081bdb1960e21b60648201526084015b60405180910390fd5b60006105ec8a8a8080601f01602080910402602001604051908101604052809392919081815260200183838082843760009201919091525061100c92505050565b60008181526009602052604090206003015490915060ff16156106685760405162461bcd60e51b815260206004820152602e60248201527f43435472616e73666572526f757465723a20726571756573742068617320626560448201526d656e2075736564206265666f726560901b60648201526084016105a2565b6000806106aa8c8c8080601f0160208091040260200160405190810160405280939291908181526020018383808284376000920191909152506110da92505050565b9350935050508063ffffffff166000146107175760405162461bcd60e51b815260206004820152602860248201527f43435472616e73666572526f757465723a206c6f636b2074696d65206973206e6044820152676f6e202d7a65726f60c01b60648201526084016105a2565b61075a86868080601f01602080910402602001604051908101604052809392919081815260200183838082843760009201919091525086925087915061124c9050565b61079d838b8b8b8080601f0160208091040260200160405190810160405280939291908181526020018383808284376000920191909152508d9250611689915050565b61080f5760405162461bcd60e51b815260206004820152603860248201527f43435472616e73666572526f757465723a207472616e73616374696f6e20686160448201527f73206e6f74206265656e2066696e616c697a656420796574000000000000000060648201526084016105a2565b600080600061085589898080601f0160208091040260200160405190810160405280939291908181526020018383808284376000920191909152508a9250611705915050565b6000898152600960205260409081902060010154905193965091945092506001600160a01b03169061088a908b908b90613bc7565b60405180910390207f93a42f3ea040dae7046a151abb57face220c19ba7d358aa383bc7552d289b31b6000600660009054906101000a90046001600160a01b03166001600160a01b031663c4d10b6a8e8e6040518363ffffffff1660e01b81526004016108f8929190613c52565b60206040518083038186803b15801561091057600080fd5b505afa158015610924573d6000803e3d6000fd5b505050506040513d601f19601f82011682018060405250810190610948919061393b565b60008b8152600960205260409020548833604080519586526001600160a01b039485166020870152850192909252606084015216608082015260a0810185905260c0810186905260e081018a90526101000160405180910390a3600196505050505050506109b6600160a155565b98975050505050505050565b600a54610100900460ff16158080156109e25750600a54600160ff909116105b806109fc5750303b1580156109fc5750600a5460ff166001145b610a5f5760405162461bcd60e51b815260206004820152602e60248201527f496e697469616c697a61626c653a20636f6e747261637420697320616c72656160448201526d191e481a5b9a5d1a585b1a5e995960921b60648201526084016105a2565b600a805460ff191660011790558015610a8257600a805461ff0019166101001790555b610a8a6117c3565b610a926117f2565b610a9a611821565b600188905560028790556003869055610ab28a611848565b610abb896118b0565b610ac48561195a565b610acd846119eb565b610ad683611a7c565b610adf82611b0d565b8015610b2557600a805461ff0019169055604051600181527f7f26b83ff96e1f2b6a682f133852f6798a09c465da95921460cefb38474024989060200160405180910390a15b50505050505050505050565b610b39611b9e565b610b4281611848565b50565b306001600160a01b037f0000000000000000000000000000000000000000000000000000000000000000161415610b8e5760405162461bcd60e51b81526004016105a290613ccc565b7f00000000000000000000000000000000000000000000000000000000000000006001600160a01b0316610bd7600080516020613fcd833981519152546001600160a01b031690565b6001600160a01b031614610bfd5760405162461bcd60e51b81526004016105a290613d18565b610c0681611bf8565b60408051600080825260208201909252610b4291839190611c00565b806001600160a01b038116610c495760405162461bcd60e51b81526004016105a290613d64565b610c51611b9e565b610c5a82611a7c565b5050565b306001600160a01b037f0000000000000000000000000000000000000000000000000000000000000000161415610ca75760405162461bcd60e51b81526004016105a290613ccc565b7f00000000000000000000000000000000000000000000000000000000000000006001600160a01b0316610cf0600080516020613fcd833981519152546001600160a01b031690565b6001600160a01b031614610d165760405162461bcd60e51b81526004016105a290613d18565b610d1f82611bf8565b610c5a82826001611c00565b6000306001600160a01b037f00000000000000000000000000000000000000000000000000000000000000001614610dcb5760405162461bcd60e51b815260206004820152603860248201527f555550535570677261646561626c653a206d757374206e6f742062652063616c60448201527f6c6564207468726f7567682064656c656761746563616c6c000000000000000060648201526084016105a2565b50600080516020613fcd83398151915290565b610de6611b9e565b565b606f5433906001600160a01b03168114610e565760405162461bcd60e51b815260206004820152602960248201527f4f776e61626c6532537465703a2063616c6c6572206973206e6f7420746865206044820152683732bb9037bbb732b960b91b60648201526084016105a2565b610b4281611d7f565b610e67611b9e565b610b42816118b0565b60008181526009602052604081206003015460ff16610e90576000610e93565b60015b92915050565b806001600160a01b038116610ec05760405162461bcd60e51b81526004016105a290613d64565b610ec8611b9e565b610c5a826119eb565b806001600160a01b038116610ef85760405162461bcd60e51b81526004016105a290613d64565b610f00611b9e565b610c5a8261195a565b806001600160a01b038116610f305760405162461bcd60e51b81526004016105a290613d64565b610f38611b9e565b610c5a82611b0d565b610f49611b9e565b606f80546001600160a01b0383166001600160a01b03199091168117909155610f7a603d546001600160a01b031690565b6001600160a01b03167f38d16b8cac22d99fc7c124b9cd0de2d3fa1faef420bfe791d8c362d765e2270060405160405180910390a350565b600260a15414156110055760405162461bcd60e51b815260206004820152601f60248201527f5265656e7472616e637947756172643a207265656e7472616e742063616c6c0060448201526064016105a2565b600260a155565b60008060028360405161101f9190613bd7565b602060405180830381855afa15801561103c573d6000803e3d6000fd5b5050506040513d601f19601f8201168201806040525081019061105f9190613a4d565b9050600060028260405160200161107891815260200190565b60408051601f198184030181529082905261109291613bd7565b602060405180830381855afa1580156110af573d6000803e3d6000fd5b5050506040513d601f19601f820116820180604052508101906110d29190613a4d565b949350505050565b6000808080806110ea8682611d98565b905061110761110262ffffff19831660006004611dbc565b611f13565b94506004600061113661112783601886901c6001600160601b0316613ee2565b62ffffff198516906000611f7c565b9050600061114382611fb0565b905061115862ffffff1985168483600661208c565b96506111648184613df0565b925061118f61118084601887901c6001600160601b0316613ee2565b62ffffff198616906000611f7c565b9150600061119c836120fc565b90506111b58482600f5b62ffffff19891692919061208c565b96506111c18185613df0565b93506111d861110262ffffff198716866004611dbc565b9550601885901c6001600160601b03166111f3856004613df0565b146112405760405162461bcd60e51b815260206004820152601960248201527f426974636f696e48656c7065723a20696e76616c69642074780000000000000060448201526064016105a2565b50505050509193509193565b60065460405163aff2faa360e01b81526001600160a01b039091169063aff2faa39061127c908690600401613c81565b60206040518083038186803b15801561129457600080fd5b505afa1580156112a8573d6000803e3d6000fd5b505050506040513d601f19601f820116820180604052508101906112cc9190613a15565b611340576040805162461bcd60e51b81526020600482015260248101919091527f43435472616e73666572526f757465723a206e6f206c6f636b6572207769746860448201527f2074686520676976656e206c6f636b696e67207363726970742065786973747360648201526084016105a2565b604080516080810182526000808252602082018190529181018290526060810191909152606061137084866121c5565b6001600160401b0390911683528051909150601b146113d15760405162461bcd60e51b815260206004820152601d60248201527f43435472616e73666572526f757465723a20696e76616c6964206c656e00000060448201526064016105a2565b815161142e5760405162461bcd60e51b815260206004820152602660248201527f43435472616e73666572526f757465723a20696e70757420616d6f756e74206960448201526573207a65726f60d01b60648201526084016105a2565b60015461143a826122e9565b60ff161461149b5760405162461bcd60e51b815260206004820152602860248201527f43435472616e73666572526f757465723a2076657273696f6e206973206e6f746044820152670818dbdc9c9958dd60c21b60648201526084016105a2565b6002546114a782612303565b61ffff161461150a5760405162461bcd60e51b815260206004820152602960248201527f43435472616e73666572526f757465723a20636861696e206964206973206e6f6044820152681d0818dbdc9c9958dd60ba1b60648201526084016105a2565b6003546115168261231e565b61ffff16146115775760405162461bcd60e51b815260206004820152602760248201527f43435472616e73666572526f757465723a20617070206964206973206e6f742060448201526618dbdc9c9958dd60ca1b60648201526084016105a2565b60006115828261232e565b61ffff1690506127108111156115f35760405162461bcd60e51b815260206004820152603060248201527f43435472616e73666572526f757465723a2070657263656e746167652066656560448201526f206973206f7574206f662072616e676560801b60648201526084016105a2565b8251612710906116039083613e9a565b61160d9190613e7a565b604084015261161b8261233e565b6001600160a01b0390811660208581019182526001606087018181526000988952600990925260409788902087518155925190830180546001600160a01b0319169190941617909255949093015160028501555050516003909101805460ff19169115159190911790555050565b60055460405160009182916116e5916001600160a01b0316906116b6908990899089908990602401613c22565b60408051601f198184030181529190526020810180516001600160e01b0316634354da2560e01b179052612359565b9050808060200190518101906116fb9190613a15565b9695505050505050565b6000806000611714858561237e565b6007546000888152600960205260409081902060010154905163a9059cbb60e01b81526001600160a01b03918216600482015260248101869052949750929550909350169063a9059cbb90604401602060405180830381600087803b15801561177c57600080fd5b505af1158015611790573d6000803e3d6000fd5b505050506040513d601f19601f820116820180604052508101906117b49190613a15565b509250925092565b600160a155565b600a54610100900460ff166117ea5760405162461bcd60e51b81526004016105a290613da5565b610de66125a7565b600a54610100900460ff166118195760405162461bcd60e51b81526004016105a290613da5565b610de66125d7565b600a54610100900460ff16610de65760405162461bcd60e51b81526004016105a290613da5565b60005481116118ab5760405162461bcd60e51b815260206004820152602960248201527f43435472616e73666572526f757465723a206c6f77207374617274696e67426c60448201526837b1b5a73ab6b132b960b91b60648201526084016105a2565b600055565b8061271010156119195760405162461bcd60e51b815260206004820152602e60248201527f43435472616e73666572526f757465723a2070726f746f636f6c20666565206960448201526d73206f7574206f662072616e676560901b60648201526084016105a2565b60045460408051918252602082018390527f7d205f60891f60851c61cd244ba387d72b6589e7c0ac41b9d909ab0ce2c2a53b910160405180910390a1600455565b806001600160a01b0381166119815760405162461bcd60e51b81526004016105a290613d64565b600554604080516001600160a01b03928316815291841660208301527f4c28a3f61a715259c4dc930c23e7423b8fa52e13232c061a6e488729c66184f4910160405180910390a150600580546001600160a01b0319166001600160a01b0392909216919091179055565b806001600160a01b038116611a125760405162461bcd60e51b81526004016105a290613d64565b600654604080516001600160a01b03928316815291841660208301527ffa021c2ec0f46429a53e7f88b88065e40001f50c9d38b2e8b713beaf9828d4c3910160405180910390a150600680546001600160a01b0319166001600160a01b0392909216919091179055565b806001600160a01b038116611aa35760405162461bcd60e51b81526004016105a290613d64565b600754604080516001600160a01b03928316815291841660208301527ff1253c5d33616f62c4ae5b08481b0df4900a6eb1391d7d96098bf578bb314c52910160405180910390a150600780546001600160a01b0319166001600160a01b0392909216919091179055565b806001600160a01b038116611b345760405162461bcd60e51b81526004016105a290613d64565b600854604080516001600160a01b03928316815291841660208301527f567657fa3f286518b318f4a29870674f433f622fdfc819691acb13105b228225910160405180910390a150600880546001600160a01b0319166001600160a01b0392909216919091179055565b603d546001600160a01b03163314610de65760405162461bcd60e51b815260206004820181905260248201527f4f776e61626c653a2063616c6c6572206973206e6f7420746865206f776e657260448201526064016105a2565b610b42611b9e565b7f4910fdfa16fed3260ed0e7147f7cc6da11a60208b5b9406d12a635614ffd91435460ff1615611c3857611c33836125fe565b505050565b826001600160a01b03166352d1902d6040518163ffffffff1660e01b815260040160206040518083038186803b158015611c7157600080fd5b505afa925050508015611ca1575060408051601f3d908101601f19168201909252611c9e91810190613a4d565b60015b611d045760405162461bcd60e51b815260206004820152602e60248201527f45524331393637557067726164653a206e657720696d706c656d656e7461746960448201526d6f6e206973206e6f74205555505360901b60648201526084016105a2565b600080516020613fcd8339815191528114611d735760405162461bcd60e51b815260206004820152602960248201527f45524331393637557067726164653a20756e737570706f727465642070726f786044820152681a58589b195555525160ba1b60648201526084016105a2565b50611c3383838361269a565b606f80546001600160a01b0319169055610b42816126c5565b815160009060208401611db364ffffffffff85168284612717565b95945050505050565b6000611f09611dcc85858561275b565b60008190506008817eff00ff00ff00ff00ff00ff00ff00ff00ff00ff00ff00ff00ff00ff00ff00ff16901b600882901c7eff00ff00ff00ff00ff00ff00ff00ff00ff00ff00ff00ff00ff00ff00ff00ff161790506010817dffff0000ffff0000ffff0000ffff0000ffff0000ffff0000ffff0000ffff16901b601082901c7dffff0000ffff0000ffff0000ffff0000ffff0000ffff0000ffff0000ffff161790506020817bffffffff00000000ffffffff00000000ffffffff00000000ffffffff16901b602082901c7bffffffff00000000ffffffff00000000ffffffff00000000ffffffff1617905060408177ffffffffffffffff0000000000000000ffffffffffffffff16901b604082901c77ffffffffffffffff0000000000000000ffffffffffffffff16179050608081901b608082901c179050919050565b90505b9392505050565b600063ffffffff821115611f785760405162461bcd60e51b815260206004820152602660248201527f53616665436173743a2076616c756520646f65736e27742066697420696e203360448201526532206269747360d01b60648201526084016105a2565b5090565b6000611f098484611f968760181c6001600160601b031690565b6001600160601b0316611fa99190613ee2565b858561208c565b6000601882901c6001600160601b0316611fcc57506000919050565b6000611fd98360006128b4565b9050601883901c6001600160601b03166001600160401b038216612001575060009392505050565b600061200c836129fd565b60ff16905060005b836001600160401b0316811015612083578282106120385750600095945050505050565b60006120586120478486613ee2565b60055b62ffffff198a169190611f7c565b905061206381612a56565b61206d9084613df0565b925050808061207b90613f70565b915050612014565b50949350505050565b6000806120a28660781c6001600160601b031690565b6001600160601b031690506120b686612ab5565b846120c18784613df0565b6120cb9190613df0565b11156120de5762ffffff199150506110d2565b6120e88582613df0565b90506116fb8364ffffffffff168286612717565b6000601882901c6001600160601b031661211857506000919050565b60006121258360006128b4565b9050601883901c6001600160601b03166001600160401b03821661214d575060009392505050565b6000612158836129fd565b60ff16905060005b836001600160401b0316811015612083578282106121845750600095945050505050565b600061219a6121938486613ee2565b600e61204a565b90506121a581612af6565b6121af9084613df0565b92505080806121bd90613f70565b915050612160565b6000606083600f6121de815b62ffffff19841690612b3f565b5060008060008060006121f28b60006128b4565b6001600160401b0316905060005b818110156122da576122128c82612c19565b955061221d86612d3f565b945061222886612d88565b935061223384612dd2565b925062ffffff1980841614156122b6578a6040516020016122549190613bd7565b604051602081830303815290604052805190602001206122798662ffffff1916612ef0565b6040516020016122899190613bd7565b6040516020818303038152906040528051906020012014156122b1576122ae86612f40565b99505b6122c8565b6122c562ffffff198416612ef0565b98505b806122d281613f70565b915050612200565b50505050505050509250929050565b6000806122f883600080612f65565b600101519392505050565b6000806123138360016002612f65565b600201519392505050565b6000806123138360036004612f65565b600080612313836019601a612f65565b60008061234e8360056018612f65565b601401519392505050565b6060611f0c8383604051806060016040528060258152602001613fed60259139612fea565b60065460008281526009602052604080822054905163536bdec160e11b815291928392839283926001600160a01b03169163a6d7bd82916123c8918a9130918b9190600401613c94565b602060405180830381600087803b1580156123e257600080fd5b505af11580156123f6573d6000803e3d6000fd5b505050506040513d601f19601f8201168201806040525081019061241a9190613a4d565b6004546000878152600960205260409020549192506127109161243d9190613e9a565b6124479190613e7a565b600086815260096020526040902060020154909350915081156124f8576007546001600160a01b031663a9059cbb336040516001600160e01b031960e084901b1681526001600160a01b03909116600482015260248101859052604401602060405180830381600087803b1580156124be57600080fd5b505af11580156124d2573d6000803e3d6000fd5b505050506040513d601f19601f820116820180604052508101906124f69190613a15565b505b82156125885760075460085460405163a9059cbb60e01b81526001600160a01b0391821660048201526024810186905291169063a9059cbb90604401602060405180830381600087803b15801561254e57600080fd5b505af1158015612562573d6000803e3d6000fd5b505050506040513d601f19601f820116820180604052508101906125869190613a15565b505b816125938483613ee2565b61259d9190613ee2565b9350509250925092565b600a54610100900460ff166125ce5760405162461bcd60e51b81526004016105a290613da5565b610de633611d7f565b600a54610100900460ff166117bc5760405162461bcd60e51b81526004016105a290613da5565b6001600160a01b0381163b61266b5760405162461bcd60e51b815260206004820152602d60248201527f455243313936373a206e657720696d706c656d656e746174696f6e206973206e60448201526c1bdd08184818dbdb9d1c9858dd609a1b60648201526084016105a2565b600080516020613fcd83398151915280546001600160a01b0319166001600160a01b0392909216919091179055565b6126a383613058565b6000825111806126b05750805b15611c33576126bf8383613098565b50505050565b603d80546001600160a01b038381166001600160a01b0319831681179093556040519116919082907f8be0079c531659141344cd1fd0a4f28419497f9722a3daafe3b4186f6b6457e090600090a35050565b6000806127248385613df0565b9050604051811115612734575060005b806127465762ffffff19915050611f0c565b5050606092831b9190911790911b1760181b90565b600060ff821661276d57506000611f0c565b6127808460181c6001600160601b031690565b6001600160601b031661279660ff841685613df0565b11156127fa576127e16127b28560781c6001600160601b031690565b6001600160601b03166127ce8660181c6001600160601b031690565b6001600160601b0316858560ff16613183565b60405162461bcd60e51b81526004016105a29190613c81565b60208260ff1611156128745760405162461bcd60e51b815260206004820152603a60248201527f54797065644d656d566965772f696e646578202d20417474656d70746564207460448201527f6f20696e646578206d6f7265207468616e20333220627974657300000000000060648201526084016105a2565b60088202600061288d8660781c6001600160601b031690565b6001600160601b031690506000600160ff1b60001984011d91909501511695945050505050565b6000806128c962ffffff1985168460016132ad565b905060fc81116128e4576128dc816132dd565b915050610e93565b8060fd141561294a5761291261290d6128fe856001613df0565b62ffffff198716906002611dbc565b6132dd565b915061291d826129fd565b60ff166003146129455761294361293e62ffffff198616856003600061208c565b613345565b505b6129f6565b8060fe141561299f5761297361290d612964856001613df0565b62ffffff198716906004611dbc565b915061297e826129fd565b60ff166005146129455761294361293e62ffffff198616856005600061208c565b8060ff14156129f6576129c861290d6129b9856001613df0565b62ffffff198716906008611dbc565b91506129d3826129fd565b60ff166009146129f6576129f461293e62ffffff198616856009600061208c565b505b5092915050565b600060fc826001600160401b031611612a1857506001919050565b61ffff826001600160401b031611612a3257506003919050565b63ffffffff826001600160401b031611612a4e57506005919050565b506009919050565b6000816005612a64816121d1565b506000612a728560246128b4565b9050806001600160401b0316612a87826129fd565b60ff16612a949190613df0565b612a9f906024613df0565b612aaa906004613df0565b9350505b5050919050565b6000612aca8260181c6001600160601b031690565b612add8360781c6001600160601b031690565b612ae79190613e58565b6001600160601b031692915050565b600081600e612b04816121d1565b506000612b128560086128b4565b9050806001600160401b0316612b27826129fd565b60ff16612b349190613df0565b612aaa906008613df0565b6000612b4b83836133cc565b612c12576000612b6a612b5e8560d81c90565b64ffffffffff166133ef565b9150506000612b7f8464ffffffffff166133ef565b6040517f5479706520617373657274696f6e206661696c65642e20476f7420307800000060208201526001600160b01b031960b086811b8216603d8401526c05c408af0e0cac6e8cac84060f609b1b604784015283901b16605482015290925060009150605e015b60405160208183030381529060405290508060405162461bcd60e51b81526004016105a29190613c81565b5090919050565b600082600f612c27816121d1565b506000612c358660006128b4565b6001600160401b03169050601886901c6001600160601b0316818610612c915760405162461bcd60e51b81526020600482015260116024820152702b37baba103932b0b21037bb32b9393ab760791b60448201526064016105a2565b6000612c9c836129fd565b60ff1690506000805b88811015612cf257612cc9612cba8486613ee2565b62ffffff198c1690600e611f7c565b9150612cd482612af6565b612cde9084613df0565b9250612ceb600182613df0565b9050612ca5565b50612d0f612d008385613ee2565b62ffffff198b1690600e611f7c565b90506000612d1c82612af6565b9050612d3162ffffff198b168483600d61208c565b9a9950505050505050505050565b600081600d612d4d816121d1565b506000612d5b8560086128b4565b9050612aaa612d69826129fd565b612d74906008613e33565b60ff166001600160401b03831660076111a6565b600081600d612d96816121d1565b506000612da48560086128b4565b9050612aaa600882612db5846129fd565b60ff16612dc29190613e08565b6001600160401b031660076111a6565b6000816007612de0816121d1565b506000612dee8560006128b4565b90506000612e0861290d62ffffff198816600260016132ad565b9050612e1c62ffffff1987166001806132ad565b606a141580612e505750612e31600283613ef9565b6001600160401b0316612e4d62ffffff198816600260016132ad565b14155b15612e635762ffffff1994505050612aae565b6053826001600160401b031611158015612e8757506004826001600160401b031610155b612ed35760405162461bcd60e51b815260206004820152601f60248201527f426974636f696e48656c7065723a20696e76616c6964206f7072657475726e0060448201526064016105a2565b6116fb62ffffff19871660036001600160401b038416600c61208c565b6060600080612f088460181c6001600160601b031690565b60405193508392506001600160601b03169050612f2f84612f2a846020613df0565b61349b565b508181016020016040529052919050565b600081600d612f4e816121d1565b506110d261290d62ffffff19861660006008611dbc565b60606000835b612f76846001613df0565b811015612fe157858181518110612f9d57634e487b7160e01b600052603260045260246000fd5b602001015160f81c60f81b91508282604051602001612fbd929190613bf3565b60405160208183030381529060405292508080612fd990613f70565b915050612f6b565b50509392505050565b6060600080856001600160a01b0316856040516130079190613bd7565b600060405180830381855afa9150503d8060008114613042576040519150601f19603f3d011682016040523d82523d6000602084013e613047565b606091505b50915091506116fb868383876135f3565b613061816125fe565b6040516001600160a01b038216907fbc7cd75a20ee27fd9adebab32041f755214dbc6bffa90cc0225b39da2e5c2d3b90600090a250565b60606001600160a01b0383163b6131005760405162461bcd60e51b815260206004820152602660248201527f416464726573733a2064656c65676174652063616c6c20746f206e6f6e2d636f6044820152651b9d1c9858dd60d21b60648201526084016105a2565b600080846001600160a01b03168460405161311b9190613bd7565b600060405180830381855af49150503d8060008114613156576040519150601f19603f3d011682016040523d82523d6000602084013e61315b565b606091505b5091509150611db3828260405180606001604052806027815260200161401260279139613669565b60606000613190866133ef565b915050600061319e866133ef565b91505060006131ac866133ef565b91505060006131ba866133ef565b604080517f54797065644d656d566965772f696e646578202d204f76657272616e20746865602082015274040ecd2caee5c40a6d8d2c6ca40d2e640c2e84060f605b1b818301526001600160d01b031960d098891b811660558301526e040eed2e8d040d8cadccee8d04060f608b1b605b830181905297891b8116606a8301527f2e20417474656d7074656420746f20696e646578206174206f666673657420306070830152600f60fb1b609083015295881b861660918201526097810196909652951b90921660a68401525050601760f91b60ac8201528151808203608d01815260ad90910190915295945050505050565b60006132ba826020613f21565b6132c5906008613eb9565b60ff166132d385858561275b565b901c949350505050565b60006001600160401b03821115611f785760405162461bcd60e51b815260206004820152602660248201527f53616665436173743a2076616c756520646f65736e27742066697420696e203660448201526534206269747360d01b60648201526084016105a2565b6060600061337961337482613366601887901c6001600160601b0316613682565b62ffffff19871691906132ad565b6133ef565b6040517f4e6f6e2d6d696e696d616c2076617220696e742e20476f74203078000000000060208201526dffffffffffffffffffffffffffff19607083901b16603b82015290925060009150604d01612be7565b60008164ffffffffff166133e08460d81c90565b64ffffffffff16149392505050565b600080601f5b600f8160ff16111561344d57600061340e826008613eb9565b60ff1685901c905061341f816136e3565b61ffff16841793508160ff1660101461343a57601084901b93505b50613446600182613f21565b90506133f5565b50600f5b60ff8160ff1610156134955760ff600882021684901c613470816136e3565b61ffff16831792508160ff1660001461348b57601083901b92505b5060001901613451565b50915091565b600062ffffff1980841614156135045760405162461bcd60e51b815260206004820152602860248201527f54797065644d656d566965772f636f7079546f202d204e756c6c20706f696e7460448201526732b9103232b932b360c11b60648201526084016105a2565b61350d83613715565b61356d5760405162461bcd60e51b815260206004820152602b60248201527f54797065644d656d566965772f636f7079546f202d20496e76616c696420706f60448201526a34b73a32b9103232b932b360a91b60648201526084016105a2565b60006135828460181c6001600160601b031690565b6001600160601b0316905060006135a28560781c6001600160601b031690565b6001600160601b0316905060006040519050848111156135c25760206060fd5b8285848460045afa506116fb6135d88760d81c90565b64ffffffffff60601b606091821b168717901b841760181b90565b6060831561365f578251613658576001600160a01b0385163b6136585760405162461bcd60e51b815260206004820152601d60248201527f416464726573733a2063616c6c20746f206e6f6e2d636f6e747261637400000060448201526064016105a2565b50816110d2565b6110d28383613753565b60608315613678575081611f0c565b611f0c8383613753565b600060ff821115611f785760405162461bcd60e51b815260206004820152602560248201527f53616665436173743a2076616c756520646f65736e27742066697420696e2038604482015264206269747360d81b60648201526084016105a2565b60006136f560048360ff16901c61377d565b60ff1661ffff919091161760081b61370c8261377d565b60ff1617919050565b60006137218260d81c90565b64ffffffffff1664ffffffffff141561373c57506000919050565b600061374783612ab5565b60405110199392505050565b8151156137635781518083602001fd5b8060405162461bcd60e51b81526004016105a29190613c81565b600060f08083179060ff821614156137985750603092915050565b8060ff1660f114156137ad5750603192915050565b8060ff1660f214156137c25750603292915050565b8060ff1660f314156137d75750603392915050565b8060ff1660f414156137ec5750603492915050565b8060ff1660f514156138015750603592915050565b8060ff1660f614156138165750603692915050565b8060ff1660f7141561382b5750603792915050565b8060ff1660f814156138405750603892915050565b8060ff1660f914156138555750603992915050565b8060ff1660fa141561386a5750606192915050565b8060ff1660fb141561387f5750606292915050565b8060ff1660fc14156138945750606392915050565b8060ff1660fd14156138a95750606492915050565b8060ff1660fe14156138be5750606592915050565b8060ff1660ff14156138d35750606692915050565b50919050565b60008083601f8401126138ea578182fd5b5081356001600160401b03811115613900578182fd5b60208301915083602082850101111561391857600080fd5b9250929050565b600060208284031215613930578081fd5b8135611f0c81613fb7565b60006020828403121561394c578081fd5b8151611f0c81613fb7565b60008060408385031215613969578081fd5b823561397481613fb7565b915060208301356001600160401b038082111561398f578283fd5b818501915085601f8301126139a2578283fd5b8135818111156139b4576139b4613fa1565b604051601f8201601f19908116603f011681019083821181831017156139dc576139dc613fa1565b816040528281528860208487010111156139f4578586fd5b82602086016020830137856020848301015280955050505050509250929050565b600060208284031215613a26578081fd5b81518015158114611f0c578182fd5b600060208284031215613a46578081fd5b5035919050565b600060208284031215613a5e578081fd5b5051919050565b60008060008060008060008060a0898b031215613a80578384fd5b88356001600160401b0380821115613a96578586fd5b613aa28c838d016138d9565b909a50985060208b0135975060408b0135915080821115613ac1578586fd5b613acd8c838d016138d9565b909750955060608b0135945060808b0135915080821115613aec578384fd5b50613af98b828c016138d9565b999c989b5096995094979396929594505050565b60008060008060008060008060006101208a8c031215613b2b578081fd5b8935985060208a0135975060408a0135965060608a0135955060808a0135945060a08a0135613b5981613fb7565b935060c08a0135613b6981613fb7565b925060e08a0135613b7981613fb7565b91506101008a0135613b8a81613fb7565b809150509295985092959850929598565b60008151808452613bb3816020860160208601613f44565b601f01601f19169290920160200192915050565b8183823760009101908152919050565b60008251613be9818460208701613f44565b9190910192915050565b60008351613c05818460208801613f44565b6001600160f81b0319939093169190920190815260010192915050565b848152836020820152608060408201526000613c416080830185613b9b565b905082606083015295945050505050565b60208152816020820152818360408301376000818301604090810191909152601f909201601f19160101919050565b602081526000611f0c6020830184613b9b565b608081526000613ca76080830187613b9b565b6001600160a01b03959095166020830152506040810192909252606090910152919050565b6020808252602c908201527f46756e6374696f6e206d7573742062652063616c6c6564207468726f7567682060408201526b19195b1959d85d1958d85b1b60a21b606082015260800190565b6020808252602c908201527f46756e6374696f6e206d7573742062652063616c6c6564207468726f7567682060408201526b6163746976652070726f787960a01b606082015260800190565b60208082526021908201527f43435472616e73666572526f757465723a2061646472657373206973207a65726040820152606f60f81b606082015260800190565b6020808252602b908201527f496e697469616c697a61626c653a20636f6e7472616374206973206e6f74206960408201526a6e697469616c697a696e6760a81b606082015260800190565b60008219821115613e0357613e03613f8b565b500190565b60006001600160401b03808316818516808303821115613e2a57613e2a613f8b565b01949350505050565b600060ff821660ff84168060ff03821115613e5057613e50613f8b565b019392505050565b60006001600160601b03808316818516808303821115613e2a57613e2a613f8b565b600082613e9557634e487b7160e01b81526012600452602481fd5b500490565b6000816000190483118215151615613eb457613eb4613f8b565b500290565b600060ff821660ff84168160ff0481118215151615613eda57613eda613f8b565b029392505050565b600082821015613ef457613ef4613f8b565b500390565b60006001600160401b0383811690831681811015613f1957613f19613f8b565b039392505050565b600060ff821660ff841680821015613f3b57613f3b613f8b565b90039392505050565b60005b83811015613f5f578181015183820152602001613f47565b838111156126bf5750506000910152565b6000600019821415613f8457613f84613f8b565b5060010190565b634e487b7160e01b600052601160045260246000fd5b634e487b7160e01b600052604160045260246000fd5b6001600160a01b0381168114610b4257600080fdfe360894a13ba1a3210667c828492db98dca3e2076cc3735a920a3ca505d382bbc416464726573733a206c6f772d6c6576656c207374617469632063616c6c206661696c6564416464726573733a206c6f772d6c6576656c2064656c65676174652063616c6c206661696c6564a264697066735822122014a86c818f57ba5f40d6653c3bd0aeec01fab70b28f9c024d4535355eb1b22d564736f6c63430008040033",
  "devdoc": {
    "kind": "dev",
    "methods": {
      "acceptOwnership()": {
        "details": "The new owner accepts the ownership transfer."
      },
      "initialize(uint256,uint256,uint256,uint256,uint256,address,address,address,address)": {
        "params": {
          "_appId": "Id of ccTransfer dApp",
          "_chainId": "Id of the underlying chain",
          "_coreBTC": "CoreDAO BTC ERC20 token address",
          "_lockers": "Lockers' contract address",
          "_protocolPercentageFee": "Percentage amount of protocol fee (min: %0.01)",
          "_relay": "The Relay address to validate data from source chain",
          "_startingBlockNumber": "Requests that are included in a block older than _startingBlockNumber cannot be executed",
          "_treasury": "Address of treasury that collects protocol fees",
          "_version": "Version of op return payload"
        }
      },
      "isRequestUsed(bytes32)": {
        "details": "This is to avoid re-submitting a used request",
        "params": {
          "_txId": "The txId of request on the source chain"
        },
        "returns": {
          "_0": "True if the request has been executed"
        }
      },
      "lockProof(bytes,uint256,bytes,uint256,bytes)": {
        "details": "Validates the transfer request",
        "params": {
          "_blockNumber": "The block number of the request tx",
          "_index": "Index of tx in the block",
          "_intermediateNodes": "Merkle proof for tx",
          "_lockerLockingScript": "Locking script of locker that user has sent BTC to it",
          "_tx": "Bitcoin tx"
        },
        "returns": {
          "_0": "True if the transfer is successful"
        }
      },
      "owner()": {
        "details": "Returns the address of the current owner."
      },
      "pendingOwner()": {
        "details": "Returns the address of the pending owner."
      },
      "proxiableUUID()": {
        "details": "Implementation of the ERC1822 {proxiableUUID} function. This returns the storage slot used by the implementation. It is used to validate the implementation's compatibility when performing an upgrade. IMPORTANT: A proxy pointing at a proxiable contract should not be considered proxiable itself, because this risks bricking a proxy that upgrades to it, by delegating to itself until out of gas. Thus it is critical that this function revert if invoked through a proxy. This is guaranteed by the `notDelegated` modifier."
      },
      "renounceOwnership()": {
        "details": "Leaves the contract without owner. It will not be possible to call `onlyOwner` functions anymore. Can only be called by the current owner. NOTE: Renouncing ownership will leave the contract without an owner, thereby removing any functionality that is only available to the owner."
      },
      "setCoreBTC(address)": {
        "details": "Only owner can call this",
        "params": {
          "_coreBTC": "CoreDAO BTC ERC20 token address"
        }
      },
      "setLockers(address)": {
        "details": "Only owner can call this",
        "params": {
          "_lockers": "Address of the lockers contract"
        }
      },
      "setProtocolPercentageFee(uint256)": {
        "details": "Only owner can call this",
        "params": {
          "_protocolPercentageFee": "Percentage amount of protocol fee"
        }
      },
      "setRelay(address)": {
        "details": "Only owner can call this",
        "params": {
          "_relay": "Address of the relay contract"
        }
      },
      "setTreasury(address)": {
        "details": "Only owner can call this",
        "params": {
          "_treasury": "Treasury address"
        }
      },
      "transferOwnership(address)": {
        "details": "Starts the ownership transfer of the contract to a new account. Replaces the pending transfer if there is one. Can only be called by the current owner."
      },
      "upgradeTo(address)": {
        "details": "Upgrade the implementation of the proxy to `newImplementation`. Calls {_authorizeUpgrade}. Emits an {Upgraded} event."
      },
      "upgradeToAndCall(address,bytes)": {
        "details": "Upgrade the implementation of the proxy to `newImplementation`, and subsequently execute the function call encoded in `data`. Calls {_authorizeUpgrade}. Emits an {Upgraded} event."
      }
    },
    "version": 1
  },
  "userdoc": {
    "events": {
      "CCTransfer(bytes,uint256,address,address,uint256,uint256,address,uint256,uint256,bytes32)": {
        "notice": "Emits when a cc transfer request gets done"
      },
      "NewCoreBTC(address,address)": {
        "notice": "Emits when changes made to CoreBTC address"
      },
      "NewLockers(address,address)": {
        "notice": "Emits when changes made to Lockers address"
      },
      "NewProtocolPercentageFee(uint256,uint256)": {
        "notice": "Emits when changes made to protocol percentage fee"
      },
      "NewRelay(address,address)": {
        "notice": "Emits when changes made to relay address"
      },
      "NewTreasury(address,address)": {
        "notice": "Emits when changes made to Treasury address"
      }
    },
    "kind": "user",
    "methods": {
      "initialize(uint256,uint256,uint256,uint256,uint256,address,address,address,address)": {
        "notice": "Gives default params to initiate cc transfer router"
      },
      "isRequestUsed(bytes32)": {
        "notice": "Check if the request has been executed before"
      },
      "lockProof(bytes,uint256,bytes,uint256,bytes)": {
        "notice": "Executes the cross chain transfer request"
      },
      "setCoreBTC(address)": {
        "notice": "Setter for coreBTC"
      },
      "setLockers(address)": {
        "notice": "Setter for lockers"
      },
      "setProtocolPercentageFee(uint256)": {
        "notice": "Setter for protocol percentage fee"
      },
      "setRelay(address)": {
        "notice": "Setter for relay"
      },
      "setStartingBlockNumber(uint256)": {
        "notice": "Setter for starting block number"
      },
      "setTreasury(address)": {
        "notice": "Setter for treasury"
      }
    },
    "version": 1
  },
  "storageLayout": {
    "storage": [
      {
        "astId": 21494,
        "contract": "contracts/routers/CcTransferRouterLogic.sol:CcTransferRouterLogic",
        "label": "startingBlockNumber",
        "offset": 0,
        "slot": "0",
        "type": "t_uint256"
      },
      {
        "astId": 21497,
        "contract": "contracts/routers/CcTransferRouterLogic.sol:CcTransferRouterLogic",
        "label": "version",
        "offset": 0,
        "slot": "1",
        "type": "t_uint256"
      },
      {
        "astId": 21500,
        "contract": "contracts/routers/CcTransferRouterLogic.sol:CcTransferRouterLogic",
        "label": "chainId",
        "offset": 0,
        "slot": "2",
        "type": "t_uint256"
      },
      {
        "astId": 21503,
        "contract": "contracts/routers/CcTransferRouterLogic.sol:CcTransferRouterLogic",
        "label": "appId",
        "offset": 0,
        "slot": "3",
        "type": "t_uint256"
      },
      {
        "astId": 21506,
        "contract": "contracts/routers/CcTransferRouterLogic.sol:CcTransferRouterLogic",
        "label": "protocolPercentageFee",
        "offset": 0,
        "slot": "4",
        "type": "t_uint256"
      },
      {
        "astId": 21509,
        "contract": "contracts/routers/CcTransferRouterLogic.sol:CcTransferRouterLogic",
        "label": "relay",
        "offset": 0,
        "slot": "5",
        "type": "t_address"
      },
      {
        "astId": 21512,
        "contract": "contracts/routers/CcTransferRouterLogic.sol:CcTransferRouterLogic",
        "label": "lockers",
        "offset": 0,
        "slot": "6",
        "type": "t_address"
      },
      {
        "astId": 21515,
        "contract": "contracts/routers/CcTransferRouterLogic.sol:CcTransferRouterLogic",
        "label": "coreBTC",
        "offset": 0,
        "slot": "7",
        "type": "t_address"
      },
      {
        "astId": 21518,
        "contract": "contracts/routers/CcTransferRouterLogic.sol:CcTransferRouterLogic",
        "label": "treasury",
        "offset": 0,
        "slot": "8",
        "type": "t_address"
      },
      {
        "astId": 21523,
        "contract": "contracts/routers/CcTransferRouterLogic.sol:CcTransferRouterLogic",
        "label": "ccTransferRequests",
        "offset": 0,
        "slot": "9",
        "type": "t_mapping(t_bytes32,t_struct(ccTransferRequest)21963_storage)"
      },
      {
        "astId": 633,
        "contract": "contracts/routers/CcTransferRouterLogic.sol:CcTransferRouterLogic",
        "label": "_initialized",
        "offset": 0,
        "slot": "10",
        "type": "t_uint8"
      },
      {
        "astId": 636,
        "contract": "contracts/routers/CcTransferRouterLogic.sol:CcTransferRouterLogic",
        "label": "_initializing",
        "offset": 1,
        "slot": "10",
        "type": "t_bool"
      },
      {
        "astId": 2171,
        "contract": "contracts/routers/CcTransferRouterLogic.sol:CcTransferRouterLogic",
        "label": "__gap",
        "offset": 0,
        "slot": "11",
        "type": "t_array(t_uint256)50_storage"
      },
      {
        "astId": 116,
        "contract": "contracts/routers/CcTransferRouterLogic.sol:CcTransferRouterLogic",
        "label": "_owner",
        "offset": 0,
        "slot": "61",
        "type": "t_address"
      },
      {
        "astId": 236,
        "contract": "contracts/routers/CcTransferRouterLogic.sol:CcTransferRouterLogic",
        "label": "__gap",
        "offset": 0,
        "slot": "62",
        "type": "t_array(t_uint256)49_storage"
      },
      {
        "astId": 25,
        "contract": "contracts/routers/CcTransferRouterLogic.sol:CcTransferRouterLogic",
        "label": "_pendingOwner",
        "offset": 0,
        "slot": "111",
        "type": "t_address"
      },
      {
        "astId": 104,
        "contract": "contracts/routers/CcTransferRouterLogic.sol:CcTransferRouterLogic",
        "label": "__gap",
        "offset": 0,
        "slot": "112",
        "type": "t_array(t_uint256)49_storage"
      },
      {
        "astId": 1072,
        "contract": "contracts/routers/CcTransferRouterLogic.sol:CcTransferRouterLogic",
        "label": "_status",
        "offset": 0,
        "slot": "161",
        "type": "t_uint256"
      },
      {
        "astId": 1130,
        "contract": "contracts/routers/CcTransferRouterLogic.sol:CcTransferRouterLogic",
        "label": "__gap",
        "offset": 0,
        "slot": "162",
        "type": "t_array(t_uint256)49_storage"
      },
      {
        "astId": 615,
        "contract": "contracts/routers/CcTransferRouterLogic.sol:CcTransferRouterLogic",
        "label": "__gap",
        "offset": 0,
        "slot": "211",
        "type": "t_array(t_uint256)50_storage"
      },
      {
        "astId": 930,
        "contract": "contracts/routers/CcTransferRouterLogic.sol:CcTransferRouterLogic",
        "label": "__gap",
        "offset": 0,
        "slot": "261",
        "type": "t_array(t_uint256)50_storage"
      }
    ],
    "types": {
      "t_address": {
        "encoding": "inplace",
        "label": "address",
        "numberOfBytes": "20"
      },
      "t_array(t_uint256)49_storage": {
        "base": "t_uint256",
        "encoding": "inplace",
        "label": "uint256[49]",
        "numberOfBytes": "1568"
      },
      "t_array(t_uint256)50_storage": {
        "base": "t_uint256",
        "encoding": "inplace",
        "label": "uint256[50]",
        "numberOfBytes": "1600"
      },
      "t_bool": {
        "encoding": "inplace",
        "label": "bool",
        "numberOfBytes": "1"
      },
      "t_bytes32": {
        "encoding": "inplace",
        "label": "bytes32",
        "numberOfBytes": "32"
      },
      "t_mapping(t_bytes32,t_struct(ccTransferRequest)21963_storage)": {
        "encoding": "mapping",
        "key": "t_bytes32",
        "label": "mapping(bytes32 => struct ICcTransferRouterStorage.ccTransferRequest)",
        "numberOfBytes": "32",
        "value": "t_struct(ccTransferRequest)21963_storage"
      },
      "t_struct(ccTransferRequest)21963_storage": {
        "encoding": "inplace",
        "label": "struct ICcTransferRouterStorage.ccTransferRequest",
        "members": [
          {
            "astId": 21956,
            "contract": "contracts/routers/CcTransferRouterLogic.sol:CcTransferRouterLogic",
            "label": "inputAmount",
            "offset": 0,
            "slot": "0",
            "type": "t_uint256"
          },
          {
            "astId": 21958,
            "contract": "contracts/routers/CcTransferRouterLogic.sol:CcTransferRouterLogic",
            "label": "recipientAddress",
            "offset": 0,
            "slot": "1",
            "type": "t_address"
          },
          {
            "astId": 21960,
            "contract": "contracts/routers/CcTransferRouterLogic.sol:CcTransferRouterLogic",
            "label": "fee",
            "offset": 0,
            "slot": "2",
            "type": "t_uint256"
          },
          {
            "astId": 21962,
            "contract": "contracts/routers/CcTransferRouterLogic.sol:CcTransferRouterLogic",
            "label": "isUsed",
            "offset": 0,
            "slot": "3",
            "type": "t_bool"
          }
        ],
        "numberOfBytes": "128"
      },
      "t_uint256": {
        "encoding": "inplace",
        "label": "uint256",
        "numberOfBytes": "32"
      },
      "t_uint8": {
        "encoding": "inplace",
        "label": "uint8",
        "numberOfBytes": "1"
      }
    }
  }
}