{
  "address": "0x69149edF0B73825A485967c8CFca4314a15F8284",
  "abi": [
    {
      "inputs": [],
      "stateMutability": "nonpayable",
      "type": "constructor"
    },
    {
      "inputs": [
        {
          "internalType": "address",
          "name": "collateralToken",
          "type": "address"
        },
        {
          "internalType": "uint256",
          "name": "lockedAmount",
          "type": "uint256"
        },
        {
          "internalType": "uint256",
          "name": "minLockedAmount",
          "type": "uint256"
        }
      ],
      "name": "InsufficientCollateral",
      "type": "error"
    },
    {
      "anonymous": false,
      "inputs": [
        {
          "indexed": false,
          "internalType": "address",
          "name": "previousAdmin",
          "type": "address"
        },
        {
          "indexed": false,
          "internalType": "address",
          "name": "newAdmin",
          "type": "address"
        }
      ],
      "name": "AdminChanged",
      "type": "event"
    },
    {
      "anonymous": false,
      "inputs": [
        {
          "indexed": true,
          "internalType": "address",
          "name": "beacon",
          "type": "address"
        }
      ],
      "name": "BeaconUpgraded",
      "type": "event"
    },
    {
      "anonymous": false,
      "inputs": [
        {
          "indexed": false,
          "internalType": "uint8",
          "name": "version",
          "type": "uint8"
        }
      ],
      "name": "Initialized",
      "type": "event"
    },
    {
      "anonymous": false,
      "inputs": [
        {
          "indexed": false,
          "internalType": "address",
          "name": "oldLockers",
          "type": "address"
        },
        {
          "indexed": false,
          "internalType": "address",
          "name": "newLockers",
          "type": "address"
        }
      ],
      "name": "NewLockers",
      "type": "event"
    },
    {
      "anonymous": false,
      "inputs": [
        {
          "indexed": true,
          "internalType": "address",
          "name": "token",
          "type": "address"
        },
        {
          "indexed": false,
          "internalType": "uint256",
          "name": "oldMinRequiredLockedAmount",
          "type": "uint256"
        },
        {
          "indexed": false,
          "internalType": "uint256",
          "name": "newMinRequiredLockedAmount",
          "type": "uint256"
        }
      ],
      "name": "NewMinRequiredLockedAmount",
      "type": "event"
    },
    {
      "anonymous": false,
      "inputs": [
        {
          "indexed": true,
          "internalType": "address",
          "name": "token",
          "type": "address"
        },
        {
          "indexed": false,
          "internalType": "uint256",
          "name": "minLockedAmount",
          "type": "uint256"
        }
      ],
      "name": "NewSupportedCollateral",
      "type": "event"
    },
    {
      "anonymous": false,
      "inputs": [
        {
          "indexed": true,
          "internalType": "address",
          "name": "previousOwner",
          "type": "address"
        },
        {
          "indexed": true,
          "internalType": "address",
          "name": "newOwner",
          "type": "address"
        }
      ],
      "name": "OwnershipTransferStarted",
      "type": "event"
    },
    {
      "anonymous": false,
      "inputs": [
        {
          "indexed": true,
          "internalType": "address",
          "name": "previousOwner",
          "type": "address"
        },
        {
          "indexed": true,
          "internalType": "address",
          "name": "newOwner",
          "type": "address"
        }
      ],
      "name": "OwnershipTransferred",
      "type": "event"
    },
    {
      "anonymous": false,
      "inputs": [
        {
          "indexed": true,
          "internalType": "address",
          "name": "token",
          "type": "address"
        }
      ],
      "name": "RevokeSupportedCollateral",
      "type": "event"
    },
    {
      "anonymous": false,
      "inputs": [
        {
          "indexed": true,
          "internalType": "address",
          "name": "implementation",
          "type": "address"
        }
      ],
      "name": "Upgraded",
      "type": "event"
    },
    {
      "inputs": [],
      "name": "NATIVE_TOKEN",
      "outputs": [
        {
          "internalType": "address",
          "name": "",
          "type": "address"
        }
      ],
      "stateMutability": "view",
      "type": "function"
    },
    {
      "inputs": [],
      "name": "NATIVE_TOKEN_DECIMAL",
      "outputs": [
        {
          "internalType": "uint256",
          "name": "",
          "type": "uint256"
        }
      ],
      "stateMutability": "view",
      "type": "function"
    },
    {
      "inputs": [],
      "name": "acceptOwnership",
      "outputs": [],
      "stateMutability": "nonpayable",
      "type": "function"
    },
    {
      "inputs": [
        {
          "internalType": "address",
          "name": "_token",
          "type": "address"
        },
        {
          "internalType": "uint256",
          "name": "_minLockedAmount",
          "type": "uint256"
        }
      ],
      "name": "addCollateral",
      "outputs": [],
      "stateMutability": "nonpayable",
      "type": "function"
    },
    {
      "inputs": [
        {
          "internalType": "uint256",
          "name": "",
          "type": "uint256"
        }
      ],
      "name": "availableCollaterals",
      "outputs": [
        {
          "internalType": "address",
          "name": "token",
          "type": "address"
        },
        {
          "internalType": "uint256",
          "name": "minLockedAmount",
          "type": "uint256"
        }
      ],
      "stateMutability": "view",
      "type": "function"
    },
    {
      "inputs": [
        {
          "internalType": "address",
          "name": "_token",
          "type": "address"
        },
        {
          "internalType": "uint256",
          "name": "_lockedAmount",
          "type": "uint256"
        }
      ],
      "name": "checkLockedAmount",
      "outputs": [],
      "stateMutability": "view",
      "type": "function"
    },
    {
      "inputs": [
        {
          "internalType": "address",
          "name": "",
          "type": "address"
        }
      ],
      "name": "collateralsMap",
      "outputs": [
        {
          "internalType": "uint256",
          "name": "",
          "type": "uint256"
        }
      ],
      "stateMutability": "view",
      "type": "function"
    },
    {
      "inputs": [
        {
          "internalType": "uint256",
          "name": "index",
          "type": "uint256"
        }
      ],
      "name": "getCollateral",
      "outputs": [
        {
          "components": [
            {
              "internalType": "address",
              "name": "token",
              "type": "address"
            },
            {
              "internalType": "uint256",
              "name": "minLockedAmount",
              "type": "uint256"
            }
          ],
          "internalType": "struct ICollaterals.collateral",
          "name": "",
          "type": "tuple"
        }
      ],
      "stateMutability": "view",
      "type": "function"
    },
    {
      "inputs": [
        {
          "internalType": "address",
          "name": "_token",
          "type": "address"
        }
      ],
      "name": "getDecimals",
      "outputs": [
        {
          "internalType": "uint256",
          "name": "",
          "type": "uint256"
        }
      ],
      "stateMutability": "view",
      "type": "function"
    },
    {
      "inputs": [
        {
          "internalType": "address",
          "name": "_token",
          "type": "address"
        }
      ],
      "name": "getMinLockedAmount",
      "outputs": [
        {
          "internalType": "uint256",
          "name": "",
          "type": "uint256"
        }
      ],
      "stateMutability": "view",
      "type": "function"
    },
    {
      "inputs": [],
      "name": "getTotalNumber",
      "outputs": [
        {
          "internalType": "uint256",
          "name": "",
          "type": "uint256"
        }
      ],
      "stateMutability": "view",
      "type": "function"
    },
    {
      "inputs": [
        {
          "internalType": "address",
          "name": "_lockers",
          "type": "address"
        },
        {
          "internalType": "uint256",
          "name": "_minRequiredCORELockedAmount",
          "type": "uint256"
        }
      ],
      "name": "initialize",
      "outputs": [],
      "stateMutability": "nonpayable",
      "type": "function"
    },
    {
      "inputs": [],
      "name": "lockers",
      "outputs": [
        {
          "internalType": "address",
          "name": "",
          "type": "address"
        }
      ],
      "stateMutability": "view",
      "type": "function"
    },
    {
      "inputs": [],
      "name": "owner",
      "outputs": [
        {
          "internalType": "address",
          "name": "",
          "type": "address"
        }
      ],
      "stateMutability": "view",
      "type": "function"
    },
    {
      "inputs": [],
      "name": "pendingOwner",
      "outputs": [
        {
          "internalType": "address",
          "name": "",
          "type": "address"
        }
      ],
      "stateMutability": "view",
      "type": "function"
    },
    {
      "inputs": [],
      "name": "proxiableUUID",
      "outputs": [
        {
          "internalType": "bytes32",
          "name": "",
          "type": "bytes32"
        }
      ],
      "stateMutability": "view",
      "type": "function"
    },
    {
      "inputs": [
        {
          "internalType": "address",
          "name": "_token",
          "type": "address"
        }
      ],
      "name": "removeCollateral",
      "outputs": [],
      "stateMutability": "nonpayable",
      "type": "function"
    },
    {
      "inputs": [],
      "name": "renounceOwnership",
      "outputs": [],
      "stateMutability": "nonpayable",
      "type": "function"
    },
    {
      "inputs": [
        {
          "internalType": "address",
          "name": "_lockers",
          "type": "address"
        }
      ],
      "name": "setLockers",
      "outputs": [],
      "stateMutability": "nonpayable",
      "type": "function"
    },
    {
      "inputs": [
        {
          "internalType": "address",
          "name": "_token",
          "type": "address"
        },
        {
          "internalType": "uint256",
          "name": "_minLockedAmount",
          "type": "uint256"
        }
      ],
      "name": "setMinLockedAmount",
      "outputs": [],
      "stateMutability": "nonpayable",
      "type": "function"
    },
    {
      "inputs": [
        {
          "internalType": "address",
          "name": "newOwner",
          "type": "address"
        }
      ],
      "name": "transferOwnership",
      "outputs": [],
      "stateMutability": "nonpayable",
      "type": "function"
    },
    {
      "inputs": [
        {
          "internalType": "address",
          "name": "newImplementation",
          "type": "address"
        }
      ],
      "name": "upgradeTo",
      "outputs": [],
      "stateMutability": "nonpayable",
      "type": "function"
    },
    {
      "inputs": [
        {
          "internalType": "address",
          "name": "newImplementation",
          "type": "address"
        },
        {
          "internalType": "bytes",
          "name": "data",
          "type": "bytes"
        }
      ],
      "name": "upgradeToAndCall",
      "outputs": [],
      "stateMutability": "payable",
      "type": "function"
    }
  ],
  "transactionHash": "0xf3baed1617b886a14a8fa4f39ba0de7da82c3dadfd5706d1f5f379dc67691292",
  "args": [],
  "numDeployments": 1,
  "solcInputHash": "9dc1128c76b0366bc5c1ce4ad13fe14d",
  "bytecode": "0x60a06040523060601b60805234801561001757600080fd5b50610020610025565b6100e5565b600054610100900460ff16156100915760405162461bcd60e51b815260206004820152602760248201527f496e697469616c697a61626c653a20636f6e747261637420697320696e697469604482015266616c697a696e6760c81b606482015260840160405180910390fd5b60005460ff90811610156100e3576000805460ff191660ff9081179091556040519081527f7f26b83ff96e1f2b6a682f133852f6798a09c465da95921460cefb38474024989060200160405180910390a15b565b60805160601c611b1561011f6000396000818161051e0152818161055e015281816105fe0152818161063e01526106d10152611b156000f3fe6080604052600436106101405760003560e01c806374ad74e9116100b6578063c99d3a061161006f578063c99d3a061461039c578063cd6dc687146103bc578063cf54aaa0146103dc578063d026b7f7146103fc578063e30c397814610411578063f2fde38b1461042f57600080fd5b806374ad74e9146102ca57806379ba5097146102ea57806381920e26146102ff5780638da5cb5b1461033e578063b12ac2b31461035c578063b14d35321461037c57600080fd5b80634f1ef286116101085780634f1ef286146102205780635281be801461023357806352d1902d146102605780636d75b9ee14610275578063715018a614610295578063749f7384146102aa57600080fd5b80630c42cbc9146101455780631876dec41461016d5780632a62a490146101a557806331f7d964146101e95780633659cfe6146101fe575b600080fd5b34801561015157600080fd5b5061015a601281565b6040519081526020015b60405180910390f35b34801561017957600080fd5b5060fb5461018d906001600160a01b031681565b6040516001600160a01b039091168152602001610164565b3480156101b157600080fd5b506101c56101c036600461186f565b61044f565b6040805182516001600160a01b031681526020928301519281019290925201610164565b3480156101f557600080fd5b5061018d600181565b34801561020a57600080fd5b5061021e610219366004611737565b610513565b005b61021e61022e366004611751565b6105f3565b34801561023f57600080fd5b5061015a61024e366004611737565b60fc6020526000908152604090205481565b34801561026c57600080fd5b5061015a6106c4565b34801561028157600080fd5b5061021e61029036600461180e565b610777565b3480156102a157600080fd5b5061021e610789565b3480156102b657600080fd5b5061021e6102c536600461180e565b610793565b3480156102d657600080fd5b5061015a6102e5366004611737565b6107a5565b3480156102f657600080fd5b5061021e610812565b34801561030b57600080fd5b5061031f61031a36600461186f565b610889565b604080516001600160a01b039093168352602083019190915201610164565b34801561034a57600080fd5b506033546001600160a01b031661018d565b34801561036857600080fd5b5061021e61037736600461180e565b6108c1565b34801561038857600080fd5b5061021e610397366004611737565b61090d565b3480156103a857600080fd5b5061021e6103b7366004611737565b61091e565b3480156103c857600080fd5b5061021e6103d736600461180e565b61092f565b3480156103e857600080fd5b5061015a6103f7366004611737565b610a5d565b34801561040857600080fd5b5060fd5461015a565b34801561041d57600080fd5b506065546001600160a01b031661018d565b34801561043b57600080fd5b5061021e61044a366004611737565b610afc565b604080518082019091526000808252602082015260fd5482106104b95760405162461bcd60e51b815260206004820152601b60248201527f4c6f636b6572733a20696e646578206f7574206f6620626f756e64000000000060448201526064015b60405180910390fd5b60fd82815481106104da57634e487b7160e01b600052603260045260246000fd5b60009182526020918290206040805180820190915260029092020180546001600160a01b03168252600101549181019190915292915050565b306001600160a01b037f000000000000000000000000000000000000000000000000000000000000000016141561055c5760405162461bcd60e51b81526004016104b0906118f7565b7f00000000000000000000000000000000000000000000000000000000000000006001600160a01b03166105a5600080516020611a99833981519152546001600160a01b031690565b6001600160a01b0316146105cb5760405162461bcd60e51b81526004016104b090611943565b6105d481610b6d565b604080516000808252602082019092526105f091839190610b75565b50565b306001600160a01b037f000000000000000000000000000000000000000000000000000000000000000016141561063c5760405162461bcd60e51b81526004016104b0906118f7565b7f00000000000000000000000000000000000000000000000000000000000000006001600160a01b0316610685600080516020611a99833981519152546001600160a01b031690565b6001600160a01b0316146106ab5760405162461bcd60e51b81526004016104b090611943565b6106b482610b6d565b6106c082826001610b75565b5050565b6000306001600160a01b037f000000000000000000000000000000000000000000000000000000000000000016146107645760405162461bcd60e51b815260206004820152603860248201527f555550535570677261646561626c653a206d757374206e6f742062652063616c60448201527f6c6564207468726f7567682064656c656761746563616c6c000000000000000060648201526084016104b0565b50600080516020611a9983398151915290565b61077f610cef565b6106c08282610d49565b610791610cef565b565b61079b610cef565b6106c08282610e7d565b60006107b082610f87565b6001600160a01b038216600090815260fc60205260408120546107d590600190611a29565b905060fd81815481106107f857634e487b7160e01b600052603260045260246000fd5b906000526020600020906002020160010154915050919050565b60655433906001600160a01b031681146108805760405162461bcd60e51b815260206004820152602960248201527f4f776e61626c6532537465703a2063616c6c6572206973206e6f7420746865206044820152683732bb9037bbb732b960b91b60648201526084016104b0565b6105f081611013565b60fd818154811061089957600080fd5b6000918252602090912060029091020180546001909101546001600160a01b03909116915082565b60006108cc836107a5565b905080821015610908576040516313d34d3960e21b81526001600160a01b038416600482015260248101839052604481018290526064016104b0565b505050565b610915610cef565b6105f08161102c565b610926610cef565b6105f0816110bd565b600054610100900460ff161580801561094f5750600054600160ff909116105b806109695750303b158015610969575060005460ff166001145b6109cc5760405162461bcd60e51b815260206004820152602e60248201527f496e697469616c697a61626c653a20636f6e747261637420697320616c72656160448201526d191e481a5b9a5d1a585b1a5e995960921b60648201526084016104b0565b6000805460ff1916600117905580156109ef576000805461ff0019166101001790555b6109f7611371565b6109ff6113a0565b610a088361102c565b610a13600183610d49565b8015610908576000805461ff0019169055604051600181527f7f26b83ff96e1f2b6a682f133852f6798a09c465da95921460cefb38474024989060200160405180910390a1505050565b6000610a6882610f87565b6001600160a01b03821660011415610a8257506012919050565b816001600160a01b031663313ce5676040518163ffffffff1660e01b815260040160206040518083038186803b158015610abb57600080fd5b505afa158015610acf573d6000803e3d6000fd5b505050506040513d601f19601f82011682018060405250810190610af39190611887565b60ff1692915050565b610b04610cef565b606580546001600160a01b0383166001600160a01b03199091168117909155610b356033546001600160a01b031690565b6001600160a01b03167f38d16b8cac22d99fc7c124b9cd0de2d3fa1faef420bfe791d8c362d765e2270060405160405180910390a350565b6105f0610cef565b7f4910fdfa16fed3260ed0e7147f7cc6da11a60208b5b9406d12a635614ffd91435460ff1615610ba857610908836113c7565b826001600160a01b03166352d1902d6040518163ffffffff1660e01b815260040160206040518083038186803b158015610be157600080fd5b505afa925050508015610c11575060408051601f3d908101601f19168201909252610c0e91810190611857565b60015b610c745760405162461bcd60e51b815260206004820152602e60248201527f45524331393637557067726164653a206e657720696d706c656d656e7461746960448201526d6f6e206973206e6f74205555505360901b60648201526084016104b0565b600080516020611a998339815191528114610ce35760405162461bcd60e51b815260206004820152602960248201527f45524331393637557067726164653a20756e737570706f727465642070726f786044820152681a58589b195555525160ba1b60648201526084016104b0565b50610908838383611463565b6033546001600160a01b031633146107915760405162461bcd60e51b815260206004820181905260248201527f4f776e61626c653a2063616c6c6572206973206e6f7420746865206f776e657260448201526064016104b0565b8060008111610d945760405162461bcd60e51b81526020600482015260176024820152764c6f636b6572733a20616d6f756e74206973207a65726f60481b60448201526064016104b0565b610d9d8361148e565b6040805180820182526001600160a01b03858116808352602080840187815260fd8054600181018255600082815287517f9346ac6dd7de6b96975fec380d4d994c4c12e6a8897544f22915316cc6cca280600290930292830180546001600160a01b031916919098161790965591517f9346ac6dd7de6b96975fec380d4d994c4c12e6a8897544f22915316cc6cca281909201919091555482845260fc8252928590209290925592518581529192917fba742f0ccddf5e5eadb17dbfe99c3bb20128a3d8fad7cc63585a67d3f54b8e9c910160405180910390a250505050565b8060008111610ec85760405162461bcd60e51b81526020600482015260176024820152764c6f636b6572733a20616d6f756e74206973207a65726f60481b60448201526064016104b0565b610ed183610f87565b6001600160a01b038316600090815260fc6020526040812054610ef690600190611a29565b9050600060fd8281548110610f1b57634e487b7160e01b600052603260045260246000fd5b90600052602060002090600202019050846001600160a01b03167f8337603eddcc8343aa53ebec8a8734280d85a679c60309e92f1695740e9d30ea826001015486604051610f73929190918252602082015260400190565b60405180910390a260010192909255505050565b806001600160a01b038116610fae5760405162461bcd60e51b81526004016104b09061198f565b6001600160a01b038216600090815260fc60205260409020546106c05760405162461bcd60e51b815260206004820152601f60248201527f4c6f636b6572733a20756e737570706f7274656420636f6c6c61746572616c0060448201526064016104b0565b606580546001600160a01b03191690556105f08161151b565b806001600160a01b0381166110535760405162461bcd60e51b81526004016104b09061198f565b60fb54604080516001600160a01b03928316815291841660208301527ffa021c2ec0f46429a53e7f88b88065e40001f50c9d38b2e8b713beaf9828d4c3910160405180910390a15060fb80546001600160a01b0319166001600160a01b0392909216919091179055565b806001600160a01b0381166110e45760405162461bcd60e51b81526004016104b09061198f565b6110ed82610f87565b60fb54604051632b5fbca360e11b81526001600160a01b038481166004830152909116906356bf79469060240160206040518083038186803b15801561113257600080fd5b505afa158015611146573d6000803e3d6000fd5b505050506040513d601f19601f8201168201806040525081019061116a9190611837565b6111b65760405162461bcd60e51b815260206004820152601a60248201527f4c6f636b6572733a20636f6c6c61746572616c20696e2075736500000000000060448201526064016104b0565b6001600160a01b038216600090815260fc60205260408120546111db90600190611a29565b60fd549091506000906111f090600190611a29565b9050808210156112de5760fd818154811061121b57634e487b7160e01b600052603260045260246000fd5b906000526020600020906002020160fd838154811061124a57634e487b7160e01b600052603260045260246000fd5b60009182526020909120825460029092020180546001600160a01b0319166001600160a01b039092169190911781556001918201549082015561128e908390611a11565b60fc600060fd85815481106112b357634e487b7160e01b600052603260045260246000fd5b600091825260208083206002909202909101546001600160a01b031683528201929092526040019020555b60fd8054806112fd57634e487b7160e01b600052603160045260246000fd5b6000828152602080822060026000199094019384020180546001600160a01b0319168155600101829055919092556001600160a01b03861680835260fc90915260408083208390555190917f13772eee1b4128d6f496eac2952b691b350cf586f3b43d0cf10be79912b2845a91a250505050565b600054610100900460ff166113985760405162461bcd60e51b81526004016104b0906119c6565b61079161156d565b600054610100900460ff166107915760405162461bcd60e51b81526004016104b0906119c6565b6001600160a01b0381163b6114345760405162461bcd60e51b815260206004820152602d60248201527f455243313936373a206e657720696d706c656d656e746174696f6e206973206e60448201526c1bdd08184818dbdb9d1c9858dd609a1b60648201526084016104b0565b600080516020611a9983398151915280546001600160a01b0319166001600160a01b0392909216919091179055565b61146c8361159d565b6000825111806114795750805b156109085761148883836115dd565b50505050565b806001600160a01b0381166114b55760405162461bcd60e51b81526004016104b09061198f565b6001600160a01b038216600090815260fc6020526040902054156106c05760405162461bcd60e51b815260206004820152601d60248201527f4c6f636b6572733a20737570706f7274656420636f6c6c61746572616c00000060448201526064016104b0565b603380546001600160a01b038381166001600160a01b0319831681179093556040519116919082907f8be0079c531659141344cd1fd0a4f28419497f9722a3daafe3b4186f6b6457e090600090a35050565b600054610100900460ff166115945760405162461bcd60e51b81526004016104b0906119c6565b61079133611013565b6115a6816113c7565b6040516001600160a01b038216907fbc7cd75a20ee27fd9adebab32041f755214dbc6bffa90cc0225b39da2e5c2d3b90600090a250565b60606001600160a01b0383163b6116455760405162461bcd60e51b815260206004820152602660248201527f416464726573733a2064656c65676174652063616c6c20746f206e6f6e2d636f6044820152651b9d1c9858dd60d21b60648201526084016104b0565b600080846001600160a01b03168460405161166091906118a8565b600060405180830381855af49150503d806000811461169b576040519150601f19603f3d011682016040523d82523d6000602084013e6116a0565b606091505b50915091506116c88282604051806060016040528060278152602001611ab9602791396116d1565b95945050505050565b606083156116e05750816116ea565b6116ea83836116f1565b9392505050565b8151156117015781518083602001fd5b8060405162461bcd60e51b81526004016104b091906118c4565b80356001600160a01b038116811461173257600080fd5b919050565b600060208284031215611748578081fd5b6116ea8261171b565b60008060408385031215611763578081fd5b61176c8361171b565b9150602083013567ffffffffffffffff80821115611788578283fd5b818501915085601f83011261179b578283fd5b8135818111156117ad576117ad611a82565b604051601f8201601f19908116603f011681019083821181831017156117d5576117d5611a82565b816040528281528860208487010111156117ed578586fd5b82602086016020830137856020848301015280955050505050509250929050565b60008060408385031215611820578182fd5b6118298361171b565b946020939093013593505050565b600060208284031215611848578081fd5b815180151581146116ea578182fd5b600060208284031215611868578081fd5b5051919050565b600060208284031215611880578081fd5b5035919050565b600060208284031215611898578081fd5b815160ff811681146116ea578182fd5b600082516118ba818460208701611a40565b9190910192915050565b60208152600082518060208401526118e3816040850160208701611a40565b601f01601f19169190910160400192915050565b6020808252602c908201527f46756e6374696f6e206d7573742062652063616c6c6564207468726f7567682060408201526b19195b1959d85d1958d85b1b60a21b606082015260800190565b6020808252602c908201527f46756e6374696f6e206d7573742062652063616c6c6564207468726f7567682060408201526b6163746976652070726f787960a01b606082015260800190565b60208082526018908201527f4c6f636b6572733a2061646472657373206973207a65726f0000000000000000604082015260600190565b6020808252602b908201527f496e697469616c697a61626c653a20636f6e7472616374206973206e6f74206960408201526a6e697469616c697a696e6760a81b606082015260800190565b60008219821115611a2457611a24611a6c565b500190565b600082821015611a3b57611a3b611a6c565b500390565b60005b83811015611a5b578181015183820152602001611a43565b838111156114885750506000910152565b634e487b7160e01b600052601160045260246000fd5b634e487b7160e01b600052604160045260246000fdfe360894a13ba1a3210667c828492db98dca3e2076cc3735a920a3ca505d382bbc416464726573733a206c6f772d6c6576656c2064656c65676174652063616c6c206661696c6564a2646970667358221220c1f5bd4d9e8aaba0e587ba1b3edb1da9d6489e2324dbf6d80a29b3ae31e77da564736f6c63430008040033",
  "libraries": {},
  "devdoc": {
    "kind": "dev",
    "methods": {
      "acceptOwnership()": {
        "details": "The new owner accepts the ownership transfer."
      },
      "addCollateral(address,uint256)": {
        "params": {
          "_minLockedAmount": "The minimum required locked amount of collateral",
          "_token": "The address of collateral"
        }
      },
      "checkLockedAmount(address,uint256)": {
        "params": {
          "_lockedAmount": "The amount of collateral intended for locking",
          "_token": "The address of collateral"
        }
      },
      "getCollateral(uint256)": {
        "details": "Gets collateral information stored in the list"
      },
      "getDecimals(address)": {
        "details": "The decimals of native token is 18                             The decimals of ERC-20 token needs to be obtained by calling the decimals method",
        "params": {
          "_token": "The address of collateral"
        },
        "returns": {
          "_0": "The decimals of collateral"
        }
      },
      "getMinLockedAmount(address)": {
        "params": {
          "_token": "The address of collateral"
        },
        "returns": {
          "_0": "The minimum required locked amount of the token"
        }
      },
      "getTotalNumber()": {
        "details": "Gets the total number of supported collateral types"
      },
      "initialize(address,uint256)": {
        "params": {
          "_lockers": "Address of lockers contract",
          "_minRequiredCORELockedAmount": "Minimum required locked amount of native token"
        }
      },
      "owner()": {
        "details": "Returns the address of the current owner."
      },
      "pendingOwner()": {
        "details": "Returns the address of the pending owner."
      },
      "proxiableUUID()": {
        "details": "Implementation of the ERC1822 {proxiableUUID} function. This returns the storage slot used by the implementation. It is used to validate the implementation's compatibility when performing an upgrade. IMPORTANT: A proxy pointing at a proxiable contract should not be considered proxiable itself, because this risks bricking a proxy that upgrades to it, by delegating to itself until out of gas. Thus it is critical that this function revert if invoked through a proxy. This is guaranteed by the `notDelegated` modifier."
      },
      "removeCollateral(address)": {
        "details": "Only Lockers contract can call this",
        "params": {
          "_token": "The address of collateral"
        }
      },
      "renounceOwnership()": {
        "details": "Leaves the contract without owner. It will not be possible to call `onlyOwner` functions anymore. Can only be called by the current owner. NOTE: Renouncing ownership will leave the contract without an owner, thereby removing any functionality that is only available to the owner."
      },
      "setLockers(address)": {
        "params": {
          "_lockers": "The address of lockers contract"
        }
      },
      "setMinLockedAmount(address,uint256)": {
        "params": {
          "_minLockedAmount": "The minimum required locked amount of collateral",
          "_token": "The address of collateral"
        }
      },
      "transferOwnership(address)": {
        "details": "Starts the ownership transfer of the contract to a new account. Replaces the pending transfer if there is one. Can only be called by the current owner."
      },
      "upgradeTo(address)": {
        "details": "Upgrade the implementation of the proxy to `newImplementation`. Calls {_authorizeUpgrade}. Emits an {Upgraded} event."
      },
      "upgradeToAndCall(address,bytes)": {
        "details": "Upgrade the implementation of the proxy to `newImplementation`, and subsequently execute the function call encoded in `data`. Calls {_authorizeUpgrade}. Emits an {Upgraded} event."
      }
    },
    "version": 1
  },
  "userdoc": {
    "kind": "user",
    "methods": {
      "addCollateral(address,uint256)": {
        "notice": "Adds a collateral to available list"
      },
      "checkLockedAmount(address,uint256)": {
        "notice": "Checks if the locked amount is valid"
      },
      "getDecimals(address)": {
        "notice": "Gets the decimals of collateral"
      },
      "getMinLockedAmount(address)": {
        "notice": "Gets the minimum required locked amount of the collateral"
      },
      "initialize(address,uint256)": {
        "notice": "Gives default params to initiate collaterals"
      },
      "removeCollateral(address)": {
        "notice": "Removes a collateral from available list"
      },
      "setLockers(address)": {
        "notice": "Sets address of lockers contract"
      },
      "setMinLockedAmount(address,uint256)": {
        "notice": "Sets minimum required locked amount of collateral"
      }
    },
    "version": 1
  },
  "storageLayout": {
    "storage": [
      {
        "astId": 633,
        "contract": "contracts/lockers/CollateralsLogic.sol:CollateralsLogic",
        "label": "_initialized",
        "offset": 0,
        "slot": "0",
        "type": "t_uint8"
      },
      {
        "astId": 636,
        "contract": "contracts/lockers/CollateralsLogic.sol:CollateralsLogic",
        "label": "_initializing",
        "offset": 1,
        "slot": "0",
        "type": "t_bool"
      },
      {
        "astId": 1534,
        "contract": "contracts/lockers/CollateralsLogic.sol:CollateralsLogic",
        "label": "__gap",
        "offset": 0,
        "slot": "1",
        "type": "t_array(t_uint256)50_storage"
      },
      {
        "astId": 116,
        "contract": "contracts/lockers/CollateralsLogic.sol:CollateralsLogic",
        "label": "_owner",
        "offset": 0,
        "slot": "51",
        "type": "t_address"
      },
      {
        "astId": 236,
        "contract": "contracts/lockers/CollateralsLogic.sol:CollateralsLogic",
        "label": "__gap",
        "offset": 0,
        "slot": "52",
        "type": "t_array(t_uint256)49_storage"
      },
      {
        "astId": 25,
        "contract": "contracts/lockers/CollateralsLogic.sol:CollateralsLogic",
        "label": "_pendingOwner",
        "offset": 0,
        "slot": "101",
        "type": "t_address"
      },
      {
        "astId": 104,
        "contract": "contracts/lockers/CollateralsLogic.sol:CollateralsLogic",
        "label": "__gap",
        "offset": 0,
        "slot": "102",
        "type": "t_array(t_uint256)49_storage"
      },
      {
        "astId": 615,
        "contract": "contracts/lockers/CollateralsLogic.sol:CollateralsLogic",
        "label": "__gap",
        "offset": 0,
        "slot": "151",
        "type": "t_array(t_uint256)50_storage"
      },
      {
        "astId": 930,
        "contract": "contracts/lockers/CollateralsLogic.sol:CollateralsLogic",
        "label": "__gap",
        "offset": 0,
        "slot": "201",
        "type": "t_array(t_uint256)50_storage"
      },
      {
        "astId": 12320,
        "contract": "contracts/lockers/CollateralsLogic.sol:CollateralsLogic",
        "label": "lockers",
        "offset": 0,
        "slot": "251",
        "type": "t_address"
      },
      {
        "astId": 12324,
        "contract": "contracts/lockers/CollateralsLogic.sol:CollateralsLogic",
        "label": "collateralsMap",
        "offset": 0,
        "slot": "252",
        "type": "t_mapping(t_address,t_uint256)"
      },
      {
        "astId": 12328,
        "contract": "contracts/lockers/CollateralsLogic.sol:CollateralsLogic",
        "label": "availableCollaterals",
        "offset": 0,
        "slot": "253",
        "type": "t_array(t_struct(collateral)15004_storage)dyn_storage"
      }
    ],
    "types": {
      "t_address": {
        "encoding": "inplace",
        "label": "address",
        "numberOfBytes": "20"
      },
      "t_array(t_struct(collateral)15004_storage)dyn_storage": {
        "base": "t_struct(collateral)15004_storage",
        "encoding": "dynamic_array",
        "label": "struct ICollaterals.collateral[]",
        "numberOfBytes": "32"
      },
      "t_array(t_uint256)49_storage": {
        "base": "t_uint256",
        "encoding": "inplace",
        "label": "uint256[49]",
        "numberOfBytes": "1568"
      },
      "t_array(t_uint256)50_storage": {
        "base": "t_uint256",
        "encoding": "inplace",
        "label": "uint256[50]",
        "numberOfBytes": "1600"
      },
      "t_bool": {
        "encoding": "inplace",
        "label": "bool",
        "numberOfBytes": "1"
      },
      "t_mapping(t_address,t_uint256)": {
        "encoding": "mapping",
        "key": "t_address",
        "label": "mapping(address => uint256)",
        "numberOfBytes": "32",
        "value": "t_uint256"
      },
      "t_struct(collateral)15004_storage": {
        "encoding": "inplace",
        "label": "struct ICollaterals.collateral",
        "members": [
          {
            "astId": 15001,
            "contract": "contracts/lockers/CollateralsLogic.sol:CollateralsLogic",
            "label": "token",
            "offset": 0,
            "slot": "0",
            "type": "t_address"
          },
          {
            "astId": 15003,
            "contract": "contracts/lockers/CollateralsLogic.sol:CollateralsLogic",
            "label": "minLockedAmount",
            "offset": 0,
            "slot": "1",
            "type": "t_uint256"
          }
        ],
        "numberOfBytes": "64"
      },
      "t_uint256": {
        "encoding": "inplace",
        "label": "uint256",
        "numberOfBytes": "32"
      },
      "t_uint8": {
        "encoding": "inplace",
        "label": "uint8",
        "numberOfBytes": "1"
      }
    }
  }
}