{
  "address": "0x8Ac5a1cAa425F5B7b132049fd42834F31917eb54",
  "abi": [
    {
      "inputs": [],
      "stateMutability": "nonpayable",
      "type": "constructor"
    },
    {
      "anonymous": false,
      "inputs": [
        {
          "indexed": true,
          "internalType": "address",
          "name": "lockerTargetAddress",
          "type": "address"
        },
        {
          "indexed": false,
          "internalType": "bytes",
          "name": "lockerLockingScript",
          "type": "bytes"
        },
        {
          "indexed": false,
          "internalType": "uint256",
          "name": "lockedAmount",
          "type": "uint256"
        },
        {
          "indexed": false,
          "internalType": "uint256",
          "name": "netMinted",
          "type": "uint256"
        },
        {
          "indexed": false,
          "internalType": "address",
          "name": "lockedToken",
          "type": "address"
        }
      ],
      "name": "ActivateLocker",
      "type": "event"
    },
    {
      "anonymous": false,
      "inputs": [
        {
          "indexed": false,
          "internalType": "address",
          "name": "previousAdmin",
          "type": "address"
        },
        {
          "indexed": false,
          "internalType": "address",
          "name": "newAdmin",
          "type": "address"
        }
      ],
      "name": "AdminChanged",
      "type": "event"
    },
    {
      "anonymous": false,
      "inputs": [
        {
          "indexed": true,
          "internalType": "address",
          "name": "beacon",
          "type": "address"
        }
      ],
      "name": "BeaconUpgraded",
      "type": "event"
    },
    {
      "anonymous": false,
      "inputs": [
        {
          "indexed": true,
          "internalType": "address",
          "name": "lockerTargetAddress",
          "type": "address"
        },
        {
          "indexed": false,
          "internalType": "uint256",
          "name": "burntAmount",
          "type": "uint256"
        },
        {
          "indexed": false,
          "internalType": "uint256",
          "name": "lockerFee",
          "type": "uint256"
        },
        {
          "indexed": false,
          "internalType": "uint256",
          "name": "burningTime",
          "type": "uint256"
        }
      ],
      "name": "BurnByLocker",
      "type": "event"
    },
    {
      "anonymous": false,
      "inputs": [
        {
          "indexed": true,
          "internalType": "address",
          "name": "account",
          "type": "address"
        }
      ],
      "name": "BurnerAdded",
      "type": "event"
    },
    {
      "anonymous": false,
      "inputs": [
        {
          "indexed": true,
          "internalType": "address",
          "name": "account",
          "type": "address"
        }
      ],
      "name": "BurnerRemoved",
      "type": "event"
    },
    {
      "anonymous": false,
      "inputs": [
        {
          "indexed": true,
          "internalType": "address",
          "name": "lockerTargetAddress",
          "type": "address"
        },
        {
          "indexed": false,
          "internalType": "uint256",
          "name": "addedCollateral",
          "type": "uint256"
        },
        {
          "indexed": false,
          "internalType": "uint256",
          "name": "totalCollateral",
          "type": "uint256"
        },
        {
          "indexed": false,
          "internalType": "uint256",
          "name": "addingTime",
          "type": "uint256"
        },
        {
          "indexed": false,
          "internalType": "address",
          "name": "collateralToken",
          "type": "address"
        }
      ],
      "name": "CollateralAdded",
      "type": "event"
    },
    {
      "anonymous": false,
      "inputs": [
        {
          "indexed": true,
          "internalType": "address",
          "name": "lockerTargetAddress",
          "type": "address"
        },
        {
          "indexed": false,
          "internalType": "uint256",
          "name": "removedCollateral",
          "type": "uint256"
        },
        {
          "indexed": false,
          "internalType": "uint256",
          "name": "totalCollateral",
          "type": "uint256"
        },
        {
          "indexed": false,
          "internalType": "uint256",
          "name": "removingTime",
          "type": "uint256"
        },
        {
          "indexed": false,
          "internalType": "address",
          "name": "collateralToken",
          "type": "address"
        }
      ],
      "name": "CollateralRemoved",
      "type": "event"
    },
    {
      "anonymous": false,
      "inputs": [
        {
          "indexed": false,
          "internalType": "uint8",
          "name": "version",
          "type": "uint8"
        }
      ],
      "name": "Initialized",
      "type": "event"
    },
    {
      "anonymous": false,
      "inputs": [
        {
          "indexed": true,
          "internalType": "address",
          "name": "lockerTargetAddress",
          "type": "address"
        },
        {
          "indexed": false,
          "internalType": "bytes",
          "name": "lockerLockingScript",
          "type": "bytes"
        },
        {
          "indexed": false,
          "internalType": "uint256",
          "name": "lockedAmount",
          "type": "uint256"
        },
        {
          "indexed": false,
          "internalType": "uint256",
          "name": "addingTime",
          "type": "uint256"
        },
        {
          "indexed": false,
          "internalType": "address",
          "name": "lockedToken",
          "type": "address"
        }
      ],
      "name": "LockerAdded",
      "type": "event"
    },
    {
      "anonymous": false,
      "inputs": [
        {
          "indexed": true,
          "internalType": "address",
          "name": "lockerTargetAddress",
          "type": "address"
        },
        {
          "indexed": true,
          "internalType": "address",
          "name": "liquidatorAddress",
          "type": "address"
        },
        {
          "indexed": false,
          "internalType": "uint256",
          "name": "collateralAmount",
          "type": "uint256"
        },
        {
          "indexed": false,
          "internalType": "uint256",
          "name": "coreBTCAmount",
          "type": "uint256"
        },
        {
          "indexed": false,
          "internalType": "uint256",
          "name": "liquidateTime",
          "type": "uint256"
        },
        {
          "indexed": false,
          "internalType": "address",
          "name": "collateralToken",
          "type": "address"
        }
      ],
      "name": "LockerLiquidated",
      "type": "event"
    },
    {
      "anonymous": false,
      "inputs": [
        {
          "indexed": true,
          "internalType": "address",
          "name": "lockerTargetAddress",
          "type": "address"
        },
        {
          "indexed": false,
          "internalType": "bytes",
          "name": "lockerLockingScript",
          "type": "bytes"
        },
        {
          "indexed": false,
          "internalType": "uint256",
          "name": "unlockedAmount",
          "type": "uint256"
        },
        {
          "indexed": false,
          "internalType": "address",
          "name": "unlockedToken",
          "type": "address"
        }
      ],
      "name": "LockerRemoved",
      "type": "event"
    },
    {
      "anonymous": false,
      "inputs": [
        {
          "indexed": true,
          "internalType": "address",
          "name": "lockerTargetAddress",
          "type": "address"
        },
        {
          "indexed": false,
          "internalType": "uint256",
          "name": "rewardAmount",
          "type": "uint256"
        },
        {
          "indexed": true,
          "internalType": "address",
          "name": "rewardRecipient",
          "type": "address"
        },
        {
          "indexed": false,
          "internalType": "uint256",
          "name": "amount",
          "type": "uint256"
        },
        {
          "indexed": true,
          "internalType": "address",
          "name": "recipient",
          "type": "address"
        },
        {
          "indexed": false,
          "internalType": "uint256",
          "name": "slashedCollateralAmount",
          "type": "uint256"
        },
        {
          "indexed": false,
          "internalType": "uint256",
          "name": "slashTime",
          "type": "uint256"
        },
        {
          "indexed": false,
          "internalType": "bool",
          "name": "isForCCBurn",
          "type": "bool"
        },
        {
          "indexed": false,
          "internalType": "address",
          "name": "slashedCollateralToken",
          "type": "address"
        }
      ],
      "name": "LockerSlashed",
      "type": "event"
    },
    {
      "anonymous": false,
      "inputs": [
        {
          "indexed": true,
          "internalType": "address",
          "name": "lockerTargetAddress",
          "type": "address"
        },
        {
          "indexed": true,
          "internalType": "address",
          "name": "buyerAddress",
          "type": "address"
        },
        {
          "indexed": false,
          "internalType": "uint256",
          "name": "slashingAmount",
          "type": "uint256"
        },
        {
          "indexed": false,
          "internalType": "uint256",
          "name": "coreBTCAmount",
          "type": "uint256"
        },
        {
          "indexed": false,
          "internalType": "uint256",
          "name": "slashingTime",
          "type": "uint256"
        },
        {
          "indexed": false,
          "internalType": "address",
          "name": "slashingToken",
          "type": "address"
        }
      ],
      "name": "LockerSlashedCollateralSold",
      "type": "event"
    },
    {
      "anonymous": false,
      "inputs": [
        {
          "indexed": true,
          "internalType": "address",
          "name": "lockerTargetAddress",
          "type": "address"
        },
        {
          "indexed": true,
          "internalType": "address",
          "name": "receiver",
          "type": "address"
        },
        {
          "indexed": false,
          "internalType": "bytes32",
          "name": "bitcoinTxId",
          "type": "bytes32"
        },
        {
          "indexed": false,
          "internalType": "uint256",
          "name": "mintedAmount",
          "type": "uint256"
        },
        {
          "indexed": false,
          "internalType": "uint256",
          "name": "lockerFee",
          "type": "uint256"
        },
        {
          "indexed": false,
          "internalType": "uint256",
          "name": "mintingTime",
          "type": "uint256"
        }
      ],
      "name": "MintByLocker",
      "type": "event"
    },
    {
      "anonymous": false,
      "inputs": [
        {
          "indexed": true,
          "internalType": "address",
          "name": "account",
          "type": "address"
        }
      ],
      "name": "MinterAdded",
      "type": "event"
    },
    {
      "anonymous": false,
      "inputs": [
        {
          "indexed": true,
          "internalType": "address",
          "name": "account",
          "type": "address"
        }
      ],
      "name": "MinterRemoved",
      "type": "event"
    },
    {
      "anonymous": false,
      "inputs": [
        {
          "indexed": false,
          "internalType": "address",
          "name": "oldCCBurnRouter",
          "type": "address"
        },
        {
          "indexed": false,
          "internalType": "address",
          "name": "newCCBurnRouter",
          "type": "address"
        }
      ],
      "name": "NewCCBurnRouter",
      "type": "event"
    },
    {
      "anonymous": false,
      "inputs": [
        {
          "indexed": false,
          "internalType": "uint256",
          "name": "oldCollateralRatio",
          "type": "uint256"
        },
        {
          "indexed": false,
          "internalType": "uint256",
          "name": "newCollateralRatio",
          "type": "uint256"
        }
      ],
      "name": "NewCollateralRatio",
      "type": "event"
    },
    {
      "anonymous": false,
      "inputs": [
        {
          "indexed": false,
          "internalType": "address",
          "name": "oldCollaterals",
          "type": "address"
        },
        {
          "indexed": false,
          "internalType": "address",
          "name": "newCollaterals",
          "type": "address"
        }
      ],
      "name": "NewCollaterals",
      "type": "event"
    },
    {
      "anonymous": false,
      "inputs": [
        {
          "indexed": false,
          "internalType": "address",
          "name": "oldCoreBTC",
          "type": "address"
        },
        {
          "indexed": false,
          "internalType": "address",
          "name": "newCoreBTC",
          "type": "address"
        }
      ],
      "name": "NewCoreBTC",
      "type": "event"
    },
    {
      "anonymous": false,
      "inputs": [
        {
          "indexed": false,
          "internalType": "uint256",
          "name": "oldLiquidationRatio",
          "type": "uint256"
        },
        {
          "indexed": false,
          "internalType": "uint256",
          "name": "newLiquidationRatio",
          "type": "uint256"
        }
      ],
      "name": "NewLiquidationRatio",
      "type": "event"
    },
    {
      "anonymous": false,
      "inputs": [
        {
          "indexed": false,
          "internalType": "uint256",
          "name": "oldLockerPercentageFee",
          "type": "uint256"
        },
        {
          "indexed": false,
          "internalType": "uint256",
          "name": "newLockerPercentageFee",
          "type": "uint256"
        }
      ],
      "name": "NewLockerPercentageFee",
      "type": "event"
    },
    {
      "anonymous": false,
      "inputs": [
        {
          "indexed": false,
          "internalType": "address",
          "name": "oldPriceOracle",
          "type": "address"
        },
        {
          "indexed": false,
          "internalType": "address",
          "name": "newPriceOracle",
          "type": "address"
        }
      ],
      "name": "NewPriceOracle",
      "type": "event"
    },
    {
      "anonymous": false,
      "inputs": [
        {
          "indexed": false,
          "internalType": "uint256",
          "name": "oldPriceWithDiscountRatio",
          "type": "uint256"
        },
        {
          "indexed": false,
          "internalType": "uint256",
          "name": "newPriceWithDiscountRatio",
          "type": "uint256"
        }
      ],
      "name": "NewPriceWithDiscountRatio",
      "type": "event"
    },
    {
      "anonymous": false,
      "inputs": [
        {
          "indexed": false,
          "internalType": "uint256",
          "name": "oldSlashCompensationRatio",
          "type": "uint256"
        },
        {
          "indexed": false,
          "internalType": "uint256",
          "name": "newSlashCompensationRatio",
          "type": "uint256"
        }
      ],
      "name": "NewSlashCompensationRatio",
      "type": "event"
    },
    {
      "anonymous": false,
      "inputs": [
        {
          "indexed": true,
          "internalType": "address",
          "name": "previousOwner",
          "type": "address"
        },
        {
          "indexed": true,
          "internalType": "address",
          "name": "newOwner",
          "type": "address"
        }
      ],
      "name": "OwnershipTransferStarted",
      "type": "event"
    },
    {
      "anonymous": false,
      "inputs": [
        {
          "indexed": true,
          "internalType": "address",
          "name": "previousOwner",
          "type": "address"
        },
        {
          "indexed": true,
          "internalType": "address",
          "name": "newOwner",
          "type": "address"
        }
      ],
      "name": "OwnershipTransferred",
      "type": "event"
    },
    {
      "anonymous": false,
      "inputs": [
        {
          "indexed": false,
          "internalType": "address",
          "name": "account",
          "type": "address"
        }
      ],
      "name": "Paused",
      "type": "event"
    },
    {
      "anonymous": false,
      "inputs": [
        {
          "indexed": true,
          "internalType": "address",
          "name": "lockerTargetAddress",
          "type": "address"
        },
        {
          "indexed": false,
          "internalType": "bytes",
          "name": "lockerLockingScript",
          "type": "bytes"
        },
        {
          "indexed": false,
          "internalType": "uint256",
          "name": "lockedAmount",
          "type": "uint256"
        },
        {
          "indexed": false,
          "internalType": "address",
          "name": "lockedToken",
          "type": "address"
        }
      ],
      "name": "RequestAddLocker",
      "type": "event"
    },
    {
      "anonymous": false,
      "inputs": [
        {
          "indexed": true,
          "internalType": "address",
          "name": "lockerTargetAddress",
          "type": "address"
        },
        {
          "indexed": true,
          "internalType": "uint256",
          "name": "inactivationTimestamp",
          "type": "uint256"
        },
        {
          "indexed": false,
          "internalType": "bytes",
          "name": "lockerLockingScript",
          "type": "bytes"
        },
        {
          "indexed": false,
          "internalType": "uint256",
          "name": "lockedAmount",
          "type": "uint256"
        },
        {
          "indexed": false,
          "internalType": "uint256",
          "name": "netMinted",
          "type": "uint256"
        },
        {
          "indexed": false,
          "internalType": "address",
          "name": "lockedToken",
          "type": "address"
        }
      ],
      "name": "RequestInactivateLocker",
      "type": "event"
    },
    {
      "anonymous": false,
      "inputs": [
        {
          "indexed": true,
          "internalType": "address",
          "name": "lockerTargetAddress",
          "type": "address"
        },
        {
          "indexed": false,
          "internalType": "bytes",
          "name": "lockerLockingScript",
          "type": "bytes"
        },
        {
          "indexed": false,
          "internalType": "uint256",
          "name": "lockedAmount",
          "type": "uint256"
        },
        {
          "indexed": false,
          "internalType": "address",
          "name": "lockedToken",
          "type": "address"
        }
      ],
      "name": "RevokeAddLockerRequest",
      "type": "event"
    },
    {
      "anonymous": false,
      "inputs": [
        {
          "indexed": false,
          "internalType": "address",
          "name": "account",
          "type": "address"
        }
      ],
      "name": "Unpaused",
      "type": "event"
    },
    {
      "anonymous": false,
      "inputs": [
        {
          "indexed": true,
          "internalType": "address",
          "name": "implementation",
          "type": "address"
        }
      ],
      "name": "Upgraded",
      "type": "event"
    },
    {
      "inputs": [],
      "name": "HEALTH_FACTOR",
      "outputs": [
        {
          "internalType": "uint256",
          "name": "",
          "type": "uint256"
        }
      ],
      "stateMutability": "view",
      "type": "function"
    },
    {
      "inputs": [],
      "name": "INACTIVATION_DELAY",
      "outputs": [
        {
          "internalType": "uint256",
          "name": "",
          "type": "uint256"
        }
      ],
      "stateMutability": "view",
      "type": "function"
    },
    {
      "inputs": [],
      "name": "MAX_LOCKER_FEE",
      "outputs": [
        {
          "internalType": "uint256",
          "name": "",
          "type": "uint256"
        }
      ],
      "stateMutability": "view",
      "type": "function"
    },
    {
      "inputs": [],
      "name": "NATIVE_TOKEN",
      "outputs": [
        {
          "internalType": "address",
          "name": "",
          "type": "address"
        }
      ],
      "stateMutability": "view",
      "type": "function"
    },
    {
      "inputs": [],
      "name": "NATIVE_TOKEN_DECIMAL",
      "outputs": [
        {
          "internalType": "uint256",
          "name": "",
          "type": "uint256"
        }
      ],
      "stateMutability": "view",
      "type": "function"
    },
    {
      "inputs": [],
      "name": "ONE_HUNDRED_PERCENT",
      "outputs": [
        {
          "internalType": "uint256",
          "name": "",
          "type": "uint256"
        }
      ],
      "stateMutability": "view",
      "type": "function"
    },
    {
      "inputs": [],
      "name": "UPPER_HEALTH_FACTOR",
      "outputs": [
        {
          "internalType": "uint256",
          "name": "",
          "type": "uint256"
        }
      ],
      "stateMutability": "view",
      "type": "function"
    },
    {
      "inputs": [],
      "name": "acceptOwnership",
      "outputs": [],
      "stateMutability": "nonpayable",
      "type": "function"
    },
    {
      "inputs": [
        {
          "internalType": "address",
          "name": "_account",
          "type": "address"
        }
      ],
      "name": "addBurner",
      "outputs": [],
      "stateMutability": "nonpayable",
      "type": "function"
    },
    {
      "inputs": [
        {
          "internalType": "address",
          "name": "_lockerTargetAddress",
          "type": "address"
        },
        {
          "internalType": "uint256",
          "name": "_addingCollateralAmount",
          "type": "uint256"
        }
      ],
      "name": "addCollateral",
      "outputs": [
        {
          "internalType": "bool",
          "name": "",
          "type": "bool"
        }
      ],
      "stateMutability": "payable",
      "type": "function"
    },
    {
      "inputs": [
        {
          "internalType": "address",
          "name": "_lockerTargetAddress",
          "type": "address"
        }
      ],
      "name": "addLocker",
      "outputs": [
        {
          "internalType": "bool",
          "name": "",
          "type": "bool"
        }
      ],
      "stateMutability": "nonpayable",
      "type": "function"
    },
    {
      "inputs": [
        {
          "internalType": "address",
          "name": "_account",
          "type": "address"
        }
      ],
      "name": "addMinter",
      "outputs": [],
      "stateMutability": "nonpayable",
      "type": "function"
    },
    {
      "inputs": [
        {
          "internalType": "uint256",
          "name": "",
          "type": "uint256"
        }
      ],
      "name": "approvedLockers",
      "outputs": [
        {
          "internalType": "address",
          "name": "",
          "type": "address"
        }
      ],
      "stateMutability": "view",
      "type": "function"
    },
    {
      "inputs": [
        {
          "internalType": "bytes",
          "name": "_lockerLockingScript",
          "type": "bytes"
        },
        {
          "internalType": "uint256",
          "name": "_amount",
          "type": "uint256"
        }
      ],
      "name": "burn",
      "outputs": [
        {
          "internalType": "uint256",
          "name": "",
          "type": "uint256"
        }
      ],
      "stateMutability": "nonpayable",
      "type": "function"
    },
    {
      "inputs": [
        {
          "internalType": "address",
          "name": "_lockerTargetAddress",
          "type": "address"
        },
        {
          "internalType": "uint256",
          "name": "_collateralAmount",
          "type": "uint256"
        }
      ],
      "name": "buySlashedCollateralOfLocker",
      "outputs": [
        {
          "internalType": "bool",
          "name": "",
          "type": "bool"
        }
      ],
      "stateMutability": "nonpayable",
      "type": "function"
    },
    {
      "inputs": [
        {
          "internalType": "uint256",
          "name": "",
          "type": "uint256"
        }
      ],
      "name": "candidateLockers",
      "outputs": [
        {
          "internalType": "address",
          "name": "",
          "type": "address"
        }
      ],
      "stateMutability": "view",
      "type": "function"
    },
    {
      "inputs": [],
      "name": "ccBurnRouter",
      "outputs": [
        {
          "internalType": "address",
          "name": "",
          "type": "address"
        }
      ],
      "stateMutability": "view",
      "type": "function"
    },
    {
      "inputs": [],
      "name": "collateralRatio",
      "outputs": [
        {
          "internalType": "uint256",
          "name": "",
          "type": "uint256"
        }
      ],
      "stateMutability": "view",
      "type": "function"
    },
    {
      "inputs": [],
      "name": "collaterals",
      "outputs": [
        {
          "internalType": "address",
          "name": "",
          "type": "address"
        }
      ],
      "stateMutability": "view",
      "type": "function"
    },
    {
      "inputs": [],
      "name": "coreBTC",
      "outputs": [
        {
          "internalType": "address",
          "name": "",
          "type": "address"
        }
      ],
      "stateMutability": "view",
      "type": "function"
    },
    {
      "inputs": [
        {
          "internalType": "address",
          "name": "_lockerTargetAddress",
          "type": "address"
        }
      ],
      "name": "getHealthFactor",
      "outputs": [
        {
          "internalType": "uint256",
          "name": "",
          "type": "uint256"
        }
      ],
      "stateMutability": "view",
      "type": "function"
    },
    {
      "inputs": [
        {
          "internalType": "address",
          "name": "_lockerTargetAddress",
          "type": "address"
        }
      ],
      "name": "getLockerCapacity",
      "outputs": [
        {
          "internalType": "uint256",
          "name": "",
          "type": "uint256"
        }
      ],
      "stateMutability": "view",
      "type": "function"
    },
    {
      "inputs": [
        {
          "internalType": "address",
          "name": "_lockerTargetAddress",
          "type": "address"
        }
      ],
      "name": "getLockerLockingScript",
      "outputs": [
        {
          "internalType": "bytes",
          "name": "",
          "type": "bytes"
        }
      ],
      "stateMutability": "view",
      "type": "function"
    },
    {
      "inputs": [
        {
          "internalType": "bytes",
          "name": "_lockerLockingScript",
          "type": "bytes"
        }
      ],
      "name": "getLockerTargetAddress",
      "outputs": [
        {
          "internalType": "address",
          "name": "",
          "type": "address"
        }
      ],
      "stateMutability": "view",
      "type": "function"
    },
    {
      "inputs": [
        {
          "internalType": "address",
          "name": "_lockerTargetAddress",
          "type": "address"
        }
      ],
      "name": "getMaximumBuyableCollateral",
      "outputs": [
        {
          "internalType": "uint256",
          "name": "",
          "type": "uint256"
        }
      ],
      "stateMutability": "view",
      "type": "function"
    },
    {
      "inputs": [
        {
          "internalType": "address",
          "name": "_lockerTargetAddress",
          "type": "address"
        },
        {
          "internalType": "uint256",
          "name": "_collateralAmount",
          "type": "uint256"
        }
      ],
      "name": "getNeededCoreBTCToBuyCollateral",
      "outputs": [
        {
          "internalType": "uint256",
          "name": "",
          "type": "uint256"
        }
      ],
      "stateMutability": "view",
      "type": "function"
    },
    {
      "inputs": [
        {
          "internalType": "address[]",
          "name": "_initialCandidates",
          "type": "address[]"
        }
      ],
      "name": "initForMultipleCollateralsFeature",
      "outputs": [],
      "stateMutability": "nonpayable",
      "type": "function"
    },
    {
      "inputs": [
        {
          "internalType": "address",
          "name": "_coreBTC",
          "type": "address"
        },
        {
          "internalType": "address",
          "name": "_priceOracle",
          "type": "address"
        },
        {
          "internalType": "uint256",
          "name": "_collateralRatio",
          "type": "uint256"
        },
        {
          "internalType": "uint256",
          "name": "_liquidationRatio",
          "type": "uint256"
        },
        {
          "internalType": "uint256",
          "name": "_lockerPercentageFee",
          "type": "uint256"
        },
        {
          "internalType": "uint256",
          "name": "_priceWithDiscountRatio",
          "type": "uint256"
        }
      ],
      "name": "initialize",
      "outputs": [],
      "stateMutability": "nonpayable",
      "type": "function"
    },
    {
      "inputs": [
        {
          "internalType": "address",
          "name": "account",
          "type": "address"
        }
      ],
      "name": "isBurner",
      "outputs": [
        {
          "internalType": "bool",
          "name": "",
          "type": "bool"
        }
      ],
      "stateMutability": "view",
      "type": "function"
    },
    {
      "inputs": [
        {
          "internalType": "address",
          "name": "_token",
          "type": "address"
        }
      ],
      "name": "isCollateralUnused",
      "outputs": [
        {
          "internalType": "bool",
          "name": "",
          "type": "bool"
        }
      ],
      "stateMutability": "view",
      "type": "function"
    },
    {
      "inputs": [
        {
          "internalType": "bytes",
          "name": "_lockerLockingScript",
          "type": "bytes"
        }
      ],
      "name": "isLocker",
      "outputs": [
        {
          "internalType": "bool",
          "name": "",
          "type": "bool"
        }
      ],
      "stateMutability": "view",
      "type": "function"
    },
    {
      "inputs": [
        {
          "internalType": "address",
          "name": "_lockerTargetAddress",
          "type": "address"
        }
      ],
      "name": "isLockerActive",
      "outputs": [
        {
          "internalType": "bool",
          "name": "",
          "type": "bool"
        }
      ],
      "stateMutability": "view",
      "type": "function"
    },
    {
      "inputs": [
        {
          "internalType": "address",
          "name": "account",
          "type": "address"
        }
      ],
      "name": "isMinter",
      "outputs": [
        {
          "internalType": "bool",
          "name": "",
          "type": "bool"
        }
      ],
      "stateMutability": "view",
      "type": "function"
    },
    {
      "inputs": [],
      "name": "libConstants",
      "outputs": [
        {
          "internalType": "uint256",
          "name": "OneHundredPercent",
          "type": "uint256"
        },
        {
          "internalType": "uint256",
          "name": "HealthFactor",
          "type": "uint256"
        },
        {
          "internalType": "uint256",
          "name": "UpperHealthFactor",
          "type": "uint256"
        },
        {
          "internalType": "uint256",
          "name": "MaxLockerFee",
          "type": "uint256"
        },
        {
          "internalType": "uint256",
          "name": "NativeTokenDecimal",
          "type": "uint256"
        },
        {
          "internalType": "address",
          "name": "NativeToken",
          "type": "address"
        }
      ],
      "stateMutability": "view",
      "type": "function"
    },
    {
      "inputs": [],
      "name": "libParams",
      "outputs": [
        {
          "internalType": "address",
          "name": "coreBTC",
          "type": "address"
        },
        {
          "internalType": "address",
          "name": "ccBurnRouter",
          "type": "address"
        },
        {
          "internalType": "address",
          "name": "exchangeConnector",
          "type": "address"
        },
        {
          "internalType": "address",
          "name": "priceOracle",
          "type": "address"
        },
        {
          "internalType": "address",
          "name": "collaterals",
          "type": "address"
        },
        {
          "internalType": "uint256",
          "name": "lockerPercentageFee",
          "type": "uint256"
        },
        {
          "internalType": "uint256",
          "name": "collateralRatio",
          "type": "uint256"
        },
        {
          "internalType": "uint256",
          "name": "liquidationRatio",
          "type": "uint256"
        },
        {
          "internalType": "uint256",
          "name": "priceWithDiscountRatio",
          "type": "uint256"
        },
        {
          "internalType": "uint256",
          "name": "slashCompensationRatio",
          "type": "uint256"
        }
      ],
      "stateMutability": "view",
      "type": "function"
    },
    {
      "inputs": [
        {
          "internalType": "address",
          "name": "_lockerTargetAddress",
          "type": "address"
        },
        {
          "internalType": "uint256",
          "name": "_collateralAmount",
          "type": "uint256"
        }
      ],
      "name": "liquidateLocker",
      "outputs": [
        {
          "internalType": "bool",
          "name": "",
          "type": "bool"
        }
      ],
      "stateMutability": "nonpayable",
      "type": "function"
    },
    {
      "inputs": [],
      "name": "liquidationRatio",
      "outputs": [
        {
          "internalType": "uint256",
          "name": "",
          "type": "uint256"
        }
      ],
      "stateMutability": "view",
      "type": "function"
    },
    {
      "inputs": [
        {
          "internalType": "address",
          "name": "",
          "type": "address"
        }
      ],
      "name": "lockerInactivationTimestamp",
      "outputs": [
        {
          "internalType": "uint256",
          "name": "",
          "type": "uint256"
        }
      ],
      "stateMutability": "view",
      "type": "function"
    },
    {
      "inputs": [
        {
          "internalType": "address",
          "name": "",
          "type": "address"
        }
      ],
      "name": "lockerLeavingAcceptance",
      "outputs": [
        {
          "internalType": "bool",
          "name": "",
          "type": "bool"
        }
      ],
      "stateMutability": "view",
      "type": "function"
    },
    {
      "inputs": [],
      "name": "lockerPercentageFee",
      "outputs": [
        {
          "internalType": "uint256",
          "name": "",
          "type": "uint256"
        }
      ],
      "stateMutability": "view",
      "type": "function"
    },
    {
      "inputs": [
        {
          "internalType": "bytes",
          "name": "",
          "type": "bytes"
        }
      ],
      "name": "lockerTargetAddress",
      "outputs": [
        {
          "internalType": "address",
          "name": "",
          "type": "address"
        }
      ],
      "stateMutability": "view",
      "type": "function"
    },
    {
      "inputs": [
        {
          "internalType": "address",
          "name": "",
          "type": "address"
        }
      ],
      "name": "lockersMapping",
      "outputs": [
        {
          "internalType": "bytes",
          "name": "lockerLockingScript",
          "type": "bytes"
        },
        {
          "internalType": "enum ScriptTypes",
          "name": "lockerRescueType",
          "type": "uint8"
        },
        {
          "internalType": "bytes",
          "name": "lockerRescueScript",
          "type": "bytes"
        },
        {
          "internalType": "uint256",
          "name": "lockedAmount",
          "type": "uint256"
        },
        {
          "internalType": "uint256",
          "name": "netMinted",
          "type": "uint256"
        },
        {
          "internalType": "uint256",
          "name": "slashingCoreBTCAmount",
          "type": "uint256"
        },
        {
          "internalType": "uint256",
          "name": "reservedTokenForSlash",
          "type": "uint256"
        },
        {
          "internalType": "bool",
          "name": "isLocker",
          "type": "bool"
        },
        {
          "internalType": "bool",
          "name": "isCandidate",
          "type": "bool"
        },
        {
          "internalType": "bool",
          "name": "isScriptHash",
          "type": "bool"
        },
        {
          "internalType": "address",
          "name": "lockedToken",
          "type": "address"
        },
        {
          "internalType": "uint256",
          "name": "inactivationTimestamp",
          "type": "uint256"
        }
      ],
      "stateMutability": "view",
      "type": "function"
    },
    {
      "inputs": [
        {
          "internalType": "bytes",
          "name": "_lockerLockingScript",
          "type": "bytes"
        },
        {
          "internalType": "address",
          "name": "_receiver",
          "type": "address"
        },
        {
          "internalType": "bytes32",
          "name": "_txId",
          "type": "bytes32"
        },
        {
          "internalType": "uint256",
          "name": "_amount",
          "type": "uint256"
        }
      ],
      "name": "mint",
      "outputs": [
        {
          "internalType": "uint256",
          "name": "",
          "type": "uint256"
        }
      ],
      "stateMutability": "nonpayable",
      "type": "function"
    },
    {
      "inputs": [],
      "name": "owner",
      "outputs": [
        {
          "internalType": "address",
          "name": "",
          "type": "address"
        }
      ],
      "stateMutability": "view",
      "type": "function"
    },
    {
      "inputs": [],
      "name": "pauseLocker",
      "outputs": [],
      "stateMutability": "nonpayable",
      "type": "function"
    },
    {
      "inputs": [],
      "name": "paused",
      "outputs": [
        {
          "internalType": "bool",
          "name": "",
          "type": "bool"
        }
      ],
      "stateMutability": "view",
      "type": "function"
    },
    {
      "inputs": [],
      "name": "pendingOwner",
      "outputs": [
        {
          "internalType": "address",
          "name": "",
          "type": "address"
        }
      ],
      "stateMutability": "view",
      "type": "function"
    },
    {
      "inputs": [
        {
          "internalType": "address",
          "name": "_collateralToken",
          "type": "address"
        }
      ],
      "name": "priceOfOneUnitOfCollateralInBTC",
      "outputs": [
        {
          "internalType": "uint256",
          "name": "",
          "type": "uint256"
        }
      ],
      "stateMutability": "view",
      "type": "function"
    },
    {
      "inputs": [],
      "name": "priceOracle",
      "outputs": [
        {
          "internalType": "address",
          "name": "",
          "type": "address"
        }
      ],
      "stateMutability": "view",
      "type": "function"
    },
    {
      "inputs": [],
      "name": "priceWithDiscountRatio",
      "outputs": [
        {
          "internalType": "uint256",
          "name": "",
          "type": "uint256"
        }
      ],
      "stateMutability": "view",
      "type": "function"
    },
    {
      "inputs": [],
      "name": "proxiableUUID",
      "outputs": [
        {
          "internalType": "bytes32",
          "name": "",
          "type": "bytes32"
        }
      ],
      "stateMutability": "view",
      "type": "function"
    },
    {
      "inputs": [
        {
          "internalType": "address",
          "name": "_account",
          "type": "address"
        }
      ],
      "name": "removeBurner",
      "outputs": [],
      "stateMutability": "nonpayable",
      "type": "function"
    },
    {
      "inputs": [
        {
          "internalType": "uint256",
          "name": "_removingCollateralAmount",
          "type": "uint256"
        }
      ],
      "name": "removeCollateral",
      "outputs": [
        {
          "internalType": "bool",
          "name": "",
          "type": "bool"
        }
      ],
      "stateMutability": "payable",
      "type": "function"
    },
    {
      "inputs": [
        {
          "internalType": "address",
          "name": "_account",
          "type": "address"
        }
      ],
      "name": "removeMinter",
      "outputs": [],
      "stateMutability": "nonpayable",
      "type": "function"
    },
    {
      "inputs": [],
      "name": "renounceOwnership",
      "outputs": [],
      "stateMutability": "nonpayable",
      "type": "function"
    },
    {
      "inputs": [],
      "name": "requestActivation",
      "outputs": [
        {
          "internalType": "bool",
          "name": "",
          "type": "bool"
        }
      ],
      "stateMutability": "nonpayable",
      "type": "function"
    },
    {
      "inputs": [],
      "name": "requestInactivation",
      "outputs": [
        {
          "internalType": "bool",
          "name": "",
          "type": "bool"
        }
      ],
      "stateMutability": "nonpayable",
      "type": "function"
    },
    {
      "inputs": [
        {
          "internalType": "bytes",
          "name": "_candidateLockingScript",
          "type": "bytes"
        },
        {
          "internalType": "uint256",
          "name": "_lockedAmount",
          "type": "uint256"
        },
        {
          "internalType": "enum ScriptTypes",
          "name": "_lockerRescueType",
          "type": "uint8"
        },
        {
          "internalType": "bytes",
          "name": "_lockerRescueScript",
          "type": "bytes"
        },
        {
          "internalType": "address",
          "name": "_lockedToken",
          "type": "address"
        }
      ],
      "name": "requestToBecomeLocker",
      "outputs": [
        {
          "internalType": "bool",
          "name": "",
          "type": "bool"
        }
      ],
      "stateMutability": "payable",
      "type": "function"
    },
    {
      "inputs": [],
      "name": "revokeRequest",
      "outputs": [
        {
          "internalType": "bool",
          "name": "",
          "type": "bool"
        }
      ],
      "stateMutability": "nonpayable",
      "type": "function"
    },
    {
      "inputs": [],
      "name": "selfRemoveLocker",
      "outputs": [
        {
          "internalType": "bool",
          "name": "",
          "type": "bool"
        }
      ],
      "stateMutability": "nonpayable",
      "type": "function"
    },
    {
      "inputs": [
        {
          "internalType": "address",
          "name": "_ccBurnRouter",
          "type": "address"
        }
      ],
      "name": "setCCBurnRouter",
      "outputs": [],
      "stateMutability": "nonpayable",
      "type": "function"
    },
    {
      "inputs": [
        {
          "internalType": "uint256",
          "name": "_collateralRatio",
          "type": "uint256"
        }
      ],
      "name": "setCollateralRatio",
      "outputs": [],
      "stateMutability": "nonpayable",
      "type": "function"
    },
    {
      "inputs": [
        {
          "internalType": "address",
          "name": "_collaterals",
          "type": "address"
        }
      ],
      "name": "setCollaterals",
      "outputs": [],
      "stateMutability": "nonpayable",
      "type": "function"
    },
    {
      "inputs": [
        {
          "internalType": "address",
          "name": "_coreBTC",
          "type": "address"
        }
      ],
      "name": "setCoreBTC",
      "outputs": [],
      "stateMutability": "nonpayable",
      "type": "function"
    },
    {
      "inputs": [
        {
          "internalType": "uint256",
          "name": "_liquidationRatio",
          "type": "uint256"
        }
      ],
      "name": "setLiquidationRatio",
      "outputs": [],
      "stateMutability": "nonpayable",
      "type": "function"
    },
    {
      "inputs": [
        {
          "internalType": "uint256",
          "name": "_lockerPercentageFee",
          "type": "uint256"
        }
      ],
      "name": "setLockerPercentageFee",
      "outputs": [],
      "stateMutability": "nonpayable",
      "type": "function"
    },
    {
      "inputs": [
        {
          "internalType": "address",
          "name": "_priceOracle",
          "type": "address"
        }
      ],
      "name": "setPriceOracle",
      "outputs": [],
      "stateMutability": "nonpayable",
      "type": "function"
    },
    {
      "inputs": [
        {
          "internalType": "uint256",
          "name": "_priceWithDiscountRatio",
          "type": "uint256"
        }
      ],
      "name": "setPriceWithDiscountRatio",
      "outputs": [],
      "stateMutability": "nonpayable",
      "type": "function"
    },
    {
      "inputs": [
        {
          "internalType": "uint256",
          "name": "_slashCompensationRatio",
          "type": "uint256"
        }
      ],
      "name": "setSlashCompensationRatio",
      "outputs": [],
      "stateMutability": "nonpayable",
      "type": "function"
    },
    {
      "inputs": [],
      "name": "slashCompensationRatio",
      "outputs": [
        {
          "internalType": "uint256",
          "name": "",
          "type": "uint256"
        }
      ],
      "stateMutability": "view",
      "type": "function"
    },
    {
      "inputs": [
        {
          "internalType": "address",
          "name": "_lockerTargetAddress",
          "type": "address"
        },
        {
          "internalType": "uint256",
          "name": "_rewardAmount",
          "type": "uint256"
        },
        {
          "internalType": "address",
          "name": "_rewardRecipient",
          "type": "address"
        },
        {
          "internalType": "uint256",
          "name": "_amount",
          "type": "uint256"
        },
        {
          "internalType": "address",
          "name": "_recipient",
          "type": "address"
        }
      ],
      "name": "slashIdleLocker",
      "outputs": [
        {
          "internalType": "bool",
          "name": "",
          "type": "bool"
        }
      ],
      "stateMutability": "nonpayable",
      "type": "function"
    },
    {
      "inputs": [
        {
          "internalType": "address",
          "name": "_lockerTargetAddress",
          "type": "address"
        },
        {
          "internalType": "uint256",
          "name": "_rewardAmount",
          "type": "uint256"
        },
        {
          "internalType": "address",
          "name": "_rewardRecipient",
          "type": "address"
        },
        {
          "internalType": "uint256",
          "name": "_amount",
          "type": "uint256"
        }
      ],
      "name": "slashThiefLocker",
      "outputs": [
        {
          "internalType": "bool",
          "name": "",
          "type": "bool"
        }
      ],
      "stateMutability": "nonpayable",
      "type": "function"
    },
    {
      "inputs": [],
      "name": "totalNumberOfCandidates",
      "outputs": [
        {
          "internalType": "uint256",
          "name": "",
          "type": "uint256"
        }
      ],
      "stateMutability": "view",
      "type": "function"
    },
    {
      "inputs": [],
      "name": "totalNumberOfLockers",
      "outputs": [
        {
          "internalType": "uint256",
          "name": "",
          "type": "uint256"
        }
      ],
      "stateMutability": "view",
      "type": "function"
    },
    {
      "inputs": [
        {
          "internalType": "address",
          "name": "newOwner",
          "type": "address"
        }
      ],
      "name": "transferOwnership",
      "outputs": [],
      "stateMutability": "nonpayable",
      "type": "function"
    },
    {
      "inputs": [],
      "name": "unPauseLocker",
      "outputs": [],
      "stateMutability": "nonpayable",
      "type": "function"
    },
    {
      "inputs": [
        {
          "internalType": "address",
          "name": "newImplementation",
          "type": "address"
        }
      ],
      "name": "upgradeTo",
      "outputs": [],
      "stateMutability": "nonpayable",
      "type": "function"
    },
    {
      "inputs": [
        {
          "internalType": "address",
          "name": "newImplementation",
          "type": "address"
        },
        {
          "internalType": "bytes",
          "name": "data",
          "type": "bytes"
        }
      ],
      "name": "upgradeToAndCall",
      "outputs": [],
      "stateMutability": "payable",
      "type": "function"
    }
  ],
  "transactionHash": "0xc4e2fda4d4f3ba43ef7bb5cbabd35a15c8ddad50876c30825c2c7dec0876b0c9",
  "args": [],
  "numDeployments": 1,
  "solcInputHash": "0db84abc4b0d4c9a0365c670a39ebcd7",
  "bytecode": "0x60a06040523060601b6080523480156200001857600080fd5b506200002362000029565b620000eb565b602254610100900460ff1615620000965760405162461bcd60e51b815260206004820152602760248201527f496e697469616c697a61626c653a20636f6e747261637420697320696e697469604482015266616c697a696e6760c81b606482015260840160405180910390fd5b60225460ff9081161015620000e9576022805460ff191660ff9081179091556040519081527f7f26b83ff96e1f2b6a682f133852f6798a09c465da95921460cefb38474024989060200160405180910390a15b565b60805160601c615fe86200013460003960008181611293015281816112d301528181611d2501528181611d6501528181611de101528181612d050152612d450152615fe86000f3fe60806040526004361061045d5760003560e01c8063768ebb121161023f578063b4eae1cb11610139578063e30c3978116100b6578063ef3735291161007a578063ef37352914610da9578063f2fde38b14610dc9578063f44637ba14610de9578063fe6bcd7c14610e09578063ffc9f70414610e2957600080fd5b8063e30c397814610d2b578063e85501d814610d49578063e955de4514610d5e578063ed110a9c14610d73578063ee1f1c7014610d8957600080fd5b8063cdcbc879116100fd578063cdcbc87914610c61578063d0d7a25914610ccb578063d5a38a9114610ceb578063d63a73ec14610d0b578063dd0081c71461074857600080fd5b8063b4eae1cb14610b47578063b734de2614610b5d578063bc805d1d14610b7d578063bd60e79414610b93578063c4d10b6a14610c4157600080fd5b806396ec39e8116101c7578063af1ea7951161018b578063af1ea79514610aa4578063aff2faa314610adc578063b1bae47c14610afc578063b291ec1314610b1c578063b430225814610b3257600080fd5b806396ec39e814610a04578063983b2d5614610a24578063a33995e514610a44578063a6d7bd8214610a64578063aa271e1a14610a8457600080fd5b806388aa0a521161020e57806388aa0a52146109705780638cc9d389146109865780638da5cb5b146109a65780638fe85fe7146109c4578063946ce8cd146109e457600080fd5b8063768ebb121461074857806379ba50971461090b5780637da5f0da1461092057806386489ba91461095057600080fd5b80634d188f321161035b5780636060663e116102d857806367f8a7181161029c57806367f8a71814610890578063694c12ce146108a35780636a030fc3146108c35780636d75b9ee146108e3578063715018a6146108f657600080fd5b80636060663e146107f85780636136c21f14610818578063613e2e1e14610845578063639080201461085a5780636600203d1461087057600080fd5b806356bf79461161031f57806356bf79461461075e57806359bb91891461077e5780635a8d80b8146107935780635c975abb146107b35780635d6464ba146107cb57600080fd5b80634d188f32146106e05780634f1ef2861461070057806352d1902d14610713578063530e784f1461072857806354509b971461074857600080fd5b806331f7d964116103e957806341f3ec11116103ad57806341f3ec111461061f5780634334614a1461066057806343b937071461068057806345cc5890146106a05780634be50e57146106c057600080fd5b806331f7d964146105975780633237c158146105ac5780633659cfe6146105bf57806338463cff146105df5780634113e5ca146105ff57600080fd5b80631a2783f2116104305780631a2783f2146104f257806324f6a71e1461052a5780632630c12f146105405780632f5b04ac146105605780633092afd51461057757600080fd5b806302846858146104625780630c42cbc9146104845780631697565b146104ac5780631775765f146104dc575b600080fd5b34801561046e57600080fd5b5061048261047d366004614e52565b610e3e565b005b34801561049057600080fd5b50610499601281565b6040519081526020015b60405180910390f35b3480156104b857600080fd5b506104cc6104c7366004614f86565b610ebd565b60405190151581526020016104a3565b3480156104e857600080fd5b5061049960065481565b3480156104fe57600080fd5b50600054610512906001600160a01b031681565b6040516001600160a01b0390911681526020016104a3565b34801561053657600080fd5b5061049960085481565b34801561054c57600080fd5b50600254610512906001600160a01b031681565b34801561056c57600080fd5b506104996205460081565b34801561058357600080fd5b50610482610592366004614e52565b6110dc565b3480156105a357600080fd5b50610512600181565b6104cc6105ba3660046153ad565b611152565b3480156105cb57600080fd5b506104826105da366004614e52565b611288565b3480156105eb57600080fd5b506104996105fa36600461516f565b611351565b34801561060b57600080fd5b50600354610512906001600160a01b031681565b34801561062b57600080fd5b5061051261063a366004615258565b8051602081830181018051600f825292820191909301209152546001600160a01b031681565b34801561066c57600080fd5b506104cc61067b366004614e52565b611788565b34801561068c57600080fd5b506104cc61069b366004614f14565b6117d6565b3480156106ac57600080fd5b506104cc6106bb366004614e52565b611a7a565b3480156106cc57600080fd5b506104826106db366004614e52565b611cdf565b3480156106ec57600080fd5b506105126106fb3660046153ad565b611cf0565b61048261070e366004614ec6565b611d1a565b34801561071f57600080fd5b50610499611dd4565b34801561073457600080fd5b50610482610743366004614e52565b611e88565b34801561075457600080fd5b5061049961271081565b34801561076a57600080fd5b506104cc610779366004614e52565b611e99565b34801561078a57600080fd5b506104cc612004565b34801561079f57600080fd5b50600154610512906001600160a01b031681565b3480156107bf57600080fd5b5060eb5460ff166104cc565b3480156107d757600080fd5b506107eb6107e6366004614e52565b612137565b6040516104a39190615677565b34801561080457600080fd5b506104826108133660046153ad565b612209565b34801561082457600080fd5b50610499610833366004614e52565b600d6020526000908152604090205481565b34801561085157600080fd5b5061048261221a565b34801561086657600080fd5b5061049960045481565b34801561087c57600080fd5b5061048261088b3660046153ad565b61222c565b6104cc61089e3660046151b9565b61223d565b3480156108af57600080fd5b506104996108be366004614e52565b61240f565b3480156108cf57600080fd5b506104cc6108de366004614e52565b6124b3565b6104cc6108f1366004614f14565b61252b565b34801561090257600080fd5b506104826126c5565b34801561091757600080fd5b506104826126cd565b34801561092c57600080fd5b506104cc61093b366004614e52565b600e6020526000908152604090205460ff1681565b34801561095c57600080fd5b5061048261096b366004614e6e565b612744565b34801561097c57600080fd5b5061049960095481565b34801561099257600080fd5b506104996109a1366004614e52565b6128d8565b3480156109b257600080fd5b506055546001600160a01b0316610512565b3480156109d057600080fd5b506104826109df3660046153ad565b612989565b3480156109f057600080fd5b506104826109ff3660046153ad565b61299a565b348015610a1057600080fd5b506104cc610a1f366004614f14565b6129ab565b348015610a3057600080fd5b50610482610a3f366004614e52565b612c80565b348015610a5057600080fd5b50610482610a5f366004614fe4565b612cfa565b348015610a7057600080fd5b50610499610a7f36600461510a565b612e1d565b348015610a9057600080fd5b506104cc610a9f366004614e52565b61318e565b348015610ab057600080fd5b50610ac4610abf366004614e52565b6131d7565b6040516104a39c9b9a9998979695949392919061568a565b348015610ae857600080fd5b506104cc610af73660046150ca565b613362565b348015610b0857600080fd5b50610499610b17366004614f14565b6133b0565b348015610b2857600080fd5b5061049960075481565b348015610b3e57600080fd5b506104cc613416565b348015610b5357600080fd5b5061049960055481565b348015610b6957600080fd5b506104cc610b78366004614f3f565b6134d1565b348015610b8957600080fd5b506104996130d481565b348015610b9f57600080fd5b50601854601954601a54601b54601c54601d54601e54601f54602054602154610be0996001600160a01b03908116998116988116978116961694939291908a565b604080516001600160a01b039b8c168152998b1660208b0152978a1697890197909752948816606088015296909216608086015260a085015260c084015260e0830193909352610100820192909252610120810191909152610140016104a3565b348015610c4d57600080fd5b50610512610c5c3660046150ca565b613684565b348015610c6d57600080fd5b50601254601354601454601554601654601754610c959594939291906001600160a01b031686565b60408051968752602087019590955293850192909252606084015260808301526001600160a01b031660a082015260c0016104a3565b348015610cd757600080fd5b50610482610ce63660046153ad565b6136b9565b348015610cf757600080fd5b50610499610d06366004614e52565b6136ca565b348015610d1757600080fd5b50610512610d263660046153ad565b613748565b348015610d3757600080fd5b506087546001600160a01b0316610512565b348015610d5557600080fd5b506104cc613759565b348015610d6a57600080fd5b5061048261388b565b348015610d7f57600080fd5b50610499600a5481565b348015610d9557600080fd5b50610482610da4366004614e52565b61389b565b348015610db557600080fd5b50610482610dc4366004614e52565b6138ac565b348015610dd557600080fd5b50610482610de4366004614e52565b6138bd565b348015610df557600080fd5b50610482610e04366004614e52565b61392e565b348015610e1557600080fd5b50610499610e24366004614e52565b6139a8565b348015610e3557600080fd5b506104cc6139f9565b610e46613a19565b610e4f81611788565b610e745760405162461bcd60e51b8152600401610e6b906158c5565b60405180910390fd5b6001600160a01b038116600081815260116020526040808220805460ff19169055517f90eabbc0c667db2a5029ed6bc0f5fe9f356d11684a4ca9fcfaec0e53f12b9c8e9190a250565b6000610ec7613a73565b610ecf613acd565b6001546001600160a01b0316336001600160a01b031614610f025760405162461bcd60e51b8152600401610e6b90615954565b61271060085484610f139190615e86565b610f1d9190615e66565b610f279084615e4e565b6001600160a01b0387166000908152600c6020526040808220905163051108e560e21b81529295509091738F7E74bC8f1B985D5CD9A8C2189aF7802666a1c191631444239491610f8191906018908b908a90600401615d04565b60206040518083038186803b158015610f9957600080fd5b505af4158015610fad573d6000803e3d6000fd5b505050506040513d601f19601f82011682018060405250810190610fd191906150b2565b6001600160a01b038089166000908152600c602052604090206007015491925063010000009091041661102284826110098a89615e4e565b6110138987615e86565b61101d9190615e66565b613b13565b600061102e8887615e4e565b6110388785615e86565b6110429190615e66565b61104c9084615ea5565b9050611059878383613b13565b6040805182815260208101889052908101849052426060820152600160808201526001600160a01b0383811660a083015280871691898216918c16907f19fa34b3e5133b7a17b70edf99c60c14a8a0bc7b475725d3065bd1734dad510a9060c00160405180910390a4600193505050506110d3600160b955565b95945050505050565b6110e4613a19565b6110ed8161318e565b6111095760405162461bcd60e51b8152600401610e6b906158c5565b6001600160a01b038116600081815260106020526040808220805460ff19169055517fe94479a9f7e1952cc78f2d6baab678adc1b772d936c6583def489e524cb666929190a250565b600061115c613a73565b336000908152600c602052604090819020905163fb9b406760e01b8152738F7E74bC8f1B985D5CD9A8C2189aF7802666a1c19163fb9b4067916111aa91906012906018908890600401615c63565b60006040518083038186803b1580156111c257600080fd5b505af41580156111d6573d6000803e3d6000fd5b5050505061120d6111e43390565b336000908152600c6020526040902060070154630100000090046001600160a01b031684613b13565b336000818152600c602052604090819020600381015460079091015491517f7e127ed6cd4824df6bad0d752984e5bd3309b4f3c9fa7e18d19637b86e1e86a39261126e9287929091429163010000009091046001600160a01b031690615852565b60405180910390a2506001611283600160b955565b919050565b306001600160a01b037f00000000000000000000000000000000000000000000000000000000000000001614156112d15760405162461bcd60e51b8152600401610e6b90615908565b7f00000000000000000000000000000000000000000000000000000000000000006001600160a01b0316611303613b4f565b6001600160a01b0316146113295760405162461bcd60e51b8152600401610e6b90615999565b61133281613b6b565b6040805160008082526020820190925261134e91839190613b73565b50565b600081600081116113745760405162461bcd60e51b8152600401610e6b90615ab5565b61137c613acd565b61138533611788565b6113d15760405162461bcd60e51b815260206004820152601e60248201527f4c6f636b6572733a206f6e6c79206275726e6572732063616e206275726e00006044820152606401610e6b565b6000600f86866040516113e59291906155a7565b908152604051908190036020019020546000546001600160a01b039182169250166323b872dd6114123390565b6040516001600160e01b031960e084901b1681526001600160a01b03909116600482015230602482015260448101879052606401602060405180830381600087803b15801561146057600080fd5b505af1158015611474573d6000803e3d6000fd5b505050506040513d601f19601f820116820180604052508101906114989190615098565b6114e45760405162461bcd60e51b815260206004820152601c60248201527f4c6f636b6572733a207472616e7366657246726f6d206661696c6564000000006044820152606401610e6b565b6000612710600454866114f79190615e86565b6115019190615e66565b9050600061150f8287615ea5565b6001600160a01b0384166000908152600c60205260409020600401549091508181101561157e5760405162461bcd60e51b815260206004820152601b60248201527f4c6f636b6572733a20696e73756666696369656e742066756e647300000000006044820152606401610e6b565b6115888282615ea5565b6001600160a01b038581166000908152600c602052604080822060049081019490945590549051630852cd8d60e31b815292830185905216906342966c6890602401602060405180830381600087803b1580156115e457600080fd5b505af11580156115f8573d6000803e3d6000fd5b505050506040513d601f19601f8201168201806040525081019061161c9190615098565b61165f5760405162461bcd60e51b8152602060048201526014602482015273131bd8dad95c9cce88189d5c9b8819985a5b195960621b6044820152606401610e6b565b60005460405163a9059cbb60e01b81526001600160a01b038681166004830152602482018690529091169063a9059cbb90604401602060405180830381600087803b1580156116ad57600080fd5b505af11580156116c1573d6000803e3d6000fd5b505050506040513d601f19601f820116820180604052508101906116e59190615098565b6117315760405162461bcd60e51b815260206004820152601960248201527f4c6f636b6572733a206c6f636b6572466565206661696c6564000000000000006044820152606401610e6b565b6040805188815260208101859052428183015290516001600160a01b038616917f66fb54322c407b04a077a306e72cdd780f0f374ba5dac9f6901a56a6255bc34a919081900360600190a250979650505050505050565b6000816001600160a01b0381166117b15760405162461bcd60e51b8152600401610e6b90615ae5565b6001600160a01b03831660009081526011602052604090205460ff1691505b50919050565b60006117e0613a73565b6117e8613acd565b826001600160a01b03811661180f5760405162461bcd60e51b8152600401610e6b90615ae5565b6001600160a01b0384166000908152600c60205260408082209051637f240b8b60e11b8152600481019190915260248101859052738F7E74bC8f1B985D5CD9A8C2189aF7802666a1c19063fe4817169060440160206040518083038186803b15801561187a57600080fd5b505af415801561188e573d6000803e3d6000fd5b505050506040513d601f19601f820116820180604052508101906118b291906150b2565b6000549091506001600160a01b03166323b872dd336040516001600160e01b031960e084901b1681526001600160a01b03909116600482015230602482015260448101849052606401602060405180830381600087803b15801561191557600080fd5b505af1158015611929573d6000803e3d6000fd5b505050506040513d601f19601f8201168201806040525081019061194d9190615098565b50600054604051630852cd8d60e31b8152600481018390526001600160a01b03909116906342966c6890602401602060405180830381600087803b15801561199457600080fd5b505af11580156119a8573d6000803e3d6000fd5b505050506040513d601f19601f820116820180604052508101906119cc9190615098565b506119fc336001600160a01b038088166000908152600c6020526040902060070154630100000090041686613b13565b6001600160a01b038581166000818152600c60205260409081902060070154905133937f679883f8ee67472398e6ef47c09a7f5966b171bd2bcab5f0779aebcbcbdf869092611a5c928a9288924292630100000090910490911690615852565b60405180910390a3600192505050611a74600160b955565b92915050565b6000611a84613a73565b611a8c613a19565b816001600160a01b038116611ab35760405162461bcd60e51b8152600401610e6b90615ae5565b6001600160a01b0383166000908152600c602052604090206007810154610100900460ff16611b1a5760405162461bcd60e51b8152602060048201526013602482015272131bd8dad95c9cce881b9bc81c995c5d595cdd606a1b6044820152606401610e6b565b604051600090600f90611b2e9084906155d3565b908152604051908190036020019020546001600160a01b031614611b945760405162461bcd60e51b815260206004820152601c60248201527f4c6f636b6572733a2075736564206c6f636b696e6720736372697074000000006044820152606401610e6b565b60078101805461ffff19166001908117909155600954611bb49190615ea5565b600955600a54611bc5906001615e4e565b600a556040518490600f90611bdb9084906155d3565b90815260405190819003602001812080546001600160a01b039384166001600160a01b03199091161790556328e5180160e11b81526101816004820152600b60248201529085166044820152738F7E74bC8f1B985D5CD9A8C2189aF7802666a1c1906351ca30029060640160006040518083038186803b158015611c5e57600080fd5b505af4158015611c72573d6000803e3d6000fd5b50505050600381015460078201546040516001600160a01b03878116937f50ec2de60da128f96d3f6db676c0041fb4e25e02a764b38ff0c40d10f76579d393611cc79387934292630100000090041690615748565b60405180910390a2600192505050611283600160b955565b611ce7613a19565b61134e81613ced565b600b8181548110611d0057600080fd5b6000918252602090912001546001600160a01b0316905081565b306001600160a01b037f0000000000000000000000000000000000000000000000000000000000000000161415611d635760405162461bcd60e51b8152600401610e6b90615908565b7f00000000000000000000000000000000000000000000000000000000000000006001600160a01b0316611d95613b4f565b6001600160a01b031614611dbb5760405162461bcd60e51b8152600401610e6b90615999565b611dc482613b6b565b611dd082826001613b73565b5050565b6000306001600160a01b037f00000000000000000000000000000000000000000000000000000000000000001614611e745760405162461bcd60e51b815260206004820152603860248201527f555550535570677261646561626c653a206d757374206e6f742062652063616c60448201527f6c6564207468726f7567682064656c656761746563616c6c00000000000000006064820152608401610e6b565b50600080516020615f6c8339815191525b90565b611e90613a19565b61134e81613d88565b6000816001600160a01b038116611ec25760405162461bcd60e51b8152600401610e6b90615ae5565b604051631f14a8d360e11b8152600c600482015261018160248201526001600160a01b0384166044820152738F7E74bC8f1B985D5CD9A8C2189aF7802666a1c190633e2951a69060640160206040518083038186803b158015611f2457600080fd5b505af4158015611f38573d6000803e3d6000fd5b505050506040513d601f19601f82011682018060405250810190611f5c9190615098565b8015611ffd5750604051631f14a8d360e11b8152600c6004820152600b60248201526001600160a01b0384166044820152738F7E74bC8f1B985D5CD9A8C2189aF7802666a1c190633e2951a6906064015b60206040518083038186803b158015611fc557600080fd5b505af4158015611fd9573d6000803e3d6000fd5b505050506040513d601f19601f82011682018060405250810190611ffd9190615098565b9392505050565b600061200e613a73565b336000908152600c602052604090206007015460ff166120405760405162461bcd60e51b8152600401610e6b90615a26565b336000908152600c6020526040902060080154156120ae5760405162461bcd60e51b815260206004820152602560248201527f4c6f636b6572733a206c6f636b65722068617320616c72656164792072657175604482015264195cdd195960da1b6064820152608401610e6b565b6120b942603c615e4e565b336000818152600c6020526040908190206008810184905560038101546004820154600783015493517f49510c1de57fb1f357a2444587ea601cc3b11d77ccb192154c8378c2f84b634d946121229493929163010000009091046001600160a01b031690615748565b60405180910390a3506001611e85600160b955565b6060816001600160a01b0381166121605760405162461bcd60e51b8152600401610e6b90615ae5565b6001600160a01b0383166000908152600c60205260409020805461218390615ee8565b80601f01602080910402602001604051908101604052809291908181526020018280546121af90615ee8565b80156121fc5780601f106121d1576101008083540402835291602001916121fc565b820191906000526020600020905b8154815290600101906020018083116121df57829003601f168201915b5050505050915050919050565b612211613a19565b61134e81613e23565b612222613a19565b61222a613eb2565b565b612234613a19565b61134e81613f04565b6000612247613a73565b738F7E74bC8f1B985D5CD9A8C2189aF7802666a1c163b926d8f0600c60126018600f8d8d6040516122799291906155a7565b908152604051908190036020018120546001600160e01b031960e087901b1682526122b9949392916001600160a01b03909116908d908a90600401615876565b60006040518083038186803b1580156122d157600080fd5b505af41580156122e5573d6000803e3d6000fd5b505050506101816122f33390565b815460018082018455600093845260209093200180546001600160a01b0319166001600160a01b039290921691909117905560095461233191615e4e565b600955604051634777cda360e01b8152738F7E74bC8f1B985D5CD9A8C2189aF7802666a1c190634777cda39061237a90600c908c908c908c908c908c908c908c90600401615780565b60006040518083038186803b15801561239257600080fd5b505af41580156123a6573d6000803e3d6000fd5b505050506123b13390565b6001600160a01b03167fae6c2e5daace63bff62e385a7d762007f0356fadceb83713c9a26d9b6f8e52a0898989866040516123ef9493929190615642565b60405180910390a2506001612404600160b955565b979650505050505050565b6001600160a01b0381166000908152600c60205260408082209051631d35425160e11b8152738F7E74bC8f1B985D5CD9A8C2189aF7802666a1c191633a6a84a2916124639190601290601890600401615c41565b60206040518083038186803b15801561247b57600080fd5b505af415801561248f573d6000803e3d6000fd5b505050506040513d601f19601f82011682018060405250810190611a7491906150b2565b6000816001600160a01b0381166124dc5760405162461bcd60e51b8152600401610e6b90615ae5565b6001600160a01b0383166000908152600c602052604090819020905163d3f5e2e960e01b8152738F7E74bC8f1B985D5CD9A8C2189aF7802666a1c19163d3f5e2e991611fad9190600401615b67565b6000612535613a73565b81600081116125565760405162461bcd60e51b8152600401610e6b90615ab5565b6001600160a01b038481166000908152600c60205260409020600701546301000000900416600114156125c7578234146125c75760405162461bcd60e51b81526020600482015260126024820152714c6f636b6572733a206d73672076616c756560701b6044820152606401610e6b565b6001600160a01b0384166000908152600c6020526040908190209051635b8914e960e01b8152738F7E74bC8f1B985D5CD9A8C2189aF7802666a1c191635b8914e99161261b91906012908890600401615ccc565b60006040518083038186803b15801561263357600080fd5b505af4158015612647573d6000803e3d6000fd5b5050506001600160a01b038086166000818152600c602052604090819020600381015460079091015491519294507f1a48dbe0e8978a04ac30e84ff5b757b6b5ab687139dc261d0a12dd03598782b8936126ae938993429263010000009091041690615852565b60405180910390a26001915050611a74600160b955565b61222a613a19565b60875433906001600160a01b0316811461273b5760405162461bcd60e51b815260206004820152602960248201527f4f776e61626c6532537465703a2063616c6c6572206973206e6f7420746865206044820152683732bb9037bbb732b960b91b6064820152608401610e6b565b61134e81613f9c565b602254610100900460ff16158080156127645750602254600160ff909116105b8061277e5750303b15801561277e575060225460ff166001145b6127e15760405162461bcd60e51b815260206004820152602e60248201527f496e697469616c697a61626c653a20636f6e747261637420697320616c72656160448201526d191e481a5b9a5d1a585b1a5e995960921b6064820152608401610e6b565b6022805460ff191660011790558015612804576022805461ff0019166101001790555b61280c613fb5565b612814613fe4565b61281c614013565b612824614042565b61282d87613ced565b61283686613d88565b61283f85613e23565b61284884614069565b61285183613f04565b61285a826140f8565b612710601281815560138290556130d4601455601591909155601655601780546001600160a01b031916600117905580156128cf576022805461ff0019169055604051600181527f7f26b83ff96e1f2b6a682f133852f6798a09c465da95921460cefb38474024989060200160405180910390a15b50505050505050565b6000816001600160a01b0381166129015760405162461bcd60e51b8152600401610e6b90615ae5565b6040516299413760e01b8152738F7E74bC8f1B985D5CD9A8C2189aF7802666a1c1906299413790612939906018908790600401615d6b565b60206040518083038186803b15801561295157600080fd5b505af4158015612965573d6000803e3d6000fd5b505050506040513d601f19601f82011682018060405250810190611ffd91906150b2565b612991613a19565b61134e816140f8565b6129a2613a19565b61134e81614069565b60006129b5613a73565b6129bd613acd565b826001600160a01b0381166129e45760405162461bcd60e51b8152600401610e6b90615ae5565b8260008111612a055760405162461bcd60e51b8152600401610e6b90615ab5565b6001600160a01b0385166000908152600c602052604080822090516308878a6f60e01b8152738F7E74bC8f1B985D5CD9A8C2189aF7802666a1c1916308878a6f91612a5b91906012906018908b90600401615c63565b60206040518083038186803b158015612a7357600080fd5b505af4158015612a87573d6000803e3d6000fd5b505050506040513d601f19601f82011682018060405250810190612aab91906150b2565b6001600160a01b0387166000908152600c602052604081206003810180549394509092889290612adc908490615ea5565b9091555050600054612af9906001600160a01b0316333085614160565b600154600054612b16916001600160a01b039182169116846141d1565b600180549082015460405163218a4edd60e11b81526000926001600160a01b0316916343149dba91612b57918791600288019160ff16908890600401615d93565b602060405180830381600087803b158015612b7157600080fd5b505af1158015612b85573d6000803e3d6000fd5b505050506040513d601f19601f82011682018060405250810190612ba991906150b2565b11612bf65760405162461bcd60e51b815260206004820152601d60248201527f4c6f636b6572733a206275726e7420616d6f756e74206973207a65726f0000006044820152606401610e6b565b612c15336007830154630100000090046001600160a01b031688613b13565b600781015460405133916001600160a01b038a8116927f6e059c6d0176feeba3073a3df607194b29bfb0e6c640512734976a4298c94bce92612c66928c928992429263010000009091041690615852565b60405180910390a36001945050505050611a74600160b955565b612c88613a19565b612c918161318e565b15612cae5760405162461bcd60e51b8152600401610e6b906159e5565b6001600160a01b038116600081815260106020526040808220805460ff19166001179055517f6ae172837ea30b801fbfcdd4108aa1d5bf8ff775444fd70256b44e6bf3dfc3f69190a250565b306001600160a01b037f0000000000000000000000000000000000000000000000000000000000000000161415612d435760405162461bcd60e51b8152600401610e6b90615908565b7f00000000000000000000000000000000000000000000000000000000000000006001600160a01b0316612d75613b4f565b6001600160a01b031614612d9b5760405162461bcd60e51b8152600401610e6b90615999565b612da3613a19565b60095460405163652e98b960e01b8152738F7E74bC8f1B985D5CD9A8C2189aF7802666a1c19163652e98b991612dea91600c91600d9161018191600b9189916004016157de565b60006040518083038186803b158015612e0257600080fd5b505af4158015612e16573d6000803e3d6000fd5b5050505050565b6000612e27613a73565b612e2f613acd565b612e383361318e565b612e845760405162461bcd60e51b815260206004820152601e60248201527f4c6f636b6572733a206f6e6c79206d696e746572732063616e206d696e7400006044820152606401610e6b565b836001600160a01b038116612eab5760405162461bcd60e51b8152600401610e6b90615ae5565b8260008111612ecc5760405162461bcd60e51b8152600401610e6b90615ab5565b6000600f8989604051612ee09291906155a7565b908152604051908190036020019020546001600160a01b031690506000612f06826136ca565b905085811015612f585760405162461bcd60e51b815260206004820152601e60248201527f4c6f636b6572733a20696e73756666696369656e7420636170616369747900006044820152606401610e6b565b612f61826124b3565b612fa35760405162461bcd60e51b81526020600482015260136024820152724c6f636b6572733a206e6f742061637469766560681b6044820152606401610e6b565b6001600160a01b0382166000908152600c602052604081206004018054889290612fce908490615e4e565b909155505060045460009061271090612fe79089615e86565b612ff19190615e66565b90508015613081576000546040516340c10f1960e01b81526001600160a01b03858116600483015260248201849052909116906340c10f1990604401602060405180830381600087803b15801561304757600080fd5b505af115801561305b573d6000803e3d6000fd5b505050506040513d601f19601f8201168201806040525081019061307f9190615098565b505b6000546001600160a01b03166340c10f198a61309d848b615ea5565b6040516001600160e01b031960e085901b1681526001600160a01b0390921660048301526024820152604401602060405180830381600087803b1580156130e357600080fd5b505af11580156130f7573d6000803e3d6000fd5b505050506040513d601f19601f8201168201806040525081019061311b9190615098565b5060408051898152602081018990529081018290524260608201526001600160a01b03808b1691908516907f80d7e09e4dcc6445bb161b259f25b2b87f0f7446139023346d498e0fe9ddbdcf9060800160405180910390a361317d8188615ea5565b955050505050506110d3600160b955565b6000816001600160a01b0381166131b75760405162461bcd60e51b8152600401610e6b90615ae5565b50506001600160a01b031660009081526010602052604090205460ff1690565b600c602052600090815260409020805481906131f290615ee8565b80601f016020809104026020016040519081016040528092919081815260200182805461321e90615ee8565b801561326b5780601f106132405761010080835404028352916020019161326b565b820191906000526020600020905b81548152906001019060200180831161324e57829003601f168201915b5050506001840154600285018054949560ff90921694919350915061328f90615ee8565b80601f01602080910402602001604051908101604052809291908181526020018280546132bb90615ee8565b80156133085780601f106132dd57610100808354040283529160200191613308565b820191906000526020600020905b8154815290600101906020018083116132eb57829003601f168201915b50505060038401546004850154600586015460068701546007880154600890980154969793969295509093509160ff808216926101008304821692620100008104909216916001600160a01b03630100000090910416908c565b6000600c6000600f858560405161337a9291906155a7565b9081526040805160209281900383019020546001600160a01b0316835290820192909252016000206007015460ff169392505050565b6001600160a01b038083166000908152600c60205260408082206007015490516316a1bdd760e21b81529192738F7E74bC8f1B985D5CD9A8C2189aF7802666a1c192635a86f75c9261293992601292601892899263010000009091041690600401615d2d565b6000613420613a73565b336000908152600c602052604090206007015460ff166134525760405162461bcd60e51b8152600401610e6b90615a26565b336000818152600c6020526040808220600881019290925560038201546004830154600784015492517f86616b52562e8133dabdcd65f7e5dde6a459f67b19fc506f5859d9c15c3419aa946134bc949093929163010000009091046001600160a01b031690615748565b60405180910390a2506001611e85600160b955565b60006134db613a73565b6134e3613acd565b6001546001600160a01b0316336001600160a01b0316146135165760405162461bcd60e51b8152600401610e6b90615954565b6001600160a01b0385166000908152600c602052604080822090516336a24a7b60e01b81528291738F7E74bC8f1B985D5CD9A8C2189aF7802666a1c1916336a24a7b9161356f916012906018908c908b90600401615c95565b604080518083038186803b15801561358657600080fd5b505af415801561359a573d6000803e3d6000fd5b505050506040513d601f19601f820116820180604052508101906135be91906153c5565b6001600160a01b03808a166000908152600c60205260409020600701549294509092506301000000909104166135f5868285613b13565b306001600160a01b03878116908a167f19fa34b3e5133b7a17b70edf99c60c14a8a0bc7b475725d3065bd1734dad510a86896136318289615e4e565b60408051938452602084019290925290820152426060820152600060808201526001600160a01b03861660a082015260c00160405180910390a46001935050505061367c600160b955565b949350505050565b6000600f83836040516136989291906155a7565b908152604051908190036020019020546001600160a01b0316905092915050565b6136c1613a19565b61134e816142f5565b6000816001600160a01b0381166136f35760405162461bcd60e51b8152600401610e6b90615ae5565b6001600160a01b0383166000908152600c60205260409081902090516302a47d9560e21b8152738F7E74bC8f1B985D5CD9A8C2189aF7802666a1c191630a91f654916129399190601290601890600401615c41565b6101818181548110611d0057600080fd5b6000613763613a73565b60408051637c3c1e8960e11b8152600c600482015261018160248201523360448201529051600091738F7E74bC8f1B985D5CD9A8C2189aF7802666a1c19163f8783d12916064808201928692909190829003018186803b1580156137c657600080fd5b505af41580156137da573d6000803e3d6000fd5b505050506040513d6000823e601f3d908101601f19168201604052613802919081019061528b565b905060016009546138139190615ea5565b60095561382a338261014001518360600151613b13565b336001600160a01b03167f1039d489522ec9ef0d32866fc7760dd589820e30e335a26eacde418b9b9264988260000151836060015184610140015160405161387493929190615715565b60405180910390a26001915050611e85600160b955565b613893613a19565b61222a61435d565b6138a3613a19565b61134e8161439a565b6138b4613a19565b61134e816144d8565b6138c5613a19565b608780546001600160a01b0383166001600160a01b031990911681179091556138f66055546001600160a01b031690565b6001600160a01b03167f38d16b8cac22d99fc7c124b9cd0de2d3fa1faef420bfe791d8c362d765e2270060405160405180910390a350565b613936613a19565b61393f81611788565b1561395c5760405162461bcd60e51b8152600401610e6b906159e5565b6001600160a01b038116600081815260116020526040808220805460ff19166001179055517f86e57fd2b90329052917118de7c3f521f400d439b9650deaa906a25b08b945609190a250565b6001600160a01b0381166000908152600c60205260408082209051638c230aed60e01b8152738F7E74bC8f1B985D5CD9A8C2189aF7802666a1c191638c230aed916124639190601890600401615cef565b6000613a03613a73565b613a0c33614573565b506001611e85600160b955565b6055546001600160a01b0316331461222a5760405162461bcd60e51b815260206004820181905260248201527f4f776e61626c653a2063616c6c6572206973206e6f7420746865206f776e65726044820152606401610e6b565b600260b9541415613ac65760405162461bcd60e51b815260206004820152601f60248201527f5265656e7472616e637947756172643a207265656e7472616e742063616c6c006044820152606401610e6b565b600260b955565b60eb5460ff161561222a5760405162461bcd60e51b815260206004820152601060248201526f14185d5cd8589b194e881c185d5cd95960821b6044820152606401610e6b565b6001600160a01b03821660011415613b3457613b2f838261468a565b505050565b613b2f6001600160a01b03831684836147a3565b600160b955565b600080516020615f6c833981519152546001600160a01b031690565b61134e613a19565b7f4910fdfa16fed3260ed0e7147f7cc6da11a60208b5b9406d12a635614ffd91435460ff1615613ba657613b2f836147d3565b826001600160a01b03166352d1902d6040518163ffffffff1660e01b815260040160206040518083038186803b158015613bdf57600080fd5b505afa925050508015613c0f575060408051601f3d908101601f19168201909252613c0c918101906150b2565b60015b613c725760405162461bcd60e51b815260206004820152602e60248201527f45524331393637557067726164653a206e657720696d706c656d656e7461746960448201526d6f6e206973206e6f74205555505360901b6064820152608401610e6b565b600080516020615f6c8339815191528114613ce15760405162461bcd60e51b815260206004820152602960248201527f45524331393637557067726164653a20756e737570706f727465642070726f786044820152681a58589b195555525160ba1b6064820152608401610e6b565b50613b2f83838361486f565b806001600160a01b038116613d145760405162461bcd60e51b8152600401610e6b90615ae5565b600054604080516001600160a01b03928316815291841660208301527ff1253c5d33616f62c4ae5b08481b0df4900a6eb1391d7d96098bf578bb314c52910160405180910390a150600080546001600160a01b039092166001600160a01b0319928316811790915560188054909216179055565b806001600160a01b038116613daf5760405162461bcd60e51b8152600401610e6b90615ae5565b600254604080516001600160a01b03928316815291841660208301527fd52b2b9b7e9ee655fcb95d2e5b9e0c9f69e7ef2b8e9d2d0ea78402d576d22e22910160405180910390a150600280546001600160a01b039092166001600160a01b03199283168117909155601b8054909216179055565b6006548111613e6c5760405162461bcd60e51b81526020600482015260156024820152742637b1b5b2b9399d1036bab9ba1021a9101f10262960591b6044820152606401610e6b565b60055460408051918252602082018390527f1e29d1b5c8926360f3ac632d884775772b07f31fec4077d433e58ce823f91347910160405180910390a16005819055601e55565b613eba614894565b60eb805460ff191690557f5db9ee0a495bf2e6ff9c91a7834c1ba4fdd244a5e8aa4e537bd38aeae4b073aa335b6040516001600160a01b03909116815260200160405180910390a1565b612710811115613f565760405162461bcd60e51b815260206004820152601b60248201527f4c6f636b6572733a20696e76616c6964206c6f636b65722066656500000000006044820152606401610e6b565b60045460408051918252602082018390527f44c6802691f6adea249930369a511db979a5e9a3603bdb37ceee1036da80e980910160405180910390a16004819055601d55565b608780546001600160a01b031916905561134e816148dd565b602254610100900460ff16613fdc5760405162461bcd60e51b8152600401610e6b90615b1c565b61222a61492f565b602254610100900460ff1661400b5760405162461bcd60e51b8152600401610e6b90615b1c565b61222a61495f565b602254610100900460ff1661403a5760405162461bcd60e51b8152600401610e6b90615b1c565b61222a614986565b602254610100900460ff1661222a5760405162461bcd60e51b8152600401610e6b90615b1c565b80600554116140b25760405162461bcd60e51b81526020600482015260156024820152742637b1b5b2b9399d1036bab9ba1021a9101f10262960591b6044820152606401610e6b565b60065460408051918252602082018390527f883242c2a857ca527a432dfca231b1e49233fde2a96802809a0f3866e9f19e13910160405180910390a16006819055601f55565b61271081111561411a5760405162461bcd60e51b8152600401610e6b90615a72565b60075460408051918252602082018390527f5e4dd01049cdfe5a081b404bff8e27de919fd9c8ae2145007e0921ec227f207a910160405180910390a16007819055602055565b6040516001600160a01b03808516602483015283166044820152606481018290526141cb9085906323b872dd60e01b906084015b60408051601f198184030181529190526020810180516001600160e01b03166001600160e01b0319909316929092179091526149b9565b50505050565b80158061425a5750604051636eb1769f60e11b81523060048201526001600160a01b03838116602483015284169063dd62ed3e9060440160206040518083038186803b15801561422057600080fd5b505afa158015614234573d6000803e3d6000fd5b505050506040513d601f19601f8201168201806040525081019061425891906150b2565b155b6142c55760405162461bcd60e51b815260206004820152603660248201527f5361666545524332303a20617070726f76652066726f6d206e6f6e2d7a65726f60448201527520746f206e6f6e2d7a65726f20616c6c6f77616e636560501b6064820152608401610e6b565b6040516001600160a01b038316602482015260448101829052613b2f90849063095ea7b360e01b90606401614194565b6127108111156143175760405162461bcd60e51b8152600401610e6b90615a72565b60085460408051918252602082018390527f38c2a2bc8aa6ec8cff42ba0a8b737fa98bed6ae113936d79509d03f0134029f4910160405180910390a16008819055602155565b614365613acd565b60eb805460ff191660011790557f62e78cea01bee320cd4e420270b5ea74000d11b0c9f74754ebdbfc544b05a258613ee73390565b806001600160a01b0381166143c15760405162461bcd60e51b8152600401610e6b90615ae5565b600154604080516001600160a01b03928316815291841660208301527fd86d51326f3c88ea5365fba597a57273ae555e44f4b11658da952320d0beaa75910160405180910390a16001546040516001600160a01b03909116907f90eabbc0c667db2a5029ed6bc0f5fe9f356d11684a4ca9fcfaec0e53f12b9c8e90600090a2600180546001600160a01b03908116600090815260116020526040808220805460ff1916905583549286166001600160a01b0319938416811790945560198054909316841790925590517f86e57fd2b90329052917118de7c3f521f400d439b9650deaa906a25b08b945609190a25050600180546001600160a01b03166000908152601160205260409020805460ff19169091179055565b806001600160a01b0381166144ff5760405162461bcd60e51b8152600401610e6b90615ae5565b600354604080516001600160a01b03928316815291841660208301527ff70b901dcbac064cf4110833cb5adec074e667c8fa7447b3267a9818e1214dfc910160405180910390a150600380546001600160a01b039092166001600160a01b03199283168117909155601c8054909216179055565b604051631e674c6d60e21b8152600090738F7E74bC8f1B985D5CD9A8C2189aF7802666a1c19063799d31b4906145b690600c90600f90600b908890600401615852565b60006040518083038186803b1580156145ce57600080fd5b505af41580156145e2573d6000803e3d6000fd5b505050506040513d6000823e601f3d908101601f1916820160405261460a919081019061528b565b90506001600a5461461b9190615ea5565b600a556101408101516060820151614634918491613b13565b816001600160a01b03167f8295084aee74b95a5495daabd14fbf1aa72875c5e8fe52b204fbacabf9a85b288260000151836060015184610140015160405161467e93929190615715565b60405180910390a25050565b804710156146da5760405162461bcd60e51b815260206004820152601d60248201527f416464726573733a20696e73756666696369656e742062616c616e63650000006044820152606401610e6b565b6000826001600160a01b03168260405160006040518083038185875af1925050503d8060008114614727576040519150601f19603f3d011682016040523d82523d6000602084013e61472c565b606091505b5050905080613b2f5760405162461bcd60e51b815260206004820152603a60248201527f416464726573733a20756e61626c6520746f2073656e642076616c75652c207260448201527f6563697069656e74206d617920686176652072657665727465640000000000006064820152608401610e6b565b6040516001600160a01b038316602482015260448101829052613b2f90849063a9059cbb60e01b90606401614194565b6001600160a01b0381163b6148405760405162461bcd60e51b815260206004820152602d60248201527f455243313936373a206e657720696d706c656d656e746174696f6e206973206e60448201526c1bdd08184818dbdb9d1c9858dd609a1b6064820152608401610e6b565b600080516020615f6c83398151915280546001600160a01b0319166001600160a01b0392909216919091179055565b61487883614a8e565b6000825111806148855750805b15613b2f576141cb8383614ace565b60eb5460ff1661222a5760405162461bcd60e51b815260206004820152601460248201527314185d5cd8589b194e881b9bdd081c185d5cd95960621b6044820152606401610e6b565b605580546001600160a01b038381166001600160a01b0319831681179093556040519116919082907f8be0079c531659141344cd1fd0a4f28419497f9722a3daafe3b4186f6b6457e090600090a35050565b602254610100900460ff166149565760405162461bcd60e51b8152600401610e6b90615b1c565b61222a33613f9c565b602254610100900460ff16613b485760405162461bcd60e51b8152600401610e6b90615b1c565b602254610100900460ff166149ad5760405162461bcd60e51b8152600401610e6b90615b1c565b60eb805460ff19169055565b6000614a0e826040518060400160405280602081526020017f5361666545524332303a206c6f772d6c6576656c2063616c6c206661696c6564815250856001600160a01b0316614bb99092919063ffffffff16565b9050805160001480614a2f575080806020019051810190614a2f9190615098565b613b2f5760405162461bcd60e51b815260206004820152602a60248201527f5361666545524332303a204552433230206f7065726174696f6e20646964206e6044820152691bdd081cdd58d8d9595960b21b6064820152608401610e6b565b614a97816147d3565b6040516001600160a01b038216907fbc7cd75a20ee27fd9adebab32041f755214dbc6bffa90cc0225b39da2e5c2d3b90600090a250565b60606001600160a01b0383163b614b365760405162461bcd60e51b815260206004820152602660248201527f416464726573733a2064656c65676174652063616c6c20746f206e6f6e2d636f6044820152651b9d1c9858dd60d21b6064820152608401610e6b565b600080846001600160a01b031684604051614b5191906155b7565b600060405180830381855af49150503d8060008114614b8c576040519150601f19603f3d011682016040523d82523d6000602084013e614b91565b606091505b50915091506110d38282604051806060016040528060278152602001615f8c60279139614bc8565b606061367c8484600085614be1565b60608315614bd7575081611ffd565b611ffd8383614cb1565b606082471015614c425760405162461bcd60e51b815260206004820152602660248201527f416464726573733a20696e73756666696369656e742062616c616e636520666f6044820152651c8818d85b1b60d21b6064820152608401610e6b565b600080866001600160a01b03168587604051614c5e91906155b7565b60006040518083038185875af1925050503d8060008114614c9b576040519150601f19603f3d011682016040523d82523d6000602084013e614ca0565b606091505b509150915061240487838387614cdb565b815115614cc15781518083602001fd5b8060405162461bcd60e51b8152600401610e6b9190615677565b60608315614d47578251614d40576001600160a01b0385163b614d405760405162461bcd60e51b815260206004820152601d60248201527f416464726573733a2063616c6c20746f206e6f6e2d636f6e74726163740000006044820152606401610e6b565b508161367c565b61367c8383614cb1565b805161128381615f49565b8051801515811461128357600080fd5b60008083601f840112614d7d578182fd5b50813567ffffffffffffffff811115614d94578182fd5b602083019150836020828501011115614dac57600080fd5b9250929050565b600082601f830112614dc3578081fd5b8135614dd6614dd182615e26565b615df5565b818152846020838601011115614dea578283fd5b816020850160208301379081016020019190915292915050565b600082601f830112614e14578081fd5b8151614e22614dd182615e26565b818152846020838601011115614e36578283fd5b61367c826020830160208701615ebc565b805161128381615f5e565b600060208284031215614e63578081fd5b8135611ffd81615f49565b60008060008060008060c08789031215614e86578182fd5b8635614e9181615f49565b95506020870135614ea181615f49565b95989597505050506040840135936060810135936080820135935060a0909101359150565b60008060408385031215614ed8578182fd5b8235614ee381615f49565b9150602083013567ffffffffffffffff811115614efe578182fd5b614f0a85828601614db3565b9150509250929050565b60008060408385031215614f26578182fd5b8235614f3181615f49565b946020939093013593505050565b60008060008060808587031215614f54578384fd5b8435614f5f81615f49565b9350602085013592506040850135614f7681615f49565b9396929550929360600135925050565b600080600080600060a08688031215614f9d578283fd5b8535614fa881615f49565b9450602086013593506040860135614fbf81615f49565b9250606086013591506080860135614fd681615f49565b809150509295509295909350565b60006020808385031215614ff6578182fd5b823567ffffffffffffffff8082111561500d578384fd5b818501915085601f830112615020578384fd5b81358181111561503257615032615f33565b8060051b9150615043848301615df5565b8181528481019084860184860187018a101561505d578788fd5b8795505b8386101561508b578035945061507685615f49565b84835260019590950194918601918601615061565b5098975050505050505050565b6000602082840312156150a9578081fd5b611ffd82614d5c565b6000602082840312156150c3578081fd5b5051919050565b600080602083850312156150dc578182fd5b823567ffffffffffffffff8111156150f2578283fd5b6150fe85828601614d6c565b90969095509350505050565b600080600080600060808688031215615121578283fd5b853567ffffffffffffffff811115615137578384fd5b61514388828901614d6c565b909650945050602086013561515781615f49565b94979396509394604081013594506060013592915050565b600080600060408486031215615183578081fd5b833567ffffffffffffffff811115615199578182fd5b6151a586828701614d6c565b909790965060209590950135949350505050565b600080600080600080600060a0888a0312156151d3578485fd5b873567ffffffffffffffff808211156151ea578687fd5b6151f68b838c01614d6c565b909950975060208a0135965060408a0135915061521282615f5e565b90945060608901359080821115615227578283fd5b506152348a828b01614d6c565b909450925050608088013561524881615f49565b8091505092959891949750929550565b600060208284031215615269578081fd5b813567ffffffffffffffff81111561527f578182fd5b61367c84828501614db3565b60006020828403121561529c578081fd5b815167ffffffffffffffff808211156152b3578283fd5b9083019061018082860312156152c7578283fd5b6152cf615dcb565b8251828111156152dd578485fd5b6152e987828601614e04565b8252506152f860208401614e47565b602082015260408301518281111561530e578485fd5b61531a87828601614e04565b604083015250606083015160608201526080830151608082015260a083015160a082015260c083015160c082015261535460e08401614d5c565b60e08201526101009150615369828401614d5c565b82820152610120915061537d828401614d5c565b828201526101409150615391828401614d51565b9181019190915261016091820151918101919091529392505050565b6000602082840312156153be578081fd5b5035919050565b600080604083850312156153d7578182fd5b505080516020909101519092909150565b81835281816020850137506000828201602090810191909152601f909101601f19169091010190565b60008151808452615429816020860160208601615ebc565b601f01601f19169290920160200192915050565b6000815461544a81615ee8565b808552602060018381168015615467576001811461547b576154a9565b60ff198516888401526040880195506154a9565b866000528260002060005b858110156154a15781548a8201860152908301908401615486565b890184019650505b505050505092915050565b600681106154d257634e487b7160e01b600052602160045260246000fd5b9052565b8054825260018101546020830152600281015460408301526003810154606083015260048101546080830152600501546001600160a01b031660a090910152565b6155398261552c83546001600160a01b031690565b6001600160a01b03169052565b60018101546001600160a01b0390811660208401526002820154811660408401526003820154811660608401526004820154166080830152600581015460a0830152600681015460c0830152600781015460e083015260088101546101008301526009015461012090910152565b8183823760009101908152919050565b600082516155c9818460208701615ebc565b9190910192915050565b60008083546155e181615ee8565b600182811680156155f9576001811461560a57615636565b60ff19841687528287019450615636565b8786526020808720875b8581101561562d5781548a820152908401908201615614565b50505082870194505b50929695505050505050565b6060815260006156566060830186886153e8565b6020830194909452506001600160a01b039190911660409091015292915050565b602081526000611ffd6020830184615411565b6101808152600061569f61018083018f615411565b6156ac602084018f6154b4565b82810360408401526156be818e615411565b606084019c909c525050608081019890985260a088019690965260c087019490945291151560e0860152151561010085015215156101208401526001600160a01b0316610140830152610160909101529392505050565b6060815260006157286060830186615411565b6020830194909452506001600160a01b0391909116604090910152919050565b60808152600061575b608083018761543d565b60208301959095525060408101929092526001600160a01b0316606090910152919050565b88815260c06020820152600061579a60c08301898b6153e8565b8760408401526157ad60608401886154b4565b82810360808401526157c08186886153e8565b91505060018060a01b03831660a08301529998505050505050505050565b600060c082018883526020888185015287604085015286606085015260c0608085015281865180845260e0860191508288019350845b818110156158395784516001600160a01b031683529383019391830191600101615814565b50508093505050508260a0830152979650505050505050565b938452602084019290925260408301526001600160a01b0316606082015260800190565b868152610280810161588b60208301886154d6565b61589860e0830187615517565b6001600160a01b039485166102208301526102408201939093529216610260909201919091529392505050565b60208082526023908201527f4c6f636b6572733a206163636f756e7420646f6573206e6f74206861766520726040820152626f6c6560e81b606082015260800190565b6020808252602c908201527f46756e6374696f6e206d7573742062652063616c6c6564207468726f7567682060408201526b19195b1959d85d1958d85b1b60a21b606082015260800190565b60208082526025908201527f4c6f636b6572733a206d6573736167652073656e646572206973206e6f74206360408201526431a13ab93760d91b606082015260800190565b6020808252602c908201527f46756e6374696f6e206d7573742062652063616c6c6564207468726f7567682060408201526b6163746976652070726f787960a01b606082015260800190565b60208082526021908201527f4c6f636b6572733a206163636f756e7420616c72656164792068617320726f6c6040820152606560f81b606082015260800190565b6020808252602c908201527f4c6f636b6572733a20696e7075742061646472657373206973206e6f7420612060408201526b3b30b634b2103637b1b5b2b960a11b606082015260800190565b60208082526023908201527f4c6f636b6572733a206c657373207468616e206f7220657175616c20746f203160408201526230302560e81b606082015260800190565b6020808252601690820152754c6f636b6572733a2076616c7565206973207a65726f60501b604082015260600190565b60208082526018908201527f4c6f636b6572733a2061646472657373206973207a65726f0000000000000000604082015260600190565b6020808252602b908201527f496e697469616c697a61626c653a20636f6e7472616374206973206e6f74206960408201526a6e697469616c697a696e6760a81b606082015260800190565b602081526000610180806020840152615b846101a084018561543d565b600185015460ff16615b9960408601826154b4565b50838103601f19016060850152615bb3816002870161543d565b905060038501546080850152600485015460a0850152600585015460c0850152600685015460e08501526007850154615bf4610100860160ff831615159052565b615c09610120860160ff8360081c1615159052565b615c1e610140860160ff8360101c1615159052565b60181c6001600160a01b0316610160850152600894909401549201919091525090565b8381526102208101615c5660208301856154d6565b61367c60e0830184615517565b8481526102408101615c7860208301866154d6565b615c8560e0830185615517565b8261022083015295945050505050565b8581526102608101615caa60208301876154d6565b615cb760e0830186615517565b61022082019390935261024001529392505050565b8381526101008101615ce160208301856154d6565b8260e0830152949350505050565b8281526101608101611ffd6020830184615517565b8481526101a08101615d196020830186615517565b610160820193909352610180015292915050565b6102408101615d3c82876154d6565b615d4960c0830186615517565b6102008201939093526001600160a01b03919091166102209091015292915050565b6101608101615d7a8285615517565b6001600160a01b03929092166101409190910152919050565b848152608060208201526000615dac608083018661543d565b615db960408401866154b4565b8281036060840152612404818561543d565b604051610180810167ffffffffffffffff81118282101715615def57615def615f33565b60405290565b604051601f8201601f1916810167ffffffffffffffff81118282101715615e1e57615e1e615f33565b604052919050565b600067ffffffffffffffff821115615e4057615e40615f33565b50601f01601f191660200190565b60008219821115615e6157615e61615f1d565b500190565b600082615e8157634e487b7160e01b81526012600452602481fd5b500490565b6000816000190483118215151615615ea057615ea0615f1d565b500290565b600082821015615eb757615eb7615f1d565b500390565b60005b83811015615ed7578181015183820152602001615ebf565b838111156141cb5750506000910152565b600181811c90821680615efc57607f821691505b602082108114156117d057634e487b7160e01b600052602260045260246000fd5b634e487b7160e01b600052601160045260246000fd5b634e487b7160e01b600052604160045260246000fd5b6001600160a01b038116811461134e57600080fd5b6006811061134e57600080fdfe360894a13ba1a3210667c828492db98dca3e2076cc3735a920a3ca505d382bbc416464726573733a206c6f772d6c6576656c2064656c65676174652063616c6c206661696c6564a2646970667358221220ca59358e7d15d9cec9a24af48a66b927fcc13feef0f8e967c72e4ff29392a77464736f6c63430008040033",
  "deployedBytecode": "0x60806040526004361061045d5760003560e01c8063768ebb121161023f578063b4eae1cb11610139578063e30c3978116100b6578063ef3735291161007a578063ef37352914610da9578063f2fde38b14610dc9578063f44637ba14610de9578063fe6bcd7c14610e09578063ffc9f70414610e2957600080fd5b8063e30c397814610d2b578063e85501d814610d49578063e955de4514610d5e578063ed110a9c14610d73578063ee1f1c7014610d8957600080fd5b8063cdcbc879116100fd578063cdcbc87914610c61578063d0d7a25914610ccb578063d5a38a9114610ceb578063d63a73ec14610d0b578063dd0081c71461074857600080fd5b8063b4eae1cb14610b47578063b734de2614610b5d578063bc805d1d14610b7d578063bd60e79414610b93578063c4d10b6a14610c4157600080fd5b806396ec39e8116101c7578063af1ea7951161018b578063af1ea79514610aa4578063aff2faa314610adc578063b1bae47c14610afc578063b291ec1314610b1c578063b430225814610b3257600080fd5b806396ec39e814610a04578063983b2d5614610a24578063a33995e514610a44578063a6d7bd8214610a64578063aa271e1a14610a8457600080fd5b806388aa0a521161020e57806388aa0a52146109705780638cc9d389146109865780638da5cb5b146109a65780638fe85fe7146109c4578063946ce8cd146109e457600080fd5b8063768ebb121461074857806379ba50971461090b5780637da5f0da1461092057806386489ba91461095057600080fd5b80634d188f321161035b5780636060663e116102d857806367f8a7181161029c57806367f8a71814610890578063694c12ce146108a35780636a030fc3146108c35780636d75b9ee146108e3578063715018a6146108f657600080fd5b80636060663e146107f85780636136c21f14610818578063613e2e1e14610845578063639080201461085a5780636600203d1461087057600080fd5b806356bf79461161031f57806356bf79461461075e57806359bb91891461077e5780635a8d80b8146107935780635c975abb146107b35780635d6464ba146107cb57600080fd5b80634d188f32146106e05780634f1ef2861461070057806352d1902d14610713578063530e784f1461072857806354509b971461074857600080fd5b806331f7d964116103e957806341f3ec11116103ad57806341f3ec111461061f5780634334614a1461066057806343b937071461068057806345cc5890146106a05780634be50e57146106c057600080fd5b806331f7d964146105975780633237c158146105ac5780633659cfe6146105bf57806338463cff146105df5780634113e5ca146105ff57600080fd5b80631a2783f2116104305780631a2783f2146104f257806324f6a71e1461052a5780632630c12f146105405780632f5b04ac146105605780633092afd51461057757600080fd5b806302846858146104625780630c42cbc9146104845780631697565b146104ac5780631775765f146104dc575b600080fd5b34801561046e57600080fd5b5061048261047d366004614e52565b610e3e565b005b34801561049057600080fd5b50610499601281565b6040519081526020015b60405180910390f35b3480156104b857600080fd5b506104cc6104c7366004614f86565b610ebd565b60405190151581526020016104a3565b3480156104e857600080fd5b5061049960065481565b3480156104fe57600080fd5b50600054610512906001600160a01b031681565b6040516001600160a01b0390911681526020016104a3565b34801561053657600080fd5b5061049960085481565b34801561054c57600080fd5b50600254610512906001600160a01b031681565b34801561056c57600080fd5b506104996205460081565b34801561058357600080fd5b50610482610592366004614e52565b6110dc565b3480156105a357600080fd5b50610512600181565b6104cc6105ba3660046153ad565b611152565b3480156105cb57600080fd5b506104826105da366004614e52565b611288565b3480156105eb57600080fd5b506104996105fa36600461516f565b611351565b34801561060b57600080fd5b50600354610512906001600160a01b031681565b34801561062b57600080fd5b5061051261063a366004615258565b8051602081830181018051600f825292820191909301209152546001600160a01b031681565b34801561066c57600080fd5b506104cc61067b366004614e52565b611788565b34801561068c57600080fd5b506104cc61069b366004614f14565b6117d6565b3480156106ac57600080fd5b506104cc6106bb366004614e52565b611a7a565b3480156106cc57600080fd5b506104826106db366004614e52565b611cdf565b3480156106ec57600080fd5b506105126106fb3660046153ad565b611cf0565b61048261070e366004614ec6565b611d1a565b34801561071f57600080fd5b50610499611dd4565b34801561073457600080fd5b50610482610743366004614e52565b611e88565b34801561075457600080fd5b5061049961271081565b34801561076a57600080fd5b506104cc610779366004614e52565b611e99565b34801561078a57600080fd5b506104cc612004565b34801561079f57600080fd5b50600154610512906001600160a01b031681565b3480156107bf57600080fd5b5060eb5460ff166104cc565b3480156107d757600080fd5b506107eb6107e6366004614e52565b612137565b6040516104a39190615677565b34801561080457600080fd5b506104826108133660046153ad565b612209565b34801561082457600080fd5b50610499610833366004614e52565b600d6020526000908152604090205481565b34801561085157600080fd5b5061048261221a565b34801561086657600080fd5b5061049960045481565b34801561087c57600080fd5b5061048261088b3660046153ad565b61222c565b6104cc61089e3660046151b9565b61223d565b3480156108af57600080fd5b506104996108be366004614e52565b61240f565b3480156108cf57600080fd5b506104cc6108de366004614e52565b6124b3565b6104cc6108f1366004614f14565b61252b565b34801561090257600080fd5b506104826126c5565b34801561091757600080fd5b506104826126cd565b34801561092c57600080fd5b506104cc61093b366004614e52565b600e6020526000908152604090205460ff1681565b34801561095c57600080fd5b5061048261096b366004614e6e565b612744565b34801561097c57600080fd5b5061049960095481565b34801561099257600080fd5b506104996109a1366004614e52565b6128d8565b3480156109b257600080fd5b506055546001600160a01b0316610512565b3480156109d057600080fd5b506104826109df3660046153ad565b612989565b3480156109f057600080fd5b506104826109ff3660046153ad565b61299a565b348015610a1057600080fd5b506104cc610a1f366004614f14565b6129ab565b348015610a3057600080fd5b50610482610a3f366004614e52565b612c80565b348015610a5057600080fd5b50610482610a5f366004614fe4565b612cfa565b348015610a7057600080fd5b50610499610a7f36600461510a565b612e1d565b348015610a9057600080fd5b506104cc610a9f366004614e52565b61318e565b348015610ab057600080fd5b50610ac4610abf366004614e52565b6131d7565b6040516104a39c9b9a9998979695949392919061568a565b348015610ae857600080fd5b506104cc610af73660046150ca565b613362565b348015610b0857600080fd5b50610499610b17366004614f14565b6133b0565b348015610b2857600080fd5b5061049960075481565b348015610b3e57600080fd5b506104cc613416565b348015610b5357600080fd5b5061049960055481565b348015610b6957600080fd5b506104cc610b78366004614f3f565b6134d1565b348015610b8957600080fd5b506104996130d481565b348015610b9f57600080fd5b50601854601954601a54601b54601c54601d54601e54601f54602054602154610be0996001600160a01b03908116998116988116978116961694939291908a565b604080516001600160a01b039b8c168152998b1660208b0152978a1697890197909752948816606088015296909216608086015260a085015260c084015260e0830193909352610100820192909252610120810191909152610140016104a3565b348015610c4d57600080fd5b50610512610c5c3660046150ca565b613684565b348015610c6d57600080fd5b50601254601354601454601554601654601754610c959594939291906001600160a01b031686565b60408051968752602087019590955293850192909252606084015260808301526001600160a01b031660a082015260c0016104a3565b348015610cd757600080fd5b50610482610ce63660046153ad565b6136b9565b348015610cf757600080fd5b50610499610d06366004614e52565b6136ca565b348015610d1757600080fd5b50610512610d263660046153ad565b613748565b348015610d3757600080fd5b506087546001600160a01b0316610512565b348015610d5557600080fd5b506104cc613759565b348015610d6a57600080fd5b5061048261388b565b348015610d7f57600080fd5b50610499600a5481565b348015610d9557600080fd5b50610482610da4366004614e52565b61389b565b348015610db557600080fd5b50610482610dc4366004614e52565b6138ac565b348015610dd557600080fd5b50610482610de4366004614e52565b6138bd565b348015610df557600080fd5b50610482610e04366004614e52565b61392e565b348015610e1557600080fd5b50610499610e24366004614e52565b6139a8565b348015610e3557600080fd5b506104cc6139f9565b610e46613a19565b610e4f81611788565b610e745760405162461bcd60e51b8152600401610e6b906158c5565b60405180910390fd5b6001600160a01b038116600081815260116020526040808220805460ff19169055517f90eabbc0c667db2a5029ed6bc0f5fe9f356d11684a4ca9fcfaec0e53f12b9c8e9190a250565b6000610ec7613a73565b610ecf613acd565b6001546001600160a01b0316336001600160a01b031614610f025760405162461bcd60e51b8152600401610e6b90615954565b61271060085484610f139190615e86565b610f1d9190615e66565b610f279084615e4e565b6001600160a01b0387166000908152600c6020526040808220905163051108e560e21b8152929550909173__$c4b8709fc407821a47433b8892c1b612a0$__91631444239491610f8191906018908b908a90600401615d04565b60206040518083038186803b158015610f9957600080fd5b505af4158015610fad573d6000803e3d6000fd5b505050506040513d601f19601f82011682018060405250810190610fd191906150b2565b6001600160a01b038089166000908152600c602052604090206007015491925063010000009091041661102284826110098a89615e4e565b6110138987615e86565b61101d9190615e66565b613b13565b600061102e8887615e4e565b6110388785615e86565b6110429190615e66565b61104c9084615ea5565b9050611059878383613b13565b6040805182815260208101889052908101849052426060820152600160808201526001600160a01b0383811660a083015280871691898216918c16907f19fa34b3e5133b7a17b70edf99c60c14a8a0bc7b475725d3065bd1734dad510a9060c00160405180910390a4600193505050506110d3600160b955565b95945050505050565b6110e4613a19565b6110ed8161318e565b6111095760405162461bcd60e51b8152600401610e6b906158c5565b6001600160a01b038116600081815260106020526040808220805460ff19169055517fe94479a9f7e1952cc78f2d6baab678adc1b772d936c6583def489e524cb666929190a250565b600061115c613a73565b336000908152600c602052604090819020905163fb9b406760e01b815273__$c4b8709fc407821a47433b8892c1b612a0$__9163fb9b4067916111aa91906012906018908890600401615c63565b60006040518083038186803b1580156111c257600080fd5b505af41580156111d6573d6000803e3d6000fd5b5050505061120d6111e43390565b336000908152600c6020526040902060070154630100000090046001600160a01b031684613b13565b336000818152600c602052604090819020600381015460079091015491517f7e127ed6cd4824df6bad0d752984e5bd3309b4f3c9fa7e18d19637b86e1e86a39261126e9287929091429163010000009091046001600160a01b031690615852565b60405180910390a2506001611283600160b955565b919050565b306001600160a01b037f00000000000000000000000000000000000000000000000000000000000000001614156112d15760405162461bcd60e51b8152600401610e6b90615908565b7f00000000000000000000000000000000000000000000000000000000000000006001600160a01b0316611303613b4f565b6001600160a01b0316146113295760405162461bcd60e51b8152600401610e6b90615999565b61133281613b6b565b6040805160008082526020820190925261134e91839190613b73565b50565b600081600081116113745760405162461bcd60e51b8152600401610e6b90615ab5565b61137c613acd565b61138533611788565b6113d15760405162461bcd60e51b815260206004820152601e60248201527f4c6f636b6572733a206f6e6c79206275726e6572732063616e206275726e00006044820152606401610e6b565b6000600f86866040516113e59291906155a7565b908152604051908190036020019020546000546001600160a01b039182169250166323b872dd6114123390565b6040516001600160e01b031960e084901b1681526001600160a01b03909116600482015230602482015260448101879052606401602060405180830381600087803b15801561146057600080fd5b505af1158015611474573d6000803e3d6000fd5b505050506040513d601f19601f820116820180604052508101906114989190615098565b6114e45760405162461bcd60e51b815260206004820152601c60248201527f4c6f636b6572733a207472616e7366657246726f6d206661696c6564000000006044820152606401610e6b565b6000612710600454866114f79190615e86565b6115019190615e66565b9050600061150f8287615ea5565b6001600160a01b0384166000908152600c60205260409020600401549091508181101561157e5760405162461bcd60e51b815260206004820152601b60248201527f4c6f636b6572733a20696e73756666696369656e742066756e647300000000006044820152606401610e6b565b6115888282615ea5565b6001600160a01b038581166000908152600c602052604080822060049081019490945590549051630852cd8d60e31b815292830185905216906342966c6890602401602060405180830381600087803b1580156115e457600080fd5b505af11580156115f8573d6000803e3d6000fd5b505050506040513d601f19601f8201168201806040525081019061161c9190615098565b61165f5760405162461bcd60e51b8152602060048201526014602482015273131bd8dad95c9cce88189d5c9b8819985a5b195960621b6044820152606401610e6b565b60005460405163a9059cbb60e01b81526001600160a01b038681166004830152602482018690529091169063a9059cbb90604401602060405180830381600087803b1580156116ad57600080fd5b505af11580156116c1573d6000803e3d6000fd5b505050506040513d601f19601f820116820180604052508101906116e59190615098565b6117315760405162461bcd60e51b815260206004820152601960248201527f4c6f636b6572733a206c6f636b6572466565206661696c6564000000000000006044820152606401610e6b565b6040805188815260208101859052428183015290516001600160a01b038616917f66fb54322c407b04a077a306e72cdd780f0f374ba5dac9f6901a56a6255bc34a919081900360600190a250979650505050505050565b6000816001600160a01b0381166117b15760405162461bcd60e51b8152600401610e6b90615ae5565b6001600160a01b03831660009081526011602052604090205460ff1691505b50919050565b60006117e0613a73565b6117e8613acd565b826001600160a01b03811661180f5760405162461bcd60e51b8152600401610e6b90615ae5565b6001600160a01b0384166000908152600c60205260408082209051637f240b8b60e11b815260048101919091526024810185905273__$c4b8709fc407821a47433b8892c1b612a0$__9063fe4817169060440160206040518083038186803b15801561187a57600080fd5b505af415801561188e573d6000803e3d6000fd5b505050506040513d601f19601f820116820180604052508101906118b291906150b2565b6000549091506001600160a01b03166323b872dd336040516001600160e01b031960e084901b1681526001600160a01b03909116600482015230602482015260448101849052606401602060405180830381600087803b15801561191557600080fd5b505af1158015611929573d6000803e3d6000fd5b505050506040513d601f19601f8201168201806040525081019061194d9190615098565b50600054604051630852cd8d60e31b8152600481018390526001600160a01b03909116906342966c6890602401602060405180830381600087803b15801561199457600080fd5b505af11580156119a8573d6000803e3d6000fd5b505050506040513d601f19601f820116820180604052508101906119cc9190615098565b506119fc336001600160a01b038088166000908152600c6020526040902060070154630100000090041686613b13565b6001600160a01b038581166000818152600c60205260409081902060070154905133937f679883f8ee67472398e6ef47c09a7f5966b171bd2bcab5f0779aebcbcbdf869092611a5c928a9288924292630100000090910490911690615852565b60405180910390a3600192505050611a74600160b955565b92915050565b6000611a84613a73565b611a8c613a19565b816001600160a01b038116611ab35760405162461bcd60e51b8152600401610e6b90615ae5565b6001600160a01b0383166000908152600c602052604090206007810154610100900460ff16611b1a5760405162461bcd60e51b8152602060048201526013602482015272131bd8dad95c9cce881b9bc81c995c5d595cdd606a1b6044820152606401610e6b565b604051600090600f90611b2e9084906155d3565b908152604051908190036020019020546001600160a01b031614611b945760405162461bcd60e51b815260206004820152601c60248201527f4c6f636b6572733a2075736564206c6f636b696e6720736372697074000000006044820152606401610e6b565b60078101805461ffff19166001908117909155600954611bb49190615ea5565b600955600a54611bc5906001615e4e565b600a556040518490600f90611bdb9084906155d3565b90815260405190819003602001812080546001600160a01b039384166001600160a01b03199091161790556328e5180160e11b81526101816004820152600b6024820152908516604482015273__$c4b8709fc407821a47433b8892c1b612a0$__906351ca30029060640160006040518083038186803b158015611c5e57600080fd5b505af4158015611c72573d6000803e3d6000fd5b50505050600381015460078201546040516001600160a01b03878116937f50ec2de60da128f96d3f6db676c0041fb4e25e02a764b38ff0c40d10f76579d393611cc79387934292630100000090041690615748565b60405180910390a2600192505050611283600160b955565b611ce7613a19565b61134e81613ced565b600b8181548110611d0057600080fd5b6000918252602090912001546001600160a01b0316905081565b306001600160a01b037f0000000000000000000000000000000000000000000000000000000000000000161415611d635760405162461bcd60e51b8152600401610e6b90615908565b7f00000000000000000000000000000000000000000000000000000000000000006001600160a01b0316611d95613b4f565b6001600160a01b031614611dbb5760405162461bcd60e51b8152600401610e6b90615999565b611dc482613b6b565b611dd082826001613b73565b5050565b6000306001600160a01b037f00000000000000000000000000000000000000000000000000000000000000001614611e745760405162461bcd60e51b815260206004820152603860248201527f555550535570677261646561626c653a206d757374206e6f742062652063616c60448201527f6c6564207468726f7567682064656c656761746563616c6c00000000000000006064820152608401610e6b565b50600080516020615f6c8339815191525b90565b611e90613a19565b61134e81613d88565b6000816001600160a01b038116611ec25760405162461bcd60e51b8152600401610e6b90615ae5565b604051631f14a8d360e11b8152600c600482015261018160248201526001600160a01b038416604482015273__$c4b8709fc407821a47433b8892c1b612a0$__90633e2951a69060640160206040518083038186803b158015611f2457600080fd5b505af4158015611f38573d6000803e3d6000fd5b505050506040513d601f19601f82011682018060405250810190611f5c9190615098565b8015611ffd5750604051631f14a8d360e11b8152600c6004820152600b60248201526001600160a01b038416604482015273__$c4b8709fc407821a47433b8892c1b612a0$__90633e2951a6906064015b60206040518083038186803b158015611fc557600080fd5b505af4158015611fd9573d6000803e3d6000fd5b505050506040513d601f19601f82011682018060405250810190611ffd9190615098565b9392505050565b600061200e613a73565b336000908152600c602052604090206007015460ff166120405760405162461bcd60e51b8152600401610e6b90615a26565b336000908152600c6020526040902060080154156120ae5760405162461bcd60e51b815260206004820152602560248201527f4c6f636b6572733a206c6f636b65722068617320616c72656164792072657175604482015264195cdd195960da1b6064820152608401610e6b565b6120b942603c615e4e565b336000818152600c6020526040908190206008810184905560038101546004820154600783015493517f49510c1de57fb1f357a2444587ea601cc3b11d77ccb192154c8378c2f84b634d946121229493929163010000009091046001600160a01b031690615748565b60405180910390a3506001611e85600160b955565b6060816001600160a01b0381166121605760405162461bcd60e51b8152600401610e6b90615ae5565b6001600160a01b0383166000908152600c60205260409020805461218390615ee8565b80601f01602080910402602001604051908101604052809291908181526020018280546121af90615ee8565b80156121fc5780601f106121d1576101008083540402835291602001916121fc565b820191906000526020600020905b8154815290600101906020018083116121df57829003601f168201915b5050505050915050919050565b612211613a19565b61134e81613e23565b612222613a19565b61222a613eb2565b565b612234613a19565b61134e81613f04565b6000612247613a73565b73__$c4b8709fc407821a47433b8892c1b612a0$__63b926d8f0600c60126018600f8d8d6040516122799291906155a7565b908152604051908190036020018120546001600160e01b031960e087901b1682526122b9949392916001600160a01b03909116908d908a90600401615876565b60006040518083038186803b1580156122d157600080fd5b505af41580156122e5573d6000803e3d6000fd5b505050506101816122f33390565b815460018082018455600093845260209093200180546001600160a01b0319166001600160a01b039290921691909117905560095461233191615e4e565b600955604051634777cda360e01b815273__$c4b8709fc407821a47433b8892c1b612a0$__90634777cda39061237a90600c908c908c908c908c908c908c908c90600401615780565b60006040518083038186803b15801561239257600080fd5b505af41580156123a6573d6000803e3d6000fd5b505050506123b13390565b6001600160a01b03167fae6c2e5daace63bff62e385a7d762007f0356fadceb83713c9a26d9b6f8e52a0898989866040516123ef9493929190615642565b60405180910390a2506001612404600160b955565b979650505050505050565b6001600160a01b0381166000908152600c60205260408082209051631d35425160e11b815273__$c4b8709fc407821a47433b8892c1b612a0$__91633a6a84a2916124639190601290601890600401615c41565b60206040518083038186803b15801561247b57600080fd5b505af415801561248f573d6000803e3d6000fd5b505050506040513d601f19601f82011682018060405250810190611a7491906150b2565b6000816001600160a01b0381166124dc5760405162461bcd60e51b8152600401610e6b90615ae5565b6001600160a01b0383166000908152600c602052604090819020905163d3f5e2e960e01b815273__$c4b8709fc407821a47433b8892c1b612a0$__9163d3f5e2e991611fad9190600401615b67565b6000612535613a73565b81600081116125565760405162461bcd60e51b8152600401610e6b90615ab5565b6001600160a01b038481166000908152600c60205260409020600701546301000000900416600114156125c7578234146125c75760405162461bcd60e51b81526020600482015260126024820152714c6f636b6572733a206d73672076616c756560701b6044820152606401610e6b565b6001600160a01b0384166000908152600c6020526040908190209051635b8914e960e01b815273__$c4b8709fc407821a47433b8892c1b612a0$__91635b8914e99161261b91906012908890600401615ccc565b60006040518083038186803b15801561263357600080fd5b505af4158015612647573d6000803e3d6000fd5b5050506001600160a01b038086166000818152600c602052604090819020600381015460079091015491519294507f1a48dbe0e8978a04ac30e84ff5b757b6b5ab687139dc261d0a12dd03598782b8936126ae938993429263010000009091041690615852565b60405180910390a26001915050611a74600160b955565b61222a613a19565b60875433906001600160a01b0316811461273b5760405162461bcd60e51b815260206004820152602960248201527f4f776e61626c6532537465703a2063616c6c6572206973206e6f7420746865206044820152683732bb9037bbb732b960b91b6064820152608401610e6b565b61134e81613f9c565b602254610100900460ff16158080156127645750602254600160ff909116105b8061277e5750303b15801561277e575060225460ff166001145b6127e15760405162461bcd60e51b815260206004820152602e60248201527f496e697469616c697a61626c653a20636f6e747261637420697320616c72656160448201526d191e481a5b9a5d1a585b1a5e995960921b6064820152608401610e6b565b6022805460ff191660011790558015612804576022805461ff0019166101001790555b61280c613fb5565b612814613fe4565b61281c614013565b612824614042565b61282d87613ced565b61283686613d88565b61283f85613e23565b61284884614069565b61285183613f04565b61285a826140f8565b612710601281815560138290556130d4601455601591909155601655601780546001600160a01b031916600117905580156128cf576022805461ff0019169055604051600181527f7f26b83ff96e1f2b6a682f133852f6798a09c465da95921460cefb38474024989060200160405180910390a15b50505050505050565b6000816001600160a01b0381166129015760405162461bcd60e51b8152600401610e6b90615ae5565b6040516299413760e01b815273__$c4b8709fc407821a47433b8892c1b612a0$__906299413790612939906018908790600401615d6b565b60206040518083038186803b15801561295157600080fd5b505af4158015612965573d6000803e3d6000fd5b505050506040513d601f19601f82011682018060405250810190611ffd91906150b2565b612991613a19565b61134e816140f8565b6129a2613a19565b61134e81614069565b60006129b5613a73565b6129bd613acd565b826001600160a01b0381166129e45760405162461bcd60e51b8152600401610e6b90615ae5565b8260008111612a055760405162461bcd60e51b8152600401610e6b90615ab5565b6001600160a01b0385166000908152600c602052604080822090516308878a6f60e01b815273__$c4b8709fc407821a47433b8892c1b612a0$__916308878a6f91612a5b91906012906018908b90600401615c63565b60206040518083038186803b158015612a7357600080fd5b505af4158015612a87573d6000803e3d6000fd5b505050506040513d601f19601f82011682018060405250810190612aab91906150b2565b6001600160a01b0387166000908152600c602052604081206003810180549394509092889290612adc908490615ea5565b9091555050600054612af9906001600160a01b0316333085614160565b600154600054612b16916001600160a01b039182169116846141d1565b600180549082015460405163218a4edd60e11b81526000926001600160a01b0316916343149dba91612b57918791600288019160ff16908890600401615d93565b602060405180830381600087803b158015612b7157600080fd5b505af1158015612b85573d6000803e3d6000fd5b505050506040513d601f19601f82011682018060405250810190612ba991906150b2565b11612bf65760405162461bcd60e51b815260206004820152601d60248201527f4c6f636b6572733a206275726e7420616d6f756e74206973207a65726f0000006044820152606401610e6b565b612c15336007830154630100000090046001600160a01b031688613b13565b600781015460405133916001600160a01b038a8116927f6e059c6d0176feeba3073a3df607194b29bfb0e6c640512734976a4298c94bce92612c66928c928992429263010000009091041690615852565b60405180910390a36001945050505050611a74600160b955565b612c88613a19565b612c918161318e565b15612cae5760405162461bcd60e51b8152600401610e6b906159e5565b6001600160a01b038116600081815260106020526040808220805460ff19166001179055517f6ae172837ea30b801fbfcdd4108aa1d5bf8ff775444fd70256b44e6bf3dfc3f69190a250565b306001600160a01b037f0000000000000000000000000000000000000000000000000000000000000000161415612d435760405162461bcd60e51b8152600401610e6b90615908565b7f00000000000000000000000000000000000000000000000000000000000000006001600160a01b0316612d75613b4f565b6001600160a01b031614612d9b5760405162461bcd60e51b8152600401610e6b90615999565b612da3613a19565b60095460405163652e98b960e01b815273__$c4b8709fc407821a47433b8892c1b612a0$__9163652e98b991612dea91600c91600d9161018191600b9189916004016157de565b60006040518083038186803b158015612e0257600080fd5b505af4158015612e16573d6000803e3d6000fd5b5050505050565b6000612e27613a73565b612e2f613acd565b612e383361318e565b612e845760405162461bcd60e51b815260206004820152601e60248201527f4c6f636b6572733a206f6e6c79206d696e746572732063616e206d696e7400006044820152606401610e6b565b836001600160a01b038116612eab5760405162461bcd60e51b8152600401610e6b90615ae5565b8260008111612ecc5760405162461bcd60e51b8152600401610e6b90615ab5565b6000600f8989604051612ee09291906155a7565b908152604051908190036020019020546001600160a01b031690506000612f06826136ca565b905085811015612f585760405162461bcd60e51b815260206004820152601e60248201527f4c6f636b6572733a20696e73756666696369656e7420636170616369747900006044820152606401610e6b565b612f61826124b3565b612fa35760405162461bcd60e51b81526020600482015260136024820152724c6f636b6572733a206e6f742061637469766560681b6044820152606401610e6b565b6001600160a01b0382166000908152600c602052604081206004018054889290612fce908490615e4e565b909155505060045460009061271090612fe79089615e86565b612ff19190615e66565b90508015613081576000546040516340c10f1960e01b81526001600160a01b03858116600483015260248201849052909116906340c10f1990604401602060405180830381600087803b15801561304757600080fd5b505af115801561305b573d6000803e3d6000fd5b505050506040513d601f19601f8201168201806040525081019061307f9190615098565b505b6000546001600160a01b03166340c10f198a61309d848b615ea5565b6040516001600160e01b031960e085901b1681526001600160a01b0390921660048301526024820152604401602060405180830381600087803b1580156130e357600080fd5b505af11580156130f7573d6000803e3d6000fd5b505050506040513d601f19601f8201168201806040525081019061311b9190615098565b5060408051898152602081018990529081018290524260608201526001600160a01b03808b1691908516907f80d7e09e4dcc6445bb161b259f25b2b87f0f7446139023346d498e0fe9ddbdcf9060800160405180910390a361317d8188615ea5565b955050505050506110d3600160b955565b6000816001600160a01b0381166131b75760405162461bcd60e51b8152600401610e6b90615ae5565b50506001600160a01b031660009081526010602052604090205460ff1690565b600c602052600090815260409020805481906131f290615ee8565b80601f016020809104026020016040519081016040528092919081815260200182805461321e90615ee8565b801561326b5780601f106132405761010080835404028352916020019161326b565b820191906000526020600020905b81548152906001019060200180831161324e57829003601f168201915b5050506001840154600285018054949560ff90921694919350915061328f90615ee8565b80601f01602080910402602001604051908101604052809291908181526020018280546132bb90615ee8565b80156133085780601f106132dd57610100808354040283529160200191613308565b820191906000526020600020905b8154815290600101906020018083116132eb57829003601f168201915b50505060038401546004850154600586015460068701546007880154600890980154969793969295509093509160ff808216926101008304821692620100008104909216916001600160a01b03630100000090910416908c565b6000600c6000600f858560405161337a9291906155a7565b9081526040805160209281900383019020546001600160a01b0316835290820192909252016000206007015460ff169392505050565b6001600160a01b038083166000908152600c60205260408082206007015490516316a1bdd760e21b8152919273__$c4b8709fc407821a47433b8892c1b612a0$__92635a86f75c9261293992601292601892899263010000009091041690600401615d2d565b6000613420613a73565b336000908152600c602052604090206007015460ff166134525760405162461bcd60e51b8152600401610e6b90615a26565b336000818152600c6020526040808220600881019290925560038201546004830154600784015492517f86616b52562e8133dabdcd65f7e5dde6a459f67b19fc506f5859d9c15c3419aa946134bc949093929163010000009091046001600160a01b031690615748565b60405180910390a2506001611e85600160b955565b60006134db613a73565b6134e3613acd565b6001546001600160a01b0316336001600160a01b0316146135165760405162461bcd60e51b8152600401610e6b90615954565b6001600160a01b0385166000908152600c602052604080822090516336a24a7b60e01b8152829173__$c4b8709fc407821a47433b8892c1b612a0$__916336a24a7b9161356f916012906018908c908b90600401615c95565b604080518083038186803b15801561358657600080fd5b505af415801561359a573d6000803e3d6000fd5b505050506040513d601f19601f820116820180604052508101906135be91906153c5565b6001600160a01b03808a166000908152600c60205260409020600701549294509092506301000000909104166135f5868285613b13565b306001600160a01b03878116908a167f19fa34b3e5133b7a17b70edf99c60c14a8a0bc7b475725d3065bd1734dad510a86896136318289615e4e565b60408051938452602084019290925290820152426060820152600060808201526001600160a01b03861660a082015260c00160405180910390a46001935050505061367c600160b955565b949350505050565b6000600f83836040516136989291906155a7565b908152604051908190036020019020546001600160a01b0316905092915050565b6136c1613a19565b61134e816142f5565b6000816001600160a01b0381166136f35760405162461bcd60e51b8152600401610e6b90615ae5565b6001600160a01b0383166000908152600c60205260409081902090516302a47d9560e21b815273__$c4b8709fc407821a47433b8892c1b612a0$__91630a91f654916129399190601290601890600401615c41565b6101818181548110611d0057600080fd5b6000613763613a73565b60408051637c3c1e8960e11b8152600c60048201526101816024820152336044820152905160009173__$c4b8709fc407821a47433b8892c1b612a0$__9163f8783d12916064808201928692909190829003018186803b1580156137c657600080fd5b505af41580156137da573d6000803e3d6000fd5b505050506040513d6000823e601f3d908101601f19168201604052613802919081019061528b565b905060016009546138139190615ea5565b60095561382a338261014001518360600151613b13565b336001600160a01b03167f1039d489522ec9ef0d32866fc7760dd589820e30e335a26eacde418b9b9264988260000151836060015184610140015160405161387493929190615715565b60405180910390a26001915050611e85600160b955565b613893613a19565b61222a61435d565b6138a3613a19565b61134e8161439a565b6138b4613a19565b61134e816144d8565b6138c5613a19565b608780546001600160a01b0383166001600160a01b031990911681179091556138f66055546001600160a01b031690565b6001600160a01b03167f38d16b8cac22d99fc7c124b9cd0de2d3fa1faef420bfe791d8c362d765e2270060405160405180910390a350565b613936613a19565b61393f81611788565b1561395c5760405162461bcd60e51b8152600401610e6b906159e5565b6001600160a01b038116600081815260116020526040808220805460ff19166001179055517f86e57fd2b90329052917118de7c3f521f400d439b9650deaa906a25b08b945609190a250565b6001600160a01b0381166000908152600c60205260408082209051638c230aed60e01b815273__$c4b8709fc407821a47433b8892c1b612a0$__91638c230aed916124639190601890600401615cef565b6000613a03613a73565b613a0c33614573565b506001611e85600160b955565b6055546001600160a01b0316331461222a5760405162461bcd60e51b815260206004820181905260248201527f4f776e61626c653a2063616c6c6572206973206e6f7420746865206f776e65726044820152606401610e6b565b600260b9541415613ac65760405162461bcd60e51b815260206004820152601f60248201527f5265656e7472616e637947756172643a207265656e7472616e742063616c6c006044820152606401610e6b565b600260b955565b60eb5460ff161561222a5760405162461bcd60e51b815260206004820152601060248201526f14185d5cd8589b194e881c185d5cd95960821b6044820152606401610e6b565b6001600160a01b03821660011415613b3457613b2f838261468a565b505050565b613b2f6001600160a01b03831684836147a3565b600160b955565b600080516020615f6c833981519152546001600160a01b031690565b61134e613a19565b7f4910fdfa16fed3260ed0e7147f7cc6da11a60208b5b9406d12a635614ffd91435460ff1615613ba657613b2f836147d3565b826001600160a01b03166352d1902d6040518163ffffffff1660e01b815260040160206040518083038186803b158015613bdf57600080fd5b505afa925050508015613c0f575060408051601f3d908101601f19168201909252613c0c918101906150b2565b60015b613c725760405162461bcd60e51b815260206004820152602e60248201527f45524331393637557067726164653a206e657720696d706c656d656e7461746960448201526d6f6e206973206e6f74205555505360901b6064820152608401610e6b565b600080516020615f6c8339815191528114613ce15760405162461bcd60e51b815260206004820152602960248201527f45524331393637557067726164653a20756e737570706f727465642070726f786044820152681a58589b195555525160ba1b6064820152608401610e6b565b50613b2f83838361486f565b806001600160a01b038116613d145760405162461bcd60e51b8152600401610e6b90615ae5565b600054604080516001600160a01b03928316815291841660208301527ff1253c5d33616f62c4ae5b08481b0df4900a6eb1391d7d96098bf578bb314c52910160405180910390a150600080546001600160a01b039092166001600160a01b0319928316811790915560188054909216179055565b806001600160a01b038116613daf5760405162461bcd60e51b8152600401610e6b90615ae5565b600254604080516001600160a01b03928316815291841660208301527fd52b2b9b7e9ee655fcb95d2e5b9e0c9f69e7ef2b8e9d2d0ea78402d576d22e22910160405180910390a150600280546001600160a01b039092166001600160a01b03199283168117909155601b8054909216179055565b6006548111613e6c5760405162461bcd60e51b81526020600482015260156024820152742637b1b5b2b9399d1036bab9ba1021a9101f10262960591b6044820152606401610e6b565b60055460408051918252602082018390527f1e29d1b5c8926360f3ac632d884775772b07f31fec4077d433e58ce823f91347910160405180910390a16005819055601e55565b613eba614894565b60eb805460ff191690557f5db9ee0a495bf2e6ff9c91a7834c1ba4fdd244a5e8aa4e537bd38aeae4b073aa335b6040516001600160a01b03909116815260200160405180910390a1565b612710811115613f565760405162461bcd60e51b815260206004820152601b60248201527f4c6f636b6572733a20696e76616c6964206c6f636b65722066656500000000006044820152606401610e6b565b60045460408051918252602082018390527f44c6802691f6adea249930369a511db979a5e9a3603bdb37ceee1036da80e980910160405180910390a16004819055601d55565b608780546001600160a01b031916905561134e816148dd565b602254610100900460ff16613fdc5760405162461bcd60e51b8152600401610e6b90615b1c565b61222a61492f565b602254610100900460ff1661400b5760405162461bcd60e51b8152600401610e6b90615b1c565b61222a61495f565b602254610100900460ff1661403a5760405162461bcd60e51b8152600401610e6b90615b1c565b61222a614986565b602254610100900460ff1661222a5760405162461bcd60e51b8152600401610e6b90615b1c565b80600554116140b25760405162461bcd60e51b81526020600482015260156024820152742637b1b5b2b9399d1036bab9ba1021a9101f10262960591b6044820152606401610e6b565b60065460408051918252602082018390527f883242c2a857ca527a432dfca231b1e49233fde2a96802809a0f3866e9f19e13910160405180910390a16006819055601f55565b61271081111561411a5760405162461bcd60e51b8152600401610e6b90615a72565b60075460408051918252602082018390527f5e4dd01049cdfe5a081b404bff8e27de919fd9c8ae2145007e0921ec227f207a910160405180910390a16007819055602055565b6040516001600160a01b03808516602483015283166044820152606481018290526141cb9085906323b872dd60e01b906084015b60408051601f198184030181529190526020810180516001600160e01b03166001600160e01b0319909316929092179091526149b9565b50505050565b80158061425a5750604051636eb1769f60e11b81523060048201526001600160a01b03838116602483015284169063dd62ed3e9060440160206040518083038186803b15801561422057600080fd5b505afa158015614234573d6000803e3d6000fd5b505050506040513d601f19601f8201168201806040525081019061425891906150b2565b155b6142c55760405162461bcd60e51b815260206004820152603660248201527f5361666545524332303a20617070726f76652066726f6d206e6f6e2d7a65726f60448201527520746f206e6f6e2d7a65726f20616c6c6f77616e636560501b6064820152608401610e6b565b6040516001600160a01b038316602482015260448101829052613b2f90849063095ea7b360e01b90606401614194565b6127108111156143175760405162461bcd60e51b8152600401610e6b90615a72565b60085460408051918252602082018390527f38c2a2bc8aa6ec8cff42ba0a8b737fa98bed6ae113936d79509d03f0134029f4910160405180910390a16008819055602155565b614365613acd565b60eb805460ff191660011790557f62e78cea01bee320cd4e420270b5ea74000d11b0c9f74754ebdbfc544b05a258613ee73390565b806001600160a01b0381166143c15760405162461bcd60e51b8152600401610e6b90615ae5565b600154604080516001600160a01b03928316815291841660208301527fd86d51326f3c88ea5365fba597a57273ae555e44f4b11658da952320d0beaa75910160405180910390a16001546040516001600160a01b03909116907f90eabbc0c667db2a5029ed6bc0f5fe9f356d11684a4ca9fcfaec0e53f12b9c8e90600090a2600180546001600160a01b03908116600090815260116020526040808220805460ff1916905583549286166001600160a01b0319938416811790945560198054909316841790925590517f86e57fd2b90329052917118de7c3f521f400d439b9650deaa906a25b08b945609190a25050600180546001600160a01b03166000908152601160205260409020805460ff19169091179055565b806001600160a01b0381166144ff5760405162461bcd60e51b8152600401610e6b90615ae5565b600354604080516001600160a01b03928316815291841660208301527ff70b901dcbac064cf4110833cb5adec074e667c8fa7447b3267a9818e1214dfc910160405180910390a150600380546001600160a01b039092166001600160a01b03199283168117909155601c8054909216179055565b604051631e674c6d60e21b815260009073__$c4b8709fc407821a47433b8892c1b612a0$__9063799d31b4906145b690600c90600f90600b908890600401615852565b60006040518083038186803b1580156145ce57600080fd5b505af41580156145e2573d6000803e3d6000fd5b505050506040513d6000823e601f3d908101601f1916820160405261460a919081019061528b565b90506001600a5461461b9190615ea5565b600a556101408101516060820151614634918491613b13565b816001600160a01b03167f8295084aee74b95a5495daabd14fbf1aa72875c5e8fe52b204fbacabf9a85b288260000151836060015184610140015160405161467e93929190615715565b60405180910390a25050565b804710156146da5760405162461bcd60e51b815260206004820152601d60248201527f416464726573733a20696e73756666696369656e742062616c616e63650000006044820152606401610e6b565b6000826001600160a01b03168260405160006040518083038185875af1925050503d8060008114614727576040519150601f19603f3d011682016040523d82523d6000602084013e61472c565b606091505b5050905080613b2f5760405162461bcd60e51b815260206004820152603a60248201527f416464726573733a20756e61626c6520746f2073656e642076616c75652c207260448201527f6563697069656e74206d617920686176652072657665727465640000000000006064820152608401610e6b565b6040516001600160a01b038316602482015260448101829052613b2f90849063a9059cbb60e01b90606401614194565b6001600160a01b0381163b6148405760405162461bcd60e51b815260206004820152602d60248201527f455243313936373a206e657720696d706c656d656e746174696f6e206973206e60448201526c1bdd08184818dbdb9d1c9858dd609a1b6064820152608401610e6b565b600080516020615f6c83398151915280546001600160a01b0319166001600160a01b0392909216919091179055565b61487883614a8e565b6000825111806148855750805b15613b2f576141cb8383614ace565b60eb5460ff1661222a5760405162461bcd60e51b815260206004820152601460248201527314185d5cd8589b194e881b9bdd081c185d5cd95960621b6044820152606401610e6b565b605580546001600160a01b038381166001600160a01b0319831681179093556040519116919082907f8be0079c531659141344cd1fd0a4f28419497f9722a3daafe3b4186f6b6457e090600090a35050565b602254610100900460ff166149565760405162461bcd60e51b8152600401610e6b90615b1c565b61222a33613f9c565b602254610100900460ff16613b485760405162461bcd60e51b8152600401610e6b90615b1c565b602254610100900460ff166149ad5760405162461bcd60e51b8152600401610e6b90615b1c565b60eb805460ff19169055565b6000614a0e826040518060400160405280602081526020017f5361666545524332303a206c6f772d6c6576656c2063616c6c206661696c6564815250856001600160a01b0316614bb99092919063ffffffff16565b9050805160001480614a2f575080806020019051810190614a2f9190615098565b613b2f5760405162461bcd60e51b815260206004820152602a60248201527f5361666545524332303a204552433230206f7065726174696f6e20646964206e6044820152691bdd081cdd58d8d9595960b21b6064820152608401610e6b565b614a97816147d3565b6040516001600160a01b038216907fbc7cd75a20ee27fd9adebab32041f755214dbc6bffa90cc0225b39da2e5c2d3b90600090a250565b60606001600160a01b0383163b614b365760405162461bcd60e51b815260206004820152602660248201527f416464726573733a2064656c65676174652063616c6c20746f206e6f6e2d636f6044820152651b9d1c9858dd60d21b6064820152608401610e6b565b600080846001600160a01b031684604051614b5191906155b7565b600060405180830381855af49150503d8060008114614b8c576040519150601f19603f3d011682016040523d82523d6000602084013e614b91565b606091505b50915091506110d38282604051806060016040528060278152602001615f8c60279139614bc8565b606061367c8484600085614be1565b60608315614bd7575081611ffd565b611ffd8383614cb1565b606082471015614c425760405162461bcd60e51b815260206004820152602660248201527f416464726573733a20696e73756666696369656e742062616c616e636520666f6044820152651c8818d85b1b60d21b6064820152608401610e6b565b600080866001600160a01b03168587604051614c5e91906155b7565b60006040518083038185875af1925050503d8060008114614c9b576040519150601f19603f3d011682016040523d82523d6000602084013e614ca0565b606091505b509150915061240487838387614cdb565b815115614cc15781518083602001fd5b8060405162461bcd60e51b8152600401610e6b9190615677565b60608315614d47578251614d40576001600160a01b0385163b614d405760405162461bcd60e51b815260206004820152601d60248201527f416464726573733a2063616c6c20746f206e6f6e2d636f6e74726163740000006044820152606401610e6b565b508161367c565b61367c8383614cb1565b805161128381615f49565b8051801515811461128357600080fd5b60008083601f840112614d7d578182fd5b50813567ffffffffffffffff811115614d94578182fd5b602083019150836020828501011115614dac57600080fd5b9250929050565b600082601f830112614dc3578081fd5b8135614dd6614dd182615e26565b615df5565b818152846020838601011115614dea578283fd5b816020850160208301379081016020019190915292915050565b600082601f830112614e14578081fd5b8151614e22614dd182615e26565b818152846020838601011115614e36578283fd5b61367c826020830160208701615ebc565b805161128381615f5e565b600060208284031215614e63578081fd5b8135611ffd81615f49565b60008060008060008060c08789031215614e86578182fd5b8635614e9181615f49565b95506020870135614ea181615f49565b95989597505050506040840135936060810135936080820135935060a0909101359150565b60008060408385031215614ed8578182fd5b8235614ee381615f49565b9150602083013567ffffffffffffffff811115614efe578182fd5b614f0a85828601614db3565b9150509250929050565b60008060408385031215614f26578182fd5b8235614f3181615f49565b946020939093013593505050565b60008060008060808587031215614f54578384fd5b8435614f5f81615f49565b9350602085013592506040850135614f7681615f49565b9396929550929360600135925050565b600080600080600060a08688031215614f9d578283fd5b8535614fa881615f49565b9450602086013593506040860135614fbf81615f49565b9250606086013591506080860135614fd681615f49565b809150509295509295909350565b60006020808385031215614ff6578182fd5b823567ffffffffffffffff8082111561500d578384fd5b818501915085601f830112615020578384fd5b81358181111561503257615032615f33565b8060051b9150615043848301615df5565b8181528481019084860184860187018a101561505d578788fd5b8795505b8386101561508b578035945061507685615f49565b84835260019590950194918601918601615061565b5098975050505050505050565b6000602082840312156150a9578081fd5b611ffd82614d5c565b6000602082840312156150c3578081fd5b5051919050565b600080602083850312156150dc578182fd5b823567ffffffffffffffff8111156150f2578283fd5b6150fe85828601614d6c565b90969095509350505050565b600080600080600060808688031215615121578283fd5b853567ffffffffffffffff811115615137578384fd5b61514388828901614d6c565b909650945050602086013561515781615f49565b94979396509394604081013594506060013592915050565b600080600060408486031215615183578081fd5b833567ffffffffffffffff811115615199578182fd5b6151a586828701614d6c565b909790965060209590950135949350505050565b600080600080600080600060a0888a0312156151d3578485fd5b873567ffffffffffffffff808211156151ea578687fd5b6151f68b838c01614d6c565b909950975060208a0135965060408a0135915061521282615f5e565b90945060608901359080821115615227578283fd5b506152348a828b01614d6c565b909450925050608088013561524881615f49565b8091505092959891949750929550565b600060208284031215615269578081fd5b813567ffffffffffffffff81111561527f578182fd5b61367c84828501614db3565b60006020828403121561529c578081fd5b815167ffffffffffffffff808211156152b3578283fd5b9083019061018082860312156152c7578283fd5b6152cf615dcb565b8251828111156152dd578485fd5b6152e987828601614e04565b8252506152f860208401614e47565b602082015260408301518281111561530e578485fd5b61531a87828601614e04565b604083015250606083015160608201526080830151608082015260a083015160a082015260c083015160c082015261535460e08401614d5c565b60e08201526101009150615369828401614d5c565b82820152610120915061537d828401614d5c565b828201526101409150615391828401614d51565b9181019190915261016091820151918101919091529392505050565b6000602082840312156153be578081fd5b5035919050565b600080604083850312156153d7578182fd5b505080516020909101519092909150565b81835281816020850137506000828201602090810191909152601f909101601f19169091010190565b60008151808452615429816020860160208601615ebc565b601f01601f19169290920160200192915050565b6000815461544a81615ee8565b808552602060018381168015615467576001811461547b576154a9565b60ff198516888401526040880195506154a9565b866000528260002060005b858110156154a15781548a8201860152908301908401615486565b890184019650505b505050505092915050565b600681106154d257634e487b7160e01b600052602160045260246000fd5b9052565b8054825260018101546020830152600281015460408301526003810154606083015260048101546080830152600501546001600160a01b031660a090910152565b6155398261552c83546001600160a01b031690565b6001600160a01b03169052565b60018101546001600160a01b0390811660208401526002820154811660408401526003820154811660608401526004820154166080830152600581015460a0830152600681015460c0830152600781015460e083015260088101546101008301526009015461012090910152565b8183823760009101908152919050565b600082516155c9818460208701615ebc565b9190910192915050565b60008083546155e181615ee8565b600182811680156155f9576001811461560a57615636565b60ff19841687528287019450615636565b8786526020808720875b8581101561562d5781548a820152908401908201615614565b50505082870194505b50929695505050505050565b6060815260006156566060830186886153e8565b6020830194909452506001600160a01b039190911660409091015292915050565b602081526000611ffd6020830184615411565b6101808152600061569f61018083018f615411565b6156ac602084018f6154b4565b82810360408401526156be818e615411565b606084019c909c525050608081019890985260a088019690965260c087019490945291151560e0860152151561010085015215156101208401526001600160a01b0316610140830152610160909101529392505050565b6060815260006157286060830186615411565b6020830194909452506001600160a01b0391909116604090910152919050565b60808152600061575b608083018761543d565b60208301959095525060408101929092526001600160a01b0316606090910152919050565b88815260c06020820152600061579a60c08301898b6153e8565b8760408401526157ad60608401886154b4565b82810360808401526157c08186886153e8565b91505060018060a01b03831660a08301529998505050505050505050565b600060c082018883526020888185015287604085015286606085015260c0608085015281865180845260e0860191508288019350845b818110156158395784516001600160a01b031683529383019391830191600101615814565b50508093505050508260a0830152979650505050505050565b938452602084019290925260408301526001600160a01b0316606082015260800190565b868152610280810161588b60208301886154d6565b61589860e0830187615517565b6001600160a01b039485166102208301526102408201939093529216610260909201919091529392505050565b60208082526023908201527f4c6f636b6572733a206163636f756e7420646f6573206e6f74206861766520726040820152626f6c6560e81b606082015260800190565b6020808252602c908201527f46756e6374696f6e206d7573742062652063616c6c6564207468726f7567682060408201526b19195b1959d85d1958d85b1b60a21b606082015260800190565b60208082526025908201527f4c6f636b6572733a206d6573736167652073656e646572206973206e6f74206360408201526431a13ab93760d91b606082015260800190565b6020808252602c908201527f46756e6374696f6e206d7573742062652063616c6c6564207468726f7567682060408201526b6163746976652070726f787960a01b606082015260800190565b60208082526021908201527f4c6f636b6572733a206163636f756e7420616c72656164792068617320726f6c6040820152606560f81b606082015260800190565b6020808252602c908201527f4c6f636b6572733a20696e7075742061646472657373206973206e6f7420612060408201526b3b30b634b2103637b1b5b2b960a11b606082015260800190565b60208082526023908201527f4c6f636b6572733a206c657373207468616e206f7220657175616c20746f203160408201526230302560e81b606082015260800190565b6020808252601690820152754c6f636b6572733a2076616c7565206973207a65726f60501b604082015260600190565b60208082526018908201527f4c6f636b6572733a2061646472657373206973207a65726f0000000000000000604082015260600190565b6020808252602b908201527f496e697469616c697a61626c653a20636f6e7472616374206973206e6f74206960408201526a6e697469616c697a696e6760a81b606082015260800190565b602081526000610180806020840152615b846101a084018561543d565b600185015460ff16615b9960408601826154b4565b50838103601f19016060850152615bb3816002870161543d565b905060038501546080850152600485015460a0850152600585015460c0850152600685015460e08501526007850154615bf4610100860160ff831615159052565b615c09610120860160ff8360081c1615159052565b615c1e610140860160ff8360101c1615159052565b60181c6001600160a01b0316610160850152600894909401549201919091525090565b8381526102208101615c5660208301856154d6565b61367c60e0830184615517565b8481526102408101615c7860208301866154d6565b615c8560e0830185615517565b8261022083015295945050505050565b8581526102608101615caa60208301876154d6565b615cb760e0830186615517565b61022082019390935261024001529392505050565b8381526101008101615ce160208301856154d6565b8260e0830152949350505050565b8281526101608101611ffd6020830184615517565b8481526101a08101615d196020830186615517565b610160820193909352610180015292915050565b6102408101615d3c82876154d6565b615d4960c0830186615517565b6102008201939093526001600160a01b03919091166102209091015292915050565b6101608101615d7a8285615517565b6001600160a01b03929092166101409190910152919050565b848152608060208201526000615dac608083018661543d565b615db960408401866154b4565b8281036060840152612404818561543d565b604051610180810167ffffffffffffffff81118282101715615def57615def615f33565b60405290565b604051601f8201601f1916810167ffffffffffffffff81118282101715615e1e57615e1e615f33565b604052919050565b600067ffffffffffffffff821115615e4057615e40615f33565b50601f01601f191660200190565b60008219821115615e6157615e61615f1d565b500190565b600082615e8157634e487b7160e01b81526012600452602481fd5b500490565b6000816000190483118215151615615ea057615ea0615f1d565b500290565b600082821015615eb757615eb7615f1d565b500390565b60005b83811015615ed7578181015183820152602001615ebf565b838111156141cb5750506000910152565b600181811c90821680615efc57607f821691505b602082108114156117d057634e487b7160e01b600052602260045260246000fd5b634e487b7160e01b600052601160045260246000fd5b634e487b7160e01b600052604160045260246000fd5b6001600160a01b038116811461134e57600080fd5b6006811061134e57600080fdfe360894a13ba1a3210667c828492db98dca3e2076cc3735a920a3ca505d382bbc416464726573733a206c6f772d6c6576656c2064656c65676174652063616c6c206661696c6564a2646970667358221220ca59358e7d15d9cec9a24af48a66b927fcc13feef0f8e967c72e4ff29392a77464736f6c63430008040033",
  "libraries": {
    "LockersLib": "0x8F7E74bC8f1B985D5CD9A8C2189aF7802666a1c1"
  },
  "devdoc": {
    "kind": "dev",
    "methods": {
      "acceptOwnership()": {
        "details": "The new owner accepts the ownership transfer."
      },
      "addBurner(address)": {
        "details": "Give an account access to burn."
      },
      "addCollateral(address,uint256)": {
        "params": {
          "_addingCollateralAmount": "Amount of added collateral",
          "_lockerTargetAddress": "Locker's target chain address"
        },
        "returns": {
          "_0": "True if collateral is added successfully"
        }
      },
      "addLocker(address)": {
        "details": "Only owner can call this                                       When a candidate becomes locker, isCandidate is set to false",
        "params": {
          "_lockerTargetAddress": "Locker's target chain address"
        },
        "returns": {
          "_0": "True if candidate is added successfully"
        }
      },
      "addMinter(address)": {
        "details": "Give an account access to mint."
      },
      "burn(bytes,uint256)": {
        "details": "Burn coreBTC and also get the locker's fee",
        "params": {
          "_amount": "Amount of the coreBTC which is minted, including the locker's fee",
          "_lockerLockingScript": "Locking script of a locker"
        },
        "returns": {
          "_0": "uint                  The amount of coreBTC burnt"
        }
      },
      "buySlashedCollateralOfLocker(address,uint256)": {
        "details": "Users buy the slashed collateral using CoreBTC with discount                                   The paid CoreBTC will be burnt to keep the system safe                                   If all the needed CoreBTC is collected and burnt,                                   the rest of slashed collateral is sent back to locker",
        "params": {
          "_collateralAmount": "Amount of collateral that someone intends to buy with discount",
          "_lockerTargetAddress": "Locker's target chain address"
        },
        "returns": {
          "_0": "True if buying was successful"
        }
      },
      "getHealthFactor(address)": {
        "details": "The health factor is equal to current collateral asset value divided by the minimum collateral asset value to trigger liquidation,                                     the minimum collateral asset value to trigger liquidation is equal to the current locked asset value multiplied by the liquidation ratio",
        "params": {
          "_lockerTargetAddress": "Address of locker on the target chain"
        },
        "returns": {
          "_0": "The health factor of the locker"
        }
      },
      "getLockerCapacity(address)": {
        "details": "Net minted amount is total minted minus total burnt for the locker",
        "params": {
          "_lockerTargetAddress": "Address of locker on the target chain"
        },
        "returns": {
          "_0": "The net minted of the locker"
        }
      },
      "getLockerLockingScript(address)": {
        "params": {
          "_lockerTargetAddress": "Address of locker on the target chain"
        },
        "returns": {
          "_0": "Bitcoin public key of locker"
        }
      },
      "getMaximumBuyableCollateral(address)": {
        "params": {
          "_lockerTargetAddress": "Address of locker on the target chain"
        },
        "returns": {
          "_0": "The maximum buyable collateral amount of the locker"
        }
      },
      "getNeededCoreBTCToBuyCollateral(address,uint256)": {
        "params": {
          "_collateralAmount": "Amount of collateral that someone intends to buy with discount",
          "_lockerTargetAddress": "Address of locker on the target chain"
        },
        "returns": {
          "_0": "The amount of coreBTC"
        }
      },
      "initForMultipleCollateralsFeature(address[])": {
        "details": "The function can only be called when the logic contract is upgraded to feature `multiple collaterals`                             Only current owner can invoke it through a delegated call",
        "params": {
          "_initialCandidates": "The target address list of candidate lockers"
        }
      },
      "isBurner(address)": {
        "params": {
          "account": "The account which intended to be checked"
        },
        "returns": {
          "_0": "bool"
        }
      },
      "isCollateralUnused(address)": {
        "params": {
          "_token": "Address of collateral"
        },
        "returns": {
          "_0": "True if collateral is unused"
        }
      },
      "isLocker(bytes)": {
        "params": {
          "_lockerLockingScript": "Locking script of locker on the target chain"
        },
        "returns": {
          "_0": "True if a locking script is locker"
        }
      },
      "isLockerActive(address)": {
        "details": "We check a locker status in below cases:                                     1. Minting CoreBTC                                     2. Removing locker's collateral                                     3. Removing locker",
        "params": {
          "_lockerTargetAddress": "Address of locker on the target chain"
        },
        "returns": {
          "_0": "True if the locker is active"
        }
      },
      "isMinter(address)": {
        "params": {
          "account": "The account which intended to be checked"
        },
        "returns": {
          "_0": "bool"
        }
      },
      "liquidateLocker(address,uint256)": {
        "details": "Anyone can liquidate a locker whose health factor                                   is less than 10000 (100%) by providing a sufficient amount of coreBTC",
        "params": {
          "_collateralAmount": "Amount of collateral that someone intends to buy with discount",
          "_lockerTargetAddress": "Locker's target chain address"
        },
        "returns": {
          "_0": "True if liquidation was successful"
        }
      },
      "mint(bytes,address,bytes32,uint256)": {
        "details": "Mint coreBTC for an account and the locker fee as well",
        "params": {
          "_amount": "Amount of the coreBTC which is minted, including the locker's fee",
          "_lockerLockingScript": "Locking script of a locker",
          "_receiver": "Address of the receiver of the minted coreBTCs",
          "_txId": "The id of bitcoin transaction"
        },
        "returns": {
          "_0": "uint                  The amount of coreBTC minted for the receiver"
        }
      },
      "owner()": {
        "details": "Returns the address of the current owner."
      },
      "pauseLocker()": {
        "details": "Only owner can pause"
      },
      "paused()": {
        "details": "Returns true if the contract is paused, and false otherwise."
      },
      "pendingOwner()": {
        "details": "Returns the address of the pending owner."
      },
      "priceOfOneUnitOfCollateralInBTC(address)": {
        "details": "Returns the price of one collateral token (1*10^18) in coreBTC",
        "params": {
          "_collateralToken": "The address of collateral token"
        },
        "returns": {
          "_0": "uint The price of one unit of collateral token"
        }
      },
      "proxiableUUID()": {
        "details": "Implementation of the ERC1822 {proxiableUUID} function. This returns the storage slot used by the implementation. It is used to validate the implementation's compatibility when performing an upgrade. IMPORTANT: A proxy pointing at a proxiable contract should not be considered proxiable itself, because this risks bricking a proxy that upgrades to it, by delegating to itself until out of gas. Thus it is critical that this function revert if invoked through a proxy. This is guaranteed by the `notDelegated` modifier."
      },
      "removeBurner(address)": {
        "details": "Remove an account's access to burn."
      },
      "removeCollateral(uint256)": {
        "params": {
          "_removingCollateralAmount": "Amount of removed collateral"
        },
        "returns": {
          "_0": "True if collateral is removed successfully"
        }
      },
      "removeMinter(address)": {
        "details": "Remove an account's access to mint."
      },
      "renounceOwnership()": {
        "details": "Leaves the contract without owner. It will not be possible to call `onlyOwner` functions anymore. Can only be called by the current owner. NOTE: Renouncing ownership will leave the contract without an owner, thereby removing any functionality that is only available to the owner."
      },
      "requestActivation()": {
        "details": "Activates the locker so users can mint by this locker                        note: inactivationTimestamp == 0 means that the locker is active",
        "returns": {
          "_0": "True if activated successfully"
        }
      },
      "requestInactivation()": {
        "details": "Deactivates the locker so that no one can mint by this locker:                        1. Locker can be removed after inactivation                        2. Locker can withdraw extra collateral after inactivation",
        "returns": {
          "_0": "True if deactivated successfully"
        }
      },
      "requestToBecomeLocker(bytes,uint256,uint8,bytes,address)": {
        "details": "Users mint CoreBTC by sending BTC to locker's locking script                                         In case of liquidation of locker's bond, the burn CoreBTC is sent to                                         locker's rescue script                                         A user should lock enough collateral token to become candidate",
        "params": {
          "_candidateLockingScript": "Locking script of the candidate",
          "_lockedAmount": "Bond amount of locker",
          "_lockedToken": "Address of locked token",
          "_lockerRescueScript": "Rescue script of the locker",
          "_lockerRescueType": "Type of locker's rescue script (e.g. P2SH)"
        },
        "returns": {
          "_0": "True if candidate is added successfully"
        }
      },
      "revokeRequest()": {
        "details": "A user who is still a candidate can revoke his/her request",
        "returns": {
          "_0": "True if candidate is removed successfully"
        }
      },
      "selfRemoveLocker()": {
        "details": "Only locker can call this function",
        "returns": {
          "_0": "True if locker is removed successfully"
        }
      },
      "setCCBurnRouter(address)": {
        "details": "Only current owner can call this",
        "params": {
          "_ccBurnRouter": "The new cc burn router contract address"
        }
      },
      "setCollateralRatio(uint256)": {
        "details": "Only owner can call this",
        "params": {
          "_collateralRatio": "The new collateral ratio"
        }
      },
      "setCollaterals(address)": {
        "details": "Only owner can call this",
        "params": {
          "_collaterals": "The address of collaterals contract"
        }
      },
      "setCoreBTC(address)": {
        "details": "Only owner can call this",
        "params": {
          "_coreBTC": "The new wrapped token contract address"
        }
      },
      "setLiquidationRatio(uint256)": {
        "details": "Only owner can call this",
        "params": {
          "_liquidationRatio": "The new liquidation ratio"
        }
      },
      "setLockerPercentageFee(uint256)": {
        "details": "Only current owner can call this",
        "params": {
          "_lockerPercentageFee": "The new locker percentage fee"
        }
      },
      "setPriceOracle(address)": {
        "details": "Only current owner can call this",
        "params": {
          "_priceOracle": "The new price oracle"
        }
      },
      "setPriceWithDiscountRatio(uint256)": {
        "details": "Only current owner can call this",
        "params": {
          "_priceWithDiscountRatio": "The new price with discount ratio"
        }
      },
      "setSlashCompensationRatio(uint256)": {
        "details": "Only owner can call this",
        "params": {
          "_slashCompensationRatio": "The new slash compensation ratio"
        }
      },
      "slashIdleLocker(address,uint256,address,uint256,address)": {
        "details": "Only cc burn router can call this                                   Locker is slashed since doesn't provide burn proof                                   before a cc burn request deadline.                                   User who made the cc burn request will receive the slashed bond",
        "params": {
          "_amount": "Amount of CoreBTC that is slashed from lockers",
          "_lockerTargetAddress": "Locker's target chain address",
          "_recipient": "Address of user who receives the slashed amount",
          "_rewardAmount": "Amount of CoreBTC that slasher receives",
          "_rewardRecipient": "Address of slasher who receives reward"
        },
        "returns": {
          "_0": "True if the locker is slashed successfully"
        }
      },
      "slashThiefLocker(address,uint256,address,uint256)": {
        "details": "Only cc burn router can call this                                   Locker is slashed because he/she moved BTC from                                   locker's Bitcoin address without any corresponding burn req                                   The slashed bond will be sold with discount",
        "params": {
          "_amount": "Value of slashed collateral (in CoreBTC)",
          "_lockerTargetAddress": "Locker's target chain address",
          "_rewardAmount": "Value of slashed reward (in CoreBTC)",
          "_rewardRecipient": "Address of slasher who receives reward"
        },
        "returns": {
          "_0": "True if the locker is slashed successfully"
        }
      },
      "transferOwnership(address)": {
        "details": "Starts the ownership transfer of the contract to a new account. Replaces the pending transfer if there is one. Can only be called by the current owner."
      },
      "unPauseLocker()": {
        "details": "Only owner can pause"
      },
      "upgradeTo(address)": {
        "details": "Upgrade the implementation of the proxy to `newImplementation`. Calls {_authorizeUpgrade}. Emits an {Upgraded} event."
      },
      "upgradeToAndCall(address,bytes)": {
        "details": "Upgrade the implementation of the proxy to `newImplementation`, and subsequently execute the function call encoded in `data`. Calls {_authorizeUpgrade}. Emits an {Upgraded} event."
      }
    },
    "version": 1
  },
  "userdoc": {
    "kind": "user",
    "methods": {
      "addCollateral(address,uint256)": {
        "notice": "Increases collateral of the locker"
      },
      "addLocker(address)": {
        "notice": "Approves a candidate request to become locker"
      },
      "burn(bytes,uint256)": {
        "notice": "Burn coreBTC of an account"
      },
      "buySlashedCollateralOfLocker(address,uint256)": {
        "notice": "Sells lockers slashed collateral"
      },
      "getHealthFactor(address)": {
        "notice": "Get health factor of the locker"
      },
      "getLockerCapacity(address)": {
        "notice": "Get how much the locker can mint"
      },
      "getLockerLockingScript(address)": {
        "notice": "Give Bitcoin public key of locker"
      },
      "getMaximumBuyableCollateral(address)": {
        "notice": "Get maximum buyable collateral amount of the locker"
      },
      "getNeededCoreBTCToBuyCollateral(address,uint256)": {
        "notice": "Get how much coreBTC needed for buying the collateral"
      },
      "initForMultipleCollateralsFeature(address[])": {
        "notice": "Init candidate locker list and lockers lockedToken"
      },
      "isBurner(address)": {
        "notice": "Check if an account is burner"
      },
      "isCollateralUnused(address)": {
        "notice": "Checks whether a token is used as collateral by locker"
      },
      "isLocker(bytes)": {
        "notice": "Checks whether a locking script is locker"
      },
      "isLockerActive(address)": {
        "notice": "Returns the Locker status"
      },
      "isMinter(address)": {
        "notice": "Check if an account is minter"
      },
      "liquidateLocker(address,uint256)": {
        "notice": "Liquidates the locker whose collateral is unhealthy"
      },
      "mint(bytes,address,bytes32,uint256)": {
        "notice": "Mint coreBTC for an account"
      },
      "pauseLocker()": {
        "notice": "Pause the locker, so only the functions can be called which are whenPaused"
      },
      "removeCollateral(uint256)": {
        "notice": "Decreases collateral of the locker"
      },
      "requestActivation()": {
        "notice": "Requests to activate a locker"
      },
      "requestInactivation()": {
        "notice": "Requests to inactivate a locker"
      },
      "requestToBecomeLocker(bytes,uint256,uint8,bytes,address)": {
        "notice": "Adds user to candidates list"
      },
      "revokeRequest()": {
        "notice": "Removes a candidate from candidates list"
      },
      "selfRemoveLocker()": {
        "notice": "Removes a locker from lockers list"
      },
      "setCCBurnRouter(address)": {
        "notice": "Changes cc burn router contract"
      },
      "setCollateralRatio(uint256)": {
        "notice": "Changes collateral ratio"
      },
      "setCollaterals(address)": {
        "notice": "Changes collaterals contract address"
      },
      "setCoreBTC(address)": {
        "notice": "Changes wrapped token contract address"
      },
      "setLiquidationRatio(uint256)": {
        "notice": "Changes liquidation ratio"
      },
      "setLockerPercentageFee(uint256)": {
        "notice": "Changes percentage fee of locker"
      },
      "setPriceOracle(address)": {
        "notice": "Changes the price oracle"
      },
      "setPriceWithDiscountRatio(uint256)": {
        "notice": "Changes price with discount ratio"
      },
      "setSlashCompensationRatio(uint256)": {
        "notice": "Changes slash compensation ratio"
      },
      "slashIdleLocker(address,uint256,address,uint256,address)": {
        "notice": "Slashes lockers for not executing a cc burn req"
      },
      "slashThiefLocker(address,uint256,address,uint256)": {
        "notice": "Slashes lockers for moving BTC without a good reason"
      },
      "unPauseLocker()": {
        "notice": "Un-pause the locker, so only the functions can be called which are whenNotPaused"
      }
    },
    "version": 1
  },
  "storageLayout": {
    "storage": [
      {
        "astId": 17763,
        "contract": "contracts/lockers/LockersLogic.sol:LockersLogic",
        "label": "coreBTC",
        "offset": 0,
        "slot": "0",
        "type": "t_address"
      },
      {
        "astId": 17766,
        "contract": "contracts/lockers/LockersLogic.sol:LockersLogic",
        "label": "ccBurnRouter",
        "offset": 0,
        "slot": "1",
        "type": "t_address"
      },
      {
        "astId": 17769,
        "contract": "contracts/lockers/LockersLogic.sol:LockersLogic",
        "label": "priceOracle",
        "offset": 0,
        "slot": "2",
        "type": "t_address"
      },
      {
        "astId": 17772,
        "contract": "contracts/lockers/LockersLogic.sol:LockersLogic",
        "label": "collaterals",
        "offset": 0,
        "slot": "3",
        "type": "t_address"
      },
      {
        "astId": 17775,
        "contract": "contracts/lockers/LockersLogic.sol:LockersLogic",
        "label": "lockerPercentageFee",
        "offset": 0,
        "slot": "4",
        "type": "t_uint256"
      },
      {
        "astId": 17778,
        "contract": "contracts/lockers/LockersLogic.sol:LockersLogic",
        "label": "collateralRatio",
        "offset": 0,
        "slot": "5",
        "type": "t_uint256"
      },
      {
        "astId": 17781,
        "contract": "contracts/lockers/LockersLogic.sol:LockersLogic",
        "label": "liquidationRatio",
        "offset": 0,
        "slot": "6",
        "type": "t_uint256"
      },
      {
        "astId": 17784,
        "contract": "contracts/lockers/LockersLogic.sol:LockersLogic",
        "label": "priceWithDiscountRatio",
        "offset": 0,
        "slot": "7",
        "type": "t_uint256"
      },
      {
        "astId": 17787,
        "contract": "contracts/lockers/LockersLogic.sol:LockersLogic",
        "label": "slashCompensationRatio",
        "offset": 0,
        "slot": "8",
        "type": "t_uint256"
      },
      {
        "astId": 17790,
        "contract": "contracts/lockers/LockersLogic.sol:LockersLogic",
        "label": "totalNumberOfCandidates",
        "offset": 0,
        "slot": "9",
        "type": "t_uint256"
      },
      {
        "astId": 17793,
        "contract": "contracts/lockers/LockersLogic.sol:LockersLogic",
        "label": "totalNumberOfLockers",
        "offset": 0,
        "slot": "10",
        "type": "t_uint256"
      },
      {
        "astId": 17797,
        "contract": "contracts/lockers/LockersLogic.sol:LockersLogic",
        "label": "approvedLockers",
        "offset": 0,
        "slot": "11",
        "type": "t_array(t_address)dyn_storage"
      },
      {
        "astId": 17802,
        "contract": "contracts/lockers/LockersLogic.sol:LockersLogic",
        "label": "lockersMapping",
        "offset": 0,
        "slot": "12",
        "type": "t_mapping(t_address,t_struct(locker)23894_storage)"
      },
      {
        "astId": 17806,
        "contract": "contracts/lockers/LockersLogic.sol:LockersLogic",
        "label": "lockerInactivationTimestamp",
        "offset": 0,
        "slot": "13",
        "type": "t_mapping(t_address,t_uint256)"
      },
      {
        "astId": 17810,
        "contract": "contracts/lockers/LockersLogic.sol:LockersLogic",
        "label": "lockerLeavingAcceptance",
        "offset": 0,
        "slot": "14",
        "type": "t_mapping(t_address,t_bool)"
      },
      {
        "astId": 17814,
        "contract": "contracts/lockers/LockersLogic.sol:LockersLogic",
        "label": "lockerTargetAddress",
        "offset": 0,
        "slot": "15",
        "type": "t_mapping(t_bytes_memory_ptr,t_address)"
      },
      {
        "astId": 17818,
        "contract": "contracts/lockers/LockersLogic.sol:LockersLogic",
        "label": "minters",
        "offset": 0,
        "slot": "16",
        "type": "t_mapping(t_address,t_bool)"
      },
      {
        "astId": 17822,
        "contract": "contracts/lockers/LockersLogic.sol:LockersLogic",
        "label": "burners",
        "offset": 0,
        "slot": "17",
        "type": "t_mapping(t_address,t_bool)"
      },
      {
        "astId": 17825,
        "contract": "contracts/lockers/LockersLogic.sol:LockersLogic",
        "label": "libConstants",
        "offset": 0,
        "slot": "18",
        "type": "t_struct(lockersLibConstants)23907_storage"
      },
      {
        "astId": 17828,
        "contract": "contracts/lockers/LockersLogic.sol:LockersLogic",
        "label": "libParams",
        "offset": 0,
        "slot": "24",
        "type": "t_struct(lockersLibParam)23928_storage"
      },
      {
        "astId": 633,
        "contract": "contracts/lockers/LockersLogic.sol:LockersLogic",
        "label": "_initialized",
        "offset": 0,
        "slot": "34",
        "type": "t_uint8"
      },
      {
        "astId": 636,
        "contract": "contracts/lockers/LockersLogic.sol:LockersLogic",
        "label": "_initializing",
        "offset": 1,
        "slot": "34",
        "type": "t_bool"
      },
      {
        "astId": 2171,
        "contract": "contracts/lockers/LockersLogic.sol:LockersLogic",
        "label": "__gap",
        "offset": 0,
        "slot": "35",
        "type": "t_array(t_uint256)50_storage"
      },
      {
        "astId": 116,
        "contract": "contracts/lockers/LockersLogic.sol:LockersLogic",
        "label": "_owner",
        "offset": 0,
        "slot": "85",
        "type": "t_address"
      },
      {
        "astId": 236,
        "contract": "contracts/lockers/LockersLogic.sol:LockersLogic",
        "label": "__gap",
        "offset": 0,
        "slot": "86",
        "type": "t_array(t_uint256)49_storage"
      },
      {
        "astId": 25,
        "contract": "contracts/lockers/LockersLogic.sol:LockersLogic",
        "label": "_pendingOwner",
        "offset": 0,
        "slot": "135",
        "type": "t_address"
      },
      {
        "astId": 104,
        "contract": "contracts/lockers/LockersLogic.sol:LockersLogic",
        "label": "__gap",
        "offset": 0,
        "slot": "136",
        "type": "t_array(t_uint256)49_storage"
      },
      {
        "astId": 1072,
        "contract": "contracts/lockers/LockersLogic.sol:LockersLogic",
        "label": "_status",
        "offset": 0,
        "slot": "185",
        "type": "t_uint256"
      },
      {
        "astId": 1130,
        "contract": "contracts/lockers/LockersLogic.sol:LockersLogic",
        "label": "__gap",
        "offset": 0,
        "slot": "186",
        "type": "t_array(t_uint256)49_storage"
      },
      {
        "astId": 952,
        "contract": "contracts/lockers/LockersLogic.sol:LockersLogic",
        "label": "_paused",
        "offset": 0,
        "slot": "235",
        "type": "t_bool"
      },
      {
        "astId": 1057,
        "contract": "contracts/lockers/LockersLogic.sol:LockersLogic",
        "label": "__gap",
        "offset": 0,
        "slot": "236",
        "type": "t_array(t_uint256)49_storage"
      },
      {
        "astId": 615,
        "contract": "contracts/lockers/LockersLogic.sol:LockersLogic",
        "label": "__gap",
        "offset": 0,
        "slot": "285",
        "type": "t_array(t_uint256)50_storage"
      },
      {
        "astId": 930,
        "contract": "contracts/lockers/LockersLogic.sol:LockersLogic",
        "label": "__gap",
        "offset": 0,
        "slot": "335",
        "type": "t_array(t_uint256)50_storage"
      },
      {
        "astId": 15621,
        "contract": "contracts/lockers/LockersLogic.sol:LockersLogic",
        "label": "candidateLockers",
        "offset": 0,
        "slot": "385",
        "type": "t_array(t_address)dyn_storage"
      }
    ],
    "types": {
      "t_address": {
        "encoding": "inplace",
        "label": "address",
        "numberOfBytes": "20"
      },
      "t_array(t_address)dyn_storage": {
        "base": "t_address",
        "encoding": "dynamic_array",
        "label": "address[]",
        "numberOfBytes": "32"
      },
      "t_array(t_uint256)49_storage": {
        "base": "t_uint256",
        "encoding": "inplace",
        "label": "uint256[49]",
        "numberOfBytes": "1568"
      },
      "t_array(t_uint256)50_storage": {
        "base": "t_uint256",
        "encoding": "inplace",
        "label": "uint256[50]",
        "numberOfBytes": "1600"
      },
      "t_bool": {
        "encoding": "inplace",
        "label": "bool",
        "numberOfBytes": "1"
      },
      "t_bytes_memory_ptr": {
        "encoding": "bytes",
        "label": "bytes",
        "numberOfBytes": "32"
      },
      "t_bytes_storage": {
        "encoding": "bytes",
        "label": "bytes",
        "numberOfBytes": "32"
      },
      "t_enum(ScriptTypes)12047": {
        "encoding": "inplace",
        "label": "enum ScriptTypes",
        "numberOfBytes": "1"
      },
      "t_mapping(t_address,t_bool)": {
        "encoding": "mapping",
        "key": "t_address",
        "label": "mapping(address => bool)",
        "numberOfBytes": "32",
        "value": "t_bool"
      },
      "t_mapping(t_address,t_struct(locker)23894_storage)": {
        "encoding": "mapping",
        "key": "t_address",
        "label": "mapping(address => struct DataTypes.locker)",
        "numberOfBytes": "32",
        "value": "t_struct(locker)23894_storage"
      },
      "t_mapping(t_address,t_uint256)": {
        "encoding": "mapping",
        "key": "t_address",
        "label": "mapping(address => uint256)",
        "numberOfBytes": "32",
        "value": "t_uint256"
      },
      "t_mapping(t_bytes_memory_ptr,t_address)": {
        "encoding": "mapping",
        "key": "t_bytes_memory_ptr",
        "label": "mapping(bytes => address)",
        "numberOfBytes": "32",
        "value": "t_address"
      },
      "t_struct(locker)23894_storage": {
        "encoding": "inplace",
        "label": "struct DataTypes.locker",
        "members": [
          {
            "astId": 23870,
            "contract": "contracts/lockers/LockersLogic.sol:LockersLogic",
            "label": "lockerLockingScript",
            "offset": 0,
            "slot": "0",
            "type": "t_bytes_storage"
          },
          {
            "astId": 23873,
            "contract": "contracts/lockers/LockersLogic.sol:LockersLogic",
            "label": "lockerRescueType",
            "offset": 0,
            "slot": "1",
            "type": "t_enum(ScriptTypes)12047"
          },
          {
            "astId": 23875,
            "contract": "contracts/lockers/LockersLogic.sol:LockersLogic",
            "label": "lockerRescueScript",
            "offset": 0,
            "slot": "2",
            "type": "t_bytes_storage"
          },
          {
            "astId": 23877,
            "contract": "contracts/lockers/LockersLogic.sol:LockersLogic",
            "label": "lockedAmount",
            "offset": 0,
            "slot": "3",
            "type": "t_uint256"
          },
          {
            "astId": 23879,
            "contract": "contracts/lockers/LockersLogic.sol:LockersLogic",
            "label": "netMinted",
            "offset": 0,
            "slot": "4",
            "type": "t_uint256"
          },
          {
            "astId": 23881,
            "contract": "contracts/lockers/LockersLogic.sol:LockersLogic",
            "label": "slashingCoreBTCAmount",
            "offset": 0,
            "slot": "5",
            "type": "t_uint256"
          },
          {
            "astId": 23883,
            "contract": "contracts/lockers/LockersLogic.sol:LockersLogic",
            "label": "reservedTokenForSlash",
            "offset": 0,
            "slot": "6",
            "type": "t_uint256"
          },
          {
            "astId": 23885,
            "contract": "contracts/lockers/LockersLogic.sol:LockersLogic",
            "label": "isLocker",
            "offset": 0,
            "slot": "7",
            "type": "t_bool"
          },
          {
            "astId": 23887,
            "contract": "contracts/lockers/LockersLogic.sol:LockersLogic",
            "label": "isCandidate",
            "offset": 1,
            "slot": "7",
            "type": "t_bool"
          },
          {
            "astId": 23889,
            "contract": "contracts/lockers/LockersLogic.sol:LockersLogic",
            "label": "isScriptHash",
            "offset": 2,
            "slot": "7",
            "type": "t_bool"
          },
          {
            "astId": 23891,
            "contract": "contracts/lockers/LockersLogic.sol:LockersLogic",
            "label": "lockedToken",
            "offset": 3,
            "slot": "7",
            "type": "t_address"
          },
          {
            "astId": 23893,
            "contract": "contracts/lockers/LockersLogic.sol:LockersLogic",
            "label": "inactivationTimestamp",
            "offset": 0,
            "slot": "8",
            "type": "t_uint256"
          }
        ],
        "numberOfBytes": "288"
      },
      "t_struct(lockersLibConstants)23907_storage": {
        "encoding": "inplace",
        "label": "struct DataTypes.lockersLibConstants",
        "members": [
          {
            "astId": 23896,
            "contract": "contracts/lockers/LockersLogic.sol:LockersLogic",
            "label": "OneHundredPercent",
            "offset": 0,
            "slot": "0",
            "type": "t_uint256"
          },
          {
            "astId": 23898,
            "contract": "contracts/lockers/LockersLogic.sol:LockersLogic",
            "label": "HealthFactor",
            "offset": 0,
            "slot": "1",
            "type": "t_uint256"
          },
          {
            "astId": 23900,
            "contract": "contracts/lockers/LockersLogic.sol:LockersLogic",
            "label": "UpperHealthFactor",
            "offset": 0,
            "slot": "2",
            "type": "t_uint256"
          },
          {
            "astId": 23902,
            "contract": "contracts/lockers/LockersLogic.sol:LockersLogic",
            "label": "MaxLockerFee",
            "offset": 0,
            "slot": "3",
            "type": "t_uint256"
          },
          {
            "astId": 23904,
            "contract": "contracts/lockers/LockersLogic.sol:LockersLogic",
            "label": "NativeTokenDecimal",
            "offset": 0,
            "slot": "4",
            "type": "t_uint256"
          },
          {
            "astId": 23906,
            "contract": "contracts/lockers/LockersLogic.sol:LockersLogic",
            "label": "NativeToken",
            "offset": 0,
            "slot": "5",
            "type": "t_address"
          }
        ],
        "numberOfBytes": "192"
      },
      "t_struct(lockersLibParam)23928_storage": {
        "encoding": "inplace",
        "label": "struct DataTypes.lockersLibParam",
        "members": [
          {
            "astId": 23909,
            "contract": "contracts/lockers/LockersLogic.sol:LockersLogic",
            "label": "coreBTC",
            "offset": 0,
            "slot": "0",
            "type": "t_address"
          },
          {
            "astId": 23911,
            "contract": "contracts/lockers/LockersLogic.sol:LockersLogic",
            "label": "ccBurnRouter",
            "offset": 0,
            "slot": "1",
            "type": "t_address"
          },
          {
            "astId": 23913,
            "contract": "contracts/lockers/LockersLogic.sol:LockersLogic",
            "label": "exchangeConnector",
            "offset": 0,
            "slot": "2",
            "type": "t_address"
          },
          {
            "astId": 23915,
            "contract": "contracts/lockers/LockersLogic.sol:LockersLogic",
            "label": "priceOracle",
            "offset": 0,
            "slot": "3",
            "type": "t_address"
          },
          {
            "astId": 23917,
            "contract": "contracts/lockers/LockersLogic.sol:LockersLogic",
            "label": "collaterals",
            "offset": 0,
            "slot": "4",
            "type": "t_address"
          },
          {
            "astId": 23919,
            "contract": "contracts/lockers/LockersLogic.sol:LockersLogic",
            "label": "lockerPercentageFee",
            "offset": 0,
            "slot": "5",
            "type": "t_uint256"
          },
          {
            "astId": 23921,
            "contract": "contracts/lockers/LockersLogic.sol:LockersLogic",
            "label": "collateralRatio",
            "offset": 0,
            "slot": "6",
            "type": "t_uint256"
          },
          {
            "astId": 23923,
            "contract": "contracts/lockers/LockersLogic.sol:LockersLogic",
            "label": "liquidationRatio",
            "offset": 0,
            "slot": "7",
            "type": "t_uint256"
          },
          {
            "astId": 23925,
            "contract": "contracts/lockers/LockersLogic.sol:LockersLogic",
            "label": "priceWithDiscountRatio",
            "offset": 0,
            "slot": "8",
            "type": "t_uint256"
          },
          {
            "astId": 23927,
            "contract": "contracts/lockers/LockersLogic.sol:LockersLogic",
            "label": "slashCompensationRatio",
            "offset": 0,
            "slot": "9",
            "type": "t_uint256"
          }
        ],
        "numberOfBytes": "320"
      },
      "t_uint256": {
        "encoding": "inplace",
        "label": "uint256",
        "numberOfBytes": "32"
      },
      "t_uint8": {
        "encoding": "inplace",
        "label": "uint8",
        "numberOfBytes": "1"
      }
    }
  }
}