{
  "address": "0xA48f8079DcBe617b4F1Efe558d27d1de564e83E3",
  "abi": [
    {
      "inputs": [
        {
          "internalType": "uint256",
          "name": "_acceptableDelay",
          "type": "uint256"
        },
        {
          "internalType": "address",
          "name": "_earnWrappedToken",
          "type": "address"
        },
        {
          "internalType": "address",
          "name": "_earnStrategy",
          "type": "address"
        }
      ],
      "stateMutability": "nonpayable",
      "type": "constructor"
    },
    {
      "inputs": [
        {
          "internalType": "address",
          "name": "token",
          "type": "address"
        },
        {
          "internalType": "uint256",
          "name": "publishTime",
          "type": "uint256"
        },
        {
          "internalType": "uint256",
          "name": "currentTime",
          "type": "uint256"
        }
      ],
      "name": "ExpiredPrice",
      "type": "error"
    },
    {
      "inputs": [
        {
          "internalType": "string",
          "name": "pairName0",
          "type": "string"
        },
        {
          "internalType": "string",
          "name": "pairName1",
          "type": "string"
        },
        {
          "internalType": "string",
          "name": "err",
          "type": "string"
        }
      ],
      "name": "FailedQueryPrice",
      "type": "error"
    },
    {
      "inputs": [
        {
          "internalType": "address",
          "name": "token",
          "type": "address"
        },
        {
          "internalType": "address",
          "name": "anchorToken",
          "type": "address"
        },
        {
          "internalType": "uint256",
          "name": "exchangeRate",
          "type": "uint256"
        },
        {
          "internalType": "uint256",
          "name": "decimals",
          "type": "uint256"
        }
      ],
      "name": "InvalidExchangeRate",
      "type": "error"
    },
    {
      "anonymous": false,
      "inputs": [
        {
          "indexed": true,
          "internalType": "address",
          "name": "priceProxy",
          "type": "address"
        }
      ],
      "name": "AddPriceProxy",
      "type": "event"
    },
    {
      "anonymous": false,
      "inputs": [
        {
          "indexed": false,
          "internalType": "uint256",
          "name": "oldAcceptableDelay",
          "type": "uint256"
        },
        {
          "indexed": false,
          "internalType": "uint256",
          "name": "newAcceptableDelay",
          "type": "uint256"
        }
      ],
      "name": "NewAcceptableDelay",
      "type": "event"
    },
    {
      "anonymous": false,
      "inputs": [
        {
          "indexed": false,
          "internalType": "address",
          "name": "oldBestPriceProxy",
          "type": "address"
        },
        {
          "indexed": false,
          "internalType": "address",
          "name": "newBestPriceProxy",
          "type": "address"
        }
      ],
      "name": "NewBestPriceProxy",
      "type": "event"
    },
    {
      "anonymous": false,
      "inputs": [
        {
          "indexed": false,
          "internalType": "address",
          "name": "oldEarnStrategy",
          "type": "address"
        },
        {
          "indexed": false,
          "internalType": "address",
          "name": "newEarnStrategy",
          "type": "address"
        }
      ],
      "name": "NewEarnStrategy",
      "type": "event"
    },
    {
      "anonymous": false,
      "inputs": [
        {
          "indexed": false,
          "internalType": "address",
          "name": "oldEarnWrappedToken",
          "type": "address"
        },
        {
          "indexed": false,
          "internalType": "address",
          "name": "newEarnWrappedToken",
          "type": "address"
        }
      ],
      "name": "NewEarnWrappedToken",
      "type": "event"
    },
    {
      "anonymous": false,
      "inputs": [
        {
          "indexed": true,
          "internalType": "address",
          "name": "token",
          "type": "address"
        },
        {
          "indexed": false,
          "internalType": "string",
          "name": "oldPricePair",
          "type": "string"
        },
        {
          "indexed": false,
          "internalType": "string",
          "name": "newPricePair",
          "type": "string"
        }
      ],
      "name": "NewTokenPricePair",
      "type": "event"
    },
    {
      "anonymous": false,
      "inputs": [
        {
          "indexed": true,
          "internalType": "address",
          "name": "previousOwner",
          "type": "address"
        },
        {
          "indexed": true,
          "internalType": "address",
          "name": "newOwner",
          "type": "address"
        }
      ],
      "name": "OwnershipTransferStarted",
      "type": "event"
    },
    {
      "anonymous": false,
      "inputs": [
        {
          "indexed": true,
          "internalType": "address",
          "name": "previousOwner",
          "type": "address"
        },
        {
          "indexed": true,
          "internalType": "address",
          "name": "newOwner",
          "type": "address"
        }
      ],
      "name": "OwnershipTransferred",
      "type": "event"
    },
    {
      "anonymous": false,
      "inputs": [
        {
          "indexed": false,
          "internalType": "address",
          "name": "account",
          "type": "address"
        }
      ],
      "name": "Paused",
      "type": "event"
    },
    {
      "anonymous": false,
      "inputs": [
        {
          "indexed": true,
          "internalType": "address",
          "name": "priceProxy",
          "type": "address"
        }
      ],
      "name": "RemovePriceProxy",
      "type": "event"
    },
    {
      "anonymous": false,
      "inputs": [
        {
          "indexed": false,
          "internalType": "address",
          "name": "account",
          "type": "address"
        }
      ],
      "name": "Unpaused",
      "type": "event"
    },
    {
      "inputs": [],
      "name": "EARN_EXCHANGE_RATE_DECIMALS",
      "outputs": [
        {
          "internalType": "uint256",
          "name": "",
          "type": "uint256"
        }
      ],
      "stateMutability": "view",
      "type": "function"
    },
    {
      "inputs": [],
      "name": "NATIVE_TOKEN",
      "outputs": [
        {
          "internalType": "address",
          "name": "",
          "type": "address"
        }
      ],
      "stateMutability": "view",
      "type": "function"
    },
    {
      "inputs": [],
      "name": "acceptOwnership",
      "outputs": [],
      "stateMutability": "nonpayable",
      "type": "function"
    },
    {
      "inputs": [],
      "name": "acceptableDelay",
      "outputs": [
        {
          "internalType": "uint256",
          "name": "",
          "type": "uint256"
        }
      ],
      "stateMutability": "view",
      "type": "function"
    },
    {
      "inputs": [
        {
          "internalType": "address",
          "name": "_priceProxy",
          "type": "address"
        }
      ],
      "name": "addPriceProxy",
      "outputs": [],
      "stateMutability": "nonpayable",
      "type": "function"
    },
    {
      "inputs": [
        {
          "internalType": "address",
          "name": "_token",
          "type": "address"
        },
        {
          "internalType": "string",
          "name": "_pairName",
          "type": "string"
        }
      ],
      "name": "addTokenPricePair",
      "outputs": [],
      "stateMutability": "nonpayable",
      "type": "function"
    },
    {
      "inputs": [],
      "name": "bestPriceProxy",
      "outputs": [
        {
          "internalType": "address",
          "name": "",
          "type": "address"
        }
      ],
      "stateMutability": "view",
      "type": "function"
    },
    {
      "inputs": [],
      "name": "earnStrategy",
      "outputs": [
        {
          "internalType": "address",
          "name": "",
          "type": "address"
        }
      ],
      "stateMutability": "view",
      "type": "function"
    },
    {
      "inputs": [],
      "name": "earnWrappedToken",
      "outputs": [
        {
          "internalType": "address",
          "name": "",
          "type": "address"
        }
      ],
      "stateMutability": "view",
      "type": "function"
    },
    {
      "inputs": [
        {
          "internalType": "uint256",
          "name": "_inputAmount",
          "type": "uint256"
        },
        {
          "internalType": "uint256",
          "name": "_inputDecimals",
          "type": "uint256"
        },
        {
          "internalType": "uint256",
          "name": "_outputDecimals",
          "type": "uint256"
        },
        {
          "internalType": "address",
          "name": "_inputToken",
          "type": "address"
        },
        {
          "internalType": "address",
          "name": "_outputToken",
          "type": "address"
        }
      ],
      "name": "equivalentOutputAmount",
      "outputs": [
        {
          "internalType": "uint256",
          "name": "_outputAmount",
          "type": "uint256"
        }
      ],
      "stateMutability": "view",
      "type": "function"
    },
    {
      "inputs": [],
      "name": "getPriceProxyListLength",
      "outputs": [
        {
          "internalType": "uint256",
          "name": "",
          "type": "uint256"
        }
      ],
      "stateMutability": "view",
      "type": "function"
    },
    {
      "inputs": [],
      "name": "owner",
      "outputs": [
        {
          "internalType": "address",
          "name": "",
          "type": "address"
        }
      ],
      "stateMutability": "view",
      "type": "function"
    },
    {
      "inputs": [],
      "name": "pauseOracle",
      "outputs": [],
      "stateMutability": "nonpayable",
      "type": "function"
    },
    {
      "inputs": [],
      "name": "paused",
      "outputs": [
        {
          "internalType": "bool",
          "name": "",
          "type": "bool"
        }
      ],
      "stateMutability": "view",
      "type": "function"
    },
    {
      "inputs": [],
      "name": "pendingOwner",
      "outputs": [
        {
          "internalType": "address",
          "name": "",
          "type": "address"
        }
      ],
      "stateMutability": "view",
      "type": "function"
    },
    {
      "inputs": [
        {
          "internalType": "address",
          "name": "",
          "type": "address"
        }
      ],
      "name": "pricePairMap",
      "outputs": [
        {
          "internalType": "string",
          "name": "",
          "type": "string"
        }
      ],
      "stateMutability": "view",
      "type": "function"
    },
    {
      "inputs": [
        {
          "internalType": "address",
          "name": "",
          "type": "address"
        }
      ],
      "name": "priceProxyIdxMap",
      "outputs": [
        {
          "internalType": "uint256",
          "name": "",
          "type": "uint256"
        }
      ],
      "stateMutability": "view",
      "type": "function"
    },
    {
      "inputs": [
        {
          "internalType": "uint256",
          "name": "",
          "type": "uint256"
        }
      ],
      "name": "priceProxyList",
      "outputs": [
        {
          "internalType": "address",
          "name": "",
          "type": "address"
        }
      ],
      "stateMutability": "view",
      "type": "function"
    },
    {
      "inputs": [
        {
          "internalType": "address",
          "name": "_priceProxy",
          "type": "address"
        }
      ],
      "name": "removePriceProxy",
      "outputs": [],
      "stateMutability": "nonpayable",
      "type": "function"
    },
    {
      "inputs": [],
      "name": "renounceOwnership",
      "outputs": [],
      "stateMutability": "nonpayable",
      "type": "function"
    },
    {
      "inputs": [
        {
          "internalType": "address",
          "name": "_priceProxy",
          "type": "address"
        }
      ],
      "name": "selectBestPriceProxy",
      "outputs": [],
      "stateMutability": "nonpayable",
      "type": "function"
    },
    {
      "inputs": [
        {
          "internalType": "uint256",
          "name": "_acceptableDelay",
          "type": "uint256"
        }
      ],
      "name": "setAcceptableDelay",
      "outputs": [],
      "stateMutability": "nonpayable",
      "type": "function"
    },
    {
      "inputs": [
        {
          "internalType": "address",
          "name": "_earnStrategy",
          "type": "address"
        }
      ],
      "name": "setEarnStrategy",
      "outputs": [],
      "stateMutability": "nonpayable",
      "type": "function"
    },
    {
      "inputs": [
        {
          "internalType": "address",
          "name": "_earnWrappedToken",
          "type": "address"
        }
      ],
      "name": "setEarnWrappedToken",
      "outputs": [],
      "stateMutability": "nonpayable",
      "type": "function"
    },
    {
      "inputs": [
        {
          "internalType": "address",
          "name": "newOwner",
          "type": "address"
        }
      ],
      "name": "transferOwnership",
      "outputs": [],
      "stateMutability": "nonpayable",
      "type": "function"
    },
    {
      "inputs": [],
      "name": "unPauseOracle",
      "outputs": [],
      "stateMutability": "nonpayable",
      "type": "function"
    }
  ],
  "transactionHash": "0x80373b06fbe83e474d2849d3f038ac0d08e3549231c9f5226bbc6da85110b5dc",
  "args": [
    150,
    "0x48C55da8E7D2107CcD8386233090b21f42A58bEB",
    "0xC2b71E7572476A0Db1939FAdd755d3dFE6b96374"
  ],
  "numDeployments": 1,
  "solcInputHash": "337ac2624f401c2a057a8406658d0c6c",
  "bytecode": "0x60806040523480156200001157600080fd5b50604051620027ab380380620027ab833981016040819052620000349162000408565b6200003f3362000076565b6001805460ff60a01b191690556200005783620000a0565b620000628262000137565b6200006d816200026c565b50505062000448565b600180546001600160a01b03191690556200009d816200039b602090811b62000d0817901c565b50565b60055460408051918252602082018390527f61fcc6fa9ba5b3ab5f72b919bc6324527ede6b5d73e12c63bbc4d4e0352e7002910160405180910390a160008111620001325760405162461bcd60e51b815260206004820152601860248201527f50726963654f7261636c653a207a65726f20616d6f756e74000000000000000060448201526064015b60405180910390fd5b600555565b806001600160a01b038116620001905760405162461bcd60e51b815260206004820152601960248201527f50726963654f7261636c653a207a65726f206164647265737300000000000000604482015260640162000129565b6007546001600160a01b0383811691161415620002025760405162461bcd60e51b815260206004820152602960248201527f50726963654f7261636c653a206561726e207772617070656420746f6b656e206044820152681d5b98da185b99d95960ba1b606482015260840162000129565b600754604080516001600160a01b03928316815291841660208301527fa76a970588e4cc207f50664c8951065866f7aa10d401016b97c2b305341d3b2b910160405180910390a150600780546001600160a01b0319166001600160a01b0392909216919091179055565b806001600160a01b038116620002c55760405162461bcd60e51b815260206004820152601960248201527f50726963654f7261636c653a207a65726f206164647265737300000000000000604482015260640162000129565b6008546001600160a01b0383811691161415620003315760405162461bcd60e51b8152602060048201526024808201527f50726963654f7261636c653a206561726e20737472617465677920756e6368616044820152631b99d95960e21b606482015260840162000129565b600854604080516001600160a01b03928316815291841660208301527fd787371050564f7e1f5d4296c175eb9c15b9262213edf07121a386aa75eb7df7910160405180910390a150600880546001600160a01b0319166001600160a01b0392909216919091179055565b600080546001600160a01b038381166001600160a01b0319831681178455604051919092169283917f8be0079c531659141344cd1fd0a4f28419497f9722a3daafe3b4186f6b6457e09190a35050565b80516001600160a01b03811681146200040357600080fd5b919050565b6000806000606084860312156200041d578283fd5b835192506200042f60208501620003eb565b91506200043f60408501620003eb565b90509250925092565b61235380620004586000396000f3fe608060405234801561001057600080fd5b506004361061018e5760003560e01c806385098865116100de5780639a505a4f11610097578063e4b43d7511610071578063e4b43d7514610329578063e74dacbf14610349578063ecf56e311461035c578063f2fde38b1461036457600080fd5b80639a505a4f146102f2578063b2b9b6d814610305578063e30c39781461031857600080fd5b8063850988651461027f578063862efd4b146102925780638da5cb5b1461029b5780638f6c159f146102ac578063962bf3ba146102bf578063972ac857146102d257600080fd5b80634b93b2461161014b578063627b241611610125578063627b241614610249578063715018a61461025c57806379ba50971461026457806382f9ec3c1461026c57600080fd5b80634b93b246146102115780635c975abb146102245780635d5e106a1461024157600080fd5b806316fac92a146101935780631d4a7b21146101b95780632527e3f0146101ce578063253ea980146101d657806331f7d964146101de57806349efd169146101fe575b600080fd5b6101a66101a1366004611e74565b610377565b6040519081526020015b60405180910390f35b6101cc6101c7366004611e44565b610468565b005b6101a6600681565b6101cc61047c565b6101e6600181565b6040516001600160a01b0390911681526020016101b0565b6101cc61020c366004611d07565b61048e565b6101cc61021f366004611d07565b6105bc565b600154600160a01b900460ff1660405190151581526020016101b0565b6101cc610815565b6101cc610257366004611d07565b610825565b6101cc610964565b6101cc61096c565b6101cc61027a366004611d07565b6109e3565b6101cc61028d366004611d07565b6109f4565b6101a660055481565b6000546001600160a01b03166101e6565b6101e66102ba366004611e44565b610a05565b6008546101e6906001600160a01b031681565b6102e56102e0366004611d07565b610a2f565b6040516101b09190611f0b565b6101cc610300366004611d21565b610ac9565b6007546101e6906001600160a01b031681565b6001546001600160a01b03166101e6565b6101a6610337366004611d07565b60036020526000908152604090205481565b6006546101e6906001600160a01b031681565b6004546101a6565b6101cc610372366004611d07565b610c97565b6000826001600160a01b0381166103a95760405162461bcd60e51b81526004016103a090611f85565b60405180910390fd5b826001600160a01b0381166103d05760405162461bcd60e51b81526004016103a090611f85565b60006103df8989898989610d58565b509450905060018115151461045c5760405162461bcd60e51b815260206004820152603d60248201527f50726963654f7261636c653a206f7261636c6520646f6573206e6f742065786960448201527f7374206f72207072696365206973206e6f7420757020746f206461746500000060648201526084016103a0565b50505095945050505050565b610470610fac565b61047981611006565b50565b610484610fac565b61048c611097565b565b806001600160a01b0381166104b55760405162461bcd60e51b81526004016103a090611f85565b6104bd610fac565b6001600160a01b03821660009081526003602052604090205480156105345760405162461bcd60e51b815260206004820152602760248201527f50726963654f7261636c653a2070726963652070726f787920616c72656164796044820152662065786973747360c81b60648201526084016103a0565b600480546001810182557f8a35acfbc15ff81a39ae7d344fd709f28e8600b4aa8c65c6b64bfe7fe36bd19b0180546001600160a01b0319166001600160a01b03861690811790915590546000828152600360205260408082209290925590517f9fd47d80f4e09e8d1fe56965a490c615ceb9b8235b3e3c2cc0e134a5c28037bc9190a2505050565b806001600160a01b0381166105e35760405162461bcd60e51b81526004016103a090611f85565b6105eb610fac565b6001600160a01b038216600090815260036020526040902054806106215760405162461bcd60e51b81526004016103a090611ff3565b6006546001600160a01b03848116911614156106945760405162461bcd60e51b815260206004820152602c60248201527f50726963654f7261636c653a2063616e206e6f742072656d6f7665206265737460448201526b2070726963652070726f787960a01b60648201526084016103a0565b60045481101561078b57600480546106ae90600190612215565b815481106106cc57634e487b7160e01b600052603260045260246000fd5b6000918252602090912001546001600160a01b031660046106ee600184612215565b8154811061070c57634e487b7160e01b600052603260045260246000fd5b6000918252602082200180546001600160a01b0319166001600160a01b03939093169290921790915581906003906004610747600185612215565b8154811061076557634e487b7160e01b600052603260045260246000fd5b60009182526020808320909101546001600160a01b031683528201929092526040019020555b60048054806107aa57634e487b7160e01b600052603160045260246000fd5b60008281526020808220830160001990810180546001600160a01b03191690559092019092556001600160a01b038516808352600390915260408083208390555190917ffd28dd8b61e8e16b0a6949fb1f207e5fc8cc7d7e49c8c1ee7f637c88ad860eca91a2505050565b61081d610fac565b61048c6110f7565b806001600160a01b03811661084c5760405162461bcd60e51b81526004016103a090611f85565b610854610fac565b6001600160a01b0382166000908152600360205260409020548061088a5760405162461bcd60e51b81526004016103a090611ff3565b6006546001600160a01b03848116911614156108f95760405162461bcd60e51b815260206004820152602860248201527f50726963654f7261636c653a2070726963652070726f787920697320616c726560448201526718591e4818995cdd60c21b60648201526084016103a0565b600654604080516001600160a01b03928316815291851660208301527ffb54bc03946fcc998e4c3cd2f74f5f651adb3eb9a1367e64cb700e954a46f651910160405180910390a15050600680546001600160a01b0319166001600160a01b0392909216919091179055565b61048c610fac565b60015433906001600160a01b031681146109da5760405162461bcd60e51b815260206004820152602960248201527f4f776e61626c6532537465703a2063616c6c6572206973206e6f7420746865206044820152683732bb9037bbb732b960b91b60648201526084016103a0565b61047981611133565b6109eb610fac565b6104798161114c565b6109fc610fac565b61047981611247565b60048181548110610a1557600080fd5b6000918252602090912001546001600160a01b0316905081565b60026020526000908152604090208054610a489061225c565b80601f0160208091040260200160405190810160405280929190818152602001828054610a749061225c565b8015610ac15780601f10610a9657610100808354040283529160200191610ac1565b820191906000526020600020905b815481529060010190602001808311610aa457829003601f168201915b505050505081565b816001600160a01b038116610af05760405162461bcd60e51b81526004016103a090611f85565b816000815111610b125760405162461bcd60e51b81526004016103a090611fbc565b610b1a610fac565b6001600160a01b03841660009081526002602052604081208054610b3d9061225c565b80601f0160208091040260200160405190810160405280929190818152602001828054610b699061225c565b8015610bb65780601f10610b8b57610100808354040283529160200191610bb6565b820191906000526020600020905b815481529060010190602001808311610b9957829003601f168201915b50505050509050610bc78185611348565b15610c235760405162461bcd60e51b815260206004820152602660248201527f50726963654f7261636c653a207072696365207061697220616c72656164792060448201526565786973747360d01b60648201526084016103a0565b6001600160a01b03851660009081526002602090815260409091208551610c4c92870190611bee565b50846001600160a01b03167f6ea5d4c7abd2c9a5a473ef24015c90025b7ac6b38046888b3abb32fbb29efb478286604051610c88929190611f1e565b60405180910390a25050505050565b610c9f610fac565b600180546001600160a01b0383166001600160a01b03199091168117909155610cd06000546001600160a01b031690565b6001600160a01b03167f38d16b8cac22d99fc7c124b9cd0de2d3fa1faef420bfe791d8c362d765e2270060405160405180910390a350565b600080546001600160a01b038381166001600160a01b0319831681178455604051919092169283917f8be0079c531659141344cd1fd0a4f28419497f9722a3daafe3b4186f6b6457e09190a35050565b6000806000836001600160a01b0316856001600160a01b03161415610dda5785871415610d8d57506001915086905042610fa1565b6001610d998882612094565b610da490600a61210f565b610daf886001612094565b610dba90600a61210f565b610dc4908b6121b7565b610dce91906120ac565b42925092509250610fa1565b600080600080600080610ded8b8b611364565b95509550955095509550955060008c6001610e089190612094565b610e1390600a61210f565b8f83866020015163ffffffff16610e2a9190612094565b610e3590600a61210f565b8951610e42908a906121b7565b610e4c91906121b7565b610e5691906121b7565b610e6091906121b7565b905084876020015163ffffffff16610e789190612094565b610e8390600a61210f565b8451610e909085906121b7565b610e9a91906121b7565b610ea58f6001612094565b610eb090600a61210f565b610eba91906121b7565b610ec490826120ac565b9050600554610ef1610ed98960400151611584565b610ee242611584565b610eec91906121d6565b6115f2565b1115610f2e5760408088015190516301af513360e21b81526001600160a01b038e16600482015260248101919091524260448201526064016103a0565b600554610f41610ed98660400151611584565b1115610f7e5760408085015190516301af513360e21b81526001600160a01b038d16600482015260248101919091524260448201526064016103a0565b600181610f9389604001518760400151611605565b995099509950505050505050505b955095509592505050565b6000546001600160a01b0316331461048c5760405162461bcd60e51b815260206004820181905260248201527f4f776e61626c653a2063616c6c6572206973206e6f7420746865206f776e657260448201526064016103a0565b60055460408051918252602082018390527f61fcc6fa9ba5b3ab5f72b919bc6324527ede6b5d73e12c63bbc4d4e0352e7002910160405180910390a1600081116110925760405162461bcd60e51b815260206004820152601860248201527f50726963654f7261636c653a207a65726f20616d6f756e74000000000000000060448201526064016103a0565b600555565b61109f61161d565b6001805460ff60a01b1916600160a01b1790557f62e78cea01bee320cd4e420270b5ea74000d11b0c9f74754ebdbfc544b05a2586110da3390565b6040516001600160a01b03909116815260200160405180910390a1565b6110ff61166a565b6001805460ff60a01b191690557f5db9ee0a495bf2e6ff9c91a7834c1ba4fdd244a5e8aa4e537bd38aeae4b073aa336110da565b600180546001600160a01b031916905561047981610d08565b806001600160a01b0381166111735760405162461bcd60e51b81526004016103a090611f85565b6008546001600160a01b03838116911614156111dd5760405162461bcd60e51b8152602060048201526024808201527f50726963654f7261636c653a206561726e20737472617465677920756e6368616044820152631b99d95960e21b60648201526084016103a0565b600854604080516001600160a01b03928316815291841660208301527fd787371050564f7e1f5d4296c175eb9c15b9262213edf07121a386aa75eb7df7910160405180910390a150600880546001600160a01b0319166001600160a01b0392909216919091179055565b806001600160a01b03811661126e5760405162461bcd60e51b81526004016103a090611f85565b6007546001600160a01b03838116911614156112de5760405162461bcd60e51b815260206004820152602960248201527f50726963654f7261636c653a206561726e207772617070656420746f6b656e206044820152681d5b98da185b99d95960ba1b60648201526084016103a0565b600754604080516001600160a01b03928316815291841660208301527fa76a970588e4cc207f50664c8951065866f7aa10d401016b97c2b305341d3b2b910160405180910390a150600780546001600160a01b0319166001600160a01b0392909216919091179055565b6000818051906020012083805190602001201490505b92915050565b61138e604051806060016040528060008152602001600063ffffffff168152602001600081525090565b604080516060810182526000808252602082018190529181018290528190600080876001600160a01b0381166113d65760405162461bcd60e51b81526004016103a090611f85565b876001600160a01b0381166113fd5760405162461bcd60e51b81526004016103a090611f85565b6000806114098c6116ba565b919a50985091506114198b6116ba565b6001600160a01b03851660009081526002602052604090208054939950919750925061156e916114489061225c565b80601f01602080910402602001604051908101604052809291908181526020018280546114749061225c565b80156114c15780601f10611496576101008083540402835291602001916114c1565b820191906000526020600020905b8154815290600101906020018083116114a457829003601f168201915b5050506001600160a01b038516600090815260026020526040902080549092506114eb915061225c565b80601f01602080910402602001604051908101604052809291908181526020018280546115179061225c565b80156115645780601f1061153957610100808354040283529160200191611564565b820191906000526020600020905b81548152906001019060200180831161154757829003601f168201915b505050505061179e565b809850819b505050505050509295509295509295565b60006001600160ff1b038211156115ee5760405162461bcd60e51b815260206004820152602860248201527f53616665436173743a2076616c756520646f65736e27742066697420696e2061604482015267371034b73a191a9b60c11b60648201526084016103a0565b5090565b6000808212156115ee5761135e826122b2565b60008183106116145781611616565b825b9392505050565b600154600160a01b900460ff161561048c5760405162461bcd60e51b815260206004820152601060248201526f14185d5cd8589b194e881c185d5cd95960821b60448201526064016103a0565b600154600160a01b900460ff1661048c5760405162461bcd60e51b815260206004820152601460248201527314185d5cd8589b194e881b9bdd081c185d5cd95960621b60448201526064016103a0565b600754600090819081906001600160a01b038581169116146116e55750600191506000905082611797565b6008546040805160048152602481019091526020810180516001600160e01b0316633ca967f360e01b179052600091611729916001600160a01b0390911690611aae565b90508080602001905181019061173f9190611e5c565b9350600692506001915061175483600a61210f565b841015611795576040516327e48d3560e01b81526001600160a01b0380871660048301528316602482015260448101859052606481018490526084016103a0565b505b9193909250565b6117c8604051806060016040528060008152602001600063ffffffff168152602001600081525090565b6117f2604051806060016040528060008152602001600063ffffffff168152602001600081525090565b8360008151116118145760405162461bcd60e51b81526004016103a090611fbc565b8360008151116118365760405162461bcd60e51b81526004016103a090611fbc565b6006546001600160a01b031661189d5760405162461bcd60e51b815260206004820152602660248201527f50726963654f7261636c653a20626573742070726963652070726f787920697360448201526520656d70747960d01b60648201526084016103a0565b60065460405163b1fcb9b360e01b81526060916001600160a01b03169063b1fcb9b3906118d0908a908a90600401611f1e565b60006040518083038186803b1580156118e857600080fd5b505afa1580156118fc573d6000803e3d6000fd5b505050506040513d6000823e601f3d908101601f191682016040526119249190810190611dac565b825192975090955091501580159061193c5750835115155b156119475750611aa5565b60005b600454811015611a8557600654600480546001600160a01b03909216918390811061198557634e487b7160e01b600052603260045260246000fd5b6000918252602090912001546001600160a01b031614611a7357600481815481106119c057634e487b7160e01b600052603260045260246000fd5b60009182526020909120015460405163b1fcb9b360e01b81526001600160a01b039091169063b1fcb9b3906119fb908b908b90600401611f1e565b60006040518083038186803b158015611a1357600080fd5b505afa158015611a27573d6000803e3d6000fd5b505050506040513d6000823e601f3d908101601f19168201604052611a4f9190810190611dac565b8251929850909650925015801590611a675750845115155b15611a73575050611aa5565b80611a7d81612297565b91505061194a565b50868682604051630fcf2f5960e41b81526004016103a093929190611f4c565b50509250929050565b606061161683836040518060600160405280602581526020016122f9602591396060600080856001600160a01b031685604051611aeb9190611eef565b600060405180830381855afa9150503d8060008114611b26576040519150601f19603f3d011682016040523d82523d6000602084013e611b2b565b606091505b5091509150611b3c86838387611b46565b9695505050505050565b60608315611bb2578251611bab576001600160a01b0385163b611bab5760405162461bcd60e51b815260206004820152601d60248201527f416464726573733a2063616c6c20746f206e6f6e2d636f6e747261637400000060448201526064016103a0565b5081611bbc565b611bbc8383611bc4565b949350505050565b815115611bd45781518083602001fd5b8060405162461bcd60e51b81526004016103a09190611f0b565b828054611bfa9061225c565b90600052602060002090601f016020900481019282611c1c5760008555611c62565b82601f10611c3557805160ff1916838001178555611c62565b82800160010185558215611c62579182015b82811115611c62578251825591602001919060010190611c47565b506115ee9291505b808211156115ee5760008155600101611c6a565b80356001600160a01b0381168114611c9557600080fd5b919050565b600060608284031215611cab578081fd5b6040516060810181811067ffffffffffffffff82111715611cce57611cce6122e2565b806040525080915082518152602083015163ffffffff81168114611cf157600080fd5b6020820152604092830151920191909152919050565b600060208284031215611d18578081fd5b61161682611c7e565b60008060408385031215611d33578081fd5b611d3c83611c7e565b9150602083013567ffffffffffffffff811115611d57578182fd5b8301601f81018513611d67578182fd5b8035611d7a611d758261206c565b61203b565b818152866020838501011115611d8e578384fd5b81602084016020830137908101602001929092525090939092509050565b600080600060e08486031215611dc0578081fd5b611dca8585611c9a565b9250611dd98560608601611c9a565b915060c084015167ffffffffffffffff811115611df4578182fd5b8401601f81018613611e04578182fd5b8051611e12611d758261206c565b818152876020838501011115611e26578384fd5b611e3782602083016020860161222c565b8093505050509250925092565b600060208284031215611e55578081fd5b5035919050565b600060208284031215611e6d578081fd5b5051919050565b600080600080600060a08688031215611e8b578081fd5b853594506020860135935060408601359250611ea960608701611c7e565b9150611eb760808701611c7e565b90509295509295909350565b60008151808452611edb81602086016020860161222c565b601f01601f19169290920160200192915050565b60008251611f0181846020870161222c565b9190910192915050565b6020815260006116166020830184611ec3565b604081526000611f316040830185611ec3565b8281036020840152611f438185611ec3565b95945050505050565b606081526000611f5f6060830186611ec3565b8281036020840152611f718186611ec3565b90508281036040840152611b3c8185611ec3565b60208082526019908201527f50726963654f7261636c653a207a65726f206164647265737300000000000000604082015260600190565b6020808252601c908201527f50726963654f7261636c653a20656d7074792070616972206e616d6500000000604082015260600190565b60208082526028908201527f50726963654f7261636c653a2070726963652070726f787920646f6573206e6f604082015267742065786973747360c01b606082015260800190565b604051601f8201601f1916810167ffffffffffffffff81118282101715612064576120646122e2565b604052919050565b600067ffffffffffffffff821115612086576120866122e2565b50601f01601f191660200190565b600082198211156120a7576120a76122cc565b500190565b6000826120c757634e487b7160e01b81526012600452602481fd5b500490565b600181815b808511156121075781600019048211156120ed576120ed6122cc565b808516156120fa57918102915b93841c93908002906120d1565b509250929050565b600061161683836000826121255750600161135e565b816121325750600061135e565b816001811461214857600281146121525761216e565b600191505061135e565b60ff841115612163576121636122cc565b50506001821b61135e565b5060208310610133831016604e8410600b8410161715612191575081810a61135e565b61219b83836120cc565b80600019048211156121af576121af6122cc565b029392505050565b60008160001904831182151516156121d1576121d16122cc565b500290565b60008083128015600160ff1b8501841216156121f4576121f46122cc565b6001600160ff1b038401831381161561220f5761220f6122cc565b50500390565b600082821015612227576122276122cc565b500390565b60005b8381101561224757818101518382015260200161222f565b83811115612256576000848401525b50505050565b600181811c9082168061227057607f821691505b6020821081141561229157634e487b7160e01b600052602260045260246000fd5b50919050565b60006000198214156122ab576122ab6122cc565b5060010190565b6000600160ff1b8214156122c8576122c86122cc565b0390565b634e487b7160e01b600052601160045260246000fd5b634e487b7160e01b600052604160045260246000fdfe416464726573733a206c6f772d6c6576656c207374617469632063616c6c206661696c6564a2646970667358221220f6dd09f5385b9ced0c413b5367f27329de1f45bf293fe55b71a0370492c3a64f64736f6c63430008040033",
  "devdoc": {
    "kind": "dev",
    "methods": {
      "acceptOwnership()": {
        "details": "The new owner accepts the ownership transfer."
      },
      "addPriceProxy(address)": {
        "details": "Only owner can call this                             The price proxy is an encapsulation of third-party oracle price retrieval methods                             You can obtain the prices of inputToken/outputToken from price proxy",
        "params": {
          "_priceProxy": "The address of the price proxy"
        }
      },
      "addTokenPricePair(address,string)": {
        "details": "Only owner can call this",
        "params": {
          "_pairName": "The price pair name (e.g. CORE/USDT  BTC/USDT)",
          "_token": "The address of the token"
        }
      },
      "constructor": {
        "params": {
          "_acceptableDelay": "Maximum acceptable delay for data given from Oracles",
          "_earnStrategy": "The address of the earn strategy contract",
          "_earnWrappedToken": "The address of the earn wrapped token (STCORE) contract"
        }
      },
      "equivalentOutputAmount(uint256,uint256,uint256,address,address)": {
        "params": {
          "_inputAmount": "Amount of the input token",
          "_inputDecimals": "Number of input token decimals",
          "_inputToken": "Address of the input token",
          "_outputDecimals": "Number of output token decimals",
          "_outputToken": "Address of output token"
        },
        "returns": {
          "_outputAmount": "          Amount of the output token"
        }
      },
      "owner()": {
        "details": "Returns the address of the current owner."
      },
      "pauseOracle()": {
        "details": "Only owner can pause"
      },
      "paused()": {
        "details": "Returns true if the contract is paused, and false otherwise."
      },
      "pendingOwner()": {
        "details": "Returns the address of the pending owner."
      },
      "removePriceProxy(address)": {
        "details": "Only owner can call this",
        "params": {
          "_priceProxy": "The address of the price proxy"
        }
      },
      "renounceOwnership()": {
        "details": "Leaves the contract without owner. It will not be possible to call `onlyOwner` functions. Can only be called by the current owner. NOTE: Renouncing ownership will leave the contract without an owner, thereby disabling any functionality that is only available to the owner."
      },
      "selectBestPriceProxy(address)": {
        "details": "Only owner can call this",
        "params": {
          "_priceProxy": "The address of the price proxy"
        }
      },
      "setAcceptableDelay(uint256)": {
        "details": "If oracle data has not been updated for a while,                             we will consider the price as invalid",
        "params": {
          "_acceptableDelay": "Maximum acceptable delay (in seconds)"
        }
      },
      "setEarnStrategy(address)": {
        "params": {
          "_earnStrategy": "The address of the earn strategy contract"
        }
      },
      "setEarnWrappedToken(address)": {
        "params": {
          "_earnWrappedToken": "The address of the earn wrapped token (STCORE) contract"
        }
      },
      "transferOwnership(address)": {
        "details": "Starts the ownership transfer of the contract to a new account. Replaces the pending transfer if there is one. Can only be called by the current owner."
      },
      "unPauseOracle()": {
        "details": "Only owner can pause"
      }
    },
    "version": 1
  },
  "userdoc": {
    "kind": "user",
    "methods": {
      "addPriceProxy(address)": {
        "notice": "Adds a price proxy"
      },
      "addTokenPricePair(address,string)": {
        "notice": "Adds mapping between token and price pair"
      },
      "constructor": {
        "notice": "This contract is used to get relative price of two assets from available oracles"
      },
      "equivalentOutputAmount(uint256,uint256,uint256,address,address)": {
        "notice": "Finds amount of output token that has equal value                                 as the input amount of the input token from oracle"
      },
      "getPriceProxyListLength()": {
        "notice": "Getter for the length of oracle list"
      },
      "pauseOracle()": {
        "notice": "Pause the oracle, so only the functions can be called which are whenPaused"
      },
      "removePriceProxy(address)": {
        "notice": "Removes a price proxy"
      },
      "selectBestPriceProxy(address)": {
        "notice": "Selects a price proxy as the preferred one"
      },
      "setAcceptableDelay(uint256)": {
        "notice": "Sets acceptable delay for oracle responses"
      },
      "setEarnStrategy(address)": {
        "notice": "Sets the earn strategy contract address"
      },
      "setEarnWrappedToken(address)": {
        "notice": "Sets the earn wrapped token (STCORE) contract address"
      },
      "unPauseOracle()": {
        "notice": "Un-pause the oracle, so only the functions can be called which are whenNotPaused"
      }
    },
    "version": 1
  },
  "storageLayout": {
    "storage": [
      {
        "astId": 7,
        "contract": "contracts/oracle/PriceOracle.sol:PriceOracle",
        "label": "_owner",
        "offset": 0,
        "slot": "0",
        "type": "t_address"
      },
      {
        "astId": 120,
        "contract": "contracts/oracle/PriceOracle.sol:PriceOracle",
        "label": "_pendingOwner",
        "offset": 0,
        "slot": "1",
        "type": "t_address"
      },
      {
        "astId": 213,
        "contract": "contracts/oracle/PriceOracle.sol:PriceOracle",
        "label": "_paused",
        "offset": 20,
        "slot": "1",
        "type": "t_bool"
      },
      {
        "astId": 3462,
        "contract": "contracts/oracle/PriceOracle.sol:PriceOracle",
        "label": "pricePairMap",
        "offset": 0,
        "slot": "2",
        "type": "t_mapping(t_address,t_string_storage)"
      },
      {
        "astId": 3467,
        "contract": "contracts/oracle/PriceOracle.sol:PriceOracle",
        "label": "priceProxyIdxMap",
        "offset": 0,
        "slot": "3",
        "type": "t_mapping(t_address,t_uint256)"
      },
      {
        "astId": 3471,
        "contract": "contracts/oracle/PriceOracle.sol:PriceOracle",
        "label": "priceProxyList",
        "offset": 0,
        "slot": "4",
        "type": "t_array(t_address)dyn_storage"
      },
      {
        "astId": 3474,
        "contract": "contracts/oracle/PriceOracle.sol:PriceOracle",
        "label": "acceptableDelay",
        "offset": 0,
        "slot": "5",
        "type": "t_uint256"
      },
      {
        "astId": 3477,
        "contract": "contracts/oracle/PriceOracle.sol:PriceOracle",
        "label": "bestPriceProxy",
        "offset": 0,
        "slot": "6",
        "type": "t_address"
      },
      {
        "astId": 3480,
        "contract": "contracts/oracle/PriceOracle.sol:PriceOracle",
        "label": "earnWrappedToken",
        "offset": 0,
        "slot": "7",
        "type": "t_address"
      },
      {
        "astId": 3483,
        "contract": "contracts/oracle/PriceOracle.sol:PriceOracle",
        "label": "earnStrategy",
        "offset": 0,
        "slot": "8",
        "type": "t_address"
      }
    ],
    "types": {
      "t_address": {
        "encoding": "inplace",
        "label": "address",
        "numberOfBytes": "20"
      },
      "t_array(t_address)dyn_storage": {
        "base": "t_address",
        "encoding": "dynamic_array",
        "label": "address[]",
        "numberOfBytes": "32"
      },
      "t_bool": {
        "encoding": "inplace",
        "label": "bool",
        "numberOfBytes": "1"
      },
      "t_mapping(t_address,t_string_storage)": {
        "encoding": "mapping",
        "key": "t_address",
        "label": "mapping(address => string)",
        "numberOfBytes": "32",
        "value": "t_string_storage"
      },
      "t_mapping(t_address,t_uint256)": {
        "encoding": "mapping",
        "key": "t_address",
        "label": "mapping(address => uint256)",
        "numberOfBytes": "32",
        "value": "t_uint256"
      },
      "t_string_storage": {
        "encoding": "bytes",
        "label": "string",
        "numberOfBytes": "32"
      },
      "t_uint256": {
        "encoding": "inplace",
        "label": "uint256",
        "numberOfBytes": "32"
      }
    }
  }
}