{
  "address": "0xB2387A73a242B2af64343594025cD2e18275faf3",
  "abi": [
    {
      "inputs": [
        {
          "internalType": "address",
          "name": "_oracle",
          "type": "address"
        }
      ],
      "stateMutability": "nonpayable",
      "type": "constructor"
    },
    {
      "anonymous": false,
      "inputs": [
        {
          "indexed": true,
          "internalType": "string",
          "name": "token",
          "type": "string"
        },
        {
          "indexed": false,
          "internalType": "bytes32",
          "name": "oldFeedId",
          "type": "bytes32"
        },
        {
          "indexed": false,
          "internalType": "bytes32",
          "name": "newFeedId",
          "type": "bytes32"
        }
      ],
      "name": "AddFeedId",
      "type": "event"
    },
    {
      "anonymous": false,
      "inputs": [
        {
          "indexed": false,
          "internalType": "address",
          "name": "oldOracle",
          "type": "address"
        },
        {
          "indexed": false,
          "internalType": "address",
          "name": "newOracle",
          "type": "address"
        }
      ],
      "name": "NewOracle",
      "type": "event"
    },
    {
      "anonymous": false,
      "inputs": [
        {
          "indexed": true,
          "internalType": "address",
          "name": "previousOwner",
          "type": "address"
        },
        {
          "indexed": true,
          "internalType": "address",
          "name": "newOwner",
          "type": "address"
        }
      ],
      "name": "OwnershipTransferStarted",
      "type": "event"
    },
    {
      "anonymous": false,
      "inputs": [
        {
          "indexed": true,
          "internalType": "address",
          "name": "previousOwner",
          "type": "address"
        },
        {
          "indexed": true,
          "internalType": "address",
          "name": "newOwner",
          "type": "address"
        }
      ],
      "name": "OwnershipTransferred",
      "type": "event"
    },
    {
      "inputs": [],
      "name": "acceptOwnership",
      "outputs": [],
      "stateMutability": "nonpayable",
      "type": "function"
    },
    {
      "inputs": [
        {
          "internalType": "string",
          "name": "_pairName",
          "type": "string"
        },
        {
          "internalType": "bytes32",
          "name": "_feedId",
          "type": "bytes32"
        }
      ],
      "name": "addFeedId",
      "outputs": [],
      "stateMutability": "nonpayable",
      "type": "function"
    },
    {
      "inputs": [
        {
          "internalType": "string",
          "name": "",
          "type": "string"
        }
      ],
      "name": "feedIdMap",
      "outputs": [
        {
          "internalType": "bytes32",
          "name": "",
          "type": "bytes32"
        }
      ],
      "stateMutability": "view",
      "type": "function"
    },
    {
      "inputs": [
        {
          "internalType": "string",
          "name": "_pairName",
          "type": "string"
        }
      ],
      "name": "getEmaPriceByPairName",
      "outputs": [
        {
          "components": [
            {
              "internalType": "uint256",
              "name": "price",
              "type": "uint256"
            },
            {
              "internalType": "uint32",
              "name": "decimals",
              "type": "uint32"
            },
            {
              "internalType": "uint256",
              "name": "publishTime",
              "type": "uint256"
            }
          ],
          "internalType": "struct IPriceProxy.Price",
          "name": "price",
          "type": "tuple"
        },
        {
          "internalType": "string",
          "name": "err",
          "type": "string"
        }
      ],
      "stateMutability": "view",
      "type": "function"
    },
    {
      "inputs": [
        {
          "internalType": "string",
          "name": "_pairName0",
          "type": "string"
        },
        {
          "internalType": "string",
          "name": "_pairName1",
          "type": "string"
        }
      ],
      "name": "getEmaPricesByPairNames",
      "outputs": [
        {
          "components": [
            {
              "internalType": "uint256",
              "name": "price",
              "type": "uint256"
            },
            {
              "internalType": "uint32",
              "name": "decimals",
              "type": "uint32"
            },
            {
              "internalType": "uint256",
              "name": "publishTime",
              "type": "uint256"
            }
          ],
          "internalType": "struct IPriceProxy.Price",
          "name": "price0",
          "type": "tuple"
        },
        {
          "components": [
            {
              "internalType": "uint256",
              "name": "price",
              "type": "uint256"
            },
            {
              "internalType": "uint32",
              "name": "decimals",
              "type": "uint32"
            },
            {
              "internalType": "uint256",
              "name": "publishTime",
              "type": "uint256"
            }
          ],
          "internalType": "struct IPriceProxy.Price",
          "name": "price1",
          "type": "tuple"
        },
        {
          "internalType": "string",
          "name": "err",
          "type": "string"
        }
      ],
      "stateMutability": "view",
      "type": "function"
    },
    {
      "inputs": [
        {
          "internalType": "string",
          "name": "_pairName",
          "type": "string"
        }
      ],
      "name": "getFeedId",
      "outputs": [
        {
          "internalType": "bytes32",
          "name": "feedId",
          "type": "bytes32"
        }
      ],
      "stateMutability": "view",
      "type": "function"
    },
    {
      "inputs": [],
      "name": "oracle",
      "outputs": [
        {
          "internalType": "address",
          "name": "",
          "type": "address"
        }
      ],
      "stateMutability": "view",
      "type": "function"
    },
    {
      "inputs": [],
      "name": "owner",
      "outputs": [
        {
          "internalType": "address",
          "name": "",
          "type": "address"
        }
      ],
      "stateMutability": "view",
      "type": "function"
    },
    {
      "inputs": [],
      "name": "pendingOwner",
      "outputs": [
        {
          "internalType": "address",
          "name": "",
          "type": "address"
        }
      ],
      "stateMutability": "view",
      "type": "function"
    },
    {
      "inputs": [],
      "name": "renounceOwnership",
      "outputs": [],
      "stateMutability": "nonpayable",
      "type": "function"
    },
    {
      "inputs": [
        {
          "internalType": "address",
          "name": "_oracle",
          "type": "address"
        }
      ],
      "name": "setOracle",
      "outputs": [],
      "stateMutability": "nonpayable",
      "type": "function"
    },
    {
      "inputs": [
        {
          "internalType": "address",
          "name": "newOwner",
          "type": "address"
        }
      ],
      "name": "transferOwnership",
      "outputs": [],
      "stateMutability": "nonpayable",
      "type": "function"
    }
  ],
  "transactionHash": "0xd62dbcffd77f9ab465221d30daf86c3177c0c6a27bca9b287ccecb9c9e85f617",
  "args": [
    "0x8D254a21b3C86D32F7179855531CE99164721933"
  ],
  "numDeployments": 1,
  "solcInputHash": "4f6fcbfd7f7e9de3184a7aef0d492539",
  "bytecode": "0x60806040523480156200001157600080fd5b50604051620015143803806200151483398101604081905262000034916200025f565b80620000403362000053565b6200004b816200007d565b50506200028f565b600180546001600160a01b03191690556200007a816200020f602090811b6200056617901c565b50565b806001600160a01b038116620000da5760405162461bcd60e51b815260206004820152601860248201527f507269636550726f78793a207a65726f2061646472657373000000000000000060448201526064015b60405180910390fd5b6002546001600160a01b0383811691161415620001445760405162461bcd60e51b815260206004820152602160248201527f507269636550726f78793a206f7261636c6520616c72656164792065786973746044820152607360f81b6064820152608401620000d1565b813b620001a55760405162461bcd60e51b815260206004820152602860248201527f507269636550726f78793a206f7261636c6520636f6e7472616374206e6f742060448201526719195c1b1bde595960c21b6064820152608401620000d1565b600254604080516001600160a01b03928316815291841660208301527f08763b8c90c5db415d7b7f0e18ec87eda82e24e52e2ea8135d44e17db46d85bb910160405180910390a150600280546001600160a01b0319166001600160a01b0392909216919091179055565b600080546001600160a01b038381166001600160a01b0319831681178455604051919092169283917f8be0079c531659141344cd1fd0a4f28419497f9722a3daafe3b4186f6b6457e09190a35050565b60006020828403121562000271578081fd5b81516001600160a01b038116811462000288578182fd5b9392505050565b611275806200029f6000396000f3fe608060405234801561001057600080fd5b50600436106100b45760003560e01c80637dc0d1d0116100715780637dc0d1d0146101545780638da5cb5b1461017f578063ad680a7714610190578063b1fcb9b3146101a3578063e30c3978146101c5578063f2fde38b146101d657600080fd5b806340dca571146100b95780636512bf1d146100e3578063665e00a114610104578063715018a61461012f57806379ba5097146101395780637adbf97314610141575b600080fd5b6100cc6100c7366004610e47565b6101e9565b6040516100da929190610fe8565b60405180910390f35b6100f66100f1366004610e47565b610227565b6040519081526020016100da565b6100f6610112366004610e47565b805160208183018101805160038252928201919093012091525481565b61013761024f565b005b610137610259565b61013761014f366004610e19565b6102d8565b600254610167906001600160a01b031681565b6040516001600160a01b0390911681526020016100da565b6000546001600160a01b0316610167565b61013761019e366004610e82565b6102e9565b6101b66101b1366004610ec5565b610474565b6040516100da9392919061101c565b6001546001600160a01b0316610167565b6101376101e4366004610e19565b6104f5565b610213604051806060016040528060008152602001600063ffffffff168152602001600081525090565b606061021e836105b6565b91509150915091565b60006003826040516102399190610fcc565b9081526020016040518091039020549050919050565b610257610666565b565b60015433906001600160a01b031681146102cc5760405162461bcd60e51b815260206004820152602960248201527f4f776e61626c6532537465703a2063616c6c6572206973206e6f7420746865206044820152683732bb9037bbb732b960b91b60648201526084015b60405180910390fd5b6102d5816106c0565b50565b6102e0610666565b6102d5816106d9565b81600081511161033b5760405162461bcd60e51b815260206004820152601b60248201527f507269636550726f78793a20656d7074792070616972206e616d65000000000060448201526064016102c3565b81806103835760405162461bcd60e51b8152602060048201526017602482015276141c9a58d9541c9bde1e4e881e995c9bc8199959591259604a1b60448201526064016102c3565b61038b610666565b600060038560405161039d9190610fcc565b9081526020016040518091039020549050838114156103fe5760405162461bcd60e51b815260206004820152601b60248201527f507974683a2066656564496420616c726561647920657869737473000000000060448201526064016102c3565b8360038660405161040f9190610fcc565b9081526040519081900360200181209190915561042d908690610fcc565b6040805191829003822083835260208301879052917f6c156094801a2edcec585f4e667f5edfe3124945eb2671f5c282ae3e15f823f0910160405180910390a25050505050565b61049e604051806060016040528060008152602001600063ffffffff168152602001600081525090565b6104c8604051806060016040528060008152602001600063ffffffff168152602001600081525090565b60606104d3856105b6565b81519194509150156104ee576104e8846105b6565b90925090505b9250925092565b6104fd610666565b600180546001600160a01b0383166001600160a01b0319909116811790915561052e6000546001600160a01b031690565b6001600160a01b03167f38d16b8cac22d99fc7c124b9cd0de2d3fa1faef420bfe791d8c362d765e2270060405160405180910390a350565b600080546001600160a01b038381166001600160a01b0319831681178455604051919092169283917f8be0079c531659141344cd1fd0a4f28419497f9722a3daafe3b4186f6b6457e09190a35050565b6105e0604051806060016040528060008152602001600063ffffffff168152602001600081525090565b60608260008151116106345760405162461bcd60e51b815260206004820152601b60248201527f507269636550726f78793a20656d7074792070616972206e616d65000000000060448201526064016102c3565b61065b6003856040516106479190610fcc565b908152602001604051809103902054610861565b925092505b50915091565b6000546001600160a01b031633146102575760405162461bcd60e51b815260206004820181905260248201527f4f776e61626c653a2063616c6c6572206973206e6f7420746865206f776e657260448201526064016102c3565b600180546001600160a01b03191690556102d581610566565b806001600160a01b0381166107305760405162461bcd60e51b815260206004820152601860248201527f507269636550726f78793a207a65726f2061646472657373000000000000000060448201526064016102c3565b6002546001600160a01b03838116911614156107985760405162461bcd60e51b815260206004820152602160248201527f507269636550726f78793a206f7261636c6520616c72656164792065786973746044820152607360f81b60648201526084016102c3565b813b6107f75760405162461bcd60e51b815260206004820152602860248201527f507269636550726f78793a206f7261636c6520636f6e7472616374206e6f742060448201526719195c1b1bde595960c21b60648201526084016102c3565b600254604080516001600160a01b03928316815291841660208301527f08763b8c90c5db415d7b7f0e18ec87eda82e24e52e2ea8135d44e17db46d85bb910160405180910390a150600280546001600160a01b0319166001600160a01b0392909216919091179055565b61088b604051806060016040528060008152602001600063ffffffff168152602001600081525090565b606082806108d55760405162461bcd60e51b8152602060048201526017602482015276141c9a58d9541c9bde1e4e881e995c9bc8199959591259604a1b60448201526064016102c3565b60025460405163b5dcc91160e01b8152600481018690526001600160a01b039091169063b5dcc9119060240160806040518083038186803b15801561091957600080fd5b505afa925050508015610949575060408051601f3d908101601f1916820190925261094691810190610f26565b60015b6109bf5761095561119d565b806308c379a0141561097c575061096a6111b5565b80610975575061097e565b9150610660565b505b3d8080156109a8576040519150601f19603f3d011682016040523d82523d6000602084013e6109ad565b606091505b506109b781610a58565b925050610660565b6000816040015160030b1315610a0b575060408051808201909152601881527f507974683a20756e737570706f7274656420666565644964000000000000000060208201529150610660565b8051610a199060070b610cef565b84526040810151610a3e90610a3990610a319061114f565b60030b610cef565b610d45565b63ffffffff16602085015260600151604084015250915091565b60408051808201909152601081526f181899199a1a9b1b9c1cb0b131b232b360811b6020820152815160609190600090610a93906002611092565b610a9e90600261107a565b67ffffffffffffffff811115610ac457634e487b7160e01b600052604160045260246000fd5b6040519080825280601f01601f191660200182016040528015610aee576020820181803683370190505b509050600360fc1b81600081518110610b1757634e487b7160e01b600052603260045260246000fd5b60200101906001600160f81b031916908160001a905350600f60fb1b81600181518110610b5457634e487b7160e01b600052603260045260246000fd5b60200101906001600160f81b031916908160001a90535060005b8451811015610ce757826004868381518110610b9a57634e487b7160e01b600052603260045260246000fd5b016020015182516001600160f81b031990911690911c60f81c908110610bd057634e487b7160e01b600052603260045260246000fd5b01602001516001600160f81b03191682610beb836002611092565b610bf690600261107a565b81518110610c1457634e487b7160e01b600052603260045260246000fd5b60200101906001600160f81b031916908160001a90535082858281518110610c4c57634e487b7160e01b600052603260045260246000fd5b602091010151815160f89190911c600f16908110610c7a57634e487b7160e01b600052603260045260246000fd5b01602001516001600160f81b03191682610c95836002611092565b610ca090600361107a565b81518110610cbe57634e487b7160e01b600052603260045260246000fd5b60200101906001600160f81b031916908160001a90535080610cdf81611134565b915050610b6e565b509392505050565b600080821215610d415760405162461bcd60e51b815260206004820181905260248201527f53616665436173743a2076616c7565206d75737420626520706f73697469766560448201526064016102c3565b5090565b600063ffffffff821115610d415760405162461bcd60e51b815260206004820152602660248201527f53616665436173743a2076616c756520646f65736e27742066697420696e203360448201526532206269747360d01b60648201526084016102c3565b600082601f830112610dba578081fd5b813567ffffffffffffffff811115610dd457610dd4611187565b604051610deb601f8301601f191660200182611107565b818152846020838601011115610dff578283fd5b816020850160208301379081016020019190915292915050565b600060208284031215610e2a578081fd5b81356001600160a01b0381168114610e40578182fd5b9392505050565b600060208284031215610e58578081fd5b813567ffffffffffffffff811115610e6e578182fd5b610e7a84828501610daa565b949350505050565b60008060408385031215610e94578081fd5b823567ffffffffffffffff811115610eaa578182fd5b610eb685828601610daa565b95602094909401359450505050565b60008060408385031215610ed7578182fd5b823567ffffffffffffffff80821115610eee578384fd5b610efa86838701610daa565b93506020850135915080821115610f0f578283fd5b50610f1c85828601610daa565b9150509250929050565b600060808284031215610f37578081fd5b604051610f43816110e1565b82518060070b8114610f53578283fd5b8152602083015167ffffffffffffffff81168114610f6f578283fd5b60208201526040830151600381900b8114610f88578283fd5b60408201526060928301519281019290925250919050565b60008151808452610fb88160208601602086016110b1565b601f01601f19169290920160200192915050565b60008251610fde8184602087016110b1565b9190910192915050565b8251815260208084015163ffffffff169082015260408084015190820152608060608201526000610e7a6080830184610fa0565b8351815260208085015163ffffffff16908201526040808501519082015282516060820152602083015163ffffffff166080820152604083015160a082015260e060c0820152600061107160e0830184610fa0565b95945050505050565b6000821982111561108d5761108d611171565b500190565b60008160001904831182151516156110ac576110ac611171565b500290565b60005b838110156110cc5781810151838201526020016110b4565b838111156110db576000848401525b50505050565b6080810181811067ffffffffffffffff8211171561110157611101611187565b60405250565b601f8201601f1916810167ffffffffffffffff8111828210171561112d5761112d611187565b6040525050565b600060001982141561114857611148611171565b5060010190565b60008160030b637fffffff1981141561116a5761116a611171565b9003919050565b634e487b7160e01b600052601160045260246000fd5b634e487b7160e01b600052604160045260246000fd5b600060033d11156111b257600481823e5160e01c5b90565b600060443d10156111c35790565b6040516003193d81016004833e81513d67ffffffffffffffff81602484011181841117156111f357505050505090565b828501915081518181111561120b5750505050505090565b843d87010160208285010111156112255750505050505090565b61123460208286010187611107565b50909594505050505056fea26469706673582212209c3ae7a5c983bb14ba04e0250aff0f96ad4e5271e9952430e1b86e8923484f0b64736f6c63430008040033",
  "devdoc": {
    "kind": "dev",
    "methods": {
      "acceptOwnership()": {
        "details": "The new owner accepts the ownership transfer."
      },
      "addFeedId(string,bytes32)": {
        "details": "The feed id is defined by the third-party oracle",
        "params": {
          "_feedId": "The feed id of the token price",
          "_pairName": "The price pair name (e.g. CORE/USDT  BTC/USDT)"
        }
      },
      "getEmaPriceByPairName(string)": {
        "params": {
          "_pairName": "The price pair name (e.g. CORE/USDT  BTC/USDT)"
        },
        "returns": {
          "err": "                Error message",
          "price": "              The EMA price of the price pair"
        }
      },
      "getEmaPricesByPairNames(string,string)": {
        "params": {
          "_pairName0": "The first price pair name (e.g. CORE/USDT  BTC/USDT)",
          "_pairName1": "The second price pair name (e.g. CORE/USDT  BTC/USDT)"
        },
        "returns": {
          "err": "                Error message",
          "price0": "             The EMA price of the first price pair",
          "price1": "             The EMA price of the second price pair"
        }
      },
      "getFeedId(string)": {
        "details": "The feed id is defined by the third-party oracle",
        "params": {
          "_pairName": "The price pair name (e.g. CORE/USDT  BTC/USDT)"
        },
        "returns": {
          "feedId": "             The feed id of the token price"
        }
      },
      "owner()": {
        "details": "Returns the address of the current owner."
      },
      "pendingOwner()": {
        "details": "Returns the address of the pending owner."
      },
      "renounceOwnership()": {
        "details": "Leaves the contract without owner. It will not be possible to call `onlyOwner` functions. Can only be called by the current owner. NOTE: Renouncing ownership will leave the contract without an owner, thereby disabling any functionality that is only available to the owner."
      },
      "setOracle(address)": {
        "details": "Only owner can call this",
        "params": {
          "_oracle": "The address of the third-party oracle contract (e.g. Pyth or Switchboard)"
        }
      },
      "transferOwnership(address)": {
        "details": "Starts the ownership transfer of the contract to a new account. Replaces the pending transfer if there is one. Can only be called by the current owner."
      }
    },
    "version": 1
  },
  "userdoc": {
    "kind": "user",
    "methods": {
      "addFeedId(string,bytes32)": {
        "notice": "Adds mapping between price pair name and feed id"
      },
      "getEmaPriceByPairName(string)": {
        "notice": "Get the EMA price of the tokens by pair name"
      },
      "getEmaPricesByPairNames(string,string)": {
        "notice": "Get the EMA prices of two tokens by their pair names"
      },
      "getFeedId(string)": {
        "notice": "Gets the feed id of the token price by price pair name"
      },
      "setOracle(address)": {
        "notice": "Sets oracle address"
      }
    },
    "version": 1
  },
  "storageLayout": {
    "storage": [
      {
        "astId": 2240,
        "contract": "contracts/oracle/price-proxy-impl/PythPriceProxy.sol:PythPriceProxy",
        "label": "_owner",
        "offset": 0,
        "slot": "0",
        "type": "t_address"
      },
      {
        "astId": 2353,
        "contract": "contracts/oracle/price-proxy-impl/PythPriceProxy.sol:PythPriceProxy",
        "label": "_pendingOwner",
        "offset": 0,
        "slot": "1",
        "type": "t_address"
      },
      {
        "astId": 19914,
        "contract": "contracts/oracle/price-proxy-impl/PythPriceProxy.sol:PythPriceProxy",
        "label": "oracle",
        "offset": 0,
        "slot": "2",
        "type": "t_address"
      },
      {
        "astId": 20175,
        "contract": "contracts/oracle/price-proxy-impl/PythPriceProxy.sol:PythPriceProxy",
        "label": "feedIdMap",
        "offset": 0,
        "slot": "3",
        "type": "t_mapping(t_string_memory_ptr,t_bytes32)"
      }
    ],
    "types": {
      "t_address": {
        "encoding": "inplace",
        "label": "address",
        "numberOfBytes": "20"
      },
      "t_bytes32": {
        "encoding": "inplace",
        "label": "bytes32",
        "numberOfBytes": "32"
      },
      "t_mapping(t_string_memory_ptr,t_bytes32)": {
        "encoding": "mapping",
        "key": "t_string_memory_ptr",
        "label": "mapping(string => bytes32)",
        "numberOfBytes": "32",
        "value": "t_bytes32"
      },
      "t_string_memory_ptr": {
        "encoding": "bytes",
        "label": "string",
        "numberOfBytes": "32"
      }
    }
  }
}